{
  "contractName": "ChainlinkNFT",
  "abi": [
    {
      "inputs": [],
      "stateMutability": "nonpayable",
      "type": "constructor"
    },
    {
      "anonymous": false,
      "inputs": [
        {
          "indexed": true,
          "internalType": "bytes32",
          "name": "id",
          "type": "bytes32"
        }
      ],
      "name": "ChainlinkCancelled",
      "type": "event"
    },
    {
      "anonymous": false,
      "inputs": [
        {
          "indexed": true,
          "internalType": "bytes32",
          "name": "id",
          "type": "bytes32"
        }
      ],
      "name": "ChainlinkFulfilled",
      "type": "event"
    },
    {
      "anonymous": false,
      "inputs": [
        {
          "indexed": true,
          "internalType": "bytes32",
          "name": "id",
          "type": "bytes32"
        }
      ],
      "name": "ChainlinkRequested",
      "type": "event"
    },
    {
      "anonymous": false,
      "inputs": [
        {
          "indexed": true,
          "internalType": "address",
          "name": "oldOwner",
          "type": "address"
        },
        {
          "indexed": true,
          "internalType": "address",
          "name": "newOwner",
          "type": "address"
        }
      ],
      "name": "OwnerSet",
      "type": "event"
    },
    {
      "anonymous": false,
      "inputs": [
        {
          "indexed": false,
          "internalType": "uint256",
          "name": "questComplete",
          "type": "uint256"
        }
      ],
      "name": "callbackRan",
      "type": "event"
    },
    {
      "inputs": [],
      "name": "allowMint",
      "outputs": [
        {
          "internalType": "uint256",
          "name": "",
          "type": "uint256"
        }
      ],
      "stateMutability": "view",
      "type": "function",
      "constant": true
    },
    {
      "inputs": [
        {
          "internalType": "address",
          "name": "newOwner",
          "type": "address"
        }
      ],
      "name": "changeOwner",
      "outputs": [],
      "stateMutability": "nonpayable",
      "type": "function"
    },
    {
      "inputs": [],
      "name": "getOwner",
      "outputs": [
        {
          "internalType": "address",
          "name": "",
          "type": "address"
        }
      ],
      "stateMutability": "view",
      "type": "function",
      "constant": true
    },
    {
      "stateMutability": "payable",
      "type": "receive",
      "payable": true
    },
    {
      "inputs": [
        {
          "internalType": "string",
          "name": "_newBase",
          "type": "string"
        }
      ],
      "name": "setBaseURI",
      "outputs": [],
      "stateMutability": "nonpayable",
      "type": "function"
    },
    {
      "inputs": [],
      "name": "getBaseURI",
      "outputs": [
        {
          "internalType": "string",
          "name": "",
          "type": "string"
        }
      ],
      "stateMutability": "view",
      "type": "function",
      "constant": true
    },
    {
      "inputs": [
        {
          "internalType": "address",
          "name": "_allowed",
          "type": "address"
        }
      ],
      "name": "addAllowedCaller",
      "outputs": [],
      "stateMutability": "nonpayable",
      "type": "function"
    },
    {
      "inputs": [
        {
          "internalType": "string",
          "name": "_did",
          "type": "string"
        },
        {
          "internalType": "string",
          "name": "_questName",
          "type": "string"
        }
      ],
      "name": "requestCeramicData",
      "outputs": [
        {
          "internalType": "bytes32",
          "name": "_requestId",
          "type": "bytes32"
        }
      ],
      "stateMutability": "nonpayable",
      "type": "function"
    },
    {
      "inputs": [
        {
          "internalType": "bytes32",
          "name": "_requestId",
          "type": "bytes32"
        },
        {
          "internalType": "uint256",
          "name": "_questComplete",
          "type": "uint256"
        }
      ],
      "name": "fulfillCeramicData",
      "outputs": [],
      "stateMutability": "nonpayable",
      "type": "function"
    }
  ],
  "bytecode": "0x608060405260016004553480156200001657600080fd5b5033600660006101000a81548173ffffffffffffffffffffffffffffffffffffffff021916908373ffffffffffffffffffffffffffffffffffffffff160217905550600660009054906101000a900473ffffffffffffffffffffffffffffffffffffffff1673ffffffffffffffffffffffffffffffffffffffff16600073ffffffffffffffffffffffffffffffffffffffff167f342827c97908e5e2f71151c08502a66d44b6f758e3ac2f1de95f02eb95f0a73560405160405180910390a3620000e56200017660201b60201c565b73f405b99aca8578b9eb989ee2b69d518aadb90c1f600760006101000a81548173ffffffffffffffffffffffffffffffffffffffff021916908373ffffffffffffffffffffffffffffffffffffffff1602179055507f633531363934653731666139343231376230663461373162326136623536356160088190555067016345785d8a0000600981905550620002fe565b6200021c73c89bd4e1632d3a43cb03aaad5262cbe4038bc57173ffffffffffffffffffffffffffffffffffffffff166338cc48316040518163ffffffff1660e01b815260040160206040518083038186803b158015620001d557600080fd5b505afa158015620001ea573d6000803e3d6000fd5b505050506040513d601f19601f8201168201806040525081019062000210919062000279565b6200021e60201b60201c565b565b80600260006101000a81548173ffffffffffffffffffffffffffffffffffffffff021916908373ffffffffffffffffffffffffffffffffffffffff16021790555050565b6000815190506200027381620002e4565b92915050565b600060208284031215620002925762000291620002df565b5b6000620002a28482850162000262565b91505092915050565b6000620002b882620002bf565b9050919050565b600073ffffffffffffffffffffffffffffffffffffffff82169050919050565b600080fd5b620002ef81620002ab565b8114620002fb57600080fd5b50565b612121806200030e6000396000f3fe60806040526004361061007f5760003560e01c8063714c53981161004e578063714c539814610145578063893d20e814610170578063a6f9dae11461019b578063b7d8e484146101c457610086565b80631b8dca741461008b578063414110b5146100b657806355f804b3146100f3578063613a7b481461011c57610086565b3661008657005b600080fd5b34801561009757600080fd5b506100a06101ed565b6040516100ad919061197a565b60405180910390f35b3480156100c257600080fd5b506100dd60048036038101906100d891906114df565b6101f3565b6040516100ea919061189d565b60405180910390f35b3480156100ff57600080fd5b5061011a60048036038101906101159190611496565b610495565b005b34801561012857600080fd5b50610143600480360381019061013e91906113fc565b61053f565b005b34801561015157600080fd5b5061015a6106b7565b60405161016791906118b8565b60405180910390f35b34801561017c57600080fd5b50610185610749565b60405161019291906117bf565b60405180910390f35b3480156101a757600080fd5b506101c260048036038101906101bd91906113fc565b610773565b005b3480156101d057600080fd5b506101eb60048036038101906101e69190611456565b6108c3565b005b600b5481565b6000600c60003373ffffffffffffffffffffffffffffffffffffffff1673ffffffffffffffffffffffffffffffffffffffff16815260200190815260200160002060009054906101000a900460ff16610281576040517f08c379a00000000000000000000000000000000000000000000000000000000081526004016102789061191a565b60405180910390fd5b60008383604051602001610296929190611785565b604051602081830303815290604052905060006102bd6008543063b7d8e48460e01b610a0b565b90506103936040518060400160405280600381526020017f6765740000000000000000000000000000000000000000000000000000000000815250600a805461030590611d67565b80601f016020809104026020016040519081016040528092919081815260200182805461033190611d67565b801561037e5780601f106103535761010080835404028352916020019161037e565b820191906000526020600020905b81548152906001019060200180831161036157829003601f168201915b505050505083610a3c9092919063ffffffff16565b6103dd6040518060400160405280600b81526020017f7175657279706172616d730000000000000000000000000000000000000000008152508383610a3c9092919063ffffffff16565b61045c6040518060400160405280600481526020017f70617468000000000000000000000000000000000000000000000000000000008152506040518060400160405280600d81526020017f7175657374436f6d706c6574650000000000000000000000000000000000000081525083610a3c9092919063ffffffff16565b61048b600760009054906101000a900473ffffffffffffffffffffffffffffffffffffffff1682600954610a6f565b9250505092915050565b600660009054906101000a900473ffffffffffffffffffffffffffffffffffffffff1673ffffffffffffffffffffffffffffffffffffffff163373ffffffffffffffffffffffffffffffffffffffff1614610525576040517f08c379a000000000000000000000000000000000000000000000000000000000815260040161051c906118da565b60405180910390fd5b80600a908051906020019061053b92919061120e565b5050565b600660009054906101000a900473ffffffffffffffffffffffffffffffffffffffff1673ffffffffffffffffffffffffffffffffffffffff163373ffffffffffffffffffffffffffffffffffffffff16146105cf576040517f08c379a00000000000000000000000000000000000000000000000000000000081526004016105c6906118da565b60405180910390fd5b600c60008273ffffffffffffffffffffffffffffffffffffffff1673ffffffffffffffffffffffffffffffffffffffff16815260200190815260200160002060009054906101000a900460ff161561065c576040517f08c379a00000000000000000000000000000000000000000000000000000000081526004016106539061195a565b60405180910390fd5b6001600c60008373ffffffffffffffffffffffffffffffffffffffff1673ffffffffffffffffffffffffffffffffffffffff16815260200190815260200160002060006101000a81548160ff02191690831515021790555050565b6060600a80546106c690611d67565b80601f01602080910402602001604051908101604052809291908181526020018280546106f290611d67565b801561073f5780601f106107145761010080835404028352916020019161073f565b820191906000526020600020905b81548152906001019060200180831161072257829003601f168201915b5050505050905090565b6000600660009054906101000a900473ffffffffffffffffffffffffffffffffffffffff16905090565b600660009054906101000a900473ffffffffffffffffffffffffffffffffffffffff1673ffffffffffffffffffffffffffffffffffffffff163373ffffffffffffffffffffffffffffffffffffffff1614610803576040517f08c379a00000000000000000000000000000000000000000000000000000000081526004016107fa906118da565b60405180910390fd5b8073ffffffffffffffffffffffffffffffffffffffff16600660009054906101000a900473ffffffffffffffffffffffffffffffffffffffff1673ffffffffffffffffffffffffffffffffffffffff167f342827c97908e5e2f71151c08502a66d44b6f758e3ac2f1de95f02eb95f0a73560405160405180910390a380600660006101000a81548173ffffffffffffffffffffffffffffffffffffffff021916908373ffffffffffffffffffffffffffffffffffffffff16021790555050565b816005600082815260200190815260200160002060009054906101000a900473ffffffffffffffffffffffffffffffffffffffff1673ffffffffffffffffffffffffffffffffffffffff163373ffffffffffffffffffffffffffffffffffffffff1614610965576040517f08c379a000000000000000000000000000000000000000000000000000000000815260040161095c9061193a565b60405180910390fd5b6005600082815260200190815260200160002060006101000a81549073ffffffffffffffffffffffffffffffffffffffff0219169055807f7cc135e0cebb02c3480ae5d74d377283180a2601f8f644edf7987b009316c63a60405160405180910390a281600b819055507f1d181fea3f2975242f69d19356403d97fee5ec8b3aadc7f7ef1af801a1ea65ee826040516109fe919061197a565b60405180910390a1505050565b610a13611294565b610a1b611294565b610a3285858584610a8f909392919063ffffffff16565b9150509392505050565b610a53828460800151610b3f90919063ffffffff16565b610a6a818460800151610b3f90919063ffffffff16565b505050565b6000610a868484846001634042994660e01b610b64565b90509392505050565b610a97611294565b610aa78560800151610100610dcc565b508385600001818152505082856020019073ffffffffffffffffffffffffffffffffffffffff16908173ffffffffffffffffffffffffffffffffffffffff16815250508185604001907bffffffffffffffffffffffffffffffffffffffffffffffffffffffff191690817bffffffffffffffffffffffffffffffffffffffffffffffffffffffff191681525050849050949350505050565b610b4c8260038351610e36565b610b5f8183610f7b90919063ffffffff16565b505050565b600030600454604051602001610b7b929190611759565b604051602081830303815290604052805190602001209050600454856060018181525050856005600083815260200190815260200160002060006101000a81548173ffffffffffffffffffffffffffffffffffffffff021916908373ffffffffffffffffffffffffffffffffffffffff160217905550807fb5e6e01e79f91267dc17b4e6314d5d4d03593d2ceee0fbb452b750bd70ea5af960405160405180910390a2600082600080886000015189602001518a604001518b606001518a8d6080015160000151604051602401610c599897969594939291906117da565b604051602081830303815290604052907bffffffffffffffffffffffffffffffffffffffffffffffffffffffff19166020820180517bffffffffffffffffffffffffffffffffffffffffffffffffffffffff83818316178352505050509050600260009054906101000a900473ffffffffffffffffffffffffffffffffffffffff1673ffffffffffffffffffffffffffffffffffffffff16634000aea08887846040518463ffffffff1660e01b8152600401610d179392919061185f565b602060405180830381600087803b158015610d3157600080fd5b505af1158015610d45573d6000803e3d6000fd5b505050506040513d601f19601f82011682018060405250810190610d699190611429565b610da8576040517f08c379a0000000000000000000000000000000000000000000000000000000008152600401610d9f906118fa565b60405180910390fd5b600160046000828254610dbb9190611a2e565b925050819055505095945050505050565b610dd4611301565b6000602083610de39190611df8565b14610e0f57602082610df59190611df8565b6020610e019190611c4f565b82610e0c9190611a2e565b91505b81836020018181525050604051808452600081528281016020016040525082905092915050565b60178111610e6357610e5d8160058460ff16901b60ff161784610f9d90919063ffffffff16565b50610f76565b60ff8111610ea557610e88601860058460ff16901b1784610f9d90919063ffffffff16565b50610e9f81600185610fbd9092919063ffffffff16565b50610f75565b61ffff8111610ee857610ecb601960058460ff16901b1784610f9d90919063ffffffff16565b50610ee281600285610fbd9092919063ffffffff16565b50610f74565b63ffffffff8111610f2d57610f10601a60058460ff16901b1784610f9d90919063ffffffff16565b50610f2781600485610fbd9092919063ffffffff16565b50610f73565b67ffffffffffffffff8111610f7257610f59601b60058460ff16901b1784610f9d90919063ffffffff16565b50610f7081600885610fbd9092919063ffffffff16565b505b5b5b5b5b505050565b610f83611301565b610f9583846000015151848551610fdf565b905092915050565b610fa5611301565b610fb583846000015151846110e9565b905092915050565b610fc5611301565b610fd6848560000151518585611140565b90509392505050565b610fe7611301565b8251821115610ff557600080fd5b846020015182856110069190611a2e565b111561103b5761103a85600261102b886020015188876110269190611a2e565b6111ce565b6110359190611bf5565b6111ea565b5b60008086518051876020830101935080888701111561105a5787860182525b60208701925050505b602084106110a1578051825260208261107c9190611a2e565b915060208161108b9190611a2e565b905060208461109a9190611c4f565b9350611063565b600060018560206110b29190611c4f565b6101006110bf9190611ad7565b6110c99190611c4f565b905080198251168184511681811785525050879350505050949350505050565b6110f1611301565b836020015183106111175761111684600286602001516111119190611bf5565b6111ea565b5b8351805160208583010184815381861415611133576001820183525b5050508390509392505050565b611148611301565b846020015184836111599190611a2e565b11156111815761118085600286856111719190611a2e565b61117b9190611bf5565b6111ea565b5b60006001836101006111939190611ad7565b61119d9190611c4f565b905085518386820101858319825116178152815185880111156111c05784870182525b505085915050949350505050565b6000818311156111e0578290506111e4565b8190505b92915050565b6000826000015190506111fd8383610dcc565b506112088382610f7b565b50505050565b82805461121a90611d67565b90600052602060002090601f01602090048101928261123c5760008555611283565b82601f1061125557805160ff1916838001178555611283565b82800160010185558215611283579182015b82811115611282578251825591602001919060010190611267565b5b509050611290919061131b565b5090565b6040518060a0016040528060008019168152602001600073ffffffffffffffffffffffffffffffffffffffff16815260200160007bffffffffffffffffffffffffffffffffffffffffffffffffffffffff19168152602001600081526020016112fb611301565b81525090565b604051806040016040528060608152602001600081525090565b5b8082111561133457600081600090555060010161131c565b5090565b600061134b611346846119ba565b611995565b90508281526020810184848401111561136757611366611eea565b5b611372848285611d25565b509392505050565b6000813590506113898161208f565b92915050565b60008151905061139e816120a6565b92915050565b6000813590506113b3816120bd565b92915050565b600082601f8301126113ce576113cd611ee5565b5b81356113de848260208601611338565b91505092915050565b6000813590506113f6816120d4565b92915050565b60006020828403121561141257611411611ef4565b5b60006114208482850161137a565b91505092915050565b60006020828403121561143f5761143e611ef4565b5b600061144d8482850161138f565b91505092915050565b6000806040838503121561146d5761146c611ef4565b5b600061147b858286016113a4565b925050602061148c858286016113e7565b9150509250929050565b6000602082840312156114ac576114ab611ef4565b5b600082013567ffffffffffffffff8111156114ca576114c9611eef565b5b6114d6848285016113b9565b91505092915050565b600080604083850312156114f6576114f5611ef4565b5b600083013567ffffffffffffffff81111561151457611513611eef565b5b611520858286016113b9565b925050602083013567ffffffffffffffff81111561154157611540611eef565b5b61154d858286016113b9565b9150509250929050565b61156081611c83565b82525050565b61156f81611ca1565b82525050565b61157e81611cab565b82525050565b600061158f826119eb565b6115998185611a01565b93506115a9818560208601611d34565b6115b281611ef9565b840191505092915050565b6115ce6115c982611d01565b611dca565b82525050565b60006115df826119f6565b6115e98185611a12565b93506115f9818560208601611d34565b61160281611ef9565b840191505092915050565b6000611618826119f6565b6116228185611a23565b9350611632818560208601611d34565b80840191505092915050565b600061164b600583611a23565b915061165682611f24565b600582019050919050565b600061166e601383611a12565b915061167982611f4d565b602082019050919050565b6000611691602383611a12565b915061169c82611f76565b604082019050919050565b60006116b4600783611a23565b91506116bf82611fc5565b600782019050919050565b60006116d7601e83611a12565b91506116e282611fee565b602082019050919050565b60006116fa602883611a12565b915061170582612017565b604082019050919050565b600061171d601e83611a12565b915061172882612066565b602082019050919050565b61173c81611cf7565b82525050565b61175361174e82611cf7565b611dee565b82525050565b600061176582856115bd565b6014820191506117758284611742565b6020820191508190509392505050565b60006117908261163e565b915061179c828561160d565b91506117a7826116a7565b91506117b3828461160d565b91508190509392505050565b60006020820190506117d46000830184611557565b92915050565b6000610100820190506117f0600083018b611557565b6117fd602083018a611733565b61180a6040830189611566565b6118176060830188611557565b6118246080830187611575565b61183160a0830186611733565b61183e60c0830185611733565b81810360e08301526118508184611584565b90509998505050505050505050565b60006060820190506118746000830186611557565b6118816020830185611733565b81810360408301526118938184611584565b9050949350505050565b60006020820190506118b26000830184611566565b92915050565b600060208201905081810360008301526118d281846115d4565b905092915050565b600060208201905081810360008301526118f381611661565b9050919050565b6000602082019050818103600083015261191381611684565b9050919050565b60006020820190508181036000830152611933816116ca565b9050919050565b60006020820190508181036000830152611953816116ed565b9050919050565b6000602082019050818103600083015261197381611710565b9050919050565b600060208201905061198f6000830184611733565b92915050565b600061199f6119b0565b90506119ab8282611d99565b919050565b6000604051905090565b600067ffffffffffffffff8211156119d5576119d4611eb6565b5b6119de82611ef9565b9050602081019050919050565b600081519050919050565b600081519050919050565b600082825260208201905092915050565b600082825260208201905092915050565b600081905092915050565b6000611a3982611cf7565b9150611a4483611cf7565b9250827fffffffffffffffffffffffffffffffffffffffffffffffffffffffffffffffff03821115611a7957611a78611e29565b5b828201905092915050565b6000808291508390505b6001851115611ace57808604811115611aaa57611aa9611e29565b5b6001851615611ab95780820291505b8081029050611ac785611f17565b9450611a8e565b94509492505050565b6000611ae282611cf7565b9150611aed83611cf7565b9250611b1a7fffffffffffffffffffffffffffffffffffffffffffffffffffffffffffffffff8484611b22565b905092915050565b600082611b325760019050611bee565b81611b405760009050611bee565b8160018114611b565760028114611b6057611b8f565b6001915050611bee565b60ff841115611b7257611b71611e29565b5b8360020a915084821115611b8957611b88611e29565b5b50611bee565b5060208310610133831016604e8410600b8410161715611bc45782820a905083811115611bbf57611bbe611e29565b5b611bee565b611bd18484846001611a84565b92509050818404811115611be857611be7611e29565b5b81810290505b9392505050565b6000611c0082611cf7565b9150611c0b83611cf7565b9250817fffffffffffffffffffffffffffffffffffffffffffffffffffffffffffffffff0483118215151615611c4457611c43611e29565b5b828202905092915050565b6000611c5a82611cf7565b9150611c6583611cf7565b925082821015611c7857611c77611e29565b5b828203905092915050565b6000611c8e82611cd7565b9050919050565b60008115159050919050565b6000819050919050565b60007fffffffff0000000000000000000000000000000000000000000000000000000082169050919050565b600073ffffffffffffffffffffffffffffffffffffffff82169050919050565b6000819050919050565b6000611d0c82611d13565b9050919050565b6000611d1e82611cd7565b9050919050565b82818337600083830152505050565b60005b83811015611d52578082015181840152602081019050611d37565b83811115611d61576000848401525b50505050565b60006002820490506001821680611d7f57607f821691505b60208210811415611d9357611d92611e87565b5b50919050565b611da282611ef9565b810181811067ffffffffffffffff82111715611dc157611dc0611eb6565b5b80604052505050565b6000611dd582611ddc565b9050919050565b6000611de782611f0a565b9050919050565b6000819050919050565b6000611e0382611cf7565b9150611e0e83611cf7565b925082611e1e57611e1d611e58565b5b828206905092915050565b7f4e487b7100000000000000000000000000000000000000000000000000000000600052601160045260246000fd5b7f4e487b7100000000000000000000000000000000000000000000000000000000600052601260045260246000fd5b7f4e487b7100000000000000000000000000000000000000000000000000000000600052602260045260246000fd5b7f4e487b7100000000000000000000000000000000000000000000000000000000600052604160045260246000fd5b600080fd5b600080fd5b600080fd5b600080fd5b6000601f19601f8301169050919050565b60008160601b9050919050565b60008160011c9050919050565b7f3f6469643d000000000000000000000000000000000000000000000000000000600082015250565b7f43616c6c6572206973206e6f74206f776e657200000000000000000000000000600082015250565b7f756e61626c6520746f207472616e73666572416e6443616c6c20746f206f726160008201527f636c650000000000000000000000000000000000000000000000000000000000602082015250565b7f2671756573743d00000000000000000000000000000000000000000000000000600082015250565b7f6f6e6c792071756573744e4654436f6e74726163742063616e2063616c6c0000600082015250565b7f536f75726365206d75737420626520746865206f7261636c65206f662074686560008201527f2072657175657374000000000000000000000000000000000000000000000000602082015250565b7f6164647265737320616c726561647920616c6c6f7765642063616c6c65720000600082015250565b61209881611c83565b81146120a357600080fd5b50565b6120af81611c95565b81146120ba57600080fd5b50565b6120c681611ca1565b81146120d157600080fd5b50565b6120dd81611cf7565b81146120e857600080fd5b5056fea2646970667358221220073931803050dbc2f9b9c822a3d76a15aad45e9bfc7023ed1b76a2428111dbc064736f6c63430008060033",
  "immutableReferences": {},
  "source": "pragma solidity >=0.5.0 <0.9.0;\n\n/**\n * @title ChainlinkNFT\n * @dev Contract for calling chainlink when verifying NFT Mint requests\n*/\n\nimport \"@chainlink/contracts/src/v0.8/ChainlinkClient.sol\";\nimport \"./Ownable.sol\";\nimport \"./QuestCompleteNFT.sol\";\n\ncontract ChainlinkNFT is ChainlinkClient, Ownable{\n    using Chainlink for Chainlink.Request;\n\n    address private oracle;\n    bytes32 private jobId;\n    uint256 private fee;\n    string private baseURI;\n    uint public allowMint;\n    mapping (address => bool) allowedCaller;\n    QuestCompleteNFT questContract;\n\n    event callbackRan(uint questComplete);\n\n    /**\n     * Network: Matic Mumbai Testnet\n     * Oracle: 0x58bbdbfb6fca3129b91f0dbe372098123b38b5e9\n     * Job ID: da20aae0e4c843f6949e5cb3f7cfe8c4\n     * LINK address: 0x326C977E6efc84E512bB9C30f76E30c160eD06FB\n     * Fee: 0.01 LINK\n     */\n    \n    /*\n    constructor() public {\n    \tsetChainlinkToken(0x326C977E6efc84E512bB9C30f76E30c160eD06FB);\n        //setPublicChainlinkToken();\n        oracle = 0xb33D8A4e62236eA91F3a8fD7ab15A95B9B7eEc7D; //0xc8D925525CA8759812d0c299B90247917d4d4b7C; //0x58BBDbfb6fca3129b91f0DBE372098123B38B5e9; \n        jobId = \"da20aae0e4c843f6949e5cb3f7cfe8c4\"; \n        fee = 10 ** 16; // 0.01 LINK\n    }\n    */\n    \n\n    /**\n     * Network: Kovan\n     * Oracle: 0xF405B99ACa8578B9eb989ee2b69D518aaDb90c1F\n     * Job ID: c51694e71fa94217b0f4a71b2a6b565a\n     * Fee: 0.1 LINK\n     */\n\n     \n    constructor() public {\n        setPublicChainlinkToken();\n        //setChainlinkToken(0xa36085F69e2889c224210F603D836748e7dC0088);\n        oracle = 0xF405B99ACa8578B9eb989ee2b69D518aaDb90c1F;\n        jobId = \"c51694e71fa94217b0f4a71b2a6b565a\";\n        fee = 10 ** 17; // (Varies by network and job)\n    }\n\n    \n\n    receive() external payable {\n\n    }\n\n    function setBaseURI(string memory _newBase) public isOwner{\n        baseURI = _newBase;\n    }\n\n    function getBaseURI() public view returns(string memory){\n        return baseURI;\n    }\n\n    function addAllowedCaller(address _allowed) public isOwner{\n        require(!allowedCaller[_allowed], \"address already allowed caller\");\n        allowedCaller[_allowed] = true;\n    }\n\n    function requestCeramicData(string memory _did, string memory _questName) public returns (bytes32 _requestId){\n        require(allowedCaller[msg.sender], \"only questNFTContract can call\");\n        string memory paramString = string(abi.encodePacked(\"?did=\", _did, \"&quest=\", _questName));\n    \tChainlink.Request memory req = buildChainlinkRequest(jobId, address(this), this.fulfillCeramicData.selector);\n    \treq.add(\"get\", baseURI); //this is API endpoint for server.js or later our server endpoint in cloud or fleek/ENS\n    \treq.add(\"queryparams\", paramString);\n        req.add(\"path\", \"questComplete\");\n\n        return sendChainlinkRequestTo(oracle, req, fee);\n    }\n\n    /**\n     * Callback function\n     */\n    function fulfillCeramicData(bytes32 _requestId, uint256 _questComplete) public recordChainlinkFulfillment(_requestId) {\n    \tallowMint = _questComplete;\n        if(_questComplete==1){\n\n        }\n        emit callbackRan(_questComplete);\n    }\n}",
  "sourcePath": "/home/jpick713/BlockChain_Apps/nftIPFS/contracts/ChainlinkNFT.sol",
  "compiler": {
    "name": "solc",
    "version": "0.8.6+commit.11564f7e.Emscripten.clang"
  },
  "schemaVersion": "3.4.2",
  "updatedAt": "2021-09-29T02:54:33.158Z",
  "networkType": "ethereum",
  "devdoc": {
    "kind": "dev",
    "methods": {
      "changeOwner(address)": {
        "details": "Change owner",
        "params": {
          "newOwner": "address of new owner"
        }
      },
      "getOwner()": {
        "details": "Return owner address ",
        "returns": {
          "_0": "address of owner"
        }
      }
    },
    "version": 1
  },
  "userdoc": {
    "kind": "user",
    "methods": {
      "constructor": {
        "notice": "Network: Kovan Oracle: 0xF405B99ACa8578B9eb989ee2b69D518aaDb90c1F Job ID: c51694e71fa94217b0f4a71b2a6b565a Fee: 0.1 LINK"
      },
      "fulfillCeramicData(bytes32,uint256)": {
        "notice": "Callback function"
      }
    },
    "version": 1
  }
}