{
  "contractName": "ChainlinkNFT",
  "abi": [
    {
      "inputs": [],
      "stateMutability": "nonpayable",
      "type": "constructor"
    },
    {
      "anonymous": false,
      "inputs": [
        {
          "indexed": true,
          "internalType": "bytes32",
          "name": "id",
          "type": "bytes32"
        }
      ],
      "name": "ChainlinkCancelled",
      "type": "event"
    },
    {
      "anonymous": false,
      "inputs": [
        {
          "indexed": true,
          "internalType": "bytes32",
          "name": "id",
          "type": "bytes32"
        }
      ],
      "name": "ChainlinkFulfilled",
      "type": "event"
    },
    {
      "anonymous": false,
      "inputs": [
        {
          "indexed": true,
          "internalType": "bytes32",
          "name": "id",
          "type": "bytes32"
        }
      ],
      "name": "ChainlinkRequested",
      "type": "event"
    },
    {
      "anonymous": false,
      "inputs": [
        {
          "indexed": true,
          "internalType": "address",
          "name": "oldOwner",
          "type": "address"
        },
        {
          "indexed": true,
          "internalType": "address",
          "name": "newOwner",
          "type": "address"
        }
      ],
      "name": "OwnerSet",
      "type": "event"
    },
    {
      "inputs": [],
      "name": "allowMint",
      "outputs": [
        {
          "internalType": "uint256",
          "name": "",
          "type": "uint256"
        }
      ],
      "stateMutability": "view",
      "type": "function",
      "constant": true
    },
    {
      "inputs": [
        {
          "internalType": "address",
          "name": "newOwner",
          "type": "address"
        }
      ],
      "name": "changeOwner",
      "outputs": [],
      "stateMutability": "nonpayable",
      "type": "function"
    },
    {
      "inputs": [],
      "name": "getOwner",
      "outputs": [
        {
          "internalType": "address",
          "name": "",
          "type": "address"
        }
      ],
      "stateMutability": "view",
      "type": "function",
      "constant": true
    },
    {
      "inputs": [
        {
          "internalType": "string",
          "name": "_newBase",
          "type": "string"
        }
      ],
      "name": "setBaseURI",
      "outputs": [],
      "stateMutability": "nonpayable",
      "type": "function"
    },
    {
      "inputs": [
        {
          "internalType": "string",
          "name": "_did",
          "type": "string"
        },
        {
          "internalType": "string",
          "name": "_questName",
          "type": "string"
        }
      ],
      "name": "requestCeramicData",
      "outputs": [
        {
          "internalType": "bytes32",
          "name": "_requestId",
          "type": "bytes32"
        }
      ],
      "stateMutability": "nonpayable",
      "type": "function"
    },
    {
      "inputs": [
        {
          "internalType": "bytes32",
          "name": "_requestId",
          "type": "bytes32"
        },
        {
          "internalType": "uint256",
          "name": "_questComplete",
          "type": "uint256"
        }
      ],
      "name": "fulfillCeramicData",
      "outputs": [],
      "stateMutability": "nonpayable",
      "type": "function"
    }
  ],
  "bytecode": "0x6080604052600160045534801561001557600080fd5b5033600660006101000a81548173ffffffffffffffffffffffffffffffffffffffff021916908373ffffffffffffffffffffffffffffffffffffffff160217905550600660009054906101000a900473ffffffffffffffffffffffffffffffffffffffff1673ffffffffffffffffffffffffffffffffffffffff16600073ffffffffffffffffffffffffffffffffffffffff167f342827c97908e5e2f71151c08502a66d44b6f758e3ac2f1de95f02eb95f0a73560405160405180910390a36100f773326c977e6efc84e512bb9c30f76e30c160ed06fb61018660201b60201c565b73c8d925525ca8759812d0c299b90247917d4d4b7c600760006101000a81548173ffffffffffffffffffffffffffffffffffffffff021916908373ffffffffffffffffffffffffffffffffffffffff1602179055507f6461323061616530653463383433663639343965356362336637636665386334600881905550662386f26fc100006009819055506101ca565b80600260006101000a81548173ffffffffffffffffffffffffffffffffffffffff021916908373ffffffffffffffffffffffffffffffffffffffff16021790555050565b611c5a806101d96000396000f3fe608060405234801561001057600080fd5b50600436106100625760003560e01c80631b8dca7414610067578063414110b51461008557806355f804b3146100b5578063893d20e8146100d1578063a6f9dae1146100ef578063b7d8e4841461010b575b600080fd5b61006f610127565b60405161007c9190611505565b60405180910390f35b61009f600480360381019061009a919061114b565b61012d565b6040516100ac919061148a565b60405180910390f35b6100cf60048036038101906100ca9190611102565b610342565b005b6100d96103ec565b6040516100e691906113ac565b60405180910390f35b61010960048036038101906101049190611068565b610416565b005b610125600480360381019061012091906110c2565b610566565b005b600b5481565b6000808383604051602001610143929190611372565b6040516020818303038152906040529050600061016a6008543063b7d8e48460e01b610677565b90506102406040518060400160405280600381526020017f6765740000000000000000000000000000000000000000000000000000000000815250600a80546101b2906118f2565b80601f01602080910402602001604051908101604052809291908181526020018280546101de906118f2565b801561022b5780601f106102005761010080835404028352916020019161022b565b820191906000526020600020905b81548152906001019060200180831161020e57829003601f168201915b5050505050836106a89092919063ffffffff16565b61028a6040518060400160405280600b81526020017f7175657279706172616d7300000000000000000000000000000000000000000081525083836106a89092919063ffffffff16565b6103096040518060400160405280600481526020017f70617468000000000000000000000000000000000000000000000000000000008152506040518060400160405280600d81526020017f7175657374436f6d706c65746500000000000000000000000000000000000000815250836106a89092919063ffffffff16565b610338600760009054906101000a900473ffffffffffffffffffffffffffffffffffffffff16826009546106db565b9250505092915050565b600660009054906101000a900473ffffffffffffffffffffffffffffffffffffffff1673ffffffffffffffffffffffffffffffffffffffff163373ffffffffffffffffffffffffffffffffffffffff16146103d2576040517f08c379a00000000000000000000000000000000000000000000000000000000081526004016103c9906114a5565b60405180910390fd5b80600a90805190602001906103e8929190610e7a565b5050565b6000600660009054906101000a900473ffffffffffffffffffffffffffffffffffffffff16905090565b600660009054906101000a900473ffffffffffffffffffffffffffffffffffffffff1673ffffffffffffffffffffffffffffffffffffffff163373ffffffffffffffffffffffffffffffffffffffff16146104a6576040517f08c379a000000000000000000000000000000000000000000000000000000000815260040161049d906114a5565b60405180910390fd5b8073ffffffffffffffffffffffffffffffffffffffff16600660009054906101000a900473ffffffffffffffffffffffffffffffffffffffff1673ffffffffffffffffffffffffffffffffffffffff167f342827c97908e5e2f71151c08502a66d44b6f758e3ac2f1de95f02eb95f0a73560405160405180910390a380600660006101000a81548173ffffffffffffffffffffffffffffffffffffffff021916908373ffffffffffffffffffffffffffffffffffffffff16021790555050565b816005600082815260200190815260200160002060009054906101000a900473ffffffffffffffffffffffffffffffffffffffff1673ffffffffffffffffffffffffffffffffffffffff163373ffffffffffffffffffffffffffffffffffffffff1614610608576040517f08c379a00000000000000000000000000000000000000000000000000000000081526004016105ff906114e5565b60405180910390fd5b6005600082815260200190815260200160002060006101000a81549073ffffffffffffffffffffffffffffffffffffffff0219169055807f7cc135e0cebb02c3480ae5d74d377283180a2601f8f644edf7987b009316c63a60405160405180910390a281600b81905550505050565b61067f610f00565b610687610f00565b61069e858585846106fb909392919063ffffffff16565b9150509392505050565b6106bf8284608001516107ab90919063ffffffff16565b6106d68184608001516107ab90919063ffffffff16565b505050565b60006106f28484846001634042994660e01b6107d0565b90509392505050565b610703610f00565b6107138560800151610100610a38565b508385600001818152505082856020019073ffffffffffffffffffffffffffffffffffffffff16908173ffffffffffffffffffffffffffffffffffffffff16815250508185604001907bffffffffffffffffffffffffffffffffffffffffffffffffffffffff191690817bffffffffffffffffffffffffffffffffffffffffffffffffffffffff191681525050849050949350505050565b6107b88260038351610aa2565b6107cb8183610be790919063ffffffff16565b505050565b6000306004546040516020016107e7929190611346565b604051602081830303815290604052805190602001209050600454856060018181525050856005600083815260200190815260200160002060006101000a81548173ffffffffffffffffffffffffffffffffffffffff021916908373ffffffffffffffffffffffffffffffffffffffff160217905550807fb5e6e01e79f91267dc17b4e6314d5d4d03593d2ceee0fbb452b750bd70ea5af960405160405180910390a2600082600080886000015189602001518a604001518b606001518a8d60800151600001516040516024016108c59897969594939291906113c7565b604051602081830303815290604052907bffffffffffffffffffffffffffffffffffffffffffffffffffffffff19166020820180517bffffffffffffffffffffffffffffffffffffffffffffffffffffffff83818316178352505050509050600260009054906101000a900473ffffffffffffffffffffffffffffffffffffffff1673ffffffffffffffffffffffffffffffffffffffff16634000aea08887846040518463ffffffff1660e01b81526004016109839392919061144c565b602060405180830381600087803b15801561099d57600080fd5b505af11580156109b1573d6000803e3d6000fd5b505050506040513d601f19601f820116820180604052508101906109d59190611095565b610a14576040517f08c379a0000000000000000000000000000000000000000000000000000000008152600401610a0b906114c5565b60405180910390fd5b600160046000828254610a2791906115b9565b925050819055505095945050505050565b610a40610f6d565b6000602083610a4f9190611983565b14610a7b57602082610a619190611983565b6020610a6d91906117da565b82610a7891906115b9565b91505b81836020018181525050604051808452600081528281016020016040525082905092915050565b60178111610acf57610ac98160058460ff16901b60ff161784610c0990919063ffffffff16565b50610be2565b60ff8111610b1157610af4601860058460ff16901b1784610c0990919063ffffffff16565b50610b0b81600185610c299092919063ffffffff16565b50610be1565b61ffff8111610b5457610b37601960058460ff16901b1784610c0990919063ffffffff16565b50610b4e81600285610c299092919063ffffffff16565b50610be0565b63ffffffff8111610b9957610b7c601a60058460ff16901b1784610c0990919063ffffffff16565b50610b9381600485610c299092919063ffffffff16565b50610bdf565b67ffffffffffffffff8111610bde57610bc5601b60058460ff16901b1784610c0990919063ffffffff16565b50610bdc81600885610c299092919063ffffffff16565b505b5b5b5b5b505050565b610bef610f6d565b610c0183846000015151848551610c4b565b905092915050565b610c11610f6d565b610c218384600001515184610d55565b905092915050565b610c31610f6d565b610c42848560000151518585610dac565b90509392505050565b610c53610f6d565b8251821115610c6157600080fd5b84602001518285610c7291906115b9565b1115610ca757610ca6856002610c9788602001518887610c9291906115b9565b610e3a565b610ca19190611780565b610e56565b5b600080865180518760208301019350808887011115610cc65787860182525b60208701925050505b60208410610d0d5780518252602082610ce891906115b9565b9150602081610cf791906115b9565b9050602084610d0691906117da565b9350610ccf565b60006001856020610d1e91906117da565b610100610d2b9190611662565b610d3591906117da565b905080198251168184511681811785525050879350505050949350505050565b610d5d610f6d565b83602001518310610d8357610d828460028660200151610d7d9190611780565b610e56565b5b8351805160208583010184815381861415610d9f576001820183525b5050508390509392505050565b610db4610f6d565b84602001518483610dc591906115b9565b1115610ded57610dec8560028685610ddd91906115b9565b610de79190611780565b610e56565b5b6000600183610100610dff9190611662565b610e0991906117da565b90508551838682010185831982511617815281518588011115610e2c5784870182525b505085915050949350505050565b600081831115610e4c57829050610e50565b8190505b92915050565b600082600001519050610e698383610a38565b50610e748382610be7565b50505050565b828054610e86906118f2565b90600052602060002090601f016020900481019282610ea85760008555610eef565b82601f10610ec157805160ff1916838001178555610eef565b82800160010185558215610eef579182015b82811115610eee578251825591602001919060010190610ed3565b5b509050610efc9190610f87565b5090565b6040518060a0016040528060008019168152602001600073ffffffffffffffffffffffffffffffffffffffff16815260200160007bffffffffffffffffffffffffffffffffffffffffffffffffffffffff1916815260200160008152602001610f67610f6d565b81525090565b604051806040016040528060608152602001600081525090565b5b80821115610fa0576000816000905550600101610f88565b5090565b6000610fb7610fb284611545565b611520565b905082815260208101848484011115610fd357610fd2611a75565b5b610fde8482856118b0565b509392505050565b600081359050610ff581611bc8565b92915050565b60008151905061100a81611bdf565b92915050565b60008135905061101f81611bf6565b92915050565b600082601f83011261103a57611039611a70565b5b813561104a848260208601610fa4565b91505092915050565b60008135905061106281611c0d565b92915050565b60006020828403121561107e5761107d611a7f565b5b600061108c84828501610fe6565b91505092915050565b6000602082840312156110ab576110aa611a7f565b5b60006110b984828501610ffb565b91505092915050565b600080604083850312156110d9576110d8611a7f565b5b60006110e785828601611010565b92505060206110f885828601611053565b9150509250929050565b60006020828403121561111857611117611a7f565b5b600082013567ffffffffffffffff81111561113657611135611a7a565b5b61114284828501611025565b91505092915050565b6000806040838503121561116257611161611a7f565b5b600083013567ffffffffffffffff8111156111805761117f611a7a565b5b61118c85828601611025565b925050602083013567ffffffffffffffff8111156111ad576111ac611a7a565b5b6111b985828601611025565b9150509250929050565b6111cc8161180e565b82525050565b6111db8161182c565b82525050565b6111ea81611836565b82525050565b60006111fb82611576565b611205818561158c565b93506112158185602086016118bf565b61121e81611a84565b840191505092915050565b61123a6112358261188c565b611955565b82525050565b600061124b82611581565b61125581856115ae565b93506112658185602086016118bf565b80840191505092915050565b600061127e6005836115ae565b915061128982611aaf565b600582019050919050565b60006112a160138361159d565b91506112ac82611ad8565b602082019050919050565b60006112c460238361159d565b91506112cf82611b01565b604082019050919050565b60006112e76007836115ae565b91506112f282611b50565b600782019050919050565b600061130a60288361159d565b915061131582611b79565b604082019050919050565b61132981611882565b82525050565b61134061133b82611882565b611979565b82525050565b60006113528285611229565b601482019150611362828461132f565b6020820191508190509392505050565b600061137d82611271565b91506113898285611240565b9150611394826112da565b91506113a08284611240565b91508190509392505050565b60006020820190506113c160008301846111c3565b92915050565b6000610100820190506113dd600083018b6111c3565b6113ea602083018a611320565b6113f760408301896111d2565b61140460608301886111c3565b61141160808301876111e1565b61141e60a0830186611320565b61142b60c0830185611320565b81810360e083015261143d81846111f0565b90509998505050505050505050565b600060608201905061146160008301866111c3565b61146e6020830185611320565b818103604083015261148081846111f0565b9050949350505050565b600060208201905061149f60008301846111d2565b92915050565b600060208201905081810360008301526114be81611294565b9050919050565b600060208201905081810360008301526114de816112b7565b9050919050565b600060208201905081810360008301526114fe816112fd565b9050919050565b600060208201905061151a6000830184611320565b92915050565b600061152a61153b565b90506115368282611924565b919050565b6000604051905090565b600067ffffffffffffffff8211156115605761155f611a41565b5b61156982611a84565b9050602081019050919050565b600081519050919050565b600081519050919050565b600082825260208201905092915050565b600082825260208201905092915050565b600081905092915050565b60006115c482611882565b91506115cf83611882565b9250827fffffffffffffffffffffffffffffffffffffffffffffffffffffffffffffffff03821115611604576116036119b4565b5b828201905092915050565b6000808291508390505b600185111561165957808604811115611635576116346119b4565b5b60018516156116445780820291505b808102905061165285611aa2565b9450611619565b94509492505050565b600061166d82611882565b915061167883611882565b92506116a57fffffffffffffffffffffffffffffffffffffffffffffffffffffffffffffffff84846116ad565b905092915050565b6000826116bd5760019050611779565b816116cb5760009050611779565b81600181146116e157600281146116eb5761171a565b6001915050611779565b60ff8411156116fd576116fc6119b4565b5b8360020a915084821115611714576117136119b4565b5b50611779565b5060208310610133831016604e8410600b841016171561174f5782820a90508381111561174a576117496119b4565b5b611779565b61175c848484600161160f565b92509050818404811115611773576117726119b4565b5b81810290505b9392505050565b600061178b82611882565b915061179683611882565b9250817fffffffffffffffffffffffffffffffffffffffffffffffffffffffffffffffff04831182151516156117cf576117ce6119b4565b5b828202905092915050565b60006117e582611882565b91506117f083611882565b925082821015611803576118026119b4565b5b828203905092915050565b600061181982611862565b9050919050565b60008115159050919050565b6000819050919050565b60007fffffffff0000000000000000000000000000000000000000000000000000000082169050919050565b600073ffffffffffffffffffffffffffffffffffffffff82169050919050565b6000819050919050565b60006118978261189e565b9050919050565b60006118a982611862565b9050919050565b82818337600083830152505050565b60005b838110156118dd5780820151818401526020810190506118c2565b838111156118ec576000848401525b50505050565b6000600282049050600182168061190a57607f821691505b6020821081141561191e5761191d611a12565b5b50919050565b61192d82611a84565b810181811067ffffffffffffffff8211171561194c5761194b611a41565b5b80604052505050565b600061196082611967565b9050919050565b600061197282611a95565b9050919050565b6000819050919050565b600061198e82611882565b915061199983611882565b9250826119a9576119a86119e3565b5b828206905092915050565b7f4e487b7100000000000000000000000000000000000000000000000000000000600052601160045260246000fd5b7f4e487b7100000000000000000000000000000000000000000000000000000000600052601260045260246000fd5b7f4e487b7100000000000000000000000000000000000000000000000000000000600052602260045260246000fd5b7f4e487b7100000000000000000000000000000000000000000000000000000000600052604160045260246000fd5b600080fd5b600080fd5b600080fd5b600080fd5b6000601f19601f8301169050919050565b60008160601b9050919050565b60008160011c9050919050565b7f3f6469643d000000000000000000000000000000000000000000000000000000600082015250565b7f43616c6c6572206973206e6f74206f776e657200000000000000000000000000600082015250565b7f756e61626c6520746f207472616e73666572416e6443616c6c20746f206f726160008201527f636c650000000000000000000000000000000000000000000000000000000000602082015250565b7f2671756573743d00000000000000000000000000000000000000000000000000600082015250565b7f536f75726365206d75737420626520746865206f7261636c65206f662074686560008201527f2072657175657374000000000000000000000000000000000000000000000000602082015250565b611bd18161180e565b8114611bdc57600080fd5b50565b611be881611820565b8114611bf357600080fd5b50565b611bff8161182c565b8114611c0a57600080fd5b50565b611c1681611882565b8114611c2157600080fd5b5056fea264697066735822122067ffd4a76678448546262ffec110b771a292489dc403765402af4ef212df005564736f6c63430008060033",
  "immutableReferences": {},
  "source": "pragma solidity >=0.5.0 <0.9.0;\n\n/**\n * @title ChainlinkNFT\n * @dev Contract for calling chainlink when verifying NFT Mint requests\n*/\n\nimport \"@chainlink/contracts/src/v0.8/ChainlinkClient.sol\";\nimport \"./Ownable.sol\";\n\ncontract ChainlinkNFT is ChainlinkClient, Ownable{\n    using Chainlink for Chainlink.Request;\n\n    address private oracle;\n    bytes32 private jobId;\n    uint256 private fee;\n    string private baseURI;\n    uint public allowMint; \n\n    \n\n    /**\n     * Network: Matic Mumbai Testnet\n     * Oracle: 0x58bbdbfb6fca3129b91f0dbe372098123b38b5e9\n     * Job ID: da20aae0e4c843f6949e5cb3f7cfe8c4\n     * LINK address: 0x326C977E6efc84E512bB9C30f76E30c160eD06FB\n     * Fee: 0.01 LINK\n     */\n    \n    \n    constructor() public {\n    \tsetChainlinkToken(0x326C977E6efc84E512bB9C30f76E30c160eD06FB);\n        //setPublicChainlinkToken();\n        oracle = 0xc8D925525CA8759812d0c299B90247917d4d4b7C; //0x58BBDbfb6fca3129b91f0DBE372098123B38B5e9; \n        jobId = \"da20aae0e4c843f6949e5cb3f7cfe8c4\"; \n        fee = 10 ** 16; // 0.01 LINK\n    }\n\n    \n\n    /**\n     * Network: Kovan\n     * Oracle: 0x2f90A6D021db21e1B2A077c5a37B3C7E75D15b7e\n     * Job ID: 29fa9aa13bf1468788b7cc4a500a45b8\n     * Fee: 0.1 LINK\n     */\n\n     /*\n    constructor() public {\n        //setPublicChainlinkToken();\n        setChainlinkToken(0xa36085F69e2889c224210F603D836748e7dC0088);\n        oracle = 0x2f90A6D021db21e1B2A077c5a37B3C7E75D15b7e;\n        jobId = \"29fa9aa13bf1468788b7cc4a500a45b8\";\n        fee = 10 ** 17; // (Varies by network and job)\n    }\n\n    */\n\n    function setBaseURI(string memory _newBase) public isOwner{\n        baseURI = _newBase;\n    }\n\n    function requestCeramicData(string memory _did, string memory _questName) public returns (bytes32 _requestId){\n        string memory paramString = string(abi.encodePacked(\"?did=\", _did, \"&quest=\", _questName));\n    \tChainlink.Request memory req = buildChainlinkRequest(jobId, address(this), this.fulfillCeramicData.selector);\n    \treq.add(\"get\", baseURI); //this is API endpoint for server.js or later our server endpoint in cloud or fleek/ENS\n    \treq.add(\"queryparams\", paramString);\n        req.add(\"path\", \"questComplete\");\n\n        return sendChainlinkRequestTo(oracle, req, fee);\n    }\n\n    /**\n     * Callback function\n     */\n    function fulfillCeramicData(bytes32 _requestId, uint256 _questComplete) public recordChainlinkFulfillment(_requestId) {\n    \tallowMint = _questComplete;\n    }\n}",
  "sourcePath": "/home/jpick713/BlockChain_Apps/nftIPFS/contracts/ChainlinkNFT.sol",
  "compiler": {
    "name": "solc",
    "version": "0.8.6+commit.11564f7e.Emscripten.clang"
  },
  "schemaVersion": "3.4.2",
  "updatedAt": "2021-08-13T18:15:08.639Z",
  "networkType": "ethereum",
  "devdoc": {
    "kind": "dev",
    "methods": {
      "changeOwner(address)": {
        "details": "Change owner",
        "params": {
          "newOwner": "address of new owner"
        }
      },
      "getOwner()": {
        "details": "Return owner address ",
        "returns": {
          "_0": "address of owner"
        }
      }
    },
    "version": 1
  },
  "userdoc": {
    "kind": "user",
    "methods": {
      "constructor": {
        "notice": "Network: Matic Mumbai Testnet Oracle: 0x58bbdbfb6fca3129b91f0dbe372098123b38b5e9 Job ID: da20aae0e4c843f6949e5cb3f7cfe8c4 LINK address: 0x326C977E6efc84E512bB9C30f76E30c160eD06FB Fee: 0.01 LINK"
      },
      "fulfillCeramicData(bytes32,uint256)": {
        "notice": "Callback function"
      },
      "setBaseURI(string)": {
        "notice": "Network: Kovan Oracle: 0x2f90A6D021db21e1B2A077c5a37B3C7E75D15b7e Job ID: 29fa9aa13bf1468788b7cc4a500a45b8 Fee: 0.1 LINK"
      }
    },
    "version": 1
  }
}