{
  "contractName": "DiscoveryMergeNFT",
  "abi": [
    {
      "inputs": [
        {
          "internalType": "address",
          "name": "_masterStoreAddress",
          "type": "address"
        }
      ],
      "stateMutability": "nonpayable",
      "type": "constructor"
    },
    {
      "anonymous": false,
      "inputs": [
        {
          "indexed": true,
          "internalType": "address",
          "name": "owner",
          "type": "address"
        },
        {
          "indexed": true,
          "internalType": "address",
          "name": "approved",
          "type": "address"
        },
        {
          "indexed": true,
          "internalType": "uint256",
          "name": "tokenId",
          "type": "uint256"
        }
      ],
      "name": "Approval",
      "type": "event"
    },
    {
      "anonymous": false,
      "inputs": [
        {
          "indexed": true,
          "internalType": "address",
          "name": "owner",
          "type": "address"
        },
        {
          "indexed": true,
          "internalType": "address",
          "name": "operator",
          "type": "address"
        },
        {
          "indexed": false,
          "internalType": "bool",
          "name": "approved",
          "type": "bool"
        }
      ],
      "name": "ApprovalForAll",
      "type": "event"
    },
    {
      "anonymous": false,
      "inputs": [
        {
          "indexed": true,
          "internalType": "address",
          "name": "_to",
          "type": "address"
        },
        {
          "indexed": true,
          "internalType": "string",
          "name": "_tokenURI",
          "type": "string"
        },
        {
          "indexed": true,
          "internalType": "string",
          "name": "course",
          "type": "string"
        }
      ],
      "name": "NFTCommitMinted",
      "type": "event"
    },
    {
      "anonymous": false,
      "inputs": [
        {
          "indexed": true,
          "internalType": "address",
          "name": "from",
          "type": "address"
        },
        {
          "indexed": true,
          "internalType": "address",
          "name": "to",
          "type": "address"
        },
        {
          "indexed": true,
          "internalType": "uint256",
          "name": "tokenId",
          "type": "uint256"
        }
      ],
      "name": "Transfer",
      "type": "event"
    },
    {
      "inputs": [
        {
          "internalType": "address",
          "name": "",
          "type": "address"
        },
        {
          "internalType": "string",
          "name": "",
          "type": "string"
        },
        {
          "internalType": "uint256",
          "name": "",
          "type": "uint256"
        }
      ],
      "name": "Commits",
      "outputs": [
        {
          "internalType": "address",
          "name": "receiver",
          "type": "address"
        },
        {
          "internalType": "string",
          "name": "course",
          "type": "string"
        },
        {
          "internalType": "string",
          "name": "URI",
          "type": "string"
        },
        {
          "internalType": "uint256",
          "name": "timestamp",
          "type": "uint256"
        },
        {
          "internalType": "uint256",
          "name": "version",
          "type": "uint256"
        },
        {
          "internalType": "bool",
          "name": "exists",
          "type": "bool"
        }
      ],
      "stateMutability": "view",
      "type": "function",
      "constant": true
    },
    {
      "inputs": [
        {
          "internalType": "address",
          "name": "to",
          "type": "address"
        },
        {
          "internalType": "uint256",
          "name": "tokenId",
          "type": "uint256"
        }
      ],
      "name": "approve",
      "outputs": [],
      "stateMutability": "nonpayable",
      "type": "function"
    },
    {
      "inputs": [
        {
          "internalType": "address",
          "name": "owner",
          "type": "address"
        }
      ],
      "name": "balanceOf",
      "outputs": [
        {
          "internalType": "uint256",
          "name": "",
          "type": "uint256"
        }
      ],
      "stateMutability": "view",
      "type": "function",
      "constant": true
    },
    {
      "inputs": [
        {
          "internalType": "string",
          "name": "",
          "type": "string"
        }
      ],
      "name": "checkNFTURI",
      "outputs": [
        {
          "internalType": "bool",
          "name": "",
          "type": "bool"
        }
      ],
      "stateMutability": "view",
      "type": "function",
      "constant": true
    },
    {
      "inputs": [
        {
          "internalType": "uint256",
          "name": "tokenId",
          "type": "uint256"
        }
      ],
      "name": "getApproved",
      "outputs": [
        {
          "internalType": "address",
          "name": "",
          "type": "address"
        }
      ],
      "stateMutability": "view",
      "type": "function",
      "constant": true
    },
    {
      "inputs": [
        {
          "internalType": "address",
          "name": "owner",
          "type": "address"
        },
        {
          "internalType": "address",
          "name": "operator",
          "type": "address"
        }
      ],
      "name": "isApprovedForAll",
      "outputs": [
        {
          "internalType": "bool",
          "name": "",
          "type": "bool"
        }
      ],
      "stateMutability": "view",
      "type": "function",
      "constant": true
    },
    {
      "inputs": [],
      "name": "masterStore",
      "outputs": [
        {
          "internalType": "contract NFTStore",
          "name": "",
          "type": "address"
        }
      ],
      "stateMutability": "view",
      "type": "function",
      "constant": true
    },
    {
      "inputs": [],
      "name": "name",
      "outputs": [
        {
          "internalType": "string",
          "name": "",
          "type": "string"
        }
      ],
      "stateMutability": "view",
      "type": "function",
      "constant": true
    },
    {
      "inputs": [
        {
          "internalType": "uint256",
          "name": "tokenId",
          "type": "uint256"
        }
      ],
      "name": "ownerOf",
      "outputs": [
        {
          "internalType": "address",
          "name": "",
          "type": "address"
        }
      ],
      "stateMutability": "view",
      "type": "function",
      "constant": true
    },
    {
      "inputs": [
        {
          "internalType": "address",
          "name": "from",
          "type": "address"
        },
        {
          "internalType": "address",
          "name": "to",
          "type": "address"
        },
        {
          "internalType": "uint256",
          "name": "tokenId",
          "type": "uint256"
        }
      ],
      "name": "safeTransferFrom",
      "outputs": [],
      "stateMutability": "nonpayable",
      "type": "function"
    },
    {
      "inputs": [
        {
          "internalType": "address",
          "name": "from",
          "type": "address"
        },
        {
          "internalType": "address",
          "name": "to",
          "type": "address"
        },
        {
          "internalType": "uint256",
          "name": "tokenId",
          "type": "uint256"
        },
        {
          "internalType": "bytes",
          "name": "_data",
          "type": "bytes"
        }
      ],
      "name": "safeTransferFrom",
      "outputs": [],
      "stateMutability": "nonpayable",
      "type": "function"
    },
    {
      "inputs": [
        {
          "internalType": "address",
          "name": "operator",
          "type": "address"
        },
        {
          "internalType": "bool",
          "name": "approved",
          "type": "bool"
        }
      ],
      "name": "setApprovalForAll",
      "outputs": [],
      "stateMutability": "nonpayable",
      "type": "function"
    },
    {
      "inputs": [
        {
          "internalType": "bytes4",
          "name": "interfaceId",
          "type": "bytes4"
        }
      ],
      "name": "supportsInterface",
      "outputs": [
        {
          "internalType": "bool",
          "name": "",
          "type": "bool"
        }
      ],
      "stateMutability": "view",
      "type": "function",
      "constant": true
    },
    {
      "inputs": [],
      "name": "symbol",
      "outputs": [
        {
          "internalType": "string",
          "name": "",
          "type": "string"
        }
      ],
      "stateMutability": "view",
      "type": "function",
      "constant": true
    },
    {
      "inputs": [
        {
          "internalType": "uint256",
          "name": "tokenId",
          "type": "uint256"
        }
      ],
      "name": "tokenURI",
      "outputs": [
        {
          "internalType": "string",
          "name": "",
          "type": "string"
        }
      ],
      "stateMutability": "view",
      "type": "function",
      "constant": true
    },
    {
      "inputs": [
        {
          "internalType": "address",
          "name": "from",
          "type": "address"
        },
        {
          "internalType": "address",
          "name": "to",
          "type": "address"
        },
        {
          "internalType": "uint256",
          "name": "tokenId",
          "type": "uint256"
        }
      ],
      "name": "transferFrom",
      "outputs": [],
      "stateMutability": "nonpayable",
      "type": "function"
    },
    {
      "inputs": [
        {
          "internalType": "address",
          "name": "_to",
          "type": "address"
        },
        {
          "internalType": "string",
          "name": "_tokenURI",
          "type": "string"
        },
        {
          "internalType": "string",
          "name": "courseName",
          "type": "string"
        },
        {
          "internalType": "uint256",
          "name": "_version",
          "type": "uint256"
        }
      ],
      "name": "mintToken",
      "outputs": [],
      "stateMutability": "nonpayable",
      "type": "function"
    },
    {
      "inputs": [
        {
          "internalType": "address",
          "name": "_approver",
          "type": "address"
        }
      ],
      "name": "addApprover",
      "outputs": [],
      "stateMutability": "nonpayable",
      "type": "function"
    }
  ],
  "bytecode": "0x60806040523480156200001157600080fd5b5060405162003a8038038062003a808339818101604052810190620000379190620002f6565b6040518060400160405280600d81526020017f436f6d6d6974476974426f6f6b000000000000000000000000000000000000008152506040518060400160405280600381526020017f43474200000000000000000000000000000000000000000000000000000000008152508160009080519060200190620000bb92919062000218565b508060019080519060200190620000d492919062000218565b50505080600660006101000a81548173ffffffffffffffffffffffffffffffffffffffff021916908373ffffffffffffffffffffffffffffffffffffffff1602179055506000600660009054906101000a900473ffffffffffffffffffffffffffffffffffffffff1673ffffffffffffffffffffffffffffffffffffffff1663429b62e5336040518263ffffffff1660e01b815260040162000177919062000392565b60206040518083038186803b1580156200019057600080fd5b505afa158015620001a5573d6000803e3d6000fd5b505050506040513d601f19601f82011682018060405250810190620001cb919062000328565b90508062000210576040517f08c379a00000000000000000000000000000000000000000000000000000000081526004016200020790620003af565b60405180910390fd5b5050620004e9565b828054620002269062000422565b90600052602060002090601f0160209004810192826200024a576000855562000296565b82601f106200026557805160ff191683800117855562000296565b8280016001018555821562000296579182015b828111156200029557825182559160200191906001019062000278565b5b509050620002a59190620002a9565b5090565b5b80821115620002c4576000816000905550600101620002aa565b5090565b600081519050620002d981620004b5565b92915050565b600081519050620002f081620004cf565b92915050565b6000602082840312156200030f576200030e62000487565b5b60006200031f84828501620002c8565b91505092915050565b60006020828403121562000341576200034062000487565b5b60006200035184828501620002df565b91505092915050565b6200036581620003e2565b82525050565b60006200037a601783620003d1565b915062000387826200048c565b602082019050919050565b6000602082019050620003a960008301846200035a565b92915050565b60006020820190508181036000830152620003ca816200036b565b9050919050565b600082825260208201905092915050565b6000620003ef8262000402565b9050919050565b60008115159050919050565b600073ffffffffffffffffffffffffffffffffffffffff82169050919050565b600060028204905060018216806200043b57607f821691505b6020821081141562000452576200045162000458565b5b50919050565b7f4e487b7100000000000000000000000000000000000000000000000000000000600052602260045260246000fd5b600080fd5b7f6465706c6f7965722063616e2774206d616b65204e4654000000000000000000600082015250565b620004c081620003e2565b8114620004cc57600080fd5b50565b620004da81620003f6565b8114620004e657600080fd5b50565b61358780620004f96000396000f3fe608060405234801561001057600080fd5b50600436106101165760003560e01c80636352211e116100a2578063a22cb46511610071578063a22cb4651461030a578063b646c19414610326578063b88d4fde14610342578063c87b56dd1461035e578063e985e9c51461038e57610116565b80636352211e14610257578063647795191461028757806370a08231146102bc57806395d89b41146102ec57610116565b806310243755116100e957806310243755146101b557806323b872dd146101d35780632de21a45146101ef57806342842e0e1461021f5780636219d9e91461023b57610116565b806301ffc9a71461011b57806306fdde031461014b578063081812fc14610169578063095ea7b314610199575b600080fd5b610135600480360381019061013091906123aa565b6103be565b6040516101429190612903565b60405180910390f35b6101536104a0565b6040516101609190612939565b60405180910390f35b610183600480360381019061017e919061244d565b610532565b604051610190919061282d565b60405180910390f35b6101b360048036038101906101ae919061233d565b6105b7565b005b6101bd6106cf565b6040516101ca919061291e565b60405180910390f35b6101ed60048036038101906101e89190612119565b6106f5565b005b61020960048036038101906102049190612404565b610755565b6040516102169190612903565b60405180910390f35b61023960048036038101906102349190612119565b61078b565b005b6102556004803603810190610250919061222f565b6107ab565b005b610271600480360381019061026c919061244d565b610be4565b60405161027e919061282d565b60405180910390f35b6102a1600480360381019061029c91906122ce565b610c96565b6040516102b396959493929190612894565b60405180910390f35b6102d660048036038101906102d191906120ac565b610e4f565b6040516102e39190612bbb565b60405180910390f35b6102f4610f07565b6040516103019190612939565b60405180910390f35b610324600480360381019061031f91906121ef565b610f99565b005b610340600480360381019061033b91906120ac565b61111a565b005b61035c6004803603810190610357919061216c565b6112ec565b005b6103786004803603810190610373919061244d565b61134e565b6040516103859190612939565b60405180910390f35b6103a860048036038101906103a391906120d9565b6113f5565b6040516103b59190612903565b60405180910390f35b60007f80ac58cd000000000000000000000000000000000000000000000000000000007bffffffffffffffffffffffffffffffffffffffffffffffffffffffff1916827bffffffffffffffffffffffffffffffffffffffffffffffffffffffff1916148061048957507f5b5e139f000000000000000000000000000000000000000000000000000000007bffffffffffffffffffffffffffffffffffffffffffffffffffffffff1916827bffffffffffffffffffffffffffffffffffffffffffffffffffffffff1916145b80610499575061049882611489565b5b9050919050565b6060600080546104af90612e35565b80601f01602080910402602001604051908101604052809291908181526020018280546104db90612e35565b80156105285780601f106104fd57610100808354040283529160200191610528565b820191906000526020600020905b81548152906001019060200180831161050b57829003601f168201915b5050505050905090565b600061053d826114f3565b61057c576040517f08c379a000000000000000000000000000000000000000000000000000000000815260040161057390612afb565b60405180910390fd5b6004600083815260200190815260200160002060009054906101000a900473ffffffffffffffffffffffffffffffffffffffff169050919050565b60006105c282610be4565b90508073ffffffffffffffffffffffffffffffffffffffff168373ffffffffffffffffffffffffffffffffffffffff161415610633576040517f08c379a000000000000000000000000000000000000000000000000000000000815260040161062a90612b5b565b60405180910390fd5b8073ffffffffffffffffffffffffffffffffffffffff1661065261155f565b73ffffffffffffffffffffffffffffffffffffffff16148061068157506106808161067b61155f565b6113f5565b5b6106c0576040517f08c379a00000000000000000000000000000000000000000000000000000000081526004016106b790612a7b565b60405180910390fd5b6106ca8383611567565b505050565b600660009054906101000a900473ffffffffffffffffffffffffffffffffffffffff1681565b61070661070061155f565b82611620565b610745576040517f08c379a000000000000000000000000000000000000000000000000000000000815260040161073c90612b7b565b60405180910390fd5b6107508383836116fe565b505050565b600a818051602081018201805184825260208301602085012081835280955050505050506000915054906101000a900460ff1681565b6107a6838383604051806020016040528060008152506112ec565b505050565b600860003373ffffffffffffffffffffffffffffffffffffffff1673ffffffffffffffffffffffffffffffffffffffff16815260200190815260200160002060009054906101000a900460ff16610837576040517f08c379a000000000000000000000000000000000000000000000000000000000815260040161082e906129db565b60405180910390fd5b600660009054906101000a900473ffffffffffffffffffffffffffffffffffffffff1673ffffffffffffffffffffffffffffffffffffffff1663372c12b1856040518263ffffffff1660e01b8152600401610892919061282d565b60206040518083038186803b1580156108aa57600080fd5b505afa1580156108be573d6000803e3d6000fd5b505050506040513d601f19601f820116820180604052508101906108e2919061237d565b610921576040517f08c379a000000000000000000000000000000000000000000000000000000000815260040161091890612a5b565b60405180910390fd5b600a8360405161093191906127f2565b908152602001604051809103902060009054906101000a900460ff161561098d576040517f08c379a00000000000000000000000000000000000000000000000000000000081526004016109849061295b565b60405180910390fd5b600760008154809291906109a090612e98565b91905055506109b18460075461195a565b6001600a846040516109c391906127f2565b908152602001604051809103902060006101000a81548160ff02191690831515021790555060006040518060c001604052808673ffffffffffffffffffffffffffffffffffffffff168152602001848152602001858152602001428152602001838152602001600115158152509050600b60008673ffffffffffffffffffffffffffffffffffffffff1673ffffffffffffffffffffffffffffffffffffffff16815260200190815260200160002083604051610a7f91906127f2565b908152602001604051809103902081908060018154018082558091505060019003906000526020600020906006020160009091909190915060008201518160000160006101000a81548173ffffffffffffffffffffffffffffffffffffffff021916908373ffffffffffffffffffffffffffffffffffffffff1602179055506020820151816001019080519060200190610b1a929190611eab565b506040820151816002019080519060200190610b37929190611eab565b50606082015181600301556080820151816004015560a08201518160050160006101000a81548160ff021916908315150217905550505082604051610b7c91906127f2565b604051809103902084604051610b9291906127f2565b60405180910390208673ffffffffffffffffffffffffffffffffffffffff167f6f2df5bfd4444eff029ea2b37e8750ee0dacc48243c8c7f6ff5f3690c74c917760405160405180910390a45050505050565b6000806002600084815260200190815260200160002060009054906101000a900473ffffffffffffffffffffffffffffffffffffffff169050600073ffffffffffffffffffffffffffffffffffffffff168173ffffffffffffffffffffffffffffffffffffffff161415610c8d576040517f08c379a0000000000000000000000000000000000000000000000000000000008152600401610c8490612abb565b60405180910390fd5b80915050919050565b600b602052826000526040600020828051602081018201805184825260208301602085012081835280955050505050508181548110610cd457600080fd5b906000526020600020906006020160009250925050508060000160009054906101000a900473ffffffffffffffffffffffffffffffffffffffff1690806001018054610d1f90612e35565b80601f0160208091040260200160405190810160405280929190818152602001828054610d4b90612e35565b8015610d985780601f10610d6d57610100808354040283529160200191610d98565b820191906000526020600020905b815481529060010190602001808311610d7b57829003601f168201915b505050505090806002018054610dad90612e35565b80601f0160208091040260200160405190810160405280929190818152602001828054610dd990612e35565b8015610e265780601f10610dfb57610100808354040283529160200191610e26565b820191906000526020600020905b815481529060010190602001808311610e0957829003601f168201915b5050505050908060030154908060040154908060050160009054906101000a900460ff16905086565b60008073ffffffffffffffffffffffffffffffffffffffff168273ffffffffffffffffffffffffffffffffffffffff161415610ec0576040517f08c379a0000000000000000000000000000000000000000000000000000000008152600401610eb790612a9b565b60405180910390fd5b600360008373ffffffffffffffffffffffffffffffffffffffff1673ffffffffffffffffffffffffffffffffffffffff168152602001908152602001600020549050919050565b606060018054610f1690612e35565b80601f0160208091040260200160405190810160405280929190818152602001828054610f4290612e35565b8015610f8f5780601f10610f6457610100808354040283529160200191610f8f565b820191906000526020600020905b815481529060010190602001808311610f7257829003601f168201915b5050505050905090565b610fa161155f565b73ffffffffffffffffffffffffffffffffffffffff168273ffffffffffffffffffffffffffffffffffffffff16141561100f576040517f08c379a000000000000000000000000000000000000000000000000000000000815260040161100690612a1b565b60405180910390fd5b806005600061101c61155f565b73ffffffffffffffffffffffffffffffffffffffff1673ffffffffffffffffffffffffffffffffffffffff16815260200190815260200160002060008473ffffffffffffffffffffffffffffffffffffffff1673ffffffffffffffffffffffffffffffffffffffff16815260200190815260200160002060006101000a81548160ff0219169083151502179055508173ffffffffffffffffffffffffffffffffffffffff166110c961155f565b73ffffffffffffffffffffffffffffffffffffffff167f17307eab39ab6107e8899845ad3d59bd9653f200f220920489ca2b5937696c318360405161110e9190612903565b60405180910390a35050565b600660009054906101000a900473ffffffffffffffffffffffffffffffffffffffff1673ffffffffffffffffffffffffffffffffffffffff1663429b62e5336040518263ffffffff1660e01b8152600401611175919061282d565b60206040518083038186803b15801561118d57600080fd5b505afa1580156111a1573d6000803e3d6000fd5b505050506040513d601f19601f820116820180604052508101906111c5919061237d565b611204576040517f08c379a00000000000000000000000000000000000000000000000000000000081526004016111fb90612b9b565b60405180910390fd5b600860008273ffffffffffffffffffffffffffffffffffffffff1673ffffffffffffffffffffffffffffffffffffffff16815260200190815260200160002060009054906101000a900460ff1615611291576040517f08c379a0000000000000000000000000000000000000000000000000000000008152600401611288906129bb565b60405180910390fd5b6001600860008373ffffffffffffffffffffffffffffffffffffffff1673ffffffffffffffffffffffffffffffffffffffff16815260200190815260200160002060006101000a81548160ff02191690831515021790555050565b6112fd6112f761155f565b83611620565b61133c576040517f08c379a000000000000000000000000000000000000000000000000000000000815260040161133390612b7b565b60405180910390fd5b61134884848484611b28565b50505050565b6060611359826114f3565b611398576040517f08c379a000000000000000000000000000000000000000000000000000000000815260040161138f90612b3b565b60405180910390fd5b60006113a2611b84565b905060008151116113c257604051806020016040528060008152506113ed565b806113cc84611b9b565b6040516020016113dd929190612809565b6040516020818303038152906040525b915050919050565b6000600560008473ffffffffffffffffffffffffffffffffffffffff1673ffffffffffffffffffffffffffffffffffffffff16815260200190815260200160002060008373ffffffffffffffffffffffffffffffffffffffff1673ffffffffffffffffffffffffffffffffffffffff16815260200190815260200160002060009054906101000a900460ff16905092915050565b60007f01ffc9a7000000000000000000000000000000000000000000000000000000007bffffffffffffffffffffffffffffffffffffffffffffffffffffffff1916827bffffffffffffffffffffffffffffffffffffffffffffffffffffffff1916149050919050565b60008073ffffffffffffffffffffffffffffffffffffffff166002600084815260200190815260200160002060009054906101000a900473ffffffffffffffffffffffffffffffffffffffff1673ffffffffffffffffffffffffffffffffffffffff1614159050919050565b600033905090565b816004600083815260200190815260200160002060006101000a81548173ffffffffffffffffffffffffffffffffffffffff021916908373ffffffffffffffffffffffffffffffffffffffff160217905550808273ffffffffffffffffffffffffffffffffffffffff166115da83610be4565b73ffffffffffffffffffffffffffffffffffffffff167f8c5be1e5ebec7d5bd14f71427d1e84f3dd0314c0f7b2291e5b200ac8c7c3b92560405160405180910390a45050565b600061162b826114f3565b61166a576040517f08c379a000000000000000000000000000000000000000000000000000000000815260040161166190612a3b565b60405180910390fd5b600061167583610be4565b90508073ffffffffffffffffffffffffffffffffffffffff168473ffffffffffffffffffffffffffffffffffffffff1614806116e457508373ffffffffffffffffffffffffffffffffffffffff166116cc84610532565b73ffffffffffffffffffffffffffffffffffffffff16145b806116f557506116f481856113f5565b5b91505092915050565b8273ffffffffffffffffffffffffffffffffffffffff1661171e82610be4565b73ffffffffffffffffffffffffffffffffffffffff1614611774576040517f08c379a000000000000000000000000000000000000000000000000000000000815260040161176b90612b1b565b60405180910390fd5b600073ffffffffffffffffffffffffffffffffffffffff168273ffffffffffffffffffffffffffffffffffffffff1614156117e4576040517f08c379a00000000000000000000000000000000000000000000000000000000081526004016117db906129fb565b60405180910390fd5b6117ef838383611cfc565b6117fa600082611567565b6001600360008573ffffffffffffffffffffffffffffffffffffffff1673ffffffffffffffffffffffffffffffffffffffff168152602001908152602001600020600082825461184a9190612d27565b925050819055506001600360008473ffffffffffffffffffffffffffffffffffffffff1673ffffffffffffffffffffffffffffffffffffffff16815260200190815260200160002060008282546118a19190612ca0565b92505081905550816002600083815260200190815260200160002060006101000a81548173ffffffffffffffffffffffffffffffffffffffff021916908373ffffffffffffffffffffffffffffffffffffffff160217905550808273ffffffffffffffffffffffffffffffffffffffff168473ffffffffffffffffffffffffffffffffffffffff167fddf252ad1be2c89b69c2b068fc378daa952ba7f163c4a11628f55a4df523b3ef60405160405180910390a4505050565b600073ffffffffffffffffffffffffffffffffffffffff168273ffffffffffffffffffffffffffffffffffffffff1614156119ca576040517f08c379a00000000000000000000000000000000000000000000000000000000081526004016119c190612adb565b60405180910390fd5b6119d3816114f3565b15611a13576040517f08c379a0000000000000000000000000000000000000000000000000000000008152600401611a0a9061299b565b60405180910390fd5b611a1f60008383611cfc565b6001600360008473ffffffffffffffffffffffffffffffffffffffff1673ffffffffffffffffffffffffffffffffffffffff1681526020019081526020016000206000828254611a6f9190612ca0565b92505081905550816002600083815260200190815260200160002060006101000a81548173ffffffffffffffffffffffffffffffffffffffff021916908373ffffffffffffffffffffffffffffffffffffffff160217905550808273ffffffffffffffffffffffffffffffffffffffff16600073ffffffffffffffffffffffffffffffffffffffff167fddf252ad1be2c89b69c2b068fc378daa952ba7f163c4a11628f55a4df523b3ef60405160405180910390a45050565b611b338484846116fe565b611b3f84848484611d01565b611b7e576040517f08c379a0000000000000000000000000000000000000000000000000000000008152600401611b759061297b565b60405180910390fd5b50505050565b606060405180602001604052806000815250905090565b60606000821415611be3576040518060400160405280600181526020017f30000000000000000000000000000000000000000000000000000000000000008152509050611cf7565b600082905060005b60008214611c15578080611bfe90612e98565b915050600a82611c0e9190612cf6565b9150611beb565b60008167ffffffffffffffff811115611c3157611c30612fce565b5b6040519080825280601f01601f191660200182016040528015611c635781602001600182028036833780820191505090505b5090505b60008514611cf057600182611c7c9190612d27565b9150600a85611c8b9190612ee1565b6030611c979190612ca0565b60f81b818381518110611cad57611cac612f9f565b5b60200101907effffffffffffffffffffffffffffffffffffffffffffffffffffffffffffff1916908160001a905350600a85611ce99190612cf6565b9450611c67565b8093505050505b919050565b505050565b6000611d228473ffffffffffffffffffffffffffffffffffffffff16611e98565b15611e8b578373ffffffffffffffffffffffffffffffffffffffff1663150b7a02611d4b61155f565b8786866040518563ffffffff1660e01b8152600401611d6d9493929190612848565b602060405180830381600087803b158015611d8757600080fd5b505af1925050508015611db857506040513d601f19601f82011682018060405250810190611db591906123d7565b60015b611e3b573d8060008114611de8576040519150601f19603f3d011682016040523d82523d6000602084013e611ded565b606091505b50600081511415611e33576040517f08c379a0000000000000000000000000000000000000000000000000000000008152600401611e2a9061297b565b60405180910390fd5b805181602001fd5b63150b7a0260e01b7bffffffffffffffffffffffffffffffffffffffffffffffffffffffff1916817bffffffffffffffffffffffffffffffffffffffffffffffffffffffff191614915050611e90565b600190505b949350505050565b600080823b905060008111915050919050565b828054611eb790612e35565b90600052602060002090601f016020900481019282611ed95760008555611f20565b82601f10611ef257805160ff1916838001178555611f20565b82800160010185558215611f20579182015b82811115611f1f578251825591602001919060010190611f04565b5b509050611f2d9190611f31565b5090565b5b80821115611f4a576000816000905550600101611f32565b5090565b6000611f61611f5c84612bfb565b612bd6565b905082815260208101848484011115611f7d57611f7c613002565b5b611f88848285612df3565b509392505050565b6000611fa3611f9e84612c2c565b612bd6565b905082815260208101848484011115611fbf57611fbe613002565b5b611fca848285612df3565b509392505050565b600081359050611fe1816134f5565b92915050565b600081359050611ff68161350c565b92915050565b60008151905061200b8161350c565b92915050565b60008135905061202081613523565b92915050565b60008151905061203581613523565b92915050565b600082601f8301126120505761204f612ffd565b5b8135612060848260208601611f4e565b91505092915050565b600082601f83011261207e5761207d612ffd565b5b813561208e848260208601611f90565b91505092915050565b6000813590506120a68161353a565b92915050565b6000602082840312156120c2576120c161300c565b5b60006120d084828501611fd2565b91505092915050565b600080604083850312156120f0576120ef61300c565b5b60006120fe85828601611fd2565b925050602061210f85828601611fd2565b9150509250929050565b6000806000606084860312156121325761213161300c565b5b600061214086828701611fd2565b935050602061215186828701611fd2565b925050604061216286828701612097565b9150509250925092565b600080600080608085870312156121865761218561300c565b5b600061219487828801611fd2565b94505060206121a587828801611fd2565b93505060406121b687828801612097565b925050606085013567ffffffffffffffff8111156121d7576121d6613007565b5b6121e38782880161203b565b91505092959194509250565b600080604083850312156122065761220561300c565b5b600061221485828601611fd2565b925050602061222585828601611fe7565b9150509250929050565b600080600080608085870312156122495761224861300c565b5b600061225787828801611fd2565b945050602085013567ffffffffffffffff81111561227857612277613007565b5b61228487828801612069565b935050604085013567ffffffffffffffff8111156122a5576122a4613007565b5b6122b187828801612069565b92505060606122c287828801612097565b91505092959194509250565b6000806000606084860312156122e7576122e661300c565b5b60006122f586828701611fd2565b935050602084013567ffffffffffffffff81111561231657612315613007565b5b61232286828701612069565b925050604061233386828701612097565b9150509250925092565b600080604083850312156123545761235361300c565b5b600061236285828601611fd2565b925050602061237385828601612097565b9150509250929050565b6000602082840312156123935761239261300c565b5b60006123a184828501611ffc565b91505092915050565b6000602082840312156123c0576123bf61300c565b5b60006123ce84828501612011565b91505092915050565b6000602082840312156123ed576123ec61300c565b5b60006123fb84828501612026565b91505092915050565b60006020828403121561241a5761241961300c565b5b600082013567ffffffffffffffff81111561243857612437613007565b5b61244484828501612069565b91505092915050565b6000602082840312156124635761246261300c565b5b600061247184828501612097565b91505092915050565b61248381612d5b565b82525050565b61249281612d6d565b82525050565b60006124a382612c5d565b6124ad8185612c73565b93506124bd818560208601612e02565b6124c681613011565b840191505092915050565b6124da81612dcf565b82525050565b60006124eb82612c68565b6124f58185612c84565b9350612505818560208601612e02565b61250e81613011565b840191505092915050565b600061252482612c68565b61252e8185612c95565b935061253e818560208601612e02565b80840191505092915050565b6000612557601f83612c84565b915061256282613022565b602082019050919050565b600061257a603283612c84565b91506125858261304b565b604082019050919050565b600061259d601c83612c84565b91506125a88261309a565b602082019050919050565b60006125c0601e83612c84565b91506125cb826130c3565b602082019050919050565b60006125e3601f83612c84565b91506125ee826130ec565b602082019050919050565b6000612606602483612c84565b915061261182613115565b604082019050919050565b6000612629601983612c84565b915061263482613164565b602082019050919050565b600061264c602c83612c84565b91506126578261318d565b604082019050919050565b600061266f601a83612c84565b915061267a826131dc565b602082019050919050565b6000612692603883612c84565b915061269d82613205565b604082019050919050565b60006126b5602a83612c84565b91506126c082613254565b604082019050919050565b60006126d8602983612c84565b91506126e3826132a3565b604082019050919050565b60006126fb602083612c84565b9150612706826132f2565b602082019050919050565b600061271e602c83612c84565b91506127298261331b565b604082019050919050565b6000612741602983612c84565b915061274c8261336a565b604082019050919050565b6000612764602f83612c84565b915061276f826133b9565b604082019050919050565b6000612787602183612c84565b915061279282613408565b604082019050919050565b60006127aa603183612c84565b91506127b582613457565b604082019050919050565b60006127cd602383612c84565b91506127d8826134a6565b604082019050919050565b6127ec81612dc5565b82525050565b60006127fe8284612519565b915081905092915050565b60006128158285612519565b91506128218284612519565b91508190509392505050565b6000602082019050612842600083018461247a565b92915050565b600060808201905061285d600083018761247a565b61286a602083018661247a565b61287760408301856127e3565b81810360608301526128898184612498565b905095945050505050565b600060c0820190506128a9600083018961247a565b81810360208301526128bb81886124e0565b905081810360408301526128cf81876124e0565b90506128de60608301866127e3565b6128eb60808301856127e3565b6128f860a0830184612489565b979650505050505050565b60006020820190506129186000830184612489565b92915050565b600060208201905061293360008301846124d1565b92915050565b6000602082019050818103600083015261295381846124e0565b905092915050565b600060208201905081810360008301526129748161254a565b9050919050565b600060208201905081810360008301526129948161256d565b9050919050565b600060208201905081810360008301526129b481612590565b9050919050565b600060208201905081810360008301526129d4816125b3565b9050919050565b600060208201905081810360008301526129f4816125d6565b9050919050565b60006020820190508181036000830152612a14816125f9565b9050919050565b60006020820190508181036000830152612a348161261c565b9050919050565b60006020820190508181036000830152612a548161263f565b9050919050565b60006020820190508181036000830152612a7481612662565b9050919050565b60006020820190508181036000830152612a9481612685565b9050919050565b60006020820190508181036000830152612ab4816126a8565b9050919050565b60006020820190508181036000830152612ad4816126cb565b9050919050565b60006020820190508181036000830152612af4816126ee565b9050919050565b60006020820190508181036000830152612b1481612711565b9050919050565b60006020820190508181036000830152612b3481612734565b9050919050565b60006020820190508181036000830152612b5481612757565b9050919050565b60006020820190508181036000830152612b748161277a565b9050919050565b60006020820190508181036000830152612b948161279d565b9050919050565b60006020820190508181036000830152612bb4816127c0565b9050919050565b6000602082019050612bd060008301846127e3565b92915050565b6000612be0612bf1565b9050612bec8282612e67565b919050565b6000604051905090565b600067ffffffffffffffff821115612c1657612c15612fce565b5b612c1f82613011565b9050602081019050919050565b600067ffffffffffffffff821115612c4757612c46612fce565b5b612c5082613011565b9050602081019050919050565b600081519050919050565b600081519050919050565b600082825260208201905092915050565b600082825260208201905092915050565b600081905092915050565b6000612cab82612dc5565b9150612cb683612dc5565b9250827fffffffffffffffffffffffffffffffffffffffffffffffffffffffffffffffff03821115612ceb57612cea612f12565b5b828201905092915050565b6000612d0182612dc5565b9150612d0c83612dc5565b925082612d1c57612d1b612f41565b5b828204905092915050565b6000612d3282612dc5565b9150612d3d83612dc5565b925082821015612d5057612d4f612f12565b5b828203905092915050565b6000612d6682612da5565b9050919050565b60008115159050919050565b60007fffffffff0000000000000000000000000000000000000000000000000000000082169050919050565b600073ffffffffffffffffffffffffffffffffffffffff82169050919050565b6000819050919050565b6000612dda82612de1565b9050919050565b6000612dec82612da5565b9050919050565b82818337600083830152505050565b60005b83811015612e20578082015181840152602081019050612e05565b83811115612e2f576000848401525b50505050565b60006002820490506001821680612e4d57607f821691505b60208210811415612e6157612e60612f70565b5b50919050565b612e7082613011565b810181811067ffffffffffffffff82111715612e8f57612e8e612fce565b5b80604052505050565b6000612ea382612dc5565b91507fffffffffffffffffffffffffffffffffffffffffffffffffffffffffffffffff821415612ed657612ed5612f12565b5b600182019050919050565b6000612eec82612dc5565b9150612ef783612dc5565b925082612f0757612f06612f41565b5b828206905092915050565b7f4e487b7100000000000000000000000000000000000000000000000000000000600052601160045260246000fd5b7f4e487b7100000000000000000000000000000000000000000000000000000000600052601260045260246000fd5b7f4e487b7100000000000000000000000000000000000000000000000000000000600052602260045260246000fd5b7f4e487b7100000000000000000000000000000000000000000000000000000000600052603260045260246000fd5b7f4e487b7100000000000000000000000000000000000000000000000000000000600052604160045260246000fd5b600080fd5b600080fd5b600080fd5b600080fd5b6000601f19601f8301169050919050565b7f746869732055524920616c7265616479206973206265696e6720757365642100600082015250565b7f4552433732313a207472616e7366657220746f206e6f6e20455243373231526560008201527f63656976657220696d706c656d656e7465720000000000000000000000000000602082015250565b7f4552433732313a20746f6b656e20616c7265616479206d696e74656400000000600082015250565b7f6164647265737320697320616c726561647920616e20617070726f7665720000600082015250565b7f6f6e6c7920616e20617070726f7665722063616e206d696e7420746f6b656e00600082015250565b7f4552433732313a207472616e7366657220746f20746865207a65726f2061646460008201527f7265737300000000000000000000000000000000000000000000000000000000602082015250565b7f4552433732313a20617070726f766520746f2063616c6c657200000000000000600082015250565b7f4552433732313a206f70657261746f7220717565727920666f72206e6f6e657860008201527f697374656e7420746f6b656e0000000000000000000000000000000000000000602082015250565b7f61646472657373206973206e6f74207265676973746572656421000000000000600082015250565b7f4552433732313a20617070726f76652063616c6c6572206973206e6f74206f7760008201527f6e6572206e6f7220617070726f76656420666f7220616c6c0000000000000000602082015250565b7f4552433732313a2062616c616e636520717565727920666f7220746865207a6560008201527f726f206164647265737300000000000000000000000000000000000000000000602082015250565b7f4552433732313a206f776e657220717565727920666f72206e6f6e657869737460008201527f656e7420746f6b656e0000000000000000000000000000000000000000000000602082015250565b7f4552433732313a206d696e7420746f20746865207a65726f2061646472657373600082015250565b7f4552433732313a20617070726f76656420717565727920666f72206e6f6e657860008201527f697374656e7420746f6b656e0000000000000000000000000000000000000000602082015250565b7f4552433732313a207472616e73666572206f6620746f6b656e2074686174206960008201527f73206e6f74206f776e0000000000000000000000000000000000000000000000602082015250565b7f4552433732314d657461646174613a2055524920717565727920666f72206e6f60008201527f6e6578697374656e7420746f6b656e0000000000000000000000000000000000602082015250565b7f4552433732313a20617070726f76616c20746f2063757272656e74206f776e6560008201527f7200000000000000000000000000000000000000000000000000000000000000602082015250565b7f4552433732313a207472616e736665722063616c6c6572206973206e6f74206f60008201527f776e6572206e6f7220617070726f766564000000000000000000000000000000602082015250565b7f6f6e6c792061646d696e732063616e20706572666f726d20746869732061637460008201527f696f6e0000000000000000000000000000000000000000000000000000000000602082015250565b6134fe81612d5b565b811461350957600080fd5b50565b61351581612d6d565b811461352057600080fd5b50565b61352c81612d79565b811461353757600080fd5b50565b61354381612dc5565b811461354e57600080fd5b5056fea2646970667358221220943d796bab3c160611664d33755ef836a6c1cda0fb719b178b89f51af7b290fb64736f6c63430008060033",
  "immutableReferences": {},
  "source": "pragma solidity >=0.5.0 <0.9.0;\n\n/**\n * @title DiscoveryMergeNFT\n * @dev NFTs for merging course content on gitbook\n*/\n\nimport \"@openzeppelin/contracts/token/ERC721/ERC721.sol\";\nimport \"./NFTStore.sol\";\n\ncontract DiscoveryMergeNFT is ERC721{\n\n    NFTStore public masterStore;\n    uint tokenID;\n    mapping (address => bool) approvers;\n    mapping (string => uint[]) courseIndices;\n    mapping (string => bool) public checkNFTURI;\n    mapping (address => mapping(string => Commit[])) public Commits; //address --> course -> versions\n\n    event NFTCommitMinted(address indexed _to, string indexed _tokenURI, string indexed course);\n\n    constructor(address _masterStoreAddress) ERC721(\"CommitGitBook\", \"CGB\") public{\n        masterStore = NFTStore(_masterStoreAddress);\n        bool adminCheck = masterStore.admins(msg.sender);\n        require(adminCheck, \"deployer can't make NFT\");\n    } \n\n    struct Commit {\n        address receiver;\n        string course;\n        string URI;\n        uint timestamp;\n        uint version;\n        bool exists;\n    }\n\n    modifier onlyApprover(){\n        require(approvers[msg.sender], \"only an approver can mint token\");\n        _;\n    }\n\n    function mintToken(address _to , string memory _tokenURI, string memory courseName, uint _version) public onlyApprover() {\n        \n        require(masterStore.whiteList(_to), \"address is not registered!\");\n        require(!checkNFTURI[_tokenURI], \"this URI already is being used!\");\n        //insert chainlink call\n        tokenID++;\n        _mint(_to, tokenID);\n        checkNFTURI[_tokenURI] = true;\n        \n        Commit memory commit_to_add = Commit({\n            receiver : _to,\n            course : courseName,\n            URI : _tokenURI,\n            timestamp : block.timestamp,\n            version : _version,\n            exists : true\n        });\n        Commits[_to][courseName].push(commit_to_add);\n        emit NFTCommitMinted(_to, _tokenURI, courseName);\n    }\n\n    function addApprover(address _approver) public {\n        require (masterStore.admins(msg.sender), \"only admins can perform this action\");\n        require (!approvers[_approver], \"address is already an approver\");\n        approvers[_approver]=true;\n    }\n}",
  "sourcePath": "/home/jpick713/BlockChain_Apps/nftIPFS/contracts/DiscoveryMergeNFT.sol",
  "compiler": {
    "name": "solc",
    "version": "0.8.6+commit.11564f7e.Emscripten.clang"
  },
  "schemaVersion": "3.4.2",
  "updatedAt": "2021-08-12T02:51:44.968Z",
  "networkType": "ethereum",
  "devdoc": {
    "kind": "dev",
    "methods": {
      "approve(address,uint256)": {
        "details": "See {IERC721-approve}."
      },
      "balanceOf(address)": {
        "details": "See {IERC721-balanceOf}."
      },
      "getApproved(uint256)": {
        "details": "See {IERC721-getApproved}."
      },
      "isApprovedForAll(address,address)": {
        "details": "See {IERC721-isApprovedForAll}."
      },
      "name()": {
        "details": "See {IERC721Metadata-name}."
      },
      "ownerOf(uint256)": {
        "details": "See {IERC721-ownerOf}."
      },
      "safeTransferFrom(address,address,uint256)": {
        "details": "See {IERC721-safeTransferFrom}."
      },
      "safeTransferFrom(address,address,uint256,bytes)": {
        "details": "See {IERC721-safeTransferFrom}."
      },
      "setApprovalForAll(address,bool)": {
        "details": "See {IERC721-setApprovalForAll}."
      },
      "supportsInterface(bytes4)": {
        "details": "See {IERC165-supportsInterface}."
      },
      "symbol()": {
        "details": "See {IERC721Metadata-symbol}."
      },
      "tokenURI(uint256)": {
        "details": "See {IERC721Metadata-tokenURI}."
      },
      "transferFrom(address,address,uint256)": {
        "details": "See {IERC721-transferFrom}."
      }
    },
    "version": 1
  },
  "userdoc": {
    "kind": "user",
    "methods": {},
    "version": 1
  }
}