{
  "contractName": "DiscoveryMergeNFT",
  "abi": [
    {
      "inputs": [
        {
          "internalType": "address payable",
          "name": "_masterStoreAddress",
          "type": "address"
        }
      ],
      "stateMutability": "nonpayable",
      "type": "constructor"
    },
    {
      "anonymous": false,
      "inputs": [
        {
          "indexed": true,
          "internalType": "address",
          "name": "owner",
          "type": "address"
        },
        {
          "indexed": true,
          "internalType": "address",
          "name": "approved",
          "type": "address"
        },
        {
          "indexed": true,
          "internalType": "uint256",
          "name": "tokenId",
          "type": "uint256"
        }
      ],
      "name": "Approval",
      "type": "event"
    },
    {
      "anonymous": false,
      "inputs": [
        {
          "indexed": true,
          "internalType": "address",
          "name": "owner",
          "type": "address"
        },
        {
          "indexed": true,
          "internalType": "address",
          "name": "operator",
          "type": "address"
        },
        {
          "indexed": false,
          "internalType": "bool",
          "name": "approved",
          "type": "bool"
        }
      ],
      "name": "ApprovalForAll",
      "type": "event"
    },
    {
      "anonymous": false,
      "inputs": [
        {
          "indexed": true,
          "internalType": "address",
          "name": "_to",
          "type": "address"
        },
        {
          "indexed": true,
          "internalType": "string",
          "name": "_tokenURI",
          "type": "string"
        },
        {
          "indexed": true,
          "internalType": "string",
          "name": "course",
          "type": "string"
        }
      ],
      "name": "NFTCommitMinted",
      "type": "event"
    },
    {
      "anonymous": false,
      "inputs": [
        {
          "indexed": true,
          "internalType": "address",
          "name": "from",
          "type": "address"
        },
        {
          "indexed": true,
          "internalType": "address",
          "name": "to",
          "type": "address"
        },
        {
          "indexed": true,
          "internalType": "uint256",
          "name": "tokenId",
          "type": "uint256"
        }
      ],
      "name": "Transfer",
      "type": "event"
    },
    {
      "inputs": [
        {
          "internalType": "address",
          "name": "",
          "type": "address"
        },
        {
          "internalType": "string",
          "name": "",
          "type": "string"
        },
        {
          "internalType": "uint256",
          "name": "",
          "type": "uint256"
        }
      ],
      "name": "Commits",
      "outputs": [
        {
          "internalType": "address",
          "name": "receiver",
          "type": "address"
        },
        {
          "internalType": "string",
          "name": "course",
          "type": "string"
        },
        {
          "internalType": "string",
          "name": "URI",
          "type": "string"
        },
        {
          "internalType": "uint256",
          "name": "timestamp",
          "type": "uint256"
        },
        {
          "internalType": "uint256",
          "name": "version",
          "type": "uint256"
        },
        {
          "internalType": "bool",
          "name": "exists",
          "type": "bool"
        }
      ],
      "stateMutability": "view",
      "type": "function",
      "constant": true
    },
    {
      "inputs": [
        {
          "internalType": "address",
          "name": "to",
          "type": "address"
        },
        {
          "internalType": "uint256",
          "name": "tokenId",
          "type": "uint256"
        }
      ],
      "name": "approve",
      "outputs": [],
      "stateMutability": "nonpayable",
      "type": "function"
    },
    {
      "inputs": [
        {
          "internalType": "address",
          "name": "owner",
          "type": "address"
        }
      ],
      "name": "balanceOf",
      "outputs": [
        {
          "internalType": "uint256",
          "name": "",
          "type": "uint256"
        }
      ],
      "stateMutability": "view",
      "type": "function",
      "constant": true
    },
    {
      "inputs": [
        {
          "internalType": "string",
          "name": "",
          "type": "string"
        }
      ],
      "name": "checkNFTURI",
      "outputs": [
        {
          "internalType": "bool",
          "name": "",
          "type": "bool"
        }
      ],
      "stateMutability": "view",
      "type": "function",
      "constant": true
    },
    {
      "inputs": [
        {
          "internalType": "uint256",
          "name": "tokenId",
          "type": "uint256"
        }
      ],
      "name": "getApproved",
      "outputs": [
        {
          "internalType": "address",
          "name": "",
          "type": "address"
        }
      ],
      "stateMutability": "view",
      "type": "function",
      "constant": true
    },
    {
      "inputs": [
        {
          "internalType": "address",
          "name": "owner",
          "type": "address"
        },
        {
          "internalType": "address",
          "name": "operator",
          "type": "address"
        }
      ],
      "name": "isApprovedForAll",
      "outputs": [
        {
          "internalType": "bool",
          "name": "",
          "type": "bool"
        }
      ],
      "stateMutability": "view",
      "type": "function",
      "constant": true
    },
    {
      "inputs": [],
      "name": "masterStore",
      "outputs": [
        {
          "internalType": "contract NFTStore",
          "name": "",
          "type": "address"
        }
      ],
      "stateMutability": "view",
      "type": "function",
      "constant": true
    },
    {
      "inputs": [],
      "name": "name",
      "outputs": [
        {
          "internalType": "string",
          "name": "",
          "type": "string"
        }
      ],
      "stateMutability": "view",
      "type": "function",
      "constant": true
    },
    {
      "inputs": [
        {
          "internalType": "uint256",
          "name": "tokenId",
          "type": "uint256"
        }
      ],
      "name": "ownerOf",
      "outputs": [
        {
          "internalType": "address",
          "name": "",
          "type": "address"
        }
      ],
      "stateMutability": "view",
      "type": "function",
      "constant": true
    },
    {
      "inputs": [
        {
          "internalType": "address",
          "name": "from",
          "type": "address"
        },
        {
          "internalType": "address",
          "name": "to",
          "type": "address"
        },
        {
          "internalType": "uint256",
          "name": "tokenId",
          "type": "uint256"
        }
      ],
      "name": "safeTransferFrom",
      "outputs": [],
      "stateMutability": "nonpayable",
      "type": "function"
    },
    {
      "inputs": [
        {
          "internalType": "address",
          "name": "from",
          "type": "address"
        },
        {
          "internalType": "address",
          "name": "to",
          "type": "address"
        },
        {
          "internalType": "uint256",
          "name": "tokenId",
          "type": "uint256"
        },
        {
          "internalType": "bytes",
          "name": "_data",
          "type": "bytes"
        }
      ],
      "name": "safeTransferFrom",
      "outputs": [],
      "stateMutability": "nonpayable",
      "type": "function"
    },
    {
      "inputs": [
        {
          "internalType": "address",
          "name": "operator",
          "type": "address"
        },
        {
          "internalType": "bool",
          "name": "approved",
          "type": "bool"
        }
      ],
      "name": "setApprovalForAll",
      "outputs": [],
      "stateMutability": "nonpayable",
      "type": "function"
    },
    {
      "inputs": [
        {
          "internalType": "bytes4",
          "name": "interfaceId",
          "type": "bytes4"
        }
      ],
      "name": "supportsInterface",
      "outputs": [
        {
          "internalType": "bool",
          "name": "",
          "type": "bool"
        }
      ],
      "stateMutability": "view",
      "type": "function",
      "constant": true
    },
    {
      "inputs": [],
      "name": "symbol",
      "outputs": [
        {
          "internalType": "string",
          "name": "",
          "type": "string"
        }
      ],
      "stateMutability": "view",
      "type": "function",
      "constant": true
    },
    {
      "inputs": [
        {
          "internalType": "uint256",
          "name": "tokenId",
          "type": "uint256"
        }
      ],
      "name": "tokenURI",
      "outputs": [
        {
          "internalType": "string",
          "name": "",
          "type": "string"
        }
      ],
      "stateMutability": "view",
      "type": "function",
      "constant": true
    },
    {
      "inputs": [
        {
          "internalType": "address",
          "name": "from",
          "type": "address"
        },
        {
          "internalType": "address",
          "name": "to",
          "type": "address"
        },
        {
          "internalType": "uint256",
          "name": "tokenId",
          "type": "uint256"
        }
      ],
      "name": "transferFrom",
      "outputs": [],
      "stateMutability": "nonpayable",
      "type": "function"
    },
    {
      "inputs": [
        {
          "internalType": "address",
          "name": "_to",
          "type": "address"
        },
        {
          "internalType": "string",
          "name": "_tokenURI",
          "type": "string"
        },
        {
          "internalType": "string",
          "name": "courseName",
          "type": "string"
        },
        {
          "internalType": "uint256",
          "name": "_version",
          "type": "uint256"
        },
        {
          "internalType": "string",
          "name": "_did",
          "type": "string"
        }
      ],
      "name": "mintToken",
      "outputs": [],
      "stateMutability": "nonpayable",
      "type": "function"
    },
    {
      "inputs": [
        {
          "internalType": "address",
          "name": "_approver",
          "type": "address"
        }
      ],
      "name": "addApprover",
      "outputs": [],
      "stateMutability": "nonpayable",
      "type": "function"
    }
  ],
  "bytecode": "0x60806040523480156200001157600080fd5b5060405162003b4338038062003b4383398181016040528101906200003791906200034e565b6040518060400160405280600d81526020017f436f6d6d6974476974426f6f6b000000000000000000000000000000000000008152506040518060400160405280600381526020017f43474200000000000000000000000000000000000000000000000000000000008152508160009080519060200190620000bb92919062000270565b508060019080519060200190620000d492919062000270565b50505080600660006101000a81548173ffffffffffffffffffffffffffffffffffffffff021916908373ffffffffffffffffffffffffffffffffffffffff1602179055506000600660009054906101000a900473ffffffffffffffffffffffffffffffffffffffff1673ffffffffffffffffffffffffffffffffffffffff1663429b62e5336040518263ffffffff1660e01b8152600401620001779190620003ea565b60206040518083038186803b1580156200019057600080fd5b505afa158015620001a5573d6000803e3d6000fd5b505050506040513d601f19601f82011682018060405250810190620001cb919062000380565b90508062000210576040517f08c379a0000000000000000000000000000000000000000000000000000000008152600401620002079062000407565b60405180910390fd5b6001600860003373ffffffffffffffffffffffffffffffffffffffff1673ffffffffffffffffffffffffffffffffffffffff16815260200190815260200160002060006101000a81548160ff021916908315150217905550505062000555565b8280546200027e906200048e565b90600052602060002090601f016020900481019282620002a25760008555620002ee565b82601f10620002bd57805160ff1916838001178555620002ee565b82800160010185558215620002ee579182015b82811115620002ed578251825591602001919060010190620002d0565b5b509050620002fd919062000301565b5090565b5b808211156200031c57600081600090555060010162000302565b5090565b600081519050620003318162000521565b92915050565b60008151905062000348816200053b565b92915050565b600060208284031215620003675762000366620004f3565b5b6000620003778482850162000320565b91505092915050565b600060208284031215620003995762000398620004f3565b5b6000620003a98482850162000337565b91505092915050565b620003bd816200043a565b82525050565b6000620003d260208362000429565b9150620003df82620004f8565b602082019050919050565b6000602082019050620004016000830184620003b2565b92915050565b600060208201905081810360008301526200042281620003c3565b9050919050565b600082825260208201905092915050565b600062000447826200046e565b9050919050565b60006200045b826200046e565b9050919050565b60008115159050919050565b600073ffffffffffffffffffffffffffffffffffffffff82169050919050565b60006002820490506001821680620004a757607f821691505b60208210811415620004be57620004bd620004c4565b5b50919050565b7f4e487b7100000000000000000000000000000000000000000000000000000000600052602260045260246000fd5b600080fd5b7f6465706c6f7965722063616e2774206d616b65204e465420436f6e7472616374600082015250565b6200052c816200044e565b81146200053857600080fd5b50565b620005468162000462565b81146200055257600080fd5b50565b6135de80620005656000396000f3fe608060405234801561001057600080fd5b50600436106101165760003560e01c80636352211e116100a2578063a22cb46511610071578063a22cb4651461030a578063b646c19414610326578063b88d4fde14610342578063c87b56dd1461035e578063e985e9c51461038e57610116565b80636352211e14610257578063647795191461028757806370a08231146102bc57806395d89b41146102ec57610116565b80630b0d41b7116100e95780630b0d41b7146101b557806310243755146101d157806323b872dd146101ef5780632de21a451461020b57806342842e0e1461023b57610116565b806301ffc9a71461011b57806306fdde031461014b578063081812fc14610169578063095ea7b314610199575b600080fd5b610135600480360381019061013091906123db565b6103be565b6040516101429190612934565b60405180910390f35b6101536104a0565b604051610160919061296a565b60405180910390f35b610183600480360381019061017e919061247e565b610532565b604051610190919061285e565b60405180910390f35b6101b360048036038101906101ae919061236e565b6105b7565b005b6101cf60048036038101906101ca9190612230565b6106cf565b005b6101d9610b09565b6040516101e6919061294f565b60405180910390f35b6102096004803603810190610204919061211a565b610b2f565b005b61022560048036038101906102209190612435565b610b8f565b6040516102329190612934565b60405180910390f35b6102556004803603810190610250919061211a565b610bc5565b005b610271600480360381019061026c919061247e565b610be5565b60405161027e919061285e565b60405180910390f35b6102a1600480360381019061029c91906122ff565b610c97565b6040516102b3969594939291906128c5565b60405180910390f35b6102d660048036038101906102d191906120ad565b610e50565b6040516102e39190612bec565b60405180910390f35b6102f4610f08565b604051610301919061296a565b60405180910390f35b610324600480360381019061031f91906121f0565b610f9a565b005b610340600480360381019061033b91906120ad565b61111b565b005b61035c6004803603810190610357919061216d565b6112ed565b005b6103786004803603810190610373919061247e565b61134f565b604051610385919061296a565b60405180910390f35b6103a860048036038101906103a391906120da565b6113f6565b6040516103b59190612934565b60405180910390f35b60007f80ac58cd000000000000000000000000000000000000000000000000000000007bffffffffffffffffffffffffffffffffffffffffffffffffffffffff1916827bffffffffffffffffffffffffffffffffffffffffffffffffffffffff1916148061048957507f5b5e139f000000000000000000000000000000000000000000000000000000007bffffffffffffffffffffffffffffffffffffffffffffffffffffffff1916827bffffffffffffffffffffffffffffffffffffffffffffffffffffffff1916145b8061049957506104988261148a565b5b9050919050565b6060600080546104af90612e66565b80601f01602080910402602001604051908101604052809291908181526020018280546104db90612e66565b80156105285780601f106104fd57610100808354040283529160200191610528565b820191906000526020600020905b81548152906001019060200180831161050b57829003601f168201915b5050505050905090565b600061053d826114f4565b61057c576040517f08c379a000000000000000000000000000000000000000000000000000000000815260040161057390612b2c565b60405180910390fd5b6004600083815260200190815260200160002060009054906101000a900473ffffffffffffffffffffffffffffffffffffffff169050919050565b60006105c282610be5565b90508073ffffffffffffffffffffffffffffffffffffffff168373ffffffffffffffffffffffffffffffffffffffff161415610633576040517f08c379a000000000000000000000000000000000000000000000000000000000815260040161062a90612b8c565b60405180910390fd5b8073ffffffffffffffffffffffffffffffffffffffff16610652611560565b73ffffffffffffffffffffffffffffffffffffffff16148061068157506106808161067b611560565b6113f6565b5b6106c0576040517f08c379a00000000000000000000000000000000000000000000000000000000081526004016106b790612aac565b60405180910390fd5b6106ca8383611568565b505050565b600860003373ffffffffffffffffffffffffffffffffffffffff1673ffffffffffffffffffffffffffffffffffffffff16815260200190815260200160002060009054906101000a900460ff1661075b576040517f08c379a00000000000000000000000000000000000000000000000000000000081526004016107529061298c565b60405180910390fd5b600660009054906101000a900473ffffffffffffffffffffffffffffffffffffffff1673ffffffffffffffffffffffffffffffffffffffff1663372c12b1866040518263ffffffff1660e01b81526004016107b6919061285e565b60206040518083038186803b1580156107ce57600080fd5b505afa1580156107e2573d6000803e3d6000fd5b505050506040513d601f19601f8201168201806040525081019061080691906123ae565b610845576040517f08c379a000000000000000000000000000000000000000000000000000000000815260040161083c90612a8c565b60405180910390fd5b600a846040516108559190612823565b908152602001604051809103902060009054906101000a900460ff16156108b1576040517f08c379a00000000000000000000000000000000000000000000000000000000081526004016108a8906129ac565b60405180910390fd5b600760008154809291906108c490612ec9565b91905055506108d585600754611621565b6001600a856040516108e79190612823565b908152602001604051809103902060006101000a81548160ff02191690831515021790555060006040518060c001604052808773ffffffffffffffffffffffffffffffffffffffff168152602001858152602001868152602001428152602001848152602001600115158152509050600b60008773ffffffffffffffffffffffffffffffffffffffff1673ffffffffffffffffffffffffffffffffffffffff168152602001908152602001600020846040516109a39190612823565b908152602001604051809103902081908060018154018082558091505060019003906000526020600020906006020160009091909190915060008201518160000160006101000a81548173ffffffffffffffffffffffffffffffffffffffff021916908373ffffffffffffffffffffffffffffffffffffffff1602179055506020820151816001019080519060200190610a3e929190611eac565b506040820151816002019080519060200190610a5b929190611eac565b50606082015181600301556080820151816004015560a08201518160050160006101000a81548160ff021916908315150217905550505083604051610aa09190612823565b604051809103902085604051610ab69190612823565b60405180910390208773ffffffffffffffffffffffffffffffffffffffff167f6f2df5bfd4444eff029ea2b37e8750ee0dacc48243c8c7f6ff5f3690c74c917760405160405180910390a4505050505050565b600660009054906101000a900473ffffffffffffffffffffffffffffffffffffffff1681565b610b40610b3a611560565b826117ef565b610b7f576040517f08c379a0000000000000000000000000000000000000000000000000000000008152600401610b7690612bac565b60405180910390fd5b610b8a8383836118cd565b505050565b600a818051602081018201805184825260208301602085012081835280955050505050506000915054906101000a900460ff1681565b610be0838383604051806020016040528060008152506112ed565b505050565b6000806002600084815260200190815260200160002060009054906101000a900473ffffffffffffffffffffffffffffffffffffffff169050600073ffffffffffffffffffffffffffffffffffffffff168173ffffffffffffffffffffffffffffffffffffffff161415610c8e576040517f08c379a0000000000000000000000000000000000000000000000000000000008152600401610c8590612aec565b60405180910390fd5b80915050919050565b600b602052826000526040600020828051602081018201805184825260208301602085012081835280955050505050508181548110610cd557600080fd5b906000526020600020906006020160009250925050508060000160009054906101000a900473ffffffffffffffffffffffffffffffffffffffff1690806001018054610d2090612e66565b80601f0160208091040260200160405190810160405280929190818152602001828054610d4c90612e66565b8015610d995780601f10610d6e57610100808354040283529160200191610d99565b820191906000526020600020905b815481529060010190602001808311610d7c57829003601f168201915b505050505090806002018054610dae90612e66565b80601f0160208091040260200160405190810160405280929190818152602001828054610dda90612e66565b8015610e275780601f10610dfc57610100808354040283529160200191610e27565b820191906000526020600020905b815481529060010190602001808311610e0a57829003601f168201915b5050505050908060030154908060040154908060050160009054906101000a900460ff16905086565b60008073ffffffffffffffffffffffffffffffffffffffff168273ffffffffffffffffffffffffffffffffffffffff161415610ec1576040517f08c379a0000000000000000000000000000000000000000000000000000000008152600401610eb890612acc565b60405180910390fd5b600360008373ffffffffffffffffffffffffffffffffffffffff1673ffffffffffffffffffffffffffffffffffffffff168152602001908152602001600020549050919050565b606060018054610f1790612e66565b80601f0160208091040260200160405190810160405280929190818152602001828054610f4390612e66565b8015610f905780601f10610f6557610100808354040283529160200191610f90565b820191906000526020600020905b815481529060010190602001808311610f7357829003601f168201915b5050505050905090565b610fa2611560565b73ffffffffffffffffffffffffffffffffffffffff168273ffffffffffffffffffffffffffffffffffffffff161415611010576040517f08c379a000000000000000000000000000000000000000000000000000000000815260040161100790612a4c565b60405180910390fd5b806005600061101d611560565b73ffffffffffffffffffffffffffffffffffffffff1673ffffffffffffffffffffffffffffffffffffffff16815260200190815260200160002060008473ffffffffffffffffffffffffffffffffffffffff1673ffffffffffffffffffffffffffffffffffffffff16815260200190815260200160002060006101000a81548160ff0219169083151502179055508173ffffffffffffffffffffffffffffffffffffffff166110ca611560565b73ffffffffffffffffffffffffffffffffffffffff167f17307eab39ab6107e8899845ad3d59bd9653f200f220920489ca2b5937696c318360405161110f9190612934565b60405180910390a35050565b600660009054906101000a900473ffffffffffffffffffffffffffffffffffffffff1673ffffffffffffffffffffffffffffffffffffffff1663429b62e5336040518263ffffffff1660e01b8152600401611176919061285e565b60206040518083038186803b15801561118e57600080fd5b505afa1580156111a2573d6000803e3d6000fd5b505050506040513d601f19601f820116820180604052508101906111c691906123ae565b611205576040517f08c379a00000000000000000000000000000000000000000000000000000000081526004016111fc90612bcc565b60405180910390fd5b600860008273ffffffffffffffffffffffffffffffffffffffff1673ffffffffffffffffffffffffffffffffffffffff16815260200190815260200160002060009054906101000a900460ff1615611292576040517f08c379a000000000000000000000000000000000000000000000000000000000815260040161128990612a0c565b60405180910390fd5b6001600860008373ffffffffffffffffffffffffffffffffffffffff1673ffffffffffffffffffffffffffffffffffffffff16815260200190815260200160002060006101000a81548160ff02191690831515021790555050565b6112fe6112f8611560565b836117ef565b61133d576040517f08c379a000000000000000000000000000000000000000000000000000000000815260040161133490612bac565b60405180910390fd5b61134984848484611b29565b50505050565b606061135a826114f4565b611399576040517f08c379a000000000000000000000000000000000000000000000000000000000815260040161139090612b6c565b60405180910390fd5b60006113a3611b85565b905060008151116113c357604051806020016040528060008152506113ee565b806113cd84611b9c565b6040516020016113de92919061283a565b6040516020818303038152906040525b915050919050565b6000600560008473ffffffffffffffffffffffffffffffffffffffff1673ffffffffffffffffffffffffffffffffffffffff16815260200190815260200160002060008373ffffffffffffffffffffffffffffffffffffffff1673ffffffffffffffffffffffffffffffffffffffff16815260200190815260200160002060009054906101000a900460ff16905092915050565b60007f01ffc9a7000000000000000000000000000000000000000000000000000000007bffffffffffffffffffffffffffffffffffffffffffffffffffffffff1916827bffffffffffffffffffffffffffffffffffffffffffffffffffffffff1916149050919050565b60008073ffffffffffffffffffffffffffffffffffffffff166002600084815260200190815260200160002060009054906101000a900473ffffffffffffffffffffffffffffffffffffffff1673ffffffffffffffffffffffffffffffffffffffff1614159050919050565b600033905090565b816004600083815260200190815260200160002060006101000a81548173ffffffffffffffffffffffffffffffffffffffff021916908373ffffffffffffffffffffffffffffffffffffffff160217905550808273ffffffffffffffffffffffffffffffffffffffff166115db83610be5565b73ffffffffffffffffffffffffffffffffffffffff167f8c5be1e5ebec7d5bd14f71427d1e84f3dd0314c0f7b2291e5b200ac8c7c3b92560405160405180910390a45050565b600073ffffffffffffffffffffffffffffffffffffffff168273ffffffffffffffffffffffffffffffffffffffff161415611691576040517f08c379a000000000000000000000000000000000000000000000000000000000815260040161168890612b0c565b60405180910390fd5b61169a816114f4565b156116da576040517f08c379a00000000000000000000000000000000000000000000000000000000081526004016116d1906129ec565b60405180910390fd5b6116e660008383611cfd565b6001600360008473ffffffffffffffffffffffffffffffffffffffff1673ffffffffffffffffffffffffffffffffffffffff16815260200190815260200160002060008282546117369190612cd1565b92505081905550816002600083815260200190815260200160002060006101000a81548173ffffffffffffffffffffffffffffffffffffffff021916908373ffffffffffffffffffffffffffffffffffffffff160217905550808273ffffffffffffffffffffffffffffffffffffffff16600073ffffffffffffffffffffffffffffffffffffffff167fddf252ad1be2c89b69c2b068fc378daa952ba7f163c4a11628f55a4df523b3ef60405160405180910390a45050565b60006117fa826114f4565b611839576040517f08c379a000000000000000000000000000000000000000000000000000000000815260040161183090612a6c565b60405180910390fd5b600061184483610be5565b90508073ffffffffffffffffffffffffffffffffffffffff168473ffffffffffffffffffffffffffffffffffffffff1614806118b357508373ffffffffffffffffffffffffffffffffffffffff1661189b84610532565b73ffffffffffffffffffffffffffffffffffffffff16145b806118c457506118c381856113f6565b5b91505092915050565b8273ffffffffffffffffffffffffffffffffffffffff166118ed82610be5565b73ffffffffffffffffffffffffffffffffffffffff1614611943576040517f08c379a000000000000000000000000000000000000000000000000000000000815260040161193a90612b4c565b60405180910390fd5b600073ffffffffffffffffffffffffffffffffffffffff168273ffffffffffffffffffffffffffffffffffffffff1614156119b3576040517f08c379a00000000000000000000000000000000000000000000000000000000081526004016119aa90612a2c565b60405180910390fd5b6119be838383611cfd565b6119c9600082611568565b6001600360008573ffffffffffffffffffffffffffffffffffffffff1673ffffffffffffffffffffffffffffffffffffffff1681526020019081526020016000206000828254611a199190612d58565b925050819055506001600360008473ffffffffffffffffffffffffffffffffffffffff1673ffffffffffffffffffffffffffffffffffffffff1681526020019081526020016000206000828254611a709190612cd1565b92505081905550816002600083815260200190815260200160002060006101000a81548173ffffffffffffffffffffffffffffffffffffffff021916908373ffffffffffffffffffffffffffffffffffffffff160217905550808273ffffffffffffffffffffffffffffffffffffffff168473ffffffffffffffffffffffffffffffffffffffff167fddf252ad1be2c89b69c2b068fc378daa952ba7f163c4a11628f55a4df523b3ef60405160405180910390a4505050565b611b348484846118cd565b611b4084848484611d02565b611b7f576040517f08c379a0000000000000000000000000000000000000000000000000000000008152600401611b76906129cc565b60405180910390fd5b50505050565b606060405180602001604052806000815250905090565b60606000821415611be4576040518060400160405280600181526020017f30000000000000000000000000000000000000000000000000000000000000008152509050611cf8565b600082905060005b60008214611c16578080611bff90612ec9565b915050600a82611c0f9190612d27565b9150611bec565b60008167ffffffffffffffff811115611c3257611c31612fff565b5b6040519080825280601f01601f191660200182016040528015611c645781602001600182028036833780820191505090505b5090505b60008514611cf157600182611c7d9190612d58565b9150600a85611c8c9190612f12565b6030611c989190612cd1565b60f81b818381518110611cae57611cad612fd0565b5b60200101907effffffffffffffffffffffffffffffffffffffffffffffffffffffffffffff1916908160001a905350600a85611cea9190612d27565b9450611c68565b8093505050505b919050565b505050565b6000611d238473ffffffffffffffffffffffffffffffffffffffff16611e99565b15611e8c578373ffffffffffffffffffffffffffffffffffffffff1663150b7a02611d4c611560565b8786866040518563ffffffff1660e01b8152600401611d6e9493929190612879565b602060405180830381600087803b158015611d8857600080fd5b505af1925050508015611db957506040513d601f19601f82011682018060405250810190611db69190612408565b60015b611e3c573d8060008114611de9576040519150601f19603f3d011682016040523d82523d6000602084013e611dee565b606091505b50600081511415611e34576040517f08c379a0000000000000000000000000000000000000000000000000000000008152600401611e2b906129cc565b60405180910390fd5b805181602001fd5b63150b7a0260e01b7bffffffffffffffffffffffffffffffffffffffffffffffffffffffff1916817bffffffffffffffffffffffffffffffffffffffffffffffffffffffff191614915050611e91565b600190505b949350505050565b600080823b905060008111915050919050565b828054611eb890612e66565b90600052602060002090601f016020900481019282611eda5760008555611f21565b82601f10611ef357805160ff1916838001178555611f21565b82800160010185558215611f21579182015b82811115611f20578251825591602001919060010190611f05565b5b509050611f2e9190611f32565b5090565b5b80821115611f4b576000816000905550600101611f33565b5090565b6000611f62611f5d84612c2c565b612c07565b905082815260208101848484011115611f7e57611f7d613033565b5b611f89848285612e24565b509392505050565b6000611fa4611f9f84612c5d565b612c07565b905082815260208101848484011115611fc057611fbf613033565b5b611fcb848285612e24565b509392505050565b600081359050611fe28161354c565b92915050565b600081359050611ff781613563565b92915050565b60008151905061200c81613563565b92915050565b6000813590506120218161357a565b92915050565b6000815190506120368161357a565b92915050565b600082601f8301126120515761205061302e565b5b8135612061848260208601611f4f565b91505092915050565b600082601f83011261207f5761207e61302e565b5b813561208f848260208601611f91565b91505092915050565b6000813590506120a781613591565b92915050565b6000602082840312156120c3576120c261303d565b5b60006120d184828501611fd3565b91505092915050565b600080604083850312156120f1576120f061303d565b5b60006120ff85828601611fd3565b925050602061211085828601611fd3565b9150509250929050565b6000806000606084860312156121335761213261303d565b5b600061214186828701611fd3565b935050602061215286828701611fd3565b925050604061216386828701612098565b9150509250925092565b600080600080608085870312156121875761218661303d565b5b600061219587828801611fd3565b94505060206121a687828801611fd3565b93505060406121b787828801612098565b925050606085013567ffffffffffffffff8111156121d8576121d7613038565b5b6121e48782880161203c565b91505092959194509250565b600080604083850312156122075761220661303d565b5b600061221585828601611fd3565b925050602061222685828601611fe8565b9150509250929050565b600080600080600060a0868803121561224c5761224b61303d565b5b600061225a88828901611fd3565b955050602086013567ffffffffffffffff81111561227b5761227a613038565b5b6122878882890161206a565b945050604086013567ffffffffffffffff8111156122a8576122a7613038565b5b6122b48882890161206a565b93505060606122c588828901612098565b925050608086013567ffffffffffffffff8111156122e6576122e5613038565b5b6122f28882890161206a565b9150509295509295909350565b6000806000606084860312156123185761231761303d565b5b600061232686828701611fd3565b935050602084013567ffffffffffffffff81111561234757612346613038565b5b6123538682870161206a565b925050604061236486828701612098565b9150509250925092565b600080604083850312156123855761238461303d565b5b600061239385828601611fd3565b92505060206123a485828601612098565b9150509250929050565b6000602082840312156123c4576123c361303d565b5b60006123d284828501611ffd565b91505092915050565b6000602082840312156123f1576123f061303d565b5b60006123ff84828501612012565b91505092915050565b60006020828403121561241e5761241d61303d565b5b600061242c84828501612027565b91505092915050565b60006020828403121561244b5761244a61303d565b5b600082013567ffffffffffffffff81111561246957612468613038565b5b6124758482850161206a565b91505092915050565b6000602082840312156124945761249361303d565b5b60006124a284828501612098565b91505092915050565b6124b481612d8c565b82525050565b6124c381612d9e565b82525050565b60006124d482612c8e565b6124de8185612ca4565b93506124ee818560208601612e33565b6124f781613042565b840191505092915050565b61250b81612e00565b82525050565b600061251c82612c99565b6125268185612cb5565b9350612536818560208601612e33565b61253f81613042565b840191505092915050565b600061255582612c99565b61255f8185612cc6565b935061256f818560208601612e33565b80840191505092915050565b6000612588602383612cb5565b915061259382613053565b604082019050919050565b60006125ab601f83612cb5565b91506125b6826130a2565b602082019050919050565b60006125ce603283612cb5565b91506125d9826130cb565b604082019050919050565b60006125f1601c83612cb5565b91506125fc8261311a565b602082019050919050565b6000612614601e83612cb5565b915061261f82613143565b602082019050919050565b6000612637602483612cb5565b91506126428261316c565b604082019050919050565b600061265a601983612cb5565b9150612665826131bb565b602082019050919050565b600061267d602c83612cb5565b9150612688826131e4565b604082019050919050565b60006126a0601a83612cb5565b91506126ab82613233565b602082019050919050565b60006126c3603883612cb5565b91506126ce8261325c565b604082019050919050565b60006126e6602a83612cb5565b91506126f1826132ab565b604082019050919050565b6000612709602983612cb5565b9150612714826132fa565b604082019050919050565b600061272c602083612cb5565b915061273782613349565b602082019050919050565b600061274f602c83612cb5565b915061275a82613372565b604082019050919050565b6000612772602983612cb5565b915061277d826133c1565b604082019050919050565b6000612795602f83612cb5565b91506127a082613410565b604082019050919050565b60006127b8602183612cb5565b91506127c38261345f565b604082019050919050565b60006127db603183612cb5565b91506127e6826134ae565b604082019050919050565b60006127fe602383612cb5565b9150612809826134fd565b604082019050919050565b61281d81612df6565b82525050565b600061282f828461254a565b915081905092915050565b6000612846828561254a565b9150612852828461254a565b91508190509392505050565b600060208201905061287360008301846124ab565b92915050565b600060808201905061288e60008301876124ab565b61289b60208301866124ab565b6128a86040830185612814565b81810360608301526128ba81846124c9565b905095945050505050565b600060c0820190506128da60008301896124ab565b81810360208301526128ec8188612511565b905081810360408301526129008187612511565b905061290f6060830186612814565b61291c6080830185612814565b61292960a08301846124ba565b979650505050505050565b600060208201905061294960008301846124ba565b92915050565b60006020820190506129646000830184612502565b92915050565b600060208201905081810360008301526129848184612511565b905092915050565b600060208201905081810360008301526129a58161257b565b9050919050565b600060208201905081810360008301526129c58161259e565b9050919050565b600060208201905081810360008301526129e5816125c1565b9050919050565b60006020820190508181036000830152612a05816125e4565b9050919050565b60006020820190508181036000830152612a2581612607565b9050919050565b60006020820190508181036000830152612a458161262a565b9050919050565b60006020820190508181036000830152612a658161264d565b9050919050565b60006020820190508181036000830152612a8581612670565b9050919050565b60006020820190508181036000830152612aa581612693565b9050919050565b60006020820190508181036000830152612ac5816126b6565b9050919050565b60006020820190508181036000830152612ae5816126d9565b9050919050565b60006020820190508181036000830152612b05816126fc565b9050919050565b60006020820190508181036000830152612b258161271f565b9050919050565b60006020820190508181036000830152612b4581612742565b9050919050565b60006020820190508181036000830152612b6581612765565b9050919050565b60006020820190508181036000830152612b8581612788565b9050919050565b60006020820190508181036000830152612ba5816127ab565b9050919050565b60006020820190508181036000830152612bc5816127ce565b9050919050565b60006020820190508181036000830152612be5816127f1565b9050919050565b6000602082019050612c016000830184612814565b92915050565b6000612c11612c22565b9050612c1d8282612e98565b919050565b6000604051905090565b600067ffffffffffffffff821115612c4757612c46612fff565b5b612c5082613042565b9050602081019050919050565b600067ffffffffffffffff821115612c7857612c77612fff565b5b612c8182613042565b9050602081019050919050565b600081519050919050565b600081519050919050565b600082825260208201905092915050565b600082825260208201905092915050565b600081905092915050565b6000612cdc82612df6565b9150612ce783612df6565b9250827fffffffffffffffffffffffffffffffffffffffffffffffffffffffffffffffff03821115612d1c57612d1b612f43565b5b828201905092915050565b6000612d3282612df6565b9150612d3d83612df6565b925082612d4d57612d4c612f72565b5b828204905092915050565b6000612d6382612df6565b9150612d6e83612df6565b925082821015612d8157612d80612f43565b5b828203905092915050565b6000612d9782612dd6565b9050919050565b60008115159050919050565b60007fffffffff0000000000000000000000000000000000000000000000000000000082169050919050565b600073ffffffffffffffffffffffffffffffffffffffff82169050919050565b6000819050919050565b6000612e0b82612e12565b9050919050565b6000612e1d82612dd6565b9050919050565b82818337600083830152505050565b60005b83811015612e51578082015181840152602081019050612e36565b83811115612e60576000848401525b50505050565b60006002820490506001821680612e7e57607f821691505b60208210811415612e9257612e91612fa1565b5b50919050565b612ea182613042565b810181811067ffffffffffffffff82111715612ec057612ebf612fff565b5b80604052505050565b6000612ed482612df6565b91507fffffffffffffffffffffffffffffffffffffffffffffffffffffffffffffffff821415612f0757612f06612f43565b5b600182019050919050565b6000612f1d82612df6565b9150612f2883612df6565b925082612f3857612f37612f72565b5b828206905092915050565b7f4e487b7100000000000000000000000000000000000000000000000000000000600052601160045260246000fd5b7f4e487b7100000000000000000000000000000000000000000000000000000000600052601260045260246000fd5b7f4e487b7100000000000000000000000000000000000000000000000000000000600052602260045260246000fd5b7f4e487b7100000000000000000000000000000000000000000000000000000000600052603260045260246000fd5b7f4e487b7100000000000000000000000000000000000000000000000000000000600052604160045260246000fd5b600080fd5b600080fd5b600080fd5b600080fd5b6000601f19601f8301169050919050565b7f6f6e6c7920616e20617070726f7665722063616e20706572666f726d2061637460008201527f696f6e0000000000000000000000000000000000000000000000000000000000602082015250565b7f746869732055524920616c7265616479206973206265696e6720757365642100600082015250565b7f4552433732313a207472616e7366657220746f206e6f6e20455243373231526560008201527f63656976657220696d706c656d656e7465720000000000000000000000000000602082015250565b7f4552433732313a20746f6b656e20616c7265616479206d696e74656400000000600082015250565b7f6164647265737320697320616c726561647920616e20617070726f7665720000600082015250565b7f4552433732313a207472616e7366657220746f20746865207a65726f2061646460008201527f7265737300000000000000000000000000000000000000000000000000000000602082015250565b7f4552433732313a20617070726f766520746f2063616c6c657200000000000000600082015250565b7f4552433732313a206f70657261746f7220717565727920666f72206e6f6e657860008201527f697374656e7420746f6b656e0000000000000000000000000000000000000000602082015250565b7f61646472657373206973206e6f74207265676973746572656421000000000000600082015250565b7f4552433732313a20617070726f76652063616c6c6572206973206e6f74206f7760008201527f6e6572206e6f7220617070726f76656420666f7220616c6c0000000000000000602082015250565b7f4552433732313a2062616c616e636520717565727920666f7220746865207a6560008201527f726f206164647265737300000000000000000000000000000000000000000000602082015250565b7f4552433732313a206f776e657220717565727920666f72206e6f6e657869737460008201527f656e7420746f6b656e0000000000000000000000000000000000000000000000602082015250565b7f4552433732313a206d696e7420746f20746865207a65726f2061646472657373600082015250565b7f4552433732313a20617070726f76656420717565727920666f72206e6f6e657860008201527f697374656e7420746f6b656e0000000000000000000000000000000000000000602082015250565b7f4552433732313a207472616e73666572206f6620746f6b656e2074686174206960008201527f73206e6f74206f776e0000000000000000000000000000000000000000000000602082015250565b7f4552433732314d657461646174613a2055524920717565727920666f72206e6f60008201527f6e6578697374656e7420746f6b656e0000000000000000000000000000000000602082015250565b7f4552433732313a20617070726f76616c20746f2063757272656e74206f776e6560008201527f7200000000000000000000000000000000000000000000000000000000000000602082015250565b7f4552433732313a207472616e736665722063616c6c6572206973206e6f74206f60008201527f776e6572206e6f7220617070726f766564000000000000000000000000000000602082015250565b7f6f6e6c792061646d696e732063616e20706572666f726d20746869732061637460008201527f696f6e0000000000000000000000000000000000000000000000000000000000602082015250565b61355581612d8c565b811461356057600080fd5b50565b61356c81612d9e565b811461357757600080fd5b50565b61358381612daa565b811461358e57600080fd5b50565b61359a81612df6565b81146135a557600080fd5b5056fea2646970667358221220977402028fa1e4941df23b5b70fba351f6bfd09ed374ac453d3affbed3363c7064736f6c63430008060033",
  "immutableReferences": {},
  "source": "pragma solidity >=0.5.0 <0.9.0;\n\n/**\n * @title DiscoveryMergeNFT\n * @dev NFTs for merging course content on gitbook\n*/\n\nimport \"@openzeppelin/contracts/token/ERC721/ERC721.sol\";\nimport \"./NFTStore.sol\";\n\ncontract DiscoveryMergeNFT is ERC721{\n\n    NFTStore public masterStore;\n    uint tokenID;\n    mapping (address => bool) approvers;\n    mapping (string => uint[]) courseIndices;\n    mapping (string => bool) public checkNFTURI;\n    mapping (address => mapping(string => Commit[])) public Commits; //address --> course -> versions\n\n    event NFTCommitMinted(address indexed _to, string indexed _tokenURI, string indexed course);\n\n    constructor(address payable _masterStoreAddress) ERC721(\"CommitGitBook\", \"CGB\") public{\n        masterStore = NFTStore(_masterStoreAddress);\n        bool adminCheck = masterStore.admins(msg.sender);\n        require(adminCheck, \"deployer can't make NFT Contract\");\n        approvers[msg.sender] = true;\n    } \n\n    struct Commit {\n        address receiver;\n        string course;\n        string URI;\n        uint timestamp;\n        uint version;\n        bool exists;\n    }\n\n    modifier onlyApprover(){\n        require(approvers[msg.sender], \"only an approver can perform action\");\n        _;\n    }\n\n    function mintToken(address _to , string memory _tokenURI, string memory courseName, uint _version, string memory _did) public onlyApprover() {\n        \n        require(masterStore.whiteList(_to), \"address is not registered!\");\n        require(!checkNFTURI[_tokenURI], \"this URI already is being used!\");\n        //insert chainlink call for randomness later\n        tokenID++;\n        _mint(_to, tokenID);\n        checkNFTURI[_tokenURI] = true;\n        \n        Commit memory commit_to_add = Commit({\n            receiver : _to,\n            course : courseName,\n            URI : _tokenURI,\n            timestamp : block.timestamp,\n            version : _version,\n            exists : true\n        });\n        Commits[_to][courseName].push(commit_to_add);\n        emit NFTCommitMinted(_to, _tokenURI, courseName);\n    }\n\n    function addApprover(address _approver) public {\n        require (masterStore.admins(msg.sender), \"only admins can perform this action\");\n        require (!approvers[_approver], \"address is already an approver\");\n        approvers[_approver]=true;\n    }\n}",
  "sourcePath": "/home/jpick713/BlockChain_Apps/nftIPFS/contracts/DiscoveryMergeNFT.sol",
  "compiler": {
    "name": "solc",
    "version": "0.8.6+commit.11564f7e.Emscripten.clang"
  },
  "schemaVersion": "3.4.2",
  "updatedAt": "2021-08-14T18:57:51.265Z",
  "networkType": "ethereum",
  "devdoc": {
    "kind": "dev",
    "methods": {
      "approve(address,uint256)": {
        "details": "See {IERC721-approve}."
      },
      "balanceOf(address)": {
        "details": "See {IERC721-balanceOf}."
      },
      "getApproved(uint256)": {
        "details": "See {IERC721-getApproved}."
      },
      "isApprovedForAll(address,address)": {
        "details": "See {IERC721-isApprovedForAll}."
      },
      "name()": {
        "details": "See {IERC721Metadata-name}."
      },
      "ownerOf(uint256)": {
        "details": "See {IERC721-ownerOf}."
      },
      "safeTransferFrom(address,address,uint256)": {
        "details": "See {IERC721-safeTransferFrom}."
      },
      "safeTransferFrom(address,address,uint256,bytes)": {
        "details": "See {IERC721-safeTransferFrom}."
      },
      "setApprovalForAll(address,bool)": {
        "details": "See {IERC721-setApprovalForAll}."
      },
      "supportsInterface(bytes4)": {
        "details": "See {IERC165-supportsInterface}."
      },
      "symbol()": {
        "details": "See {IERC721Metadata-symbol}."
      },
      "tokenURI(uint256)": {
        "details": "See {IERC721Metadata-tokenURI}."
      },
      "transferFrom(address,address,uint256)": {
        "details": "See {IERC721-transferFrom}."
      }
    },
    "version": 1
  },
  "userdoc": {
    "kind": "user",
    "methods": {},
    "version": 1
  }
}