{
  "contractName": "DiscoveryMergeNFT",
  "abi": [
    {
      "inputs": [
        {
          "internalType": "address",
          "name": "_masterStoreAddress",
          "type": "address"
        }
      ],
      "stateMutability": "nonpayable",
      "type": "constructor"
    },
    {
      "anonymous": false,
      "inputs": [
        {
          "indexed": true,
          "internalType": "address",
          "name": "owner",
          "type": "address"
        },
        {
          "indexed": true,
          "internalType": "address",
          "name": "approved",
          "type": "address"
        },
        {
          "indexed": true,
          "internalType": "uint256",
          "name": "tokenId",
          "type": "uint256"
        }
      ],
      "name": "Approval",
      "type": "event"
    },
    {
      "anonymous": false,
      "inputs": [
        {
          "indexed": true,
          "internalType": "address",
          "name": "owner",
          "type": "address"
        },
        {
          "indexed": true,
          "internalType": "address",
          "name": "operator",
          "type": "address"
        },
        {
          "indexed": false,
          "internalType": "bool",
          "name": "approved",
          "type": "bool"
        }
      ],
      "name": "ApprovalForAll",
      "type": "event"
    },
    {
      "anonymous": false,
      "inputs": [
        {
          "indexed": true,
          "internalType": "address",
          "name": "from",
          "type": "address"
        },
        {
          "indexed": true,
          "internalType": "address",
          "name": "to",
          "type": "address"
        },
        {
          "indexed": true,
          "internalType": "uint256",
          "name": "tokenId",
          "type": "uint256"
        }
      ],
      "name": "Transfer",
      "type": "event"
    },
    {
      "inputs": [
        {
          "internalType": "address",
          "name": "to",
          "type": "address"
        },
        {
          "internalType": "uint256",
          "name": "tokenId",
          "type": "uint256"
        }
      ],
      "name": "approve",
      "outputs": [],
      "stateMutability": "nonpayable",
      "type": "function"
    },
    {
      "inputs": [
        {
          "internalType": "address",
          "name": "owner",
          "type": "address"
        }
      ],
      "name": "balanceOf",
      "outputs": [
        {
          "internalType": "uint256",
          "name": "",
          "type": "uint256"
        }
      ],
      "stateMutability": "view",
      "type": "function",
      "constant": true
    },
    {
      "inputs": [
        {
          "internalType": "uint256",
          "name": "tokenId",
          "type": "uint256"
        }
      ],
      "name": "getApproved",
      "outputs": [
        {
          "internalType": "address",
          "name": "",
          "type": "address"
        }
      ],
      "stateMutability": "view",
      "type": "function",
      "constant": true
    },
    {
      "inputs": [
        {
          "internalType": "address",
          "name": "owner",
          "type": "address"
        },
        {
          "internalType": "address",
          "name": "operator",
          "type": "address"
        }
      ],
      "name": "isApprovedForAll",
      "outputs": [
        {
          "internalType": "bool",
          "name": "",
          "type": "bool"
        }
      ],
      "stateMutability": "view",
      "type": "function",
      "constant": true
    },
    {
      "inputs": [],
      "name": "masterStore",
      "outputs": [
        {
          "internalType": "contract NFTStore",
          "name": "",
          "type": "address"
        }
      ],
      "stateMutability": "view",
      "type": "function",
      "constant": true
    },
    {
      "inputs": [],
      "name": "name",
      "outputs": [
        {
          "internalType": "string",
          "name": "",
          "type": "string"
        }
      ],
      "stateMutability": "view",
      "type": "function",
      "constant": true
    },
    {
      "inputs": [
        {
          "internalType": "uint256",
          "name": "tokenId",
          "type": "uint256"
        }
      ],
      "name": "ownerOf",
      "outputs": [
        {
          "internalType": "address",
          "name": "",
          "type": "address"
        }
      ],
      "stateMutability": "view",
      "type": "function",
      "constant": true
    },
    {
      "inputs": [
        {
          "internalType": "address",
          "name": "from",
          "type": "address"
        },
        {
          "internalType": "address",
          "name": "to",
          "type": "address"
        },
        {
          "internalType": "uint256",
          "name": "tokenId",
          "type": "uint256"
        }
      ],
      "name": "safeTransferFrom",
      "outputs": [],
      "stateMutability": "nonpayable",
      "type": "function"
    },
    {
      "inputs": [
        {
          "internalType": "address",
          "name": "from",
          "type": "address"
        },
        {
          "internalType": "address",
          "name": "to",
          "type": "address"
        },
        {
          "internalType": "uint256",
          "name": "tokenId",
          "type": "uint256"
        },
        {
          "internalType": "bytes",
          "name": "_data",
          "type": "bytes"
        }
      ],
      "name": "safeTransferFrom",
      "outputs": [],
      "stateMutability": "nonpayable",
      "type": "function"
    },
    {
      "inputs": [
        {
          "internalType": "address",
          "name": "operator",
          "type": "address"
        },
        {
          "internalType": "bool",
          "name": "approved",
          "type": "bool"
        }
      ],
      "name": "setApprovalForAll",
      "outputs": [],
      "stateMutability": "nonpayable",
      "type": "function"
    },
    {
      "inputs": [
        {
          "internalType": "bytes4",
          "name": "interfaceId",
          "type": "bytes4"
        }
      ],
      "name": "supportsInterface",
      "outputs": [
        {
          "internalType": "bool",
          "name": "",
          "type": "bool"
        }
      ],
      "stateMutability": "view",
      "type": "function",
      "constant": true
    },
    {
      "inputs": [],
      "name": "symbol",
      "outputs": [
        {
          "internalType": "string",
          "name": "",
          "type": "string"
        }
      ],
      "stateMutability": "view",
      "type": "function",
      "constant": true
    },
    {
      "inputs": [
        {
          "internalType": "uint256",
          "name": "tokenId",
          "type": "uint256"
        }
      ],
      "name": "tokenURI",
      "outputs": [
        {
          "internalType": "string",
          "name": "",
          "type": "string"
        }
      ],
      "stateMutability": "view",
      "type": "function",
      "constant": true
    },
    {
      "inputs": [
        {
          "internalType": "address",
          "name": "from",
          "type": "address"
        },
        {
          "internalType": "address",
          "name": "to",
          "type": "address"
        },
        {
          "internalType": "uint256",
          "name": "tokenId",
          "type": "uint256"
        }
      ],
      "name": "transferFrom",
      "outputs": [],
      "stateMutability": "nonpayable",
      "type": "function"
    }
  ],
  "bytecode": "0x60806040523480156200001157600080fd5b5060405162002972380380620029728339818101604052810190620000379190620002f6565b6040518060400160405280600d81526020017f436f6d6d6974476974426f6f6b000000000000000000000000000000000000008152506040518060400160405280600381526020017f43474200000000000000000000000000000000000000000000000000000000008152508160009080519060200190620000bb92919062000218565b508060019080519060200190620000d492919062000218565b50505080600660006101000a81548173ffffffffffffffffffffffffffffffffffffffff021916908373ffffffffffffffffffffffffffffffffffffffff1602179055506000600660009054906101000a900473ffffffffffffffffffffffffffffffffffffffff1673ffffffffffffffffffffffffffffffffffffffff1663429b62e5336040518263ffffffff1660e01b815260040162000177919062000392565b60206040518083038186803b1580156200019057600080fd5b505afa158015620001a5573d6000803e3d6000fd5b505050506040513d601f19601f82011682018060405250810190620001cb919062000328565b90508062000210576040517f08c379a00000000000000000000000000000000000000000000000000000000081526004016200020790620003af565b60405180910390fd5b5050620004e9565b828054620002269062000422565b90600052602060002090601f0160209004810192826200024a576000855562000296565b82601f106200026557805160ff191683800117855562000296565b8280016001018555821562000296579182015b828111156200029557825182559160200191906001019062000278565b5b509050620002a59190620002a9565b5090565b5b80821115620002c4576000816000905550600101620002aa565b5090565b600081519050620002d981620004b5565b92915050565b600081519050620002f081620004cf565b92915050565b6000602082840312156200030f576200030e62000487565b5b60006200031f84828501620002c8565b91505092915050565b60006020828403121562000341576200034062000487565b5b60006200035184828501620002df565b91505092915050565b6200036581620003e2565b82525050565b60006200037a601783620003d1565b915062000387826200048c565b602082019050919050565b6000602082019050620003a960008301846200035a565b92915050565b60006020820190508181036000830152620003ca816200036b565b9050919050565b600082825260208201905092915050565b6000620003ef8262000402565b9050919050565b60008115159050919050565b600073ffffffffffffffffffffffffffffffffffffffff82169050919050565b600060028204905060018216806200043b57607f821691505b6020821081141562000452576200045162000458565b5b50919050565b7f4e487b7100000000000000000000000000000000000000000000000000000000600052602260045260246000fd5b600080fd5b7f6465706c6f7965722063616e2774206d616b65204e4654000000000000000000600082015250565b620004c081620003e2565b8114620004cc57600080fd5b50565b620004da81620003f6565b8114620004e657600080fd5b50565b61247980620004f96000396000f3fe608060405234801561001057600080fd5b50600436106100ea5760003560e01c80636352211e1161008c578063a22cb46511610066578063a22cb4651461025d578063b88d4fde14610279578063c87b56dd14610295578063e985e9c5146102c5576100ea565b80636352211e146101df57806370a082311461020f57806395d89b411461023f576100ea565b8063095ea7b3116100c8578063095ea7b31461016d578063102437551461018957806323b872dd146101a757806342842e0e146101c3576100ea565b806301ffc9a7146100ef57806306fdde031461011f578063081812fc1461013d575b600080fd5b610109600480360381019061010491906116b6565b6102f5565b6040516101169190611a4b565b60405180910390f35b6101276103d7565b6040516101349190611a81565b60405180910390f35b61015760048036038101906101529190611710565b610469565b60405161016491906119e4565b60405180910390f35b61018760048036038101906101829190611676565b6104ee565b005b610191610606565b60405161019e9190611a66565b60405180910390f35b6101c160048036038101906101bc9190611560565b61062c565b005b6101dd60048036038101906101d89190611560565b61068c565b005b6101f960048036038101906101f49190611710565b6106ac565b60405161020691906119e4565b60405180910390f35b610229600480360381019061022491906114f3565b61075e565b6040516102369190611c23565b60405180910390f35b610247610816565b6040516102549190611a81565b60405180910390f35b61027760048036038101906102729190611636565b6108a8565b005b610293600480360381019061028e91906115b3565b610a29565b005b6102af60048036038101906102aa9190611710565b610a8b565b6040516102bc9190611a81565b60405180910390f35b6102df60048036038101906102da9190611520565b610b32565b6040516102ec9190611a4b565b60405180910390f35b60007f80ac58cd000000000000000000000000000000000000000000000000000000007bffffffffffffffffffffffffffffffffffffffffffffffffffffffff1916827bffffffffffffffffffffffffffffffffffffffffffffffffffffffff191614806103c057507f5b5e139f000000000000000000000000000000000000000000000000000000007bffffffffffffffffffffffffffffffffffffffffffffffffffffffff1916827bffffffffffffffffffffffffffffffffffffffffffffffffffffffff1916145b806103d057506103cf82610bc6565b5b9050919050565b6060600080546103e690611e6c565b80601f016020809104026020016040519081016040528092919081815260200182805461041290611e6c565b801561045f5780601f106104345761010080835404028352916020019161045f565b820191906000526020600020905b81548152906001019060200180831161044257829003601f168201915b5050505050905090565b600061047482610c30565b6104b3576040517f08c379a00000000000000000000000000000000000000000000000000000000081526004016104aa90611b83565b60405180910390fd5b6004600083815260200190815260200160002060009054906101000a900473ffffffffffffffffffffffffffffffffffffffff169050919050565b60006104f9826106ac565b90508073ffffffffffffffffffffffffffffffffffffffff168373ffffffffffffffffffffffffffffffffffffffff16141561056a576040517f08c379a000000000000000000000000000000000000000000000000000000000815260040161056190611be3565b60405180910390fd5b8073ffffffffffffffffffffffffffffffffffffffff16610589610c9c565b73ffffffffffffffffffffffffffffffffffffffff1614806105b857506105b7816105b2610c9c565b610b32565b5b6105f7576040517f08c379a00000000000000000000000000000000000000000000000000000000081526004016105ee90611b23565b60405180910390fd5b6106018383610ca4565b505050565b600660009054906101000a900473ffffffffffffffffffffffffffffffffffffffff1681565b61063d610637610c9c565b82610d5d565b61067c576040517f08c379a000000000000000000000000000000000000000000000000000000000815260040161067390611c03565b60405180910390fd5b610687838383610e3b565b505050565b6106a783838360405180602001604052806000815250610a29565b505050565b6000806002600084815260200190815260200160002060009054906101000a900473ffffffffffffffffffffffffffffffffffffffff169050600073ffffffffffffffffffffffffffffffffffffffff168173ffffffffffffffffffffffffffffffffffffffff161415610755576040517f08c379a000000000000000000000000000000000000000000000000000000000815260040161074c90611b63565b60405180910390fd5b80915050919050565b60008073ffffffffffffffffffffffffffffffffffffffff168273ffffffffffffffffffffffffffffffffffffffff1614156107cf576040517f08c379a00000000000000000000000000000000000000000000000000000000081526004016107c690611b43565b60405180910390fd5b600360008373ffffffffffffffffffffffffffffffffffffffff1673ffffffffffffffffffffffffffffffffffffffff168152602001908152602001600020549050919050565b60606001805461082590611e6c565b80601f016020809104026020016040519081016040528092919081815260200182805461085190611e6c565b801561089e5780601f106108735761010080835404028352916020019161089e565b820191906000526020600020905b81548152906001019060200180831161088157829003601f168201915b5050505050905090565b6108b0610c9c565b73ffffffffffffffffffffffffffffffffffffffff168273ffffffffffffffffffffffffffffffffffffffff16141561091e576040517f08c379a000000000000000000000000000000000000000000000000000000000815260040161091590611ae3565b60405180910390fd5b806005600061092b610c9c565b73ffffffffffffffffffffffffffffffffffffffff1673ffffffffffffffffffffffffffffffffffffffff16815260200190815260200160002060008473ffffffffffffffffffffffffffffffffffffffff1673ffffffffffffffffffffffffffffffffffffffff16815260200190815260200160002060006101000a81548160ff0219169083151502179055508173ffffffffffffffffffffffffffffffffffffffff166109d8610c9c565b73ffffffffffffffffffffffffffffffffffffffff167f17307eab39ab6107e8899845ad3d59bd9653f200f220920489ca2b5937696c3183604051610a1d9190611a4b565b60405180910390a35050565b610a3a610a34610c9c565b83610d5d565b610a79576040517f08c379a0000000000000000000000000000000000000000000000000000000008152600401610a7090611c03565b60405180910390fd5b610a8584848484611097565b50505050565b6060610a9682610c30565b610ad5576040517f08c379a0000000000000000000000000000000000000000000000000000000008152600401610acc90611bc3565b60405180910390fd5b6000610adf6110f3565b90506000815111610aff5760405180602001604052806000815250610b2a565b80610b098461110a565b604051602001610b1a9291906119c0565b6040516020818303038152906040525b915050919050565b6000600560008473ffffffffffffffffffffffffffffffffffffffff1673ffffffffffffffffffffffffffffffffffffffff16815260200190815260200160002060008373ffffffffffffffffffffffffffffffffffffffff1673ffffffffffffffffffffffffffffffffffffffff16815260200190815260200160002060009054906101000a900460ff16905092915050565b60007f01ffc9a7000000000000000000000000000000000000000000000000000000007bffffffffffffffffffffffffffffffffffffffffffffffffffffffff1916827bffffffffffffffffffffffffffffffffffffffffffffffffffffffff1916149050919050565b60008073ffffffffffffffffffffffffffffffffffffffff166002600084815260200190815260200160002060009054906101000a900473ffffffffffffffffffffffffffffffffffffffff1673ffffffffffffffffffffffffffffffffffffffff1614159050919050565b600033905090565b816004600083815260200190815260200160002060006101000a81548173ffffffffffffffffffffffffffffffffffffffff021916908373ffffffffffffffffffffffffffffffffffffffff160217905550808273ffffffffffffffffffffffffffffffffffffffff16610d17836106ac565b73ffffffffffffffffffffffffffffffffffffffff167f8c5be1e5ebec7d5bd14f71427d1e84f3dd0314c0f7b2291e5b200ac8c7c3b92560405160405180910390a45050565b6000610d6882610c30565b610da7576040517f08c379a0000000000000000000000000000000000000000000000000000000008152600401610d9e90611b03565b60405180910390fd5b6000610db2836106ac565b90508073ffffffffffffffffffffffffffffffffffffffff168473ffffffffffffffffffffffffffffffffffffffff161480610e2157508373ffffffffffffffffffffffffffffffffffffffff16610e0984610469565b73ffffffffffffffffffffffffffffffffffffffff16145b80610e325750610e318185610b32565b5b91505092915050565b8273ffffffffffffffffffffffffffffffffffffffff16610e5b826106ac565b73ffffffffffffffffffffffffffffffffffffffff1614610eb1576040517f08c379a0000000000000000000000000000000000000000000000000000000008152600401610ea890611ba3565b60405180910390fd5b600073ffffffffffffffffffffffffffffffffffffffff168273ffffffffffffffffffffffffffffffffffffffff161415610f21576040517f08c379a0000000000000000000000000000000000000000000000000000000008152600401610f1890611ac3565b60405180910390fd5b610f2c83838361126b565b610f37600082610ca4565b6001600360008573ffffffffffffffffffffffffffffffffffffffff1673ffffffffffffffffffffffffffffffffffffffff1681526020019081526020016000206000828254610f879190611d5e565b925050819055506001600360008473ffffffffffffffffffffffffffffffffffffffff1673ffffffffffffffffffffffffffffffffffffffff1681526020019081526020016000206000828254610fde9190611cd7565b92505081905550816002600083815260200190815260200160002060006101000a81548173ffffffffffffffffffffffffffffffffffffffff021916908373ffffffffffffffffffffffffffffffffffffffff160217905550808273ffffffffffffffffffffffffffffffffffffffff168473ffffffffffffffffffffffffffffffffffffffff167fddf252ad1be2c89b69c2b068fc378daa952ba7f163c4a11628f55a4df523b3ef60405160405180910390a4505050565b6110a2848484610e3b565b6110ae84848484611270565b6110ed576040517f08c379a00000000000000000000000000000000000000000000000000000000081526004016110e490611aa3565b60405180910390fd5b50505050565b606060405180602001604052806000815250905090565b60606000821415611152576040518060400160405280600181526020017f30000000000000000000000000000000000000000000000000000000000000008152509050611266565b600082905060005b6000821461118457808061116d90611ecf565b915050600a8261117d9190611d2d565b915061115a565b60008167ffffffffffffffff8111156111a05761119f612005565b5b6040519080825280601f01601f1916602001820160405280156111d25781602001600182028036833780820191505090505b5090505b6000851461125f576001826111eb9190611d5e565b9150600a856111fa9190611f18565b60306112069190611cd7565b60f81b81838151811061121c5761121b611fd6565b5b60200101907effffffffffffffffffffffffffffffffffffffffffffffffffffffffffffff1916908160001a905350600a856112589190611d2d565b94506111d6565b8093505050505b919050565b505050565b60006112918473ffffffffffffffffffffffffffffffffffffffff16611407565b156113fa578373ffffffffffffffffffffffffffffffffffffffff1663150b7a026112ba610c9c565b8786866040518563ffffffff1660e01b81526004016112dc94939291906119ff565b602060405180830381600087803b1580156112f657600080fd5b505af192505050801561132757506040513d601f19601f8201168201806040525081019061132491906116e3565b60015b6113aa573d8060008114611357576040519150601f19603f3d011682016040523d82523d6000602084013e61135c565b606091505b506000815114156113a2576040517f08c379a000000000000000000000000000000000000000000000000000000000815260040161139990611aa3565b60405180910390fd5b805181602001fd5b63150b7a0260e01b7bffffffffffffffffffffffffffffffffffffffffffffffffffffffff1916817bffffffffffffffffffffffffffffffffffffffffffffffffffffffff1916149150506113ff565b600190505b949350505050565b600080823b905060008111915050919050565b600061142d61142884611c63565b611c3e565b90508281526020810184848401111561144957611448612039565b5b611454848285611e2a565b509392505050565b60008135905061146b816123e7565b92915050565b600081359050611480816123fe565b92915050565b60008135905061149581612415565b92915050565b6000815190506114aa81612415565b92915050565b600082601f8301126114c5576114c4612034565b5b81356114d584826020860161141a565b91505092915050565b6000813590506114ed8161242c565b92915050565b60006020828403121561150957611508612043565b5b60006115178482850161145c565b91505092915050565b6000806040838503121561153757611536612043565b5b60006115458582860161145c565b92505060206115568582860161145c565b9150509250929050565b60008060006060848603121561157957611578612043565b5b60006115878682870161145c565b93505060206115988682870161145c565b92505060406115a9868287016114de565b9150509250925092565b600080600080608085870312156115cd576115cc612043565b5b60006115db8782880161145c565b94505060206115ec8782880161145c565b93505060406115fd878288016114de565b925050606085013567ffffffffffffffff81111561161e5761161d61203e565b5b61162a878288016114b0565b91505092959194509250565b6000806040838503121561164d5761164c612043565b5b600061165b8582860161145c565b925050602061166c85828601611471565b9150509250929050565b6000806040838503121561168d5761168c612043565b5b600061169b8582860161145c565b92505060206116ac858286016114de565b9150509250929050565b6000602082840312156116cc576116cb612043565b5b60006116da84828501611486565b91505092915050565b6000602082840312156116f9576116f8612043565b5b60006117078482850161149b565b91505092915050565b60006020828403121561172657611725612043565b5b6000611734848285016114de565b91505092915050565b61174681611d92565b82525050565b61175581611da4565b82525050565b600061176682611c94565b6117708185611caa565b9350611780818560208601611e39565b61178981612048565b840191505092915050565b61179d81611e06565b82525050565b60006117ae82611c9f565b6117b88185611cbb565b93506117c8818560208601611e39565b6117d181612048565b840191505092915050565b60006117e782611c9f565b6117f18185611ccc565b9350611801818560208601611e39565b80840191505092915050565b600061181a603283611cbb565b915061182582612059565b604082019050919050565b600061183d602483611cbb565b9150611848826120a8565b604082019050919050565b6000611860601983611cbb565b915061186b826120f7565b602082019050919050565b6000611883602c83611cbb565b915061188e82612120565b604082019050919050565b60006118a6603883611cbb565b91506118b18261216f565b604082019050919050565b60006118c9602a83611cbb565b91506118d4826121be565b604082019050919050565b60006118ec602983611cbb565b91506118f78261220d565b604082019050919050565b600061190f602c83611cbb565b915061191a8261225c565b604082019050919050565b6000611932602983611cbb565b915061193d826122ab565b604082019050919050565b6000611955602f83611cbb565b9150611960826122fa565b604082019050919050565b6000611978602183611cbb565b915061198382612349565b604082019050919050565b600061199b603183611cbb565b91506119a682612398565b604082019050919050565b6119ba81611dfc565b82525050565b60006119cc82856117dc565b91506119d882846117dc565b91508190509392505050565b60006020820190506119f9600083018461173d565b92915050565b6000608082019050611a14600083018761173d565b611a21602083018661173d565b611a2e60408301856119b1565b8181036060830152611a40818461175b565b905095945050505050565b6000602082019050611a60600083018461174c565b92915050565b6000602082019050611a7b6000830184611794565b92915050565b60006020820190508181036000830152611a9b81846117a3565b905092915050565b60006020820190508181036000830152611abc8161180d565b9050919050565b60006020820190508181036000830152611adc81611830565b9050919050565b60006020820190508181036000830152611afc81611853565b9050919050565b60006020820190508181036000830152611b1c81611876565b9050919050565b60006020820190508181036000830152611b3c81611899565b9050919050565b60006020820190508181036000830152611b5c816118bc565b9050919050565b60006020820190508181036000830152611b7c816118df565b9050919050565b60006020820190508181036000830152611b9c81611902565b9050919050565b60006020820190508181036000830152611bbc81611925565b9050919050565b60006020820190508181036000830152611bdc81611948565b9050919050565b60006020820190508181036000830152611bfc8161196b565b9050919050565b60006020820190508181036000830152611c1c8161198e565b9050919050565b6000602082019050611c3860008301846119b1565b92915050565b6000611c48611c59565b9050611c548282611e9e565b919050565b6000604051905090565b600067ffffffffffffffff821115611c7e57611c7d612005565b5b611c8782612048565b9050602081019050919050565b600081519050919050565b600081519050919050565b600082825260208201905092915050565b600082825260208201905092915050565b600081905092915050565b6000611ce282611dfc565b9150611ced83611dfc565b9250827fffffffffffffffffffffffffffffffffffffffffffffffffffffffffffffffff03821115611d2257611d21611f49565b5b828201905092915050565b6000611d3882611dfc565b9150611d4383611dfc565b925082611d5357611d52611f78565b5b828204905092915050565b6000611d6982611dfc565b9150611d7483611dfc565b925082821015611d8757611d86611f49565b5b828203905092915050565b6000611d9d82611ddc565b9050919050565b60008115159050919050565b60007fffffffff0000000000000000000000000000000000000000000000000000000082169050919050565b600073ffffffffffffffffffffffffffffffffffffffff82169050919050565b6000819050919050565b6000611e1182611e18565b9050919050565b6000611e2382611ddc565b9050919050565b82818337600083830152505050565b60005b83811015611e57578082015181840152602081019050611e3c565b83811115611e66576000848401525b50505050565b60006002820490506001821680611e8457607f821691505b60208210811415611e9857611e97611fa7565b5b50919050565b611ea782612048565b810181811067ffffffffffffffff82111715611ec657611ec5612005565b5b80604052505050565b6000611eda82611dfc565b91507fffffffffffffffffffffffffffffffffffffffffffffffffffffffffffffffff821415611f0d57611f0c611f49565b5b600182019050919050565b6000611f2382611dfc565b9150611f2e83611dfc565b925082611f3e57611f3d611f78565b5b828206905092915050565b7f4e487b7100000000000000000000000000000000000000000000000000000000600052601160045260246000fd5b7f4e487b7100000000000000000000000000000000000000000000000000000000600052601260045260246000fd5b7f4e487b7100000000000000000000000000000000000000000000000000000000600052602260045260246000fd5b7f4e487b7100000000000000000000000000000000000000000000000000000000600052603260045260246000fd5b7f4e487b7100000000000000000000000000000000000000000000000000000000600052604160045260246000fd5b600080fd5b600080fd5b600080fd5b600080fd5b6000601f19601f8301169050919050565b7f4552433732313a207472616e7366657220746f206e6f6e20455243373231526560008201527f63656976657220696d706c656d656e7465720000000000000000000000000000602082015250565b7f4552433732313a207472616e7366657220746f20746865207a65726f2061646460008201527f7265737300000000000000000000000000000000000000000000000000000000602082015250565b7f4552433732313a20617070726f766520746f2063616c6c657200000000000000600082015250565b7f4552433732313a206f70657261746f7220717565727920666f72206e6f6e657860008201527f697374656e7420746f6b656e0000000000000000000000000000000000000000602082015250565b7f4552433732313a20617070726f76652063616c6c6572206973206e6f74206f7760008201527f6e6572206e6f7220617070726f76656420666f7220616c6c0000000000000000602082015250565b7f4552433732313a2062616c616e636520717565727920666f7220746865207a6560008201527f726f206164647265737300000000000000000000000000000000000000000000602082015250565b7f4552433732313a206f776e657220717565727920666f72206e6f6e657869737460008201527f656e7420746f6b656e0000000000000000000000000000000000000000000000602082015250565b7f4552433732313a20617070726f76656420717565727920666f72206e6f6e657860008201527f697374656e7420746f6b656e0000000000000000000000000000000000000000602082015250565b7f4552433732313a207472616e73666572206f6620746f6b656e2074686174206960008201527f73206e6f74206f776e0000000000000000000000000000000000000000000000602082015250565b7f4552433732314d657461646174613a2055524920717565727920666f72206e6f60008201527f6e6578697374656e7420746f6b656e0000000000000000000000000000000000602082015250565b7f4552433732313a20617070726f76616c20746f2063757272656e74206f776e6560008201527f7200000000000000000000000000000000000000000000000000000000000000602082015250565b7f4552433732313a207472616e736665722063616c6c6572206973206e6f74206f60008201527f776e6572206e6f7220617070726f766564000000000000000000000000000000602082015250565b6123f081611d92565b81146123fb57600080fd5b50565b61240781611da4565b811461241257600080fd5b50565b61241e81611db0565b811461242957600080fd5b50565b61243581611dfc565b811461244057600080fd5b5056fea26469706673582212201e7065bcc470af4d0ec59c9c2abdb9653246d3e871c816b3c14c932b7b5619ae64736f6c63430008060033",
  "immutableReferences": {},
  "source": "pragma solidity >=0.5.0 <0.9.0;\n\n/**\n * @title DiscoveryMergeNFT\n * @dev NFTs for merging course content on gitbook\n*/\n\nimport \"@openzeppelin/contracts/token/ERC721/ERC721.sol\";\nimport \"./NFTStore.sol\";\n\ncontract DiscoveryMergeNFT is ERC721{\n\n    NFTStore public masterStore;\n    mapping (string => uint[]) courseIndices;\n    mapping (string => uint) latestIndex;\n\n    constructor(address _masterStoreAddress) ERC721(\"CommitGitBook\", \"CGB\") public{\n        masterStore = NFTStore(_masterStoreAddress);\n        bool adminCheck = masterStore.admins(msg.sender);\n        require(adminCheck, \"deployer can't make NFT\");\n    } \n\n\n}",
  "sourcePath": "/home/jpick713/BlockChain_Apps/nftIPFS/contracts/DiscoveryMergeNFT.sol",
  "compiler": {
    "name": "solc",
    "version": "0.8.6+commit.11564f7e.Emscripten.clang"
  },
  "schemaVersion": "3.4.2",
  "updatedAt": "2021-08-04T02:28:49.346Z",
  "networkType": "ethereum",
  "devdoc": {
    "kind": "dev",
    "methods": {
      "approve(address,uint256)": {
        "details": "See {IERC721-approve}."
      },
      "balanceOf(address)": {
        "details": "See {IERC721-balanceOf}."
      },
      "getApproved(uint256)": {
        "details": "See {IERC721-getApproved}."
      },
      "isApprovedForAll(address,address)": {
        "details": "See {IERC721-isApprovedForAll}."
      },
      "name()": {
        "details": "See {IERC721Metadata-name}."
      },
      "ownerOf(uint256)": {
        "details": "See {IERC721-ownerOf}."
      },
      "safeTransferFrom(address,address,uint256)": {
        "details": "See {IERC721-safeTransferFrom}."
      },
      "safeTransferFrom(address,address,uint256,bytes)": {
        "details": "See {IERC721-safeTransferFrom}."
      },
      "setApprovalForAll(address,bool)": {
        "details": "See {IERC721-setApprovalForAll}."
      },
      "supportsInterface(bytes4)": {
        "details": "See {IERC165-supportsInterface}."
      },
      "symbol()": {
        "details": "See {IERC721Metadata-symbol}."
      },
      "tokenURI(uint256)": {
        "details": "See {IERC721Metadata-tokenURI}."
      },
      "transferFrom(address,address,uint256)": {
        "details": "See {IERC721-transferFrom}."
      }
    },
    "version": 1
  },
  "userdoc": {
    "kind": "user",
    "methods": {},
    "version": 1
  }
}