{
  "contractName": "DiscoveryMergeNFT",
  "abi": [
    {
      "inputs": [
        {
          "internalType": "address",
          "name": "_masterStoreAddress",
          "type": "address"
        }
      ],
      "stateMutability": "nonpayable",
      "type": "constructor"
    },
    {
      "anonymous": false,
      "inputs": [
        {
          "indexed": true,
          "internalType": "address",
          "name": "owner",
          "type": "address"
        },
        {
          "indexed": true,
          "internalType": "address",
          "name": "approved",
          "type": "address"
        },
        {
          "indexed": true,
          "internalType": "uint256",
          "name": "tokenId",
          "type": "uint256"
        }
      ],
      "name": "Approval",
      "type": "event"
    },
    {
      "anonymous": false,
      "inputs": [
        {
          "indexed": true,
          "internalType": "address",
          "name": "owner",
          "type": "address"
        },
        {
          "indexed": true,
          "internalType": "address",
          "name": "operator",
          "type": "address"
        },
        {
          "indexed": false,
          "internalType": "bool",
          "name": "approved",
          "type": "bool"
        }
      ],
      "name": "ApprovalForAll",
      "type": "event"
    },
    {
      "anonymous": false,
      "inputs": [
        {
          "indexed": true,
          "internalType": "address",
          "name": "_to",
          "type": "address"
        },
        {
          "indexed": true,
          "internalType": "string",
          "name": "_tokenURI",
          "type": "string"
        },
        {
          "indexed": true,
          "internalType": "string",
          "name": "course",
          "type": "string"
        }
      ],
      "name": "NFTCommitMinted",
      "type": "event"
    },
    {
      "anonymous": false,
      "inputs": [
        {
          "indexed": true,
          "internalType": "address",
          "name": "from",
          "type": "address"
        },
        {
          "indexed": true,
          "internalType": "address",
          "name": "to",
          "type": "address"
        },
        {
          "indexed": true,
          "internalType": "uint256",
          "name": "tokenId",
          "type": "uint256"
        }
      ],
      "name": "Transfer",
      "type": "event"
    },
    {
      "inputs": [
        {
          "internalType": "address",
          "name": "",
          "type": "address"
        },
        {
          "internalType": "string",
          "name": "",
          "type": "string"
        },
        {
          "internalType": "uint256",
          "name": "",
          "type": "uint256"
        }
      ],
      "name": "Commits",
      "outputs": [
        {
          "internalType": "address",
          "name": "receiver",
          "type": "address"
        },
        {
          "internalType": "string",
          "name": "course",
          "type": "string"
        },
        {
          "internalType": "string",
          "name": "URI",
          "type": "string"
        },
        {
          "internalType": "uint256",
          "name": "timestamp",
          "type": "uint256"
        },
        {
          "internalType": "uint256",
          "name": "version",
          "type": "uint256"
        },
        {
          "internalType": "bool",
          "name": "exists",
          "type": "bool"
        }
      ],
      "stateMutability": "view",
      "type": "function",
      "constant": true
    },
    {
      "inputs": [
        {
          "internalType": "address",
          "name": "to",
          "type": "address"
        },
        {
          "internalType": "uint256",
          "name": "tokenId",
          "type": "uint256"
        }
      ],
      "name": "approve",
      "outputs": [],
      "stateMutability": "nonpayable",
      "type": "function"
    },
    {
      "inputs": [
        {
          "internalType": "address",
          "name": "owner",
          "type": "address"
        }
      ],
      "name": "balanceOf",
      "outputs": [
        {
          "internalType": "uint256",
          "name": "",
          "type": "uint256"
        }
      ],
      "stateMutability": "view",
      "type": "function",
      "constant": true
    },
    {
      "inputs": [
        {
          "internalType": "string",
          "name": "",
          "type": "string"
        }
      ],
      "name": "checkNFTURI",
      "outputs": [
        {
          "internalType": "bool",
          "name": "",
          "type": "bool"
        }
      ],
      "stateMutability": "view",
      "type": "function",
      "constant": true
    },
    {
      "inputs": [
        {
          "internalType": "uint256",
          "name": "tokenId",
          "type": "uint256"
        }
      ],
      "name": "getApproved",
      "outputs": [
        {
          "internalType": "address",
          "name": "",
          "type": "address"
        }
      ],
      "stateMutability": "view",
      "type": "function",
      "constant": true
    },
    {
      "inputs": [
        {
          "internalType": "address",
          "name": "owner",
          "type": "address"
        },
        {
          "internalType": "address",
          "name": "operator",
          "type": "address"
        }
      ],
      "name": "isApprovedForAll",
      "outputs": [
        {
          "internalType": "bool",
          "name": "",
          "type": "bool"
        }
      ],
      "stateMutability": "view",
      "type": "function",
      "constant": true
    },
    {
      "inputs": [],
      "name": "masterStore",
      "outputs": [
        {
          "internalType": "contract NFTStore",
          "name": "",
          "type": "address"
        }
      ],
      "stateMutability": "view",
      "type": "function",
      "constant": true
    },
    {
      "inputs": [],
      "name": "name",
      "outputs": [
        {
          "internalType": "string",
          "name": "",
          "type": "string"
        }
      ],
      "stateMutability": "view",
      "type": "function",
      "constant": true
    },
    {
      "inputs": [
        {
          "internalType": "uint256",
          "name": "tokenId",
          "type": "uint256"
        }
      ],
      "name": "ownerOf",
      "outputs": [
        {
          "internalType": "address",
          "name": "",
          "type": "address"
        }
      ],
      "stateMutability": "view",
      "type": "function",
      "constant": true
    },
    {
      "inputs": [
        {
          "internalType": "address",
          "name": "from",
          "type": "address"
        },
        {
          "internalType": "address",
          "name": "to",
          "type": "address"
        },
        {
          "internalType": "uint256",
          "name": "tokenId",
          "type": "uint256"
        }
      ],
      "name": "safeTransferFrom",
      "outputs": [],
      "stateMutability": "nonpayable",
      "type": "function"
    },
    {
      "inputs": [
        {
          "internalType": "address",
          "name": "from",
          "type": "address"
        },
        {
          "internalType": "address",
          "name": "to",
          "type": "address"
        },
        {
          "internalType": "uint256",
          "name": "tokenId",
          "type": "uint256"
        },
        {
          "internalType": "bytes",
          "name": "_data",
          "type": "bytes"
        }
      ],
      "name": "safeTransferFrom",
      "outputs": [],
      "stateMutability": "nonpayable",
      "type": "function"
    },
    {
      "inputs": [
        {
          "internalType": "address",
          "name": "operator",
          "type": "address"
        },
        {
          "internalType": "bool",
          "name": "approved",
          "type": "bool"
        }
      ],
      "name": "setApprovalForAll",
      "outputs": [],
      "stateMutability": "nonpayable",
      "type": "function"
    },
    {
      "inputs": [
        {
          "internalType": "bytes4",
          "name": "interfaceId",
          "type": "bytes4"
        }
      ],
      "name": "supportsInterface",
      "outputs": [
        {
          "internalType": "bool",
          "name": "",
          "type": "bool"
        }
      ],
      "stateMutability": "view",
      "type": "function",
      "constant": true
    },
    {
      "inputs": [],
      "name": "symbol",
      "outputs": [
        {
          "internalType": "string",
          "name": "",
          "type": "string"
        }
      ],
      "stateMutability": "view",
      "type": "function",
      "constant": true
    },
    {
      "inputs": [
        {
          "internalType": "uint256",
          "name": "tokenId",
          "type": "uint256"
        }
      ],
      "name": "tokenURI",
      "outputs": [
        {
          "internalType": "string",
          "name": "",
          "type": "string"
        }
      ],
      "stateMutability": "view",
      "type": "function",
      "constant": true
    },
    {
      "inputs": [
        {
          "internalType": "address",
          "name": "from",
          "type": "address"
        },
        {
          "internalType": "address",
          "name": "to",
          "type": "address"
        },
        {
          "internalType": "uint256",
          "name": "tokenId",
          "type": "uint256"
        }
      ],
      "name": "transferFrom",
      "outputs": [],
      "stateMutability": "nonpayable",
      "type": "function"
    },
    {
      "inputs": [
        {
          "internalType": "address",
          "name": "_to",
          "type": "address"
        },
        {
          "internalType": "string",
          "name": "_tokenURI",
          "type": "string"
        },
        {
          "internalType": "string",
          "name": "courseName",
          "type": "string"
        },
        {
          "internalType": "uint256",
          "name": "_version",
          "type": "uint256"
        }
      ],
      "name": "mintToken",
      "outputs": [],
      "stateMutability": "nonpayable",
      "type": "function"
    }
  ],
  "bytecode": "0x60806040523480156200001157600080fd5b506040516200380d3803806200380d8339818101604052810190620000379190620002f6565b6040518060400160405280600d81526020017f436f6d6d6974476974426f6f6b000000000000000000000000000000000000008152506040518060400160405280600381526020017f43474200000000000000000000000000000000000000000000000000000000008152508160009080519060200190620000bb92919062000218565b508060019080519060200190620000d492919062000218565b50505080600660006101000a81548173ffffffffffffffffffffffffffffffffffffffff021916908373ffffffffffffffffffffffffffffffffffffffff1602179055506000600660009054906101000a900473ffffffffffffffffffffffffffffffffffffffff1673ffffffffffffffffffffffffffffffffffffffff1663429b62e5336040518263ffffffff1660e01b815260040162000177919062000392565b60206040518083038186803b1580156200019057600080fd5b505afa158015620001a5573d6000803e3d6000fd5b505050506040513d601f19601f82011682018060405250810190620001cb919062000328565b90508062000210576040517f08c379a00000000000000000000000000000000000000000000000000000000081526004016200020790620003af565b60405180910390fd5b5050620004e9565b828054620002269062000422565b90600052602060002090601f0160209004810192826200024a576000855562000296565b82601f106200026557805160ff191683800117855562000296565b8280016001018555821562000296579182015b828111156200029557825182559160200191906001019062000278565b5b509050620002a59190620002a9565b5090565b5b80821115620002c4576000816000905550600101620002aa565b5090565b600081519050620002d981620004b5565b92915050565b600081519050620002f081620004cf565b92915050565b6000602082840312156200030f576200030e62000487565b5b60006200031f84828501620002c8565b91505092915050565b60006020828403121562000341576200034062000487565b5b60006200035184828501620002df565b91505092915050565b6200036581620003e2565b82525050565b60006200037a601783620003d1565b915062000387826200048c565b602082019050919050565b6000602082019050620003a960008301846200035a565b92915050565b60006020820190508181036000830152620003ca816200036b565b9050919050565b600082825260208201905092915050565b6000620003ef8262000402565b9050919050565b60008115159050919050565b600073ffffffffffffffffffffffffffffffffffffffff82169050919050565b600060028204905060018216806200043b57607f821691505b6020821081141562000452576200045162000458565b5b50919050565b7f4e487b7100000000000000000000000000000000000000000000000000000000600052602260045260246000fd5b600080fd5b7f6465706c6f7965722063616e2774206d616b65204e4654000000000000000000600082015250565b620004c081620003e2565b8114620004cc57600080fd5b50565b620004da81620003f6565b8114620004e657600080fd5b50565b61331480620004f96000396000f3fe608060405234801561001057600080fd5b506004361061010b5760003560e01c80636219d9e9116100a257806395d89b411161007157806395d89b41146102e1578063a22cb465146102ff578063b88d4fde1461031b578063c87b56dd14610337578063e985e9c5146103675761010b565b80636219d9e9146102305780636352211e1461024c578063647795191461027c57806370a08231146102b15761010b565b806310243755116100de57806310243755146101aa57806323b872dd146101c85780632de21a45146101e457806342842e0e146102145761010b565b806301ffc9a71461011057806306fdde0314610140578063081812fc1461015e578063095ea7b31461018e575b600080fd5b61012a6004803603810190610125919061220f565b610397565b6040516101379190612722565b60405180910390f35b610148610479565b6040516101559190612758565b60405180910390f35b610178600480360381019061017391906122b2565b61050b565b604051610185919061264c565b60405180910390f35b6101a860048036038101906101a391906121a2565b610590565b005b6101b26106a8565b6040516101bf919061273d565b60405180910390f35b6101e260048036038101906101dd9190611f7e565b6106ce565b005b6101fe60048036038101906101f99190612269565b61072e565b60405161020b9190612722565b60405180910390f35b61022e60048036038101906102299190611f7e565b610764565b005b61024a60048036038101906102459190612094565b610784565b005b610266600480360381019061026191906122b2565b610c1b565b604051610273919061264c565b60405180910390f35b61029660048036038101906102919190612133565b610ccd565b6040516102a8969594939291906126b3565b60405180910390f35b6102cb60048036038101906102c69190611f11565b610e86565b6040516102d8919061299a565b60405180910390f35b6102e9610f3e565b6040516102f69190612758565b60405180910390f35b61031960048036038101906103149190612054565b610fd0565b005b61033560048036038101906103309190611fd1565b611151565b005b610351600480360381019061034c91906122b2565b6111b3565b60405161035e9190612758565b60405180910390f35b610381600480360381019061037c9190611f3e565b61125a565b60405161038e9190612722565b60405180910390f35b60007f80ac58cd000000000000000000000000000000000000000000000000000000007bffffffffffffffffffffffffffffffffffffffffffffffffffffffff1916827bffffffffffffffffffffffffffffffffffffffffffffffffffffffff1916148061046257507f5b5e139f000000000000000000000000000000000000000000000000000000007bffffffffffffffffffffffffffffffffffffffffffffffffffffffff1916827bffffffffffffffffffffffffffffffffffffffffffffffffffffffff1916145b806104725750610471826112ee565b5b9050919050565b60606000805461048890612c14565b80601f01602080910402602001604051908101604052809291908181526020018280546104b490612c14565b80156105015780601f106104d657610100808354040283529160200191610501565b820191906000526020600020905b8154815290600101906020018083116104e457829003601f168201915b5050505050905090565b600061051682611358565b610555576040517f08c379a000000000000000000000000000000000000000000000000000000000815260040161054c906128fa565b60405180910390fd5b6004600083815260200190815260200160002060009054906101000a900473ffffffffffffffffffffffffffffffffffffffff169050919050565b600061059b82610c1b565b90508073ffffffffffffffffffffffffffffffffffffffff168373ffffffffffffffffffffffffffffffffffffffff16141561060c576040517f08c379a00000000000000000000000000000000000000000000000000000000081526004016106039061295a565b60405180910390fd5b8073ffffffffffffffffffffffffffffffffffffffff1661062b6113c4565b73ffffffffffffffffffffffffffffffffffffffff16148061065a5750610659816106546113c4565b61125a565b5b610699576040517f08c379a00000000000000000000000000000000000000000000000000000000081526004016106909061287a565b60405180910390fd5b6106a383836113cc565b505050565b600660009054906101000a900473ffffffffffffffffffffffffffffffffffffffff1681565b6106df6106d96113c4565b82611485565b61071e576040517f08c379a00000000000000000000000000000000000000000000000000000000081526004016107159061297a565b60405180910390fd5b610729838383611563565b505050565b6009818051602081018201805184825260208301602085012081835280955050505050506000915054906101000a900460ff1681565b61077f83838360405180602001604052806000815250611151565b505050565b600660009054906101000a900473ffffffffffffffffffffffffffffffffffffffff1673ffffffffffffffffffffffffffffffffffffffff1663372c12b1856040518263ffffffff1660e01b81526004016107df919061264c565b60206040518083038186803b1580156107f757600080fd5b505afa15801561080b573d6000803e3d6000fd5b505050506040513d601f19601f8201168201806040525081019061082f91906121e2565b61086e576040517f08c379a00000000000000000000000000000000000000000000000000000000081526004016108659061285a565b60405180910390fd5b600660009054906101000a900473ffffffffffffffffffffffffffffffffffffffff1673ffffffffffffffffffffffffffffffffffffffff1663429b62e5336040518263ffffffff1660e01b81526004016108c9919061264c565b60206040518083038186803b1580156108e157600080fd5b505afa1580156108f5573d6000803e3d6000fd5b505050506040513d601f19601f8201168201806040525081019061091991906121e2565b610958576040517f08c379a000000000000000000000000000000000000000000000000000000000815260040161094f906127ba565b60405180910390fd5b6009836040516109689190612611565b908152602001604051809103902060009054906101000a900460ff16156109c4576040517f08c379a00000000000000000000000000000000000000000000000000000000081526004016109bb9061277a565b60405180910390fd5b600760008154809291906109d790612c77565b91905055506109e8846007546117bf565b60016009846040516109fa9190612611565b908152602001604051809103902060006101000a81548160ff02191690831515021790555060006040518060c001604052808673ffffffffffffffffffffffffffffffffffffffff168152602001848152602001858152602001428152602001838152602001600115158152509050600a60008673ffffffffffffffffffffffffffffffffffffffff1673ffffffffffffffffffffffffffffffffffffffff16815260200190815260200160002083604051610ab69190612611565b908152602001604051809103902081908060018154018082558091505060019003906000526020600020906006020160009091909190915060008201518160000160006101000a81548173ffffffffffffffffffffffffffffffffffffffff021916908373ffffffffffffffffffffffffffffffffffffffff1602179055506020820151816001019080519060200190610b51929190611d10565b506040820151816002019080519060200190610b6e929190611d10565b50606082015181600301556080820151816004015560a08201518160050160006101000a81548160ff021916908315150217905550505082604051610bb39190612611565b604051809103902084604051610bc99190612611565b60405180910390208673ffffffffffffffffffffffffffffffffffffffff167f6f2df5bfd4444eff029ea2b37e8750ee0dacc48243c8c7f6ff5f3690c74c917760405160405180910390a45050505050565b6000806002600084815260200190815260200160002060009054906101000a900473ffffffffffffffffffffffffffffffffffffffff169050600073ffffffffffffffffffffffffffffffffffffffff168173ffffffffffffffffffffffffffffffffffffffff161415610cc4576040517f08c379a0000000000000000000000000000000000000000000000000000000008152600401610cbb906128ba565b60405180910390fd5b80915050919050565b600a602052826000526040600020828051602081018201805184825260208301602085012081835280955050505050508181548110610d0b57600080fd5b906000526020600020906006020160009250925050508060000160009054906101000a900473ffffffffffffffffffffffffffffffffffffffff1690806001018054610d5690612c14565b80601f0160208091040260200160405190810160405280929190818152602001828054610d8290612c14565b8015610dcf5780601f10610da457610100808354040283529160200191610dcf565b820191906000526020600020905b815481529060010190602001808311610db257829003601f168201915b505050505090806002018054610de490612c14565b80601f0160208091040260200160405190810160405280929190818152602001828054610e1090612c14565b8015610e5d5780601f10610e3257610100808354040283529160200191610e5d565b820191906000526020600020905b815481529060010190602001808311610e4057829003601f168201915b5050505050908060030154908060040154908060050160009054906101000a900460ff16905086565b60008073ffffffffffffffffffffffffffffffffffffffff168273ffffffffffffffffffffffffffffffffffffffff161415610ef7576040517f08c379a0000000000000000000000000000000000000000000000000000000008152600401610eee9061289a565b60405180910390fd5b600360008373ffffffffffffffffffffffffffffffffffffffff1673ffffffffffffffffffffffffffffffffffffffff168152602001908152602001600020549050919050565b606060018054610f4d90612c14565b80601f0160208091040260200160405190810160405280929190818152602001828054610f7990612c14565b8015610fc65780601f10610f9b57610100808354040283529160200191610fc6565b820191906000526020600020905b815481529060010190602001808311610fa957829003601f168201915b5050505050905090565b610fd86113c4565b73ffffffffffffffffffffffffffffffffffffffff168273ffffffffffffffffffffffffffffffffffffffff161415611046576040517f08c379a000000000000000000000000000000000000000000000000000000000815260040161103d9061281a565b60405180910390fd5b80600560006110536113c4565b73ffffffffffffffffffffffffffffffffffffffff1673ffffffffffffffffffffffffffffffffffffffff16815260200190815260200160002060008473ffffffffffffffffffffffffffffffffffffffff1673ffffffffffffffffffffffffffffffffffffffff16815260200190815260200160002060006101000a81548160ff0219169083151502179055508173ffffffffffffffffffffffffffffffffffffffff166111006113c4565b73ffffffffffffffffffffffffffffffffffffffff167f17307eab39ab6107e8899845ad3d59bd9653f200f220920489ca2b5937696c31836040516111459190612722565b60405180910390a35050565b61116261115c6113c4565b83611485565b6111a1576040517f08c379a00000000000000000000000000000000000000000000000000000000081526004016111989061297a565b60405180910390fd5b6111ad8484848461198d565b50505050565b60606111be82611358565b6111fd576040517f08c379a00000000000000000000000000000000000000000000000000000000081526004016111f49061293a565b60405180910390fd5b60006112076119e9565b905060008151116112275760405180602001604052806000815250611252565b8061123184611a00565b604051602001611242929190612628565b6040516020818303038152906040525b915050919050565b6000600560008473ffffffffffffffffffffffffffffffffffffffff1673ffffffffffffffffffffffffffffffffffffffff16815260200190815260200160002060008373ffffffffffffffffffffffffffffffffffffffff1673ffffffffffffffffffffffffffffffffffffffff16815260200190815260200160002060009054906101000a900460ff16905092915050565b60007f01ffc9a7000000000000000000000000000000000000000000000000000000007bffffffffffffffffffffffffffffffffffffffffffffffffffffffff1916827bffffffffffffffffffffffffffffffffffffffffffffffffffffffff1916149050919050565b60008073ffffffffffffffffffffffffffffffffffffffff166002600084815260200190815260200160002060009054906101000a900473ffffffffffffffffffffffffffffffffffffffff1673ffffffffffffffffffffffffffffffffffffffff1614159050919050565b600033905090565b816004600083815260200190815260200160002060006101000a81548173ffffffffffffffffffffffffffffffffffffffff021916908373ffffffffffffffffffffffffffffffffffffffff160217905550808273ffffffffffffffffffffffffffffffffffffffff1661143f83610c1b565b73ffffffffffffffffffffffffffffffffffffffff167f8c5be1e5ebec7d5bd14f71427d1e84f3dd0314c0f7b2291e5b200ac8c7c3b92560405160405180910390a45050565b600061149082611358565b6114cf576040517f08c379a00000000000000000000000000000000000000000000000000000000081526004016114c69061283a565b60405180910390fd5b60006114da83610c1b565b90508073ffffffffffffffffffffffffffffffffffffffff168473ffffffffffffffffffffffffffffffffffffffff16148061154957508373ffffffffffffffffffffffffffffffffffffffff166115318461050b565b73ffffffffffffffffffffffffffffffffffffffff16145b8061155a5750611559818561125a565b5b91505092915050565b8273ffffffffffffffffffffffffffffffffffffffff1661158382610c1b565b73ffffffffffffffffffffffffffffffffffffffff16146115d9576040517f08c379a00000000000000000000000000000000000000000000000000000000081526004016115d09061291a565b60405180910390fd5b600073ffffffffffffffffffffffffffffffffffffffff168273ffffffffffffffffffffffffffffffffffffffff161415611649576040517f08c379a0000000000000000000000000000000000000000000000000000000008152600401611640906127fa565b60405180910390fd5b611654838383611b61565b61165f6000826113cc565b6001600360008573ffffffffffffffffffffffffffffffffffffffff1673ffffffffffffffffffffffffffffffffffffffff16815260200190815260200160002060008282546116af9190612b06565b925050819055506001600360008473ffffffffffffffffffffffffffffffffffffffff1673ffffffffffffffffffffffffffffffffffffffff16815260200190815260200160002060008282546117069190612a7f565b92505081905550816002600083815260200190815260200160002060006101000a81548173ffffffffffffffffffffffffffffffffffffffff021916908373ffffffffffffffffffffffffffffffffffffffff160217905550808273ffffffffffffffffffffffffffffffffffffffff168473ffffffffffffffffffffffffffffffffffffffff167fddf252ad1be2c89b69c2b068fc378daa952ba7f163c4a11628f55a4df523b3ef60405160405180910390a4505050565b600073ffffffffffffffffffffffffffffffffffffffff168273ffffffffffffffffffffffffffffffffffffffff16141561182f576040517f08c379a0000000000000000000000000000000000000000000000000000000008152600401611826906128da565b60405180910390fd5b61183881611358565b15611878576040517f08c379a000000000000000000000000000000000000000000000000000000000815260040161186f906127da565b60405180910390fd5b61188460008383611b61565b6001600360008473ffffffffffffffffffffffffffffffffffffffff1673ffffffffffffffffffffffffffffffffffffffff16815260200190815260200160002060008282546118d49190612a7f565b92505081905550816002600083815260200190815260200160002060006101000a81548173ffffffffffffffffffffffffffffffffffffffff021916908373ffffffffffffffffffffffffffffffffffffffff160217905550808273ffffffffffffffffffffffffffffffffffffffff16600073ffffffffffffffffffffffffffffffffffffffff167fddf252ad1be2c89b69c2b068fc378daa952ba7f163c4a11628f55a4df523b3ef60405160405180910390a45050565b611998848484611563565b6119a484848484611b66565b6119e3576040517f08c379a00000000000000000000000000000000000000000000000000000000081526004016119da9061279a565b60405180910390fd5b50505050565b606060405180602001604052806000815250905090565b60606000821415611a48576040518060400160405280600181526020017f30000000000000000000000000000000000000000000000000000000000000008152509050611b5c565b600082905060005b60008214611a7a578080611a6390612c77565b915050600a82611a739190612ad5565b9150611a50565b60008167ffffffffffffffff811115611a9657611a95612dad565b5b6040519080825280601f01601f191660200182016040528015611ac85781602001600182028036833780820191505090505b5090505b60008514611b5557600182611ae19190612b06565b9150600a85611af09190612cc0565b6030611afc9190612a7f565b60f81b818381518110611b1257611b11612d7e565b5b60200101907effffffffffffffffffffffffffffffffffffffffffffffffffffffffffffff1916908160001a905350600a85611b4e9190612ad5565b9450611acc565b8093505050505b919050565b505050565b6000611b878473ffffffffffffffffffffffffffffffffffffffff16611cfd565b15611cf0578373ffffffffffffffffffffffffffffffffffffffff1663150b7a02611bb06113c4565b8786866040518563ffffffff1660e01b8152600401611bd29493929190612667565b602060405180830381600087803b158015611bec57600080fd5b505af1925050508015611c1d57506040513d601f19601f82011682018060405250810190611c1a919061223c565b60015b611ca0573d8060008114611c4d576040519150601f19603f3d011682016040523d82523d6000602084013e611c52565b606091505b50600081511415611c98576040517f08c379a0000000000000000000000000000000000000000000000000000000008152600401611c8f9061279a565b60405180910390fd5b805181602001fd5b63150b7a0260e01b7bffffffffffffffffffffffffffffffffffffffffffffffffffffffff1916817bffffffffffffffffffffffffffffffffffffffffffffffffffffffff191614915050611cf5565b600190505b949350505050565b600080823b905060008111915050919050565b828054611d1c90612c14565b90600052602060002090601f016020900481019282611d3e5760008555611d85565b82601f10611d5757805160ff1916838001178555611d85565b82800160010185558215611d85579182015b82811115611d84578251825591602001919060010190611d69565b5b509050611d929190611d96565b5090565b5b80821115611daf576000816000905550600101611d97565b5090565b6000611dc6611dc1846129da565b6129b5565b905082815260208101848484011115611de257611de1612de1565b5b611ded848285612bd2565b509392505050565b6000611e08611e0384612a0b565b6129b5565b905082815260208101848484011115611e2457611e23612de1565b5b611e2f848285612bd2565b509392505050565b600081359050611e4681613282565b92915050565b600081359050611e5b81613299565b92915050565b600081519050611e7081613299565b92915050565b600081359050611e85816132b0565b92915050565b600081519050611e9a816132b0565b92915050565b600082601f830112611eb557611eb4612ddc565b5b8135611ec5848260208601611db3565b91505092915050565b600082601f830112611ee357611ee2612ddc565b5b8135611ef3848260208601611df5565b91505092915050565b600081359050611f0b816132c7565b92915050565b600060208284031215611f2757611f26612deb565b5b6000611f3584828501611e37565b91505092915050565b60008060408385031215611f5557611f54612deb565b5b6000611f6385828601611e37565b9250506020611f7485828601611e37565b9150509250929050565b600080600060608486031215611f9757611f96612deb565b5b6000611fa586828701611e37565b9350506020611fb686828701611e37565b9250506040611fc786828701611efc565b9150509250925092565b60008060008060808587031215611feb57611fea612deb565b5b6000611ff987828801611e37565b945050602061200a87828801611e37565b935050604061201b87828801611efc565b925050606085013567ffffffffffffffff81111561203c5761203b612de6565b5b61204887828801611ea0565b91505092959194509250565b6000806040838503121561206b5761206a612deb565b5b600061207985828601611e37565b925050602061208a85828601611e4c565b9150509250929050565b600080600080608085870312156120ae576120ad612deb565b5b60006120bc87828801611e37565b945050602085013567ffffffffffffffff8111156120dd576120dc612de6565b5b6120e987828801611ece565b935050604085013567ffffffffffffffff81111561210a57612109612de6565b5b61211687828801611ece565b925050606061212787828801611efc565b91505092959194509250565b60008060006060848603121561214c5761214b612deb565b5b600061215a86828701611e37565b935050602084013567ffffffffffffffff81111561217b5761217a612de6565b5b61218786828701611ece565b925050604061219886828701611efc565b9150509250925092565b600080604083850312156121b9576121b8612deb565b5b60006121c785828601611e37565b92505060206121d885828601611efc565b9150509250929050565b6000602082840312156121f8576121f7612deb565b5b600061220684828501611e61565b91505092915050565b60006020828403121561222557612224612deb565b5b600061223384828501611e76565b91505092915050565b60006020828403121561225257612251612deb565b5b600061226084828501611e8b565b91505092915050565b60006020828403121561227f5761227e612deb565b5b600082013567ffffffffffffffff81111561229d5761229c612de6565b5b6122a984828501611ece565b91505092915050565b6000602082840312156122c8576122c7612deb565b5b60006122d684828501611efc565b91505092915050565b6122e881612b3a565b82525050565b6122f781612b4c565b82525050565b600061230882612a3c565b6123128185612a52565b9350612322818560208601612be1565b61232b81612df0565b840191505092915050565b61233f81612bae565b82525050565b600061235082612a47565b61235a8185612a63565b935061236a818560208601612be1565b61237381612df0565b840191505092915050565b600061238982612a47565b6123938185612a74565b93506123a3818560208601612be1565b80840191505092915050565b60006123bc601f83612a63565b91506123c782612e01565b602082019050919050565b60006123df603283612a63565b91506123ea82612e2a565b604082019050919050565b6000612402602583612a63565b915061240d82612e79565b604082019050919050565b6000612425601c83612a63565b915061243082612ec8565b602082019050919050565b6000612448602483612a63565b915061245382612ef1565b604082019050919050565b600061246b601983612a63565b915061247682612f40565b602082019050919050565b600061248e602c83612a63565b915061249982612f69565b604082019050919050565b60006124b1601a83612a63565b91506124bc82612fb8565b602082019050919050565b60006124d4603883612a63565b91506124df82612fe1565b604082019050919050565b60006124f7602a83612a63565b915061250282613030565b604082019050919050565b600061251a602983612a63565b91506125258261307f565b604082019050919050565b600061253d602083612a63565b9150612548826130ce565b602082019050919050565b6000612560602c83612a63565b915061256b826130f7565b604082019050919050565b6000612583602983612a63565b915061258e82613146565b604082019050919050565b60006125a6602f83612a63565b91506125b182613195565b604082019050919050565b60006125c9602183612a63565b91506125d4826131e4565b604082019050919050565b60006125ec603183612a63565b91506125f782613233565b604082019050919050565b61260b81612ba4565b82525050565b600061261d828461237e565b915081905092915050565b6000612634828561237e565b9150612640828461237e565b91508190509392505050565b600060208201905061266160008301846122df565b92915050565b600060808201905061267c60008301876122df565b61268960208301866122df565b6126966040830185612602565b81810360608301526126a881846122fd565b905095945050505050565b600060c0820190506126c860008301896122df565b81810360208301526126da8188612345565b905081810360408301526126ee8187612345565b90506126fd6060830186612602565b61270a6080830185612602565b61271760a08301846122ee565b979650505050505050565b600060208201905061273760008301846122ee565b92915050565b60006020820190506127526000830184612336565b92915050565b600060208201905081810360008301526127728184612345565b905092915050565b60006020820190508181036000830152612793816123af565b9050919050565b600060208201905081810360008301526127b3816123d2565b9050919050565b600060208201905081810360008301526127d3816123f5565b9050919050565b600060208201905081810360008301526127f381612418565b9050919050565b600060208201905081810360008301526128138161243b565b9050919050565b600060208201905081810360008301526128338161245e565b9050919050565b6000602082019050818103600083015261285381612481565b9050919050565b60006020820190508181036000830152612873816124a4565b9050919050565b60006020820190508181036000830152612893816124c7565b9050919050565b600060208201905081810360008301526128b3816124ea565b9050919050565b600060208201905081810360008301526128d38161250d565b9050919050565b600060208201905081810360008301526128f381612530565b9050919050565b6000602082019050818103600083015261291381612553565b9050919050565b6000602082019050818103600083015261293381612576565b9050919050565b6000602082019050818103600083015261295381612599565b9050919050565b60006020820190508181036000830152612973816125bc565b9050919050565b60006020820190508181036000830152612993816125df565b9050919050565b60006020820190506129af6000830184612602565b92915050565b60006129bf6129d0565b90506129cb8282612c46565b919050565b6000604051905090565b600067ffffffffffffffff8211156129f5576129f4612dad565b5b6129fe82612df0565b9050602081019050919050565b600067ffffffffffffffff821115612a2657612a25612dad565b5b612a2f82612df0565b9050602081019050919050565b600081519050919050565b600081519050919050565b600082825260208201905092915050565b600082825260208201905092915050565b600081905092915050565b6000612a8a82612ba4565b9150612a9583612ba4565b9250827fffffffffffffffffffffffffffffffffffffffffffffffffffffffffffffffff03821115612aca57612ac9612cf1565b5b828201905092915050565b6000612ae082612ba4565b9150612aeb83612ba4565b925082612afb57612afa612d20565b5b828204905092915050565b6000612b1182612ba4565b9150612b1c83612ba4565b925082821015612b2f57612b2e612cf1565b5b828203905092915050565b6000612b4582612b84565b9050919050565b60008115159050919050565b60007fffffffff0000000000000000000000000000000000000000000000000000000082169050919050565b600073ffffffffffffffffffffffffffffffffffffffff82169050919050565b6000819050919050565b6000612bb982612bc0565b9050919050565b6000612bcb82612b84565b9050919050565b82818337600083830152505050565b60005b83811015612bff578082015181840152602081019050612be4565b83811115612c0e576000848401525b50505050565b60006002820490506001821680612c2c57607f821691505b60208210811415612c4057612c3f612d4f565b5b50919050565b612c4f82612df0565b810181811067ffffffffffffffff82111715612c6e57612c6d612dad565b5b80604052505050565b6000612c8282612ba4565b91507fffffffffffffffffffffffffffffffffffffffffffffffffffffffffffffffff821415612cb557612cb4612cf1565b5b600182019050919050565b6000612ccb82612ba4565b9150612cd683612ba4565b925082612ce657612ce5612d20565b5b828206905092915050565b7f4e487b7100000000000000000000000000000000000000000000000000000000600052601160045260246000fd5b7f4e487b7100000000000000000000000000000000000000000000000000000000600052601260045260246000fd5b7f4e487b7100000000000000000000000000000000000000000000000000000000600052602260045260246000fd5b7f4e487b7100000000000000000000000000000000000000000000000000000000600052603260045260246000fd5b7f4e487b7100000000000000000000000000000000000000000000000000000000600052604160045260246000fd5b600080fd5b600080fd5b600080fd5b600080fd5b6000601f19601f8301169050919050565b7f746869732055524920616c7265616479206973206265696e6720757365642100600082015250565b7f4552433732313a207472616e7366657220746f206e6f6e20455243373231526560008201527f63656976657220696d706c656d656e7465720000000000000000000000000000602082015250565b7f61646472657373206e6f7420656c696769626c6520746f20617070726f76652060008201527f6d65726765000000000000000000000000000000000000000000000000000000602082015250565b7f4552433732313a20746f6b656e20616c7265616479206d696e74656400000000600082015250565b7f4552433732313a207472616e7366657220746f20746865207a65726f2061646460008201527f7265737300000000000000000000000000000000000000000000000000000000602082015250565b7f4552433732313a20617070726f766520746f2063616c6c657200000000000000600082015250565b7f4552433732313a206f70657261746f7220717565727920666f72206e6f6e657860008201527f697374656e7420746f6b656e0000000000000000000000000000000000000000602082015250565b7f61646472657373206973206e6f74207265676973746572656421000000000000600082015250565b7f4552433732313a20617070726f76652063616c6c6572206973206e6f74206f7760008201527f6e6572206e6f7220617070726f76656420666f7220616c6c0000000000000000602082015250565b7f4552433732313a2062616c616e636520717565727920666f7220746865207a6560008201527f726f206164647265737300000000000000000000000000000000000000000000602082015250565b7f4552433732313a206f776e657220717565727920666f72206e6f6e657869737460008201527f656e7420746f6b656e0000000000000000000000000000000000000000000000602082015250565b7f4552433732313a206d696e7420746f20746865207a65726f2061646472657373600082015250565b7f4552433732313a20617070726f76656420717565727920666f72206e6f6e657860008201527f697374656e7420746f6b656e0000000000000000000000000000000000000000602082015250565b7f4552433732313a207472616e73666572206f6620746f6b656e2074686174206960008201527f73206e6f74206f776e0000000000000000000000000000000000000000000000602082015250565b7f4552433732314d657461646174613a2055524920717565727920666f72206e6f60008201527f6e6578697374656e7420746f6b656e0000000000000000000000000000000000602082015250565b7f4552433732313a20617070726f76616c20746f2063757272656e74206f776e6560008201527f7200000000000000000000000000000000000000000000000000000000000000602082015250565b7f4552433732313a207472616e736665722063616c6c6572206973206e6f74206f60008201527f776e6572206e6f7220617070726f766564000000000000000000000000000000602082015250565b61328b81612b3a565b811461329657600080fd5b50565b6132a281612b4c565b81146132ad57600080fd5b50565b6132b981612b58565b81146132c457600080fd5b50565b6132d081612ba4565b81146132db57600080fd5b5056fea264697066735822122045e54ffe583d86c24918950aa6f4457dcb71b47a12b80dcc519f229d0a2e136564736f6c63430008060033",
  "immutableReferences": {},
  "source": "pragma solidity >=0.5.0 <0.9.0;\n\n/**\n * @title DiscoveryMergeNFT\n * @dev NFTs for merging course content on gitbook\n*/\n\nimport \"@openzeppelin/contracts/token/ERC721/ERC721.sol\";\nimport \"./NFTStore.sol\";\n\ncontract DiscoveryMergeNFT is ERC721{\n\n    NFTStore public masterStore;\n    uint tokenID;\n    mapping (string => uint[]) courseIndices;\n    mapping (string => bool) public checkNFTURI;\n    mapping (address => mapping(string => Commit[])) public Commits; //address --> course -> versions\n\n    event NFTCommitMinted(address indexed _to, string indexed _tokenURI, string indexed course);\n\n    constructor(address _masterStoreAddress) ERC721(\"CommitGitBook\", \"CGB\") public{\n        masterStore = NFTStore(_masterStoreAddress);\n        bool adminCheck = masterStore.admins(msg.sender);\n        require(adminCheck, \"deployer can't make NFT\");\n    } \n\n    struct Commit {\n        address receiver;\n        string course;\n        string URI;\n        uint timestamp;\n        uint version;\n        bool exists;\n    }\n\n    function mintToken(address _to , string memory _tokenURI, string memory courseName, uint _version) public {\n        \n        require(masterStore.whiteList(_to), \"address is not registered!\");\n        require(masterStore.admins(msg.sender), \"address not eligible to approve merge\");\n        require(!checkNFTURI[_tokenURI], \"this URI already is being used!\");\n        tokenID++;\n        _mint(_to, tokenID);\n        checkNFTURI[_tokenURI] = true;\n        \n        Commit memory commit_to_add = Commit({\n            receiver : _to,\n            course : courseName,\n            URI : _tokenURI,\n            timestamp : block.timestamp,\n            version : _version,\n            exists : true\n        });\n        Commits[_to][courseName].push(commit_to_add);\n        emit NFTCommitMinted(_to, _tokenURI, courseName);\n    }\n}",
  "sourcePath": "/home/jpick713/BlockChain_Apps/nftIPFS/contracts/DiscoveryMergeNFT.sol",
  "compiler": {
    "name": "solc",
    "version": "0.8.6+commit.11564f7e.Emscripten.clang"
  },
  "schemaVersion": "3.4.2",
  "updatedAt": "2021-08-05T02:33:42.232Z",
  "networkType": "ethereum",
  "devdoc": {
    "kind": "dev",
    "methods": {
      "approve(address,uint256)": {
        "details": "See {IERC721-approve}."
      },
      "balanceOf(address)": {
        "details": "See {IERC721-balanceOf}."
      },
      "getApproved(uint256)": {
        "details": "See {IERC721-getApproved}."
      },
      "isApprovedForAll(address,address)": {
        "details": "See {IERC721-isApprovedForAll}."
      },
      "name()": {
        "details": "See {IERC721Metadata-name}."
      },
      "ownerOf(uint256)": {
        "details": "See {IERC721-ownerOf}."
      },
      "safeTransferFrom(address,address,uint256)": {
        "details": "See {IERC721-safeTransferFrom}."
      },
      "safeTransferFrom(address,address,uint256,bytes)": {
        "details": "See {IERC721-safeTransferFrom}."
      },
      "setApprovalForAll(address,bool)": {
        "details": "See {IERC721-setApprovalForAll}."
      },
      "supportsInterface(bytes4)": {
        "details": "See {IERC165-supportsInterface}."
      },
      "symbol()": {
        "details": "See {IERC721Metadata-symbol}."
      },
      "tokenURI(uint256)": {
        "details": "See {IERC721Metadata-tokenURI}."
      },
      "transferFrom(address,address,uint256)": {
        "details": "See {IERC721-transferFrom}."
      }
    },
    "version": 1
  },
  "userdoc": {
    "kind": "user",
    "methods": {},
    "version": 1
  }
}