{
  "contractName": "NFTStore",
  "abi": [
    {
      "inputs": [
        {
          "internalType": "address[]",
          "name": "_admins",
          "type": "address[]"
        }
      ],
      "stateMutability": "nonpayable",
      "type": "constructor"
    },
    {
      "anonymous": false,
      "inputs": [
        {
          "indexed": true,
          "internalType": "address",
          "name": "added",
          "type": "address"
        },
        {
          "indexed": true,
          "internalType": "uint256",
          "name": "timeAdded",
          "type": "uint256"
        }
      ],
      "name": "NFTAdded",
      "type": "event"
    },
    {
      "anonymous": false,
      "inputs": [
        {
          "indexed": true,
          "internalType": "address",
          "name": "oldOwner",
          "type": "address"
        },
        {
          "indexed": true,
          "internalType": "address",
          "name": "newOwner",
          "type": "address"
        }
      ],
      "name": "OwnerSet",
      "type": "event"
    },
    {
      "inputs": [
        {
          "internalType": "address",
          "name": "",
          "type": "address"
        }
      ],
      "name": "admins",
      "outputs": [
        {
          "internalType": "bool",
          "name": "",
          "type": "bool"
        }
      ],
      "stateMutability": "view",
      "type": "function",
      "constant": true
    },
    {
      "inputs": [
        {
          "internalType": "address",
          "name": "newOwner",
          "type": "address"
        }
      ],
      "name": "changeOwner",
      "outputs": [],
      "stateMutability": "nonpayable",
      "type": "function"
    },
    {
      "inputs": [
        {
          "internalType": "address",
          "name": "",
          "type": "address"
        }
      ],
      "name": "childNFTs",
      "outputs": [
        {
          "internalType": "bool",
          "name": "",
          "type": "bool"
        }
      ],
      "stateMutability": "view",
      "type": "function",
      "constant": true
    },
    {
      "inputs": [],
      "name": "getOwner",
      "outputs": [
        {
          "internalType": "address",
          "name": "",
          "type": "address"
        }
      ],
      "stateMutability": "view",
      "type": "function",
      "constant": true
    },
    {
      "inputs": [
        {
          "internalType": "address",
          "name": "_childNFT",
          "type": "address"
        }
      ],
      "name": "addChildNFT",
      "outputs": [],
      "stateMutability": "nonpayable",
      "type": "function"
    }
  ],
  "bytecode": "0x60806040523480156200001157600080fd5b5060405162000b2c38038062000b2c833981810160405281019062000037919062000256565b336000806101000a81548173ffffffffffffffffffffffffffffffffffffffff021916908373ffffffffffffffffffffffffffffffffffffffff16021790555060008054906101000a900473ffffffffffffffffffffffffffffffffffffffff1673ffffffffffffffffffffffffffffffffffffffff16600073ffffffffffffffffffffffffffffffffffffffff167f342827c97908e5e2f71151c08502a66d44b6f758e3ac2f1de95f02eb95f0a73560405160405180910390a360005b8151811015620001895760018060008484815181106200011a5762000119620003f0565b5b602002602001015173ffffffffffffffffffffffffffffffffffffffff1673ffffffffffffffffffffffffffffffffffffffff16815260200190815260200160002060006101000a81548160ff0219169083151502179055508080620001809062000373565b915050620000f5565b50506200048d565b6000620001a8620001a284620002d0565b620002a7565b90508083825260208201905082856020860282011115620001ce57620001cd62000453565b5b60005b85811015620002025781620001e788826200020c565b845260208401935060208301925050600181019050620001d1565b5050509392505050565b6000815190506200021d8162000473565b92915050565b600082601f8301126200023b576200023a6200044e565b5b81516200024d84826020860162000191565b91505092915050565b6000602082840312156200026f576200026e6200045d565b5b600082015167ffffffffffffffff81111562000290576200028f62000458565b5b6200029e8482850162000223565b91505092915050565b6000620002b3620002c6565b9050620002c182826200033d565b919050565b6000604051905090565b600067ffffffffffffffff821115620002ee57620002ed6200041f565b5b602082029050602081019050919050565b60006200030c8262000313565b9050919050565b600073ffffffffffffffffffffffffffffffffffffffff82169050919050565b6000819050919050565b620003488262000462565b810181811067ffffffffffffffff821117156200036a57620003696200041f565b5b80604052505050565b6000620003808262000333565b91507fffffffffffffffffffffffffffffffffffffffffffffffffffffffffffffffff821415620003b657620003b5620003c1565b5b600182019050919050565b7f4e487b7100000000000000000000000000000000000000000000000000000000600052601160045260246000fd5b7f4e487b7100000000000000000000000000000000000000000000000000000000600052603260045260246000fd5b7f4e487b7100000000000000000000000000000000000000000000000000000000600052604160045260246000fd5b600080fd5b600080fd5b600080fd5b600080fd5b6000601f19601f8301169050919050565b6200047e81620002ff565b81146200048a57600080fd5b50565b61068f806200049d6000396000f3fe608060405234801561001057600080fd5b50600436106100575760003560e01c80632ebff9691461005c578063429b62e51461008c578063893d20e8146100bc578063a6f9dae1146100da578063d86033ab146100f6575b600080fd5b61007660048036038101906100719190610495565b610112565b6040516100839190610541565b60405180910390f35b6100a660048036038101906100a19190610495565b610132565b6040516100b39190610541565b60405180910390f35b6100c4610152565b6040516100d19190610526565b60405180910390f35b6100f460048036038101906100ef9190610495565b61017b565b005b610110600480360381019061010b9190610495565b6102c6565b005b60026020528060005260406000206000915054906101000a900460ff1681565b60016020528060005260406000206000915054906101000a900460ff1681565b60008060009054906101000a900473ffffffffffffffffffffffffffffffffffffffff16905090565b60008054906101000a900473ffffffffffffffffffffffffffffffffffffffff1673ffffffffffffffffffffffffffffffffffffffff163373ffffffffffffffffffffffffffffffffffffffff1614610209576040517f08c379a00000000000000000000000000000000000000000000000000000000081526004016102009061055c565b60405180910390fd5b8073ffffffffffffffffffffffffffffffffffffffff1660008054906101000a900473ffffffffffffffffffffffffffffffffffffffff1673ffffffffffffffffffffffffffffffffffffffff167f342827c97908e5e2f71151c08502a66d44b6f758e3ac2f1de95f02eb95f0a73560405160405180910390a3806000806101000a81548173ffffffffffffffffffffffffffffffffffffffff021916908373ffffffffffffffffffffffffffffffffffffffff16021790555050565b60008054906101000a900473ffffffffffffffffffffffffffffffffffffffff1673ffffffffffffffffffffffffffffffffffffffff163373ffffffffffffffffffffffffffffffffffffffff1614610354576040517f08c379a000000000000000000000000000000000000000000000000000000000815260040161034b9061055c565b60405180910390fd5b600260008273ffffffffffffffffffffffffffffffffffffffff1673ffffffffffffffffffffffffffffffffffffffff16815260200190815260200160002060009054906101000a900460ff16156103e1576040517f08c379a00000000000000000000000000000000000000000000000000000000081526004016103d89061057c565b60405180910390fd5b6001600260008373ffffffffffffffffffffffffffffffffffffffff1673ffffffffffffffffffffffffffffffffffffffff16815260200190815260200160002060006101000a81548160ff021916908315150217905550428173ffffffffffffffffffffffffffffffffffffffff167f20f41639be800e135f5ae75d4de30b4d124695ecfa9a1dc0a6fda04d0ff9bfa760405160405180910390a350565b60008135905061048f81610642565b92915050565b6000602082840312156104ab576104aa6105eb565b5b60006104b984828501610480565b91505092915050565b6104cb816105ad565b82525050565b6104da816105bf565b82525050565b60006104ed60138361059c565b91506104f8826105f0565b602082019050919050565b600061051060138361059c565b915061051b82610619565b602082019050919050565b600060208201905061053b60008301846104c2565b92915050565b600060208201905061055660008301846104d1565b92915050565b60006020820190508181036000830152610575816104e0565b9050919050565b6000602082019050818103600083015261059581610503565b9050919050565b600082825260208201905092915050565b60006105b8826105cb565b9050919050565b60008115159050919050565b600073ffffffffffffffffffffffffffffffffffffffff82169050919050565b600080fd5b7f43616c6c6572206973206e6f74206f776e657200000000000000000000000000600082015250565b7f616c72656164792061206368696c64204e465400000000000000000000000000600082015250565b61064b816105ad565b811461065657600080fd5b5056fea26469706673582212202de75a2affc78491db144bb135396f11d8b6e88187fb43f98f38160245cb43ee64736f6c63430008060033",
  "immutableReferences": {},
  "source": "pragma solidity >=0.5.0 <0.9.0;\n\n/**\n * @title NFTStore\n * @dev Store NFTs and other information for ease of access to a front-end and querying\n\n*/\n\nimport './Ownable.sol';\n\n\ncontract NFTStore is Ownable{\n        mapping (address => bool) public admins;\n        mapping (address => bool) public childNFTs;\n\n        event NFTAdded(address indexed added, uint indexed timeAdded);\n\n        constructor(address[] memory _admins) public{\n            for (uint i = 0; i<_admins.length; i++){\n                admins[_admins[i]] = true;\n            }\n        }\n\n        modifier onlyNFTContract(){\n            require(childNFTs[msg.sender], \"only child NFT contracts can call function\");\n            _;\n        }\n\n        modifier onlyAdmins(){\n            require(admins[msg.sender], \"only admin can call function\");\n            _;\n        }\n\n        function addChildNFT(address _childNFT) public isOwner{\n            require(!childNFTs[_childNFT], \"already a child NFT\");\n            childNFTs[_childNFT]= true;\n            emit NFTAdded(_childNFT, block.timestamp);\n        }\n        \n}",
  "sourcePath": "/home/jpick713/BlockChain_Apps/nftIPFS/contracts/NFTStore.sol",
  "compiler": {
    "name": "solc",
    "version": "0.8.6+commit.11564f7e.Emscripten.clang"
  },
  "schemaVersion": "3.4.2",
  "updatedAt": "2021-08-01T20:35:54.187Z",
  "networkType": "ethereum",
  "devdoc": {
    "kind": "dev",
    "methods": {
      "changeOwner(address)": {
        "details": "Change owner",
        "params": {
          "newOwner": "address of new owner"
        }
      },
      "getOwner()": {
        "details": "Return owner address ",
        "returns": {
          "_0": "address of owner"
        }
      }
    },
    "version": 1
  },
  "userdoc": {
    "kind": "user",
    "methods": {},
    "version": 1
  }
}