{
  "contractName": "NFTStore",
  "abi": [
    {
      "inputs": [
        {
          "internalType": "address[]",
          "name": "_admins",
          "type": "address[]"
        }
      ],
      "stateMutability": "nonpayable",
      "type": "constructor"
    },
    {
      "anonymous": false,
      "inputs": [
        {
          "indexed": true,
          "internalType": "address",
          "name": "added",
          "type": "address"
        },
        {
          "indexed": true,
          "internalType": "uint256",
          "name": "timeAdded",
          "type": "uint256"
        }
      ],
      "name": "NFTAdded",
      "type": "event"
    },
    {
      "anonymous": false,
      "inputs": [
        {
          "indexed": true,
          "internalType": "address",
          "name": "oldOwner",
          "type": "address"
        },
        {
          "indexed": true,
          "internalType": "address",
          "name": "newOwner",
          "type": "address"
        }
      ],
      "name": "OwnerSet",
      "type": "event"
    },
    {
      "inputs": [
        {
          "internalType": "address",
          "name": "",
          "type": "address"
        }
      ],
      "name": "admins",
      "outputs": [
        {
          "internalType": "bool",
          "name": "",
          "type": "bool"
        }
      ],
      "stateMutability": "view",
      "type": "function",
      "constant": true
    },
    {
      "inputs": [
        {
          "internalType": "address",
          "name": "newOwner",
          "type": "address"
        }
      ],
      "name": "changeOwner",
      "outputs": [],
      "stateMutability": "nonpayable",
      "type": "function"
    },
    {
      "inputs": [
        {
          "internalType": "address",
          "name": "",
          "type": "address"
        }
      ],
      "name": "childNFTs",
      "outputs": [
        {
          "internalType": "bool",
          "name": "",
          "type": "bool"
        }
      ],
      "stateMutability": "view",
      "type": "function",
      "constant": true
    },
    {
      "inputs": [],
      "name": "getOwner",
      "outputs": [
        {
          "internalType": "address",
          "name": "",
          "type": "address"
        }
      ],
      "stateMutability": "view",
      "type": "function",
      "constant": true
    },
    {
      "inputs": [
        {
          "internalType": "address",
          "name": "",
          "type": "address"
        }
      ],
      "name": "whiteList",
      "outputs": [
        {
          "internalType": "bool",
          "name": "",
          "type": "bool"
        }
      ],
      "stateMutability": "view",
      "type": "function",
      "constant": true
    },
    {
      "inputs": [
        {
          "internalType": "address",
          "name": "_childNFT",
          "type": "address"
        }
      ],
      "name": "addChildNFT",
      "outputs": [],
      "stateMutability": "nonpayable",
      "type": "function"
    },
    {
      "inputs": [
        {
          "internalType": "address",
          "name": "_address",
          "type": "address"
        }
      ],
      "name": "addAddressToWhiteList",
      "outputs": [],
      "stateMutability": "nonpayable",
      "type": "function"
    },
    {
      "inputs": [
        {
          "internalType": "address",
          "name": "_address",
          "type": "address"
        }
      ],
      "name": "addAddressToBlackList",
      "outputs": [],
      "stateMutability": "nonpayable",
      "type": "function"
    }
  ],
  "bytecode": "0x60806040523480156200001157600080fd5b50604051620010fc380380620010fc833981810160405281019062000037919062000256565b336000806101000a81548173ffffffffffffffffffffffffffffffffffffffff021916908373ffffffffffffffffffffffffffffffffffffffff16021790555060008054906101000a900473ffffffffffffffffffffffffffffffffffffffff1673ffffffffffffffffffffffffffffffffffffffff16600073ffffffffffffffffffffffffffffffffffffffff167f342827c97908e5e2f71151c08502a66d44b6f758e3ac2f1de95f02eb95f0a73560405160405180910390a360005b8151811015620001895760018060008484815181106200011a5762000119620003f0565b5b602002602001015173ffffffffffffffffffffffffffffffffffffffff1673ffffffffffffffffffffffffffffffffffffffff16815260200190815260200160002060006101000a81548160ff0219169083151502179055508080620001809062000373565b915050620000f5565b50506200048d565b6000620001a8620001a284620002d0565b620002a7565b90508083825260208201905082856020860282011115620001ce57620001cd62000453565b5b60005b85811015620002025781620001e788826200020c565b845260208401935060208301925050600181019050620001d1565b5050509392505050565b6000815190506200021d8162000473565b92915050565b600082601f8301126200023b576200023a6200044e565b5b81516200024d84826020860162000191565b91505092915050565b6000602082840312156200026f576200026e6200045d565b5b600082015167ffffffffffffffff81111562000290576200028f62000458565b5b6200029e8482850162000223565b91505092915050565b6000620002b3620002c6565b9050620002c182826200033d565b919050565b6000604051905090565b600067ffffffffffffffff821115620002ee57620002ed6200041f565b5b602082029050602081019050919050565b60006200030c8262000313565b9050919050565b600073ffffffffffffffffffffffffffffffffffffffff82169050919050565b6000819050919050565b620003488262000462565b810181811067ffffffffffffffff821117156200036a57620003696200041f565b5b80604052505050565b6000620003808262000333565b91507fffffffffffffffffffffffffffffffffffffffffffffffffffffffffffffffff821415620003b657620003b5620003c1565b5b600182019050919050565b7f4e487b7100000000000000000000000000000000000000000000000000000000600052601160045260246000fd5b7f4e487b7100000000000000000000000000000000000000000000000000000000600052603260045260246000fd5b7f4e487b7100000000000000000000000000000000000000000000000000000000600052604160045260246000fd5b600080fd5b600080fd5b600080fd5b600080fd5b6000601f19601f8301169050919050565b6200047e81620002ff565b81146200048a57600080fd5b50565b610c5f806200049d6000396000f3fe608060405234801561001057600080fd5b50600436106100885760003560e01c80639244f4961161005b5780639244f4961461013b578063a6f9dae114610157578063b5d354c414610173578063d86033ab1461018f57610088565b80632ebff9691461008d578063372c12b1146100bd578063429b62e5146100ed578063893d20e81461011d575b600080fd5b6100a760048036038101906100a2919061088f565b6101ab565b6040516100b491906109c7565b60405180910390f35b6100d760048036038101906100d2919061088f565b6101cb565b6040516100e491906109c7565b60405180910390f35b6101076004803603810190610102919061088f565b6101eb565b60405161011491906109c7565b60405180910390f35b61012561020b565b60405161013291906109ac565b60405180910390f35b6101556004803603810190610150919061088f565b610234565b005b610171600480360381019061016c919061088f565b6103a9565b005b61018d6004803603810190610188919061088f565b6104f4565b005b6101a960048036038101906101a4919061088f565b6106c0565b005b60026020528060005260406000206000915054906101000a900460ff1681565b60036020528060005260406000206000915054906101000a900460ff1681565b60016020528060005260406000206000915054906101000a900460ff1681565b60008060009054906101000a900473ffffffffffffffffffffffffffffffffffffffff16905090565b600460008273ffffffffffffffffffffffffffffffffffffffff1673ffffffffffffffffffffffffffffffffffffffff16815260200190815260200160002060009054906101000a900460ff16156102c1576040517f08c379a00000000000000000000000000000000000000000000000000000000081526004016102b8906109e2565b60405180910390fd5b600360008273ffffffffffffffffffffffffffffffffffffffff1673ffffffffffffffffffffffffffffffffffffffff16815260200190815260200160002060009054906101000a900460ff161561034e576040517f08c379a000000000000000000000000000000000000000000000000000000000815260040161034590610a82565b60405180910390fd5b6001600360008373ffffffffffffffffffffffffffffffffffffffff1673ffffffffffffffffffffffffffffffffffffffff16815260200190815260200160002060006101000a81548160ff02191690831515021790555050565b60008054906101000a900473ffffffffffffffffffffffffffffffffffffffff1673ffffffffffffffffffffffffffffffffffffffff163373ffffffffffffffffffffffffffffffffffffffff1614610437576040517f08c379a000000000000000000000000000000000000000000000000000000000815260040161042e90610a22565b60405180910390fd5b8073ffffffffffffffffffffffffffffffffffffffff1660008054906101000a900473ffffffffffffffffffffffffffffffffffffffff1673ffffffffffffffffffffffffffffffffffffffff167f342827c97908e5e2f71151c08502a66d44b6f758e3ac2f1de95f02eb95f0a73560405160405180910390a3806000806101000a81548173ffffffffffffffffffffffffffffffffffffffff021916908373ffffffffffffffffffffffffffffffffffffffff16021790555050565b600160003373ffffffffffffffffffffffffffffffffffffffff1673ffffffffffffffffffffffffffffffffffffffff16815260200190815260200160002060009054906101000a900460ff16610580576040517f08c379a000000000000000000000000000000000000000000000000000000000815260040161057790610a62565b60405180910390fd5b600460008273ffffffffffffffffffffffffffffffffffffffff1673ffffffffffffffffffffffffffffffffffffffff16815260200190815260200160002060009054906101000a900460ff161561060d576040517f08c379a000000000000000000000000000000000000000000000000000000000815260040161060490610a02565b60405180910390fd5b6001600460008373ffffffffffffffffffffffffffffffffffffffff1673ffffffffffffffffffffffffffffffffffffffff16815260200190815260200160002060006101000a81548160ff0219169083151502179055506000600360008373ffffffffffffffffffffffffffffffffffffffff1673ffffffffffffffffffffffffffffffffffffffff16815260200190815260200160002060006101000a81548160ff02191690831515021790555050565b60008054906101000a900473ffffffffffffffffffffffffffffffffffffffff1673ffffffffffffffffffffffffffffffffffffffff163373ffffffffffffffffffffffffffffffffffffffff161461074e576040517f08c379a000000000000000000000000000000000000000000000000000000000815260040161074590610a22565b60405180910390fd5b600260008273ffffffffffffffffffffffffffffffffffffffff1673ffffffffffffffffffffffffffffffffffffffff16815260200190815260200160002060009054906101000a900460ff16156107db576040517f08c379a00000000000000000000000000000000000000000000000000000000081526004016107d290610a42565b60405180910390fd5b6001600260008373ffffffffffffffffffffffffffffffffffffffff1673ffffffffffffffffffffffffffffffffffffffff16815260200190815260200160002060006101000a81548160ff021916908315150217905550428173ffffffffffffffffffffffffffffffffffffffff167f20f41639be800e135f5ae75d4de30b4d124695ecfa9a1dc0a6fda04d0ff9bfa760405160405180910390a350565b60008135905061088981610c12565b92915050565b6000602082840312156108a5576108a4610af1565b5b60006108b38482850161087a565b91505092915050565b6108c581610ab3565b82525050565b6108d481610ac5565b82525050565b60006108e7601d83610aa2565b91506108f282610af6565b602082019050919050565b600061090a601c83610aa2565b915061091582610b1f565b602082019050919050565b600061092d601383610aa2565b915061093882610b48565b602082019050919050565b6000610950601383610aa2565b915061095b82610b71565b602082019050919050565b6000610973601c83610aa2565b915061097e82610b9a565b602082019050919050565b6000610996602783610aa2565b91506109a182610bc3565b604082019050919050565b60006020820190506109c160008301846108bc565b92915050565b60006020820190506109dc60008301846108cb565b92915050565b600060208201905081810360008301526109fb816108da565b9050919050565b60006020820190508181036000830152610a1b816108fd565b9050919050565b60006020820190508181036000830152610a3b81610920565b9050919050565b60006020820190508181036000830152610a5b81610943565b9050919050565b60006020820190508181036000830152610a7b81610966565b9050919050565b60006020820190508181036000830152610a9b81610989565b9050919050565b600082825260208201905092915050565b6000610abe82610ad1565b9050919050565b60008115159050919050565b600073ffffffffffffffffffffffffffffffffffffffff82169050919050565b600080fd5b7f74686973206164647265737320686173206265656e2062616e6e656421000000600082015250565b7f74686973206164647265737320616c72656164792062616e6e65642100000000600082015250565b7f43616c6c6572206973206e6f74206f776e657200000000000000000000000000600082015250565b7f616c72656164792061206368696c64204e465400000000000000000000000000600082015250565b7f6f6e6c792061646d696e2063616e2063616c6c2066756e6374696f6e00000000600082015250565b7f74686973206164647265737320616c7265616479206f6e20746865207768697460008201527f65206c6973742100000000000000000000000000000000000000000000000000602082015250565b610c1b81610ab3565b8114610c2657600080fd5b5056fea2646970667358221220bdc874bf2dd224e85231404dc747bc8278527d10ae2009630c7346e566ff8bf564736f6c63430008060033",
  "immutableReferences": {},
  "source": "pragma solidity >=0.5.0 <0.9.0;\n\n/**\n * @title NFTStore\n * @dev Store NFTs and other information for ease of access to a front-end and querying\n\n*/\n\nimport './Ownable.sol';\n\n\ncontract NFTStore is Ownable{\n        mapping (address => bool) public admins;\n        mapping (address => bool) public childNFTs;\n        mapping (address => bool) public whiteList;\n        mapping (address => bool) private blackList;\n\n        event NFTAdded(address indexed added, uint indexed timeAdded);\n\n        constructor(address[] memory _admins) public{\n            for (uint i = 0; i<_admins.length; i++){\n                admins[_admins[i]] = true;\n            }\n        }\n\n        modifier onlyNFTContract(){\n            require(childNFTs[msg.sender], \"only child NFT contracts can call function\");\n            _;\n        }\n\n        modifier onlyAdmins(){\n            require(admins[msg.sender], \"only admin can call function\");\n            _;\n        }\n\n        function addChildNFT(address _childNFT) public isOwner{\n            require(!childNFTs[_childNFT], \"already a child NFT\");\n            childNFTs[_childNFT]= true;\n            emit NFTAdded(_childNFT, block.timestamp);\n        }\n\n        function addAddressToWhiteList(address _address) public {\n            require (!blackList[_address], \"this address has been banned!\");\n            require (!whiteList[_address], \"this address already on the white list!\");\n            whiteList[_address] = true;\n            //possibly emit event\n        }\n\n        function addAddressToBlackList(address _address) public onlyAdmins{\n            require (!blackList[_address], \"this address already banned!\");\n            blackList[_address] = true;\n            whiteList[_address] = false;\n            //possibly emit event\n        }\n        \n        \n}",
  "sourcePath": "/home/jpick713/BlockChain_Apps/nftIPFS/contracts/NFTStore.sol",
  "compiler": {
    "name": "solc",
    "version": "0.8.6+commit.11564f7e.Emscripten.clang"
  },
  "schemaVersion": "3.4.2",
  "updatedAt": "2021-08-02T02:30:27.442Z",
  "networkType": "ethereum",
  "devdoc": {
    "kind": "dev",
    "methods": {
      "changeOwner(address)": {
        "details": "Change owner",
        "params": {
          "newOwner": "address of new owner"
        }
      },
      "getOwner()": {
        "details": "Return owner address ",
        "returns": {
          "_0": "address of owner"
        }
      }
    },
    "version": 1
  },
  "userdoc": {
    "kind": "user",
    "methods": {},
    "version": 1
  }
}