{
  "contractName": "NFTStore",
  "abi": [
    {
      "inputs": [
        {
          "internalType": "address[]",
          "name": "_admins",
          "type": "address[]"
        }
      ],
      "stateMutability": "nonpayable",
      "type": "constructor"
    },
    {
      "anonymous": false,
      "inputs": [
        {
          "indexed": true,
          "internalType": "address",
          "name": "added",
          "type": "address"
        },
        {
          "indexed": true,
          "internalType": "uint256",
          "name": "timeAdded",
          "type": "uint256"
        }
      ],
      "name": "NFTAdded",
      "type": "event"
    },
    {
      "anonymous": false,
      "inputs": [
        {
          "indexed": true,
          "internalType": "address",
          "name": "oldOwner",
          "type": "address"
        },
        {
          "indexed": true,
          "internalType": "address",
          "name": "newOwner",
          "type": "address"
        }
      ],
      "name": "OwnerSet",
      "type": "event"
    },
    {
      "anonymous": false,
      "inputs": [
        {
          "indexed": true,
          "internalType": "string",
          "name": "questName",
          "type": "string"
        }
      ],
      "name": "QuestApproved",
      "type": "event"
    },
    {
      "inputs": [
        {
          "internalType": "address",
          "name": "",
          "type": "address"
        }
      ],
      "name": "admins",
      "outputs": [
        {
          "internalType": "bool",
          "name": "",
          "type": "bool"
        }
      ],
      "stateMutability": "view",
      "type": "function",
      "constant": true
    },
    {
      "inputs": [
        {
          "internalType": "uint256",
          "name": "",
          "type": "uint256"
        }
      ],
      "name": "allQuests",
      "outputs": [
        {
          "internalType": "string",
          "name": "",
          "type": "string"
        }
      ],
      "stateMutability": "view",
      "type": "function",
      "constant": true
    },
    {
      "inputs": [
        {
          "internalType": "string",
          "name": "",
          "type": "string"
        }
      ],
      "name": "approvedQuests",
      "outputs": [
        {
          "internalType": "bool",
          "name": "",
          "type": "bool"
        }
      ],
      "stateMutability": "view",
      "type": "function",
      "constant": true
    },
    {
      "inputs": [
        {
          "internalType": "address",
          "name": "newOwner",
          "type": "address"
        }
      ],
      "name": "changeOwner",
      "outputs": [],
      "stateMutability": "nonpayable",
      "type": "function"
    },
    {
      "inputs": [
        {
          "internalType": "address",
          "name": "",
          "type": "address"
        }
      ],
      "name": "childNFTs",
      "outputs": [
        {
          "internalType": "bool",
          "name": "",
          "type": "bool"
        }
      ],
      "stateMutability": "view",
      "type": "function",
      "constant": true
    },
    {
      "inputs": [],
      "name": "getOwner",
      "outputs": [
        {
          "internalType": "address",
          "name": "",
          "type": "address"
        }
      ],
      "stateMutability": "view",
      "type": "function",
      "constant": true
    },
    {
      "inputs": [
        {
          "internalType": "address",
          "name": "",
          "type": "address"
        }
      ],
      "name": "whiteList",
      "outputs": [
        {
          "internalType": "bool",
          "name": "",
          "type": "bool"
        }
      ],
      "stateMutability": "view",
      "type": "function",
      "constant": true
    },
    {
      "stateMutability": "payable",
      "type": "receive",
      "payable": true
    },
    {
      "inputs": [
        {
          "internalType": "address",
          "name": "_childNFT",
          "type": "address"
        }
      ],
      "name": "addChildNFT",
      "outputs": [],
      "stateMutability": "nonpayable",
      "type": "function"
    },
    {
      "inputs": [
        {
          "internalType": "address",
          "name": "_address",
          "type": "address"
        }
      ],
      "name": "addAddressToWhiteList",
      "outputs": [],
      "stateMutability": "nonpayable",
      "type": "function"
    },
    {
      "inputs": [
        {
          "internalType": "address",
          "name": "_address",
          "type": "address"
        }
      ],
      "name": "addAddressToBlackList",
      "outputs": [],
      "stateMutability": "nonpayable",
      "type": "function"
    },
    {
      "inputs": [
        {
          "internalType": "string",
          "name": "_quest",
          "type": "string"
        }
      ],
      "name": "addApprovedQuest",
      "outputs": [],
      "stateMutability": "nonpayable",
      "type": "function"
    },
    {
      "inputs": [],
      "name": "getQuests",
      "outputs": [
        {
          "internalType": "string[]",
          "name": "",
          "type": "string[]"
        }
      ],
      "stateMutability": "view",
      "type": "function",
      "constant": true
    }
  ],
  "bytecode": "0x60806040523480156200001157600080fd5b5060405162001b5238038062001b52833981810160405281019062000037919062000256565b336000806101000a81548173ffffffffffffffffffffffffffffffffffffffff021916908373ffffffffffffffffffffffffffffffffffffffff16021790555060008054906101000a900473ffffffffffffffffffffffffffffffffffffffff1673ffffffffffffffffffffffffffffffffffffffff16600073ffffffffffffffffffffffffffffffffffffffff167f342827c97908e5e2f71151c08502a66d44b6f758e3ac2f1de95f02eb95f0a73560405160405180910390a360005b8151811015620001895760018060008484815181106200011a5762000119620003f0565b5b602002602001015173ffffffffffffffffffffffffffffffffffffffff1673ffffffffffffffffffffffffffffffffffffffff16815260200190815260200160002060006101000a81548160ff0219169083151502179055508080620001809062000373565b915050620000f5565b50506200048d565b6000620001a8620001a284620002d0565b620002a7565b90508083825260208201905082856020860282011115620001ce57620001cd62000453565b5b60005b85811015620002025781620001e788826200020c565b845260208401935060208301925050600181019050620001d1565b5050509392505050565b6000815190506200021d8162000473565b92915050565b600082601f8301126200023b576200023a6200044e565b5b81516200024d84826020860162000191565b91505092915050565b6000602082840312156200026f576200026e6200045d565b5b600082015167ffffffffffffffff81111562000290576200028f62000458565b5b6200029e8482850162000223565b91505092915050565b6000620002b3620002c6565b9050620002c182826200033d565b919050565b6000604051905090565b600067ffffffffffffffff821115620002ee57620002ed6200041f565b5b602082029050602081019050919050565b60006200030c8262000313565b9050919050565b600073ffffffffffffffffffffffffffffffffffffffff82169050919050565b6000819050919050565b620003488262000462565b810181811067ffffffffffffffff821117156200036a57620003696200041f565b5b80604052505050565b6000620003808262000333565b91507fffffffffffffffffffffffffffffffffffffffffffffffffffffffffffffffff821415620003b657620003b5620003c1565b5b600182019050919050565b7f4e487b7100000000000000000000000000000000000000000000000000000000600052601160045260246000fd5b7f4e487b7100000000000000000000000000000000000000000000000000000000600052603260045260246000fd5b7f4e487b7100000000000000000000000000000000000000000000000000000000600052604160045260246000fd5b600080fd5b600080fd5b600080fd5b600080fd5b6000601f19601f8301169050919050565b6200047e81620002ff565b81146200048a57600080fd5b50565b6116b5806200049d6000396000f3fe6080604052600436106100ab5760003560e01c80639244f496116100645780639244f49614610201578063a6f9dae11461022a578063a852a58114610253578063b5d354c414610290578063cc36e52e146102b9578063d86033ab146102e2576100b2565b80632ebff969146100b7578063372c12b1146100f4578063429b62e5146101315780637adcad8b1461016e578063893d20e8146101995780638e5208e5146101c4576100b2565b366100b257005b600080fd5b3480156100c357600080fd5b506100de60048036038101906100d99190610e82565b61030b565b6040516100eb91906111b8565b60405180910390f35b34801561010057600080fd5b5061011b60048036038101906101169190610e82565b61032b565b60405161012891906111b8565b60405180910390f35b34801561013d57600080fd5b5061015860048036038101906101539190610e82565b61034b565b60405161016591906111b8565b60405180910390f35b34801561017a57600080fd5b5061018361036b565b6040516101909190611196565b60405180910390f35b3480156101a557600080fd5b506101ae610444565b6040516101bb919061117b565b60405180910390f35b3480156101d057600080fd5b506101eb60048036038101906101e69190610ef8565b61046d565b6040516101f891906111d3565b60405180910390f35b34801561020d57600080fd5b5061022860048036038101906102239190610e82565b610519565b005b34801561023657600080fd5b50610251600480360381019061024c9190610e82565b61068e565b005b34801561025f57600080fd5b5061027a60048036038101906102759190610eaf565b6107d9565b60405161028791906111b8565b60405180910390f35b34801561029c57600080fd5b506102b760048036038101906102b29190610e82565b61080f565b005b3480156102c557600080fd5b506102e060048036038101906102db9190610eaf565b6109db565b005b3480156102ee57600080fd5b5061030960048036038101906103049190610e82565b610b8b565b005b60026020528060005260406000206000915054906101000a900460ff1681565b60036020528060005260406000206000915054906101000a900460ff1681565b60016020528060005260406000206000915054906101000a900460ff1681565b60606006805480602002602001604051908101604052809291908181526020016000905b8282101561043b5783829060005260206000200180546103ae90611426565b80601f01602080910402602001604051908101604052809291908181526020018280546103da90611426565b80156104275780601f106103fc57610100808354040283529160200191610427565b820191906000526020600020905b81548152906001019060200180831161040a57829003601f168201915b50505050508152602001906001019061038f565b50505050905090565b60008060009054906101000a900473ffffffffffffffffffffffffffffffffffffffff16905090565b6006818154811061047d57600080fd5b90600052602060002001600091509050805461049890611426565b80601f01602080910402602001604051908101604052809291908181526020018280546104c490611426565b80156105115780601f106104e657610100808354040283529160200191610511565b820191906000526020600020905b8154815290600101906020018083116104f457829003601f168201915b505050505081565b600460008273ffffffffffffffffffffffffffffffffffffffff1673ffffffffffffffffffffffffffffffffffffffff16815260200190815260200160002060009054906101000a900460ff16156105a6576040517f08c379a000000000000000000000000000000000000000000000000000000000815260040161059d906111f5565b60405180910390fd5b600360008273ffffffffffffffffffffffffffffffffffffffff1673ffffffffffffffffffffffffffffffffffffffff16815260200190815260200160002060009054906101000a900460ff1615610633576040517f08c379a000000000000000000000000000000000000000000000000000000000815260040161062a90611295565b60405180910390fd5b6001600360008373ffffffffffffffffffffffffffffffffffffffff1673ffffffffffffffffffffffffffffffffffffffff16815260200190815260200160002060006101000a81548160ff02191690831515021790555050565b60008054906101000a900473ffffffffffffffffffffffffffffffffffffffff1673ffffffffffffffffffffffffffffffffffffffff163373ffffffffffffffffffffffffffffffffffffffff161461071c576040517f08c379a000000000000000000000000000000000000000000000000000000000815260040161071390611235565b60405180910390fd5b8073ffffffffffffffffffffffffffffffffffffffff1660008054906101000a900473ffffffffffffffffffffffffffffffffffffffff1673ffffffffffffffffffffffffffffffffffffffff167f342827c97908e5e2f71151c08502a66d44b6f758e3ac2f1de95f02eb95f0a73560405160405180910390a3806000806101000a81548173ffffffffffffffffffffffffffffffffffffffff021916908373ffffffffffffffffffffffffffffffffffffffff16021790555050565b6005818051602081018201805184825260208301602085012081835280955050505050506000915054906101000a900460ff1681565b600160003373ffffffffffffffffffffffffffffffffffffffff1673ffffffffffffffffffffffffffffffffffffffff16815260200190815260200160002060009054906101000a900460ff1661089b576040517f08c379a000000000000000000000000000000000000000000000000000000000815260040161089290611275565b60405180910390fd5b600460008273ffffffffffffffffffffffffffffffffffffffff1673ffffffffffffffffffffffffffffffffffffffff16815260200190815260200160002060009054906101000a900460ff1615610928576040517f08c379a000000000000000000000000000000000000000000000000000000000815260040161091f90611215565b60405180910390fd5b6001600460008373ffffffffffffffffffffffffffffffffffffffff1673ffffffffffffffffffffffffffffffffffffffff16815260200190815260200160002060006101000a81548160ff0219169083151502179055506000600360008373ffffffffffffffffffffffffffffffffffffffff1673ffffffffffffffffffffffffffffffffffffffff16815260200190815260200160002060006101000a81548160ff02191690831515021790555050565b600160003373ffffffffffffffffffffffffffffffffffffffff1673ffffffffffffffffffffffffffffffffffffffff16815260200190815260200160002060009054906101000a900460ff16610a67576040517f08c379a0000000000000000000000000000000000000000000000000000000008152600401610a5e90611275565b60405180910390fd5b600581604051610a779190611164565b908152602001604051809103902060009054906101000a900460ff1615610ad3576040517f08c379a0000000000000000000000000000000000000000000000000000000008152600401610aca906112b5565b60405180910390fd5b6001600582604051610ae59190611164565b908152602001604051809103902060006101000a81548160ff021916908315150217905550600681908060018154018082558091505060019003906000526020600020016000909190919091509080519060200190610b45929190610d45565b5080604051610b549190611164565b60405180910390207f8d6e2410408d0d15d6e2d1f4f0f396a3ea85b7dfc6f82a888689357f5d98cef060405160405180910390a250565b60008054906101000a900473ffffffffffffffffffffffffffffffffffffffff1673ffffffffffffffffffffffffffffffffffffffff163373ffffffffffffffffffffffffffffffffffffffff1614610c19576040517f08c379a0000000000000000000000000000000000000000000000000000000008152600401610c1090611235565b60405180910390fd5b600260008273ffffffffffffffffffffffffffffffffffffffff1673ffffffffffffffffffffffffffffffffffffffff16815260200190815260200160002060009054906101000a900460ff1615610ca6576040517f08c379a0000000000000000000000000000000000000000000000000000000008152600401610c9d90611255565b60405180910390fd5b6001600260008373ffffffffffffffffffffffffffffffffffffffff1673ffffffffffffffffffffffffffffffffffffffff16815260200190815260200160002060006101000a81548160ff021916908315150217905550428173ffffffffffffffffffffffffffffffffffffffff167f20f41639be800e135f5ae75d4de30b4d124695ecfa9a1dc0a6fda04d0ff9bfa760405160405180910390a350565b828054610d5190611426565b90600052602060002090601f016020900481019282610d735760008555610dba565b82601f10610d8c57805160ff1916838001178555610dba565b82800160010185558215610dba579182015b82811115610db9578251825591602001919060010190610d9e565b5b509050610dc79190610dcb565b5090565b5b80821115610de4576000816000905550600101610dcc565b5090565b6000610dfb610df6846112fa565b6112d5565b905082815260208101848484011115610e1757610e166114ec565b5b610e228482856113e4565b509392505050565b600081359050610e3981611651565b92915050565b600082601f830112610e5457610e536114e7565b5b8135610e64848260208601610de8565b91505092915050565b600081359050610e7c81611668565b92915050565b600060208284031215610e9857610e976114f6565b5b6000610ea684828501610e2a565b91505092915050565b600060208284031215610ec557610ec46114f6565b5b600082013567ffffffffffffffff811115610ee357610ee26114f1565b5b610eef84828501610e3f565b91505092915050565b600060208284031215610f0e57610f0d6114f6565b5b6000610f1c84828501610e6d565b91505092915050565b6000610f318383610fcc565b905092915050565b610f428161139c565b82525050565b6000610f538261133b565b610f5d818561135e565b935083602082028501610f6f8561132b565b8060005b85811015610fab5784840389528151610f8c8582610f25565b9450610f9783611351565b925060208a01995050600181019050610f73565b50829750879550505050505092915050565b610fc6816113ae565b82525050565b6000610fd782611346565b610fe1818561136f565b9350610ff18185602086016113f3565b610ffa816114fb565b840191505092915050565b600061101082611346565b61101a8185611380565b935061102a8185602086016113f3565b611033816114fb565b840191505092915050565b600061104982611346565b6110538185611391565b93506110638185602086016113f3565b80840191505092915050565b600061107c601d83611380565b91506110878261150c565b602082019050919050565b600061109f601c83611380565b91506110aa82611535565b602082019050919050565b60006110c2601383611380565b91506110cd8261155e565b602082019050919050565b60006110e5601383611380565b91506110f082611587565b602082019050919050565b6000611108601c83611380565b9150611113826115b0565b602082019050919050565b600061112b602783611380565b9150611136826115d9565b604082019050919050565b600061114e601683611380565b915061115982611628565b602082019050919050565b6000611170828461103e565b915081905092915050565b60006020820190506111906000830184610f39565b92915050565b600060208201905081810360008301526111b08184610f48565b905092915050565b60006020820190506111cd6000830184610fbd565b92915050565b600060208201905081810360008301526111ed8184611005565b905092915050565b6000602082019050818103600083015261120e8161106f565b9050919050565b6000602082019050818103600083015261122e81611092565b9050919050565b6000602082019050818103600083015261124e816110b5565b9050919050565b6000602082019050818103600083015261126e816110d8565b9050919050565b6000602082019050818103600083015261128e816110fb565b9050919050565b600060208201905081810360008301526112ae8161111e565b9050919050565b600060208201905081810360008301526112ce81611141565b9050919050565b60006112df6112f0565b90506112eb8282611458565b919050565b6000604051905090565b600067ffffffffffffffff821115611315576113146114b8565b5b61131e826114fb565b9050602081019050919050565b6000819050602082019050919050565b600081519050919050565b600081519050919050565b6000602082019050919050565b600082825260208201905092915050565b600082825260208201905092915050565b600082825260208201905092915050565b600081905092915050565b60006113a7826113ba565b9050919050565b60008115159050919050565b600073ffffffffffffffffffffffffffffffffffffffff82169050919050565b6000819050919050565b82818337600083830152505050565b60005b838110156114115780820151818401526020810190506113f6565b83811115611420576000848401525b50505050565b6000600282049050600182168061143e57607f821691505b6020821081141561145257611451611489565b5b50919050565b611461826114fb565b810181811067ffffffffffffffff821117156114805761147f6114b8565b5b80604052505050565b7f4e487b7100000000000000000000000000000000000000000000000000000000600052602260045260246000fd5b7f4e487b7100000000000000000000000000000000000000000000000000000000600052604160045260246000fd5b600080fd5b600080fd5b600080fd5b600080fd5b6000601f19601f8301169050919050565b7f74686973206164647265737320686173206265656e2062616e6e656421000000600082015250565b7f74686973206164647265737320616c72656164792062616e6e65642100000000600082015250565b7f43616c6c6572206973206e6f74206f776e657200000000000000000000000000600082015250565b7f616c72656164792061206368696c64204e465400000000000000000000000000600082015250565b7f6f6e6c792061646d696e2063616e2063616c6c2066756e6374696f6e00000000600082015250565b7f74686973206164647265737320616c7265616479206f6e20746865207768697460008201527f65206c6973742100000000000000000000000000000000000000000000000000602082015250565b7f717565737420616c726561647920617070726f76656400000000000000000000600082015250565b61165a8161139c565b811461166557600080fd5b50565b611671816113da565b811461167c57600080fd5b5056fea2646970667358221220535458aa157fb57da7bcc54303d83ab02194213092133bcb2e61246f2082891e64736f6c63430008060033",
  "immutableReferences": {},
  "source": "pragma solidity >=0.5.0 <0.9.0;\n\n/**\n * @title NFTStore\n * @dev Store NFTs and other information for ease of access to a front-end and querying\n\n*/\n\nimport './Ownable.sol';\n\n\ncontract NFTStore is Ownable{\n        mapping (address => bool) public admins;\n        mapping (address => bool) public childNFTs;\n        mapping (address => bool) public whiteList;\n        mapping (address => bool) private blackList;\n        mapping (string => bool) public approvedQuests;\n        string[] public allQuests;\n\n        event NFTAdded(address indexed added, uint indexed timeAdded);\n        event QuestApproved(string indexed questName);\n\n        constructor(address[] memory _admins) public{\n            for (uint i = 0; i<_admins.length; i++){\n                admins[_admins[i]] = true;\n            }\n        }\n\n        receive() external payable {\n\n        }\n\n        modifier onlyNFTContract(){\n            require(childNFTs[msg.sender], \"only child NFT contracts can call function\");\n            _;\n        }\n\n        modifier onlyAdmins(){\n            require(admins[msg.sender], \"only admin can call function\");\n            _;\n        }\n\n        function addChildNFT(address _childNFT) public isOwner{\n            require(!childNFTs[_childNFT], \"already a child NFT\");\n            childNFTs[_childNFT]= true;\n            emit NFTAdded(_childNFT, block.timestamp);\n        }\n\n        function addAddressToWhiteList(address _address) public {\n            require (!blackList[_address], \"this address has been banned!\");\n            require (!whiteList[_address], \"this address already on the white list!\");\n            whiteList[_address] = true;\n            //possibly emit event\n        }\n\n        function addAddressToBlackList(address _address) public onlyAdmins{\n            require (!blackList[_address], \"this address already banned!\");\n            blackList[_address] = true;\n            whiteList[_address] = false;\n            //possibly emit event\n        }\n\n        function addApprovedQuest(string memory _quest) public onlyAdmins{\n            require(!approvedQuests[_quest], \"quest already approved\");\n            approvedQuests[_quest] = true;\n            allQuests.push(_quest);\n            emit QuestApproved(_quest);\n        }\n        \n        function getQuests() public view returns(string[] memory){\n            return allQuests;\n        }\n        \n}",
  "sourcePath": "/home/jpick713/BlockChain_Apps/nftIPFS/contracts/NFTStore.sol",
  "compiler": {
    "name": "solc",
    "version": "0.8.6+commit.11564f7e.Emscripten.clang"
  },
  "schemaVersion": "3.4.2",
  "updatedAt": "2021-08-14T02:49:18.570Z",
  "networkType": "ethereum",
  "devdoc": {
    "kind": "dev",
    "methods": {
      "changeOwner(address)": {
        "details": "Change owner",
        "params": {
          "newOwner": "address of new owner"
        }
      },
      "getOwner()": {
        "details": "Return owner address ",
        "returns": {
          "_0": "address of owner"
        }
      }
    },
    "version": 1
  },
  "userdoc": {
    "kind": "user",
    "methods": {},
    "version": 1
  }
}