{
  "contractName": "NFTStore",
  "abi": [
    {
      "inputs": [
        {
          "internalType": "address[]",
          "name": "_admins",
          "type": "address[]"
        }
      ],
      "stateMutability": "nonpayable",
      "type": "constructor"
    },
    {
      "anonymous": false,
      "inputs": [
        {
          "indexed": true,
          "internalType": "address",
          "name": "added",
          "type": "address"
        },
        {
          "indexed": true,
          "internalType": "uint256",
          "name": "timeAdded",
          "type": "uint256"
        }
      ],
      "name": "NFTAdded",
      "type": "event"
    },
    {
      "anonymous": false,
      "inputs": [
        {
          "indexed": true,
          "internalType": "address",
          "name": "oldOwner",
          "type": "address"
        },
        {
          "indexed": true,
          "internalType": "address",
          "name": "newOwner",
          "type": "address"
        }
      ],
      "name": "OwnerSet",
      "type": "event"
    },
    {
      "anonymous": false,
      "inputs": [
        {
          "indexed": true,
          "internalType": "string",
          "name": "questName",
          "type": "string"
        }
      ],
      "name": "QuestApproved",
      "type": "event"
    },
    {
      "inputs": [
        {
          "internalType": "address",
          "name": "",
          "type": "address"
        }
      ],
      "name": "admins",
      "outputs": [
        {
          "internalType": "bool",
          "name": "",
          "type": "bool"
        }
      ],
      "stateMutability": "view",
      "type": "function",
      "constant": true
    },
    {
      "inputs": [
        {
          "internalType": "uint256",
          "name": "",
          "type": "uint256"
        }
      ],
      "name": "allQuests",
      "outputs": [
        {
          "internalType": "string",
          "name": "",
          "type": "string"
        }
      ],
      "stateMutability": "view",
      "type": "function",
      "constant": true
    },
    {
      "inputs": [
        {
          "internalType": "string",
          "name": "",
          "type": "string"
        }
      ],
      "name": "approvedQuests",
      "outputs": [
        {
          "internalType": "bool",
          "name": "",
          "type": "bool"
        }
      ],
      "stateMutability": "view",
      "type": "function",
      "constant": true
    },
    {
      "inputs": [
        {
          "internalType": "address",
          "name": "newOwner",
          "type": "address"
        }
      ],
      "name": "changeOwner",
      "outputs": [],
      "stateMutability": "nonpayable",
      "type": "function"
    },
    {
      "inputs": [
        {
          "internalType": "address",
          "name": "",
          "type": "address"
        }
      ],
      "name": "childNFTs",
      "outputs": [
        {
          "internalType": "bool",
          "name": "",
          "type": "bool"
        }
      ],
      "stateMutability": "view",
      "type": "function",
      "constant": true
    },
    {
      "inputs": [],
      "name": "getOwner",
      "outputs": [
        {
          "internalType": "address",
          "name": "",
          "type": "address"
        }
      ],
      "stateMutability": "view",
      "type": "function",
      "constant": true
    },
    {
      "inputs": [
        {
          "internalType": "address",
          "name": "",
          "type": "address"
        }
      ],
      "name": "whiteList",
      "outputs": [
        {
          "internalType": "bool",
          "name": "",
          "type": "bool"
        }
      ],
      "stateMutability": "view",
      "type": "function",
      "constant": true
    },
    {
      "inputs": [
        {
          "internalType": "address",
          "name": "_childNFT",
          "type": "address"
        }
      ],
      "name": "addChildNFT",
      "outputs": [],
      "stateMutability": "nonpayable",
      "type": "function"
    },
    {
      "inputs": [
        {
          "internalType": "address",
          "name": "_address",
          "type": "address"
        }
      ],
      "name": "addAddressToWhiteList",
      "outputs": [],
      "stateMutability": "nonpayable",
      "type": "function"
    },
    {
      "inputs": [
        {
          "internalType": "address",
          "name": "_address",
          "type": "address"
        }
      ],
      "name": "addAddressToBlackList",
      "outputs": [],
      "stateMutability": "nonpayable",
      "type": "function"
    },
    {
      "inputs": [
        {
          "internalType": "string",
          "name": "_quest",
          "type": "string"
        }
      ],
      "name": "addApprovedQuest",
      "outputs": [],
      "stateMutability": "nonpayable",
      "type": "function"
    },
    {
      "inputs": [],
      "name": "getQuests",
      "outputs": [
        {
          "internalType": "string[]",
          "name": "",
          "type": "string[]"
        }
      ],
      "stateMutability": "view",
      "type": "function",
      "constant": true
    }
  ],
  "bytecode": "0x60806040523480156200001157600080fd5b5060405162001ab838038062001ab8833981810160405281019062000037919062000256565b336000806101000a81548173ffffffffffffffffffffffffffffffffffffffff021916908373ffffffffffffffffffffffffffffffffffffffff16021790555060008054906101000a900473ffffffffffffffffffffffffffffffffffffffff1673ffffffffffffffffffffffffffffffffffffffff16600073ffffffffffffffffffffffffffffffffffffffff167f342827c97908e5e2f71151c08502a66d44b6f758e3ac2f1de95f02eb95f0a73560405160405180910390a360005b8151811015620001895760018060008484815181106200011a5762000119620003f0565b5b602002602001015173ffffffffffffffffffffffffffffffffffffffff1673ffffffffffffffffffffffffffffffffffffffff16815260200190815260200160002060006101000a81548160ff0219169083151502179055508080620001809062000373565b915050620000f5565b50506200048d565b6000620001a8620001a284620002d0565b620002a7565b90508083825260208201905082856020860282011115620001ce57620001cd62000453565b5b60005b85811015620002025781620001e788826200020c565b845260208401935060208301925050600181019050620001d1565b5050509392505050565b6000815190506200021d8162000473565b92915050565b600082601f8301126200023b576200023a6200044e565b5b81516200024d84826020860162000191565b91505092915050565b6000602082840312156200026f576200026e6200045d565b5b600082015167ffffffffffffffff81111562000290576200028f62000458565b5b6200029e8482850162000223565b91505092915050565b6000620002b3620002c6565b9050620002c182826200033d565b919050565b6000604051905090565b600067ffffffffffffffff821115620002ee57620002ed6200041f565b5b602082029050602081019050919050565b60006200030c8262000313565b9050919050565b600073ffffffffffffffffffffffffffffffffffffffff82169050919050565b6000819050919050565b620003488262000462565b810181811067ffffffffffffffff821117156200036a57620003696200041f565b5b80604052505050565b6000620003808262000333565b91507fffffffffffffffffffffffffffffffffffffffffffffffffffffffffffffffff821415620003b657620003b5620003c1565b5b600182019050919050565b7f4e487b7100000000000000000000000000000000000000000000000000000000600052601160045260246000fd5b7f4e487b7100000000000000000000000000000000000000000000000000000000600052603260045260246000fd5b7f4e487b7100000000000000000000000000000000000000000000000000000000600052604160045260246000fd5b600080fd5b600080fd5b600080fd5b600080fd5b6000601f19601f8301169050919050565b6200047e81620002ff565b81146200048a57600080fd5b50565b61161b806200049d6000396000f3fe608060405234801561001057600080fd5b50600436106100b45760003560e01c80639244f496116100715780639244f496146101b5578063a6f9dae1146101d1578063a852a581146101ed578063b5d354c41461021d578063cc36e52e14610239578063d86033ab14610255576100b4565b80632ebff969146100b9578063372c12b1146100e9578063429b62e5146101195780637adcad8b14610149578063893d20e8146101675780638e5208e514610185575b600080fd5b6100d360048036038101906100ce9190610de8565b610271565b6040516100e0919061111e565b60405180910390f35b61010360048036038101906100fe9190610de8565b610291565b604051610110919061111e565b60405180910390f35b610133600480360381019061012e9190610de8565b6102b1565b604051610140919061111e565b60405180910390f35b6101516102d1565b60405161015e91906110fc565b60405180910390f35b61016f6103aa565b60405161017c91906110e1565b60405180910390f35b61019f600480360381019061019a9190610e5e565b6103d3565b6040516101ac9190611139565b60405180910390f35b6101cf60048036038101906101ca9190610de8565b61047f565b005b6101eb60048036038101906101e69190610de8565b6105f4565b005b61020760048036038101906102029190610e15565b61073f565b604051610214919061111e565b60405180910390f35b61023760048036038101906102329190610de8565b610775565b005b610253600480360381019061024e9190610e15565b610941565b005b61026f600480360381019061026a9190610de8565b610af1565b005b60026020528060005260406000206000915054906101000a900460ff1681565b60036020528060005260406000206000915054906101000a900460ff1681565b60016020528060005260406000206000915054906101000a900460ff1681565b60606006805480602002602001604051908101604052809291908181526020016000905b828210156103a15783829060005260206000200180546103149061138c565b80601f01602080910402602001604051908101604052809291908181526020018280546103409061138c565b801561038d5780601f106103625761010080835404028352916020019161038d565b820191906000526020600020905b81548152906001019060200180831161037057829003601f168201915b5050505050815260200190600101906102f5565b50505050905090565b60008060009054906101000a900473ffffffffffffffffffffffffffffffffffffffff16905090565b600681815481106103e357600080fd5b9060005260206000200160009150905080546103fe9061138c565b80601f016020809104026020016040519081016040528092919081815260200182805461042a9061138c565b80156104775780601f1061044c57610100808354040283529160200191610477565b820191906000526020600020905b81548152906001019060200180831161045a57829003601f168201915b505050505081565b600460008273ffffffffffffffffffffffffffffffffffffffff1673ffffffffffffffffffffffffffffffffffffffff16815260200190815260200160002060009054906101000a900460ff161561050c576040517f08c379a00000000000000000000000000000000000000000000000000000000081526004016105039061115b565b60405180910390fd5b600360008273ffffffffffffffffffffffffffffffffffffffff1673ffffffffffffffffffffffffffffffffffffffff16815260200190815260200160002060009054906101000a900460ff1615610599576040517f08c379a0000000000000000000000000000000000000000000000000000000008152600401610590906111fb565b60405180910390fd5b6001600360008373ffffffffffffffffffffffffffffffffffffffff1673ffffffffffffffffffffffffffffffffffffffff16815260200190815260200160002060006101000a81548160ff02191690831515021790555050565b60008054906101000a900473ffffffffffffffffffffffffffffffffffffffff1673ffffffffffffffffffffffffffffffffffffffff163373ffffffffffffffffffffffffffffffffffffffff1614610682576040517f08c379a00000000000000000000000000000000000000000000000000000000081526004016106799061119b565b60405180910390fd5b8073ffffffffffffffffffffffffffffffffffffffff1660008054906101000a900473ffffffffffffffffffffffffffffffffffffffff1673ffffffffffffffffffffffffffffffffffffffff167f342827c97908e5e2f71151c08502a66d44b6f758e3ac2f1de95f02eb95f0a73560405160405180910390a3806000806101000a81548173ffffffffffffffffffffffffffffffffffffffff021916908373ffffffffffffffffffffffffffffffffffffffff16021790555050565b6005818051602081018201805184825260208301602085012081835280955050505050506000915054906101000a900460ff1681565b600160003373ffffffffffffffffffffffffffffffffffffffff1673ffffffffffffffffffffffffffffffffffffffff16815260200190815260200160002060009054906101000a900460ff16610801576040517f08c379a00000000000000000000000000000000000000000000000000000000081526004016107f8906111db565b60405180910390fd5b600460008273ffffffffffffffffffffffffffffffffffffffff1673ffffffffffffffffffffffffffffffffffffffff16815260200190815260200160002060009054906101000a900460ff161561088e576040517f08c379a00000000000000000000000000000000000000000000000000000000081526004016108859061117b565b60405180910390fd5b6001600460008373ffffffffffffffffffffffffffffffffffffffff1673ffffffffffffffffffffffffffffffffffffffff16815260200190815260200160002060006101000a81548160ff0219169083151502179055506000600360008373ffffffffffffffffffffffffffffffffffffffff1673ffffffffffffffffffffffffffffffffffffffff16815260200190815260200160002060006101000a81548160ff02191690831515021790555050565b600160003373ffffffffffffffffffffffffffffffffffffffff1673ffffffffffffffffffffffffffffffffffffffff16815260200190815260200160002060009054906101000a900460ff166109cd576040517f08c379a00000000000000000000000000000000000000000000000000000000081526004016109c4906111db565b60405180910390fd5b6005816040516109dd91906110ca565b908152602001604051809103902060009054906101000a900460ff1615610a39576040517f08c379a0000000000000000000000000000000000000000000000000000000008152600401610a309061121b565b60405180910390fd5b6001600582604051610a4b91906110ca565b908152602001604051809103902060006101000a81548160ff021916908315150217905550600681908060018154018082558091505060019003906000526020600020016000909190919091509080519060200190610aab929190610cab565b5080604051610aba91906110ca565b60405180910390207f8d6e2410408d0d15d6e2d1f4f0f396a3ea85b7dfc6f82a888689357f5d98cef060405160405180910390a250565b60008054906101000a900473ffffffffffffffffffffffffffffffffffffffff1673ffffffffffffffffffffffffffffffffffffffff163373ffffffffffffffffffffffffffffffffffffffff1614610b7f576040517f08c379a0000000000000000000000000000000000000000000000000000000008152600401610b769061119b565b60405180910390fd5b600260008273ffffffffffffffffffffffffffffffffffffffff1673ffffffffffffffffffffffffffffffffffffffff16815260200190815260200160002060009054906101000a900460ff1615610c0c576040517f08c379a0000000000000000000000000000000000000000000000000000000008152600401610c03906111bb565b60405180910390fd5b6001600260008373ffffffffffffffffffffffffffffffffffffffff1673ffffffffffffffffffffffffffffffffffffffff16815260200190815260200160002060006101000a81548160ff021916908315150217905550428173ffffffffffffffffffffffffffffffffffffffff167f20f41639be800e135f5ae75d4de30b4d124695ecfa9a1dc0a6fda04d0ff9bfa760405160405180910390a350565b828054610cb79061138c565b90600052602060002090601f016020900481019282610cd95760008555610d20565b82601f10610cf257805160ff1916838001178555610d20565b82800160010185558215610d20579182015b82811115610d1f578251825591602001919060010190610d04565b5b509050610d2d9190610d31565b5090565b5b80821115610d4a576000816000905550600101610d32565b5090565b6000610d61610d5c84611260565b61123b565b905082815260208101848484011115610d7d57610d7c611452565b5b610d8884828561134a565b509392505050565b600081359050610d9f816115b7565b92915050565b600082601f830112610dba57610db961144d565b5b8135610dca848260208601610d4e565b91505092915050565b600081359050610de2816115ce565b92915050565b600060208284031215610dfe57610dfd61145c565b5b6000610e0c84828501610d90565b91505092915050565b600060208284031215610e2b57610e2a61145c565b5b600082013567ffffffffffffffff811115610e4957610e48611457565b5b610e5584828501610da5565b91505092915050565b600060208284031215610e7457610e7361145c565b5b6000610e8284828501610dd3565b91505092915050565b6000610e978383610f32565b905092915050565b610ea881611302565b82525050565b6000610eb9826112a1565b610ec381856112c4565b935083602082028501610ed585611291565b8060005b85811015610f115784840389528151610ef28582610e8b565b9450610efd836112b7565b925060208a01995050600181019050610ed9565b50829750879550505050505092915050565b610f2c81611314565b82525050565b6000610f3d826112ac565b610f4781856112d5565b9350610f57818560208601611359565b610f6081611461565b840191505092915050565b6000610f76826112ac565b610f8081856112e6565b9350610f90818560208601611359565b610f9981611461565b840191505092915050565b6000610faf826112ac565b610fb981856112f7565b9350610fc9818560208601611359565b80840191505092915050565b6000610fe2601d836112e6565b9150610fed82611472565b602082019050919050565b6000611005601c836112e6565b91506110108261149b565b602082019050919050565b60006110286013836112e6565b9150611033826114c4565b602082019050919050565b600061104b6013836112e6565b9150611056826114ed565b602082019050919050565b600061106e601c836112e6565b915061107982611516565b602082019050919050565b60006110916027836112e6565b915061109c8261153f565b604082019050919050565b60006110b46016836112e6565b91506110bf8261158e565b602082019050919050565b60006110d68284610fa4565b915081905092915050565b60006020820190506110f66000830184610e9f565b92915050565b600060208201905081810360008301526111168184610eae565b905092915050565b60006020820190506111336000830184610f23565b92915050565b600060208201905081810360008301526111538184610f6b565b905092915050565b6000602082019050818103600083015261117481610fd5565b9050919050565b6000602082019050818103600083015261119481610ff8565b9050919050565b600060208201905081810360008301526111b48161101b565b9050919050565b600060208201905081810360008301526111d48161103e565b9050919050565b600060208201905081810360008301526111f481611061565b9050919050565b6000602082019050818103600083015261121481611084565b9050919050565b60006020820190508181036000830152611234816110a7565b9050919050565b6000611245611256565b905061125182826113be565b919050565b6000604051905090565b600067ffffffffffffffff82111561127b5761127a61141e565b5b61128482611461565b9050602081019050919050565b6000819050602082019050919050565b600081519050919050565b600081519050919050565b6000602082019050919050565b600082825260208201905092915050565b600082825260208201905092915050565b600082825260208201905092915050565b600081905092915050565b600061130d82611320565b9050919050565b60008115159050919050565b600073ffffffffffffffffffffffffffffffffffffffff82169050919050565b6000819050919050565b82818337600083830152505050565b60005b8381101561137757808201518184015260208101905061135c565b83811115611386576000848401525b50505050565b600060028204905060018216806113a457607f821691505b602082108114156113b8576113b76113ef565b5b50919050565b6113c782611461565b810181811067ffffffffffffffff821117156113e6576113e561141e565b5b80604052505050565b7f4e487b7100000000000000000000000000000000000000000000000000000000600052602260045260246000fd5b7f4e487b7100000000000000000000000000000000000000000000000000000000600052604160045260246000fd5b600080fd5b600080fd5b600080fd5b600080fd5b6000601f19601f8301169050919050565b7f74686973206164647265737320686173206265656e2062616e6e656421000000600082015250565b7f74686973206164647265737320616c72656164792062616e6e65642100000000600082015250565b7f43616c6c6572206973206e6f74206f776e657200000000000000000000000000600082015250565b7f616c72656164792061206368696c64204e465400000000000000000000000000600082015250565b7f6f6e6c792061646d696e2063616e2063616c6c2066756e6374696f6e00000000600082015250565b7f74686973206164647265737320616c7265616479206f6e20746865207768697460008201527f65206c6973742100000000000000000000000000000000000000000000000000602082015250565b7f717565737420616c726561647920617070726f76656400000000000000000000600082015250565b6115c081611302565b81146115cb57600080fd5b50565b6115d781611340565b81146115e257600080fd5b5056fea2646970667358221220dbcdf70e0cb1a924021e74ab1d0022c7d189af7cb9a557c2de45b1e7ba71d43c64736f6c63430008060033",
  "immutableReferences": {},
  "source": "pragma solidity >=0.5.0 <0.9.0;\n\n/**\n * @title NFTStore\n * @dev Store NFTs and other information for ease of access to a front-end and querying\n\n*/\n\nimport './Ownable.sol';\n\n\ncontract NFTStore is Ownable{\n        mapping (address => bool) public admins;\n        mapping (address => bool) public childNFTs;\n        mapping (address => bool) public whiteList;\n        mapping (address => bool) private blackList;\n        mapping (string => bool) public approvedQuests;\n        string[] public allQuests;\n\n        event NFTAdded(address indexed added, uint indexed timeAdded);\n        event QuestApproved(string indexed questName);\n\n        constructor(address[] memory _admins) public{\n            for (uint i = 0; i<_admins.length; i++){\n                admins[_admins[i]] = true;\n            }\n        }\n\n        modifier onlyNFTContract(){\n            require(childNFTs[msg.sender], \"only child NFT contracts can call function\");\n            _;\n        }\n\n        modifier onlyAdmins(){\n            require(admins[msg.sender], \"only admin can call function\");\n            _;\n        }\n\n        function addChildNFT(address _childNFT) public isOwner{\n            require(!childNFTs[_childNFT], \"already a child NFT\");\n            childNFTs[_childNFT]= true;\n            emit NFTAdded(_childNFT, block.timestamp);\n        }\n\n        function addAddressToWhiteList(address _address) public {\n            require (!blackList[_address], \"this address has been banned!\");\n            require (!whiteList[_address], \"this address already on the white list!\");\n            whiteList[_address] = true;\n            //possibly emit event\n        }\n\n        function addAddressToBlackList(address _address) public onlyAdmins{\n            require (!blackList[_address], \"this address already banned!\");\n            blackList[_address] = true;\n            whiteList[_address] = false;\n            //possibly emit event\n        }\n\n        function addApprovedQuest(string memory _quest) public onlyAdmins{\n            require(!approvedQuests[_quest], \"quest already approved\");\n            approvedQuests[_quest] = true;\n            allQuests.push(_quest);\n            emit QuestApproved(_quest);\n        }\n        \n        function getQuests() public view returns(string[] memory){\n            return allQuests;\n        }\n        \n}",
  "sourcePath": "/home/jpick713/BlockChain_Apps/nftIPFS/contracts/NFTStore.sol",
  "compiler": {
    "name": "solc",
    "version": "0.8.6+commit.11564f7e.Emscripten.clang"
  },
  "schemaVersion": "3.4.2",
  "updatedAt": "2021-08-13T18:15:08.577Z",
  "networkType": "ethereum",
  "devdoc": {
    "kind": "dev",
    "methods": {
      "changeOwner(address)": {
        "details": "Change owner",
        "params": {
          "newOwner": "address of new owner"
        }
      },
      "getOwner()": {
        "details": "Return owner address ",
        "returns": {
          "_0": "address of owner"
        }
      }
    },
    "version": 1
  },
  "userdoc": {
    "kind": "user",
    "methods": {},
    "version": 1
  }
}