{
  "contractName": "NFTStore",
  "abi": [
    {
      "inputs": [
        {
          "internalType": "address[]",
          "name": "_admins",
          "type": "address[]"
        }
      ],
      "stateMutability": "nonpayable",
      "type": "constructor"
    },
    {
      "anonymous": false,
      "inputs": [
        {
          "indexed": true,
          "internalType": "address",
          "name": "added",
          "type": "address"
        },
        {
          "indexed": true,
          "internalType": "uint256",
          "name": "timeAdded",
          "type": "uint256"
        }
      ],
      "name": "NFTAdded",
      "type": "event"
    },
    {
      "anonymous": false,
      "inputs": [
        {
          "indexed": true,
          "internalType": "address",
          "name": "oldOwner",
          "type": "address"
        },
        {
          "indexed": true,
          "internalType": "address",
          "name": "newOwner",
          "type": "address"
        }
      ],
      "name": "OwnerSet",
      "type": "event"
    },
    {
      "anonymous": false,
      "inputs": [
        {
          "indexed": true,
          "internalType": "string",
          "name": "questName",
          "type": "string"
        }
      ],
      "name": "QuestApproved",
      "type": "event"
    },
    {
      "inputs": [
        {
          "internalType": "address",
          "name": "",
          "type": "address"
        }
      ],
      "name": "admins",
      "outputs": [
        {
          "internalType": "bool",
          "name": "",
          "type": "bool"
        }
      ],
      "stateMutability": "view",
      "type": "function",
      "constant": true
    },
    {
      "inputs": [
        {
          "internalType": "uint256",
          "name": "",
          "type": "uint256"
        }
      ],
      "name": "allQuests",
      "outputs": [
        {
          "internalType": "string",
          "name": "",
          "type": "string"
        }
      ],
      "stateMutability": "view",
      "type": "function",
      "constant": true
    },
    {
      "inputs": [
        {
          "internalType": "string",
          "name": "",
          "type": "string"
        }
      ],
      "name": "approvedQuests",
      "outputs": [
        {
          "internalType": "bool",
          "name": "",
          "type": "bool"
        }
      ],
      "stateMutability": "view",
      "type": "function",
      "constant": true
    },
    {
      "inputs": [
        {
          "internalType": "address",
          "name": "newOwner",
          "type": "address"
        }
      ],
      "name": "changeOwner",
      "outputs": [],
      "stateMutability": "nonpayable",
      "type": "function"
    },
    {
      "inputs": [
        {
          "internalType": "address",
          "name": "",
          "type": "address"
        }
      ],
      "name": "childNFTs",
      "outputs": [
        {
          "internalType": "bool",
          "name": "",
          "type": "bool"
        }
      ],
      "stateMutability": "view",
      "type": "function",
      "constant": true
    },
    {
      "inputs": [],
      "name": "getOwner",
      "outputs": [
        {
          "internalType": "address",
          "name": "",
          "type": "address"
        }
      ],
      "stateMutability": "view",
      "type": "function",
      "constant": true
    },
    {
      "inputs": [
        {
          "internalType": "address",
          "name": "",
          "type": "address"
        }
      ],
      "name": "whiteList",
      "outputs": [
        {
          "internalType": "bool",
          "name": "",
          "type": "bool"
        }
      ],
      "stateMutability": "view",
      "type": "function",
      "constant": true
    },
    {
      "inputs": [
        {
          "internalType": "address",
          "name": "_childNFT",
          "type": "address"
        }
      ],
      "name": "addChildNFT",
      "outputs": [],
      "stateMutability": "nonpayable",
      "type": "function"
    },
    {
      "inputs": [
        {
          "internalType": "address",
          "name": "_address",
          "type": "address"
        }
      ],
      "name": "addAddressToWhiteList",
      "outputs": [],
      "stateMutability": "nonpayable",
      "type": "function"
    },
    {
      "inputs": [
        {
          "internalType": "address",
          "name": "_address",
          "type": "address"
        }
      ],
      "name": "addAddressToBlackList",
      "outputs": [],
      "stateMutability": "nonpayable",
      "type": "function"
    },
    {
      "inputs": [
        {
          "internalType": "string",
          "name": "_quest",
          "type": "string"
        }
      ],
      "name": "addApprovedQuest",
      "outputs": [],
      "stateMutability": "nonpayable",
      "type": "function"
    }
  ],
  "bytecode": "0x60806040523480156200001157600080fd5b506040516200188838038062001888833981810160405281019062000037919062000256565b336000806101000a81548173ffffffffffffffffffffffffffffffffffffffff021916908373ffffffffffffffffffffffffffffffffffffffff16021790555060008054906101000a900473ffffffffffffffffffffffffffffffffffffffff1673ffffffffffffffffffffffffffffffffffffffff16600073ffffffffffffffffffffffffffffffffffffffff167f342827c97908e5e2f71151c08502a66d44b6f758e3ac2f1de95f02eb95f0a73560405160405180910390a360005b8151811015620001895760018060008484815181106200011a5762000119620003f0565b5b602002602001015173ffffffffffffffffffffffffffffffffffffffff1673ffffffffffffffffffffffffffffffffffffffff16815260200190815260200160002060006101000a81548160ff0219169083151502179055508080620001809062000373565b915050620000f5565b50506200048d565b6000620001a8620001a284620002d0565b620002a7565b90508083825260208201905082856020860282011115620001ce57620001cd62000453565b5b60005b85811015620002025781620001e788826200020c565b845260208401935060208301925050600181019050620001d1565b5050509392505050565b6000815190506200021d8162000473565b92915050565b600082601f8301126200023b576200023a6200044e565b5b81516200024d84826020860162000191565b91505092915050565b6000602082840312156200026f576200026e6200045d565b5b600082015167ffffffffffffffff81111562000290576200028f62000458565b5b6200029e8482850162000223565b91505092915050565b6000620002b3620002c6565b9050620002c182826200033d565b919050565b6000604051905090565b600067ffffffffffffffff821115620002ee57620002ed6200041f565b5b602082029050602081019050919050565b60006200030c8262000313565b9050919050565b600073ffffffffffffffffffffffffffffffffffffffff82169050919050565b6000819050919050565b620003488262000462565b810181811067ffffffffffffffff821117156200036a57620003696200041f565b5b80604052505050565b6000620003808262000333565b91507fffffffffffffffffffffffffffffffffffffffffffffffffffffffffffffffff821415620003b657620003b5620003c1565b5b600182019050919050565b7f4e487b7100000000000000000000000000000000000000000000000000000000600052601160045260246000fd5b7f4e487b7100000000000000000000000000000000000000000000000000000000600052603260045260246000fd5b7f4e487b7100000000000000000000000000000000000000000000000000000000600052604160045260246000fd5b600080fd5b600080fd5b600080fd5b600080fd5b6000601f19601f8301169050919050565b6200047e81620002ff565b81146200048a57600080fd5b50565b6113eb806200049d6000396000f3fe608060405234801561001057600080fd5b50600436106100a95760003560e01c80639244f496116100715780639244f4961461018c578063a6f9dae1146101a8578063a852a581146101c4578063b5d354c4146101f4578063cc36e52e14610210578063d86033ab1461022c576100a9565b80632ebff969146100ae578063372c12b1146100de578063429b62e51461010e578063893d20e81461013e5780638e5208e51461015c575b600080fd5b6100c860048036038101906100c39190610ce6565b610248565b6040516100d59190610f38565b60405180910390f35b6100f860048036038101906100f39190610ce6565b610268565b6040516101059190610f38565b60405180910390f35b61012860048036038101906101239190610ce6565b610288565b6040516101359190610f38565b60405180910390f35b6101466102a8565b6040516101539190610f1d565b60405180910390f35b61017660048036038101906101719190610d5c565b6102d1565b6040516101839190610f53565b60405180910390f35b6101a660048036038101906101a19190610ce6565b61037d565b005b6101c260048036038101906101bd9190610ce6565b6104f2565b005b6101de60048036038101906101d99190610d13565b61063d565b6040516101eb9190610f38565b60405180910390f35b61020e60048036038101906102099190610ce6565b610673565b005b61022a60048036038101906102259190610d13565b61083f565b005b61024660048036038101906102419190610ce6565b6109ef565b005b60026020528060005260406000206000915054906101000a900460ff1681565b60036020528060005260406000206000915054906101000a900460ff1681565b60016020528060005260406000206000915054906101000a900460ff1681565b60008060009054906101000a900473ffffffffffffffffffffffffffffffffffffffff16905090565b600681815481106102e157600080fd5b9060005260206000200160009150905080546102fc9061115c565b80601f01602080910402602001604051908101604052809291908181526020018280546103289061115c565b80156103755780601f1061034a57610100808354040283529160200191610375565b820191906000526020600020905b81548152906001019060200180831161035857829003601f168201915b505050505081565b600460008273ffffffffffffffffffffffffffffffffffffffff1673ffffffffffffffffffffffffffffffffffffffff16815260200190815260200160002060009054906101000a900460ff161561040a576040517f08c379a000000000000000000000000000000000000000000000000000000000815260040161040190610f75565b60405180910390fd5b600360008273ffffffffffffffffffffffffffffffffffffffff1673ffffffffffffffffffffffffffffffffffffffff16815260200190815260200160002060009054906101000a900460ff1615610497576040517f08c379a000000000000000000000000000000000000000000000000000000000815260040161048e90611015565b60405180910390fd5b6001600360008373ffffffffffffffffffffffffffffffffffffffff1673ffffffffffffffffffffffffffffffffffffffff16815260200190815260200160002060006101000a81548160ff02191690831515021790555050565b60008054906101000a900473ffffffffffffffffffffffffffffffffffffffff1673ffffffffffffffffffffffffffffffffffffffff163373ffffffffffffffffffffffffffffffffffffffff1614610580576040517f08c379a000000000000000000000000000000000000000000000000000000000815260040161057790610fb5565b60405180910390fd5b8073ffffffffffffffffffffffffffffffffffffffff1660008054906101000a900473ffffffffffffffffffffffffffffffffffffffff1673ffffffffffffffffffffffffffffffffffffffff167f342827c97908e5e2f71151c08502a66d44b6f758e3ac2f1de95f02eb95f0a73560405160405180910390a3806000806101000a81548173ffffffffffffffffffffffffffffffffffffffff021916908373ffffffffffffffffffffffffffffffffffffffff16021790555050565b6005818051602081018201805184825260208301602085012081835280955050505050506000915054906101000a900460ff1681565b600160003373ffffffffffffffffffffffffffffffffffffffff1673ffffffffffffffffffffffffffffffffffffffff16815260200190815260200160002060009054906101000a900460ff166106ff576040517f08c379a00000000000000000000000000000000000000000000000000000000081526004016106f690610ff5565b60405180910390fd5b600460008273ffffffffffffffffffffffffffffffffffffffff1673ffffffffffffffffffffffffffffffffffffffff16815260200190815260200160002060009054906101000a900460ff161561078c576040517f08c379a000000000000000000000000000000000000000000000000000000000815260040161078390610f95565b60405180910390fd5b6001600460008373ffffffffffffffffffffffffffffffffffffffff1673ffffffffffffffffffffffffffffffffffffffff16815260200190815260200160002060006101000a81548160ff0219169083151502179055506000600360008373ffffffffffffffffffffffffffffffffffffffff1673ffffffffffffffffffffffffffffffffffffffff16815260200190815260200160002060006101000a81548160ff02191690831515021790555050565b600160003373ffffffffffffffffffffffffffffffffffffffff1673ffffffffffffffffffffffffffffffffffffffff16815260200190815260200160002060009054906101000a900460ff166108cb576040517f08c379a00000000000000000000000000000000000000000000000000000000081526004016108c290610ff5565b60405180910390fd5b6005816040516108db9190610f06565b908152602001604051809103902060009054906101000a900460ff1615610937576040517f08c379a000000000000000000000000000000000000000000000000000000000815260040161092e90611035565b60405180910390fd5b60016005826040516109499190610f06565b908152602001604051809103902060006101000a81548160ff0219169083151502179055506006819080600181540180825580915050600190039060005260206000200160009091909190915090805190602001906109a9929190610ba9565b50806040516109b89190610f06565b60405180910390207f8d6e2410408d0d15d6e2d1f4f0f396a3ea85b7dfc6f82a888689357f5d98cef060405160405180910390a250565b60008054906101000a900473ffffffffffffffffffffffffffffffffffffffff1673ffffffffffffffffffffffffffffffffffffffff163373ffffffffffffffffffffffffffffffffffffffff1614610a7d576040517f08c379a0000000000000000000000000000000000000000000000000000000008152600401610a7490610fb5565b60405180910390fd5b600260008273ffffffffffffffffffffffffffffffffffffffff1673ffffffffffffffffffffffffffffffffffffffff16815260200190815260200160002060009054906101000a900460ff1615610b0a576040517f08c379a0000000000000000000000000000000000000000000000000000000008152600401610b0190610fd5565b60405180910390fd5b6001600260008373ffffffffffffffffffffffffffffffffffffffff1673ffffffffffffffffffffffffffffffffffffffff16815260200190815260200160002060006101000a81548160ff021916908315150217905550428173ffffffffffffffffffffffffffffffffffffffff167f20f41639be800e135f5ae75d4de30b4d124695ecfa9a1dc0a6fda04d0ff9bfa760405160405180910390a350565b828054610bb59061115c565b90600052602060002090601f016020900481019282610bd75760008555610c1e565b82601f10610bf057805160ff1916838001178555610c1e565b82800160010185558215610c1e579182015b82811115610c1d578251825591602001919060010190610c02565b5b509050610c2b9190610c2f565b5090565b5b80821115610c48576000816000905550600101610c30565b5090565b6000610c5f610c5a8461107a565b611055565b905082815260208101848484011115610c7b57610c7a611222565b5b610c8684828561111a565b509392505050565b600081359050610c9d81611387565b92915050565b600082601f830112610cb857610cb761121d565b5b8135610cc8848260208601610c4c565b91505092915050565b600081359050610ce08161139e565b92915050565b600060208284031215610cfc57610cfb61122c565b5b6000610d0a84828501610c8e565b91505092915050565b600060208284031215610d2957610d2861122c565b5b600082013567ffffffffffffffff811115610d4757610d46611227565b5b610d5384828501610ca3565b91505092915050565b600060208284031215610d7257610d7161122c565b5b6000610d8084828501610cd1565b91505092915050565b610d92816110d2565b82525050565b610da1816110e4565b82525050565b6000610db2826110ab565b610dbc81856110b6565b9350610dcc818560208601611129565b610dd581611231565b840191505092915050565b6000610deb826110ab565b610df581856110c7565b9350610e05818560208601611129565b80840191505092915050565b6000610e1e601d836110b6565b9150610e2982611242565b602082019050919050565b6000610e41601c836110b6565b9150610e4c8261126b565b602082019050919050565b6000610e646013836110b6565b9150610e6f82611294565b602082019050919050565b6000610e876013836110b6565b9150610e92826112bd565b602082019050919050565b6000610eaa601c836110b6565b9150610eb5826112e6565b602082019050919050565b6000610ecd6027836110b6565b9150610ed88261130f565b604082019050919050565b6000610ef06016836110b6565b9150610efb8261135e565b602082019050919050565b6000610f128284610de0565b915081905092915050565b6000602082019050610f326000830184610d89565b92915050565b6000602082019050610f4d6000830184610d98565b92915050565b60006020820190508181036000830152610f6d8184610da7565b905092915050565b60006020820190508181036000830152610f8e81610e11565b9050919050565b60006020820190508181036000830152610fae81610e34565b9050919050565b60006020820190508181036000830152610fce81610e57565b9050919050565b60006020820190508181036000830152610fee81610e7a565b9050919050565b6000602082019050818103600083015261100e81610e9d565b9050919050565b6000602082019050818103600083015261102e81610ec0565b9050919050565b6000602082019050818103600083015261104e81610ee3565b9050919050565b600061105f611070565b905061106b828261118e565b919050565b6000604051905090565b600067ffffffffffffffff821115611095576110946111ee565b5b61109e82611231565b9050602081019050919050565b600081519050919050565b600082825260208201905092915050565b600081905092915050565b60006110dd826110f0565b9050919050565b60008115159050919050565b600073ffffffffffffffffffffffffffffffffffffffff82169050919050565b6000819050919050565b82818337600083830152505050565b60005b8381101561114757808201518184015260208101905061112c565b83811115611156576000848401525b50505050565b6000600282049050600182168061117457607f821691505b60208210811415611188576111876111bf565b5b50919050565b61119782611231565b810181811067ffffffffffffffff821117156111b6576111b56111ee565b5b80604052505050565b7f4e487b7100000000000000000000000000000000000000000000000000000000600052602260045260246000fd5b7f4e487b7100000000000000000000000000000000000000000000000000000000600052604160045260246000fd5b600080fd5b600080fd5b600080fd5b600080fd5b6000601f19601f8301169050919050565b7f74686973206164647265737320686173206265656e2062616e6e656421000000600082015250565b7f74686973206164647265737320616c72656164792062616e6e65642100000000600082015250565b7f43616c6c6572206973206e6f74206f776e657200000000000000000000000000600082015250565b7f616c72656164792061206368696c64204e465400000000000000000000000000600082015250565b7f6f6e6c792061646d696e2063616e2063616c6c2066756e6374696f6e00000000600082015250565b7f74686973206164647265737320616c7265616479206f6e20746865207768697460008201527f65206c6973742100000000000000000000000000000000000000000000000000602082015250565b7f717565737420616c726561647920617070726f76656400000000000000000000600082015250565b611390816110d2565b811461139b57600080fd5b50565b6113a781611110565b81146113b257600080fd5b5056fea264697066735822122048f31b5c64501ac48f1c50dc45034a3fcd2bbc7be0388887279f28a129f6230564736f6c63430008060033",
  "immutableReferences": {},
  "source": "pragma solidity >=0.5.0 <0.9.0;\n\n/**\n * @title NFTStore\n * @dev Store NFTs and other information for ease of access to a front-end and querying\n\n*/\n\nimport './Ownable.sol';\n\n\ncontract NFTStore is Ownable{\n        mapping (address => bool) public admins;\n        mapping (address => bool) public childNFTs;\n        mapping (address => bool) public whiteList;\n        mapping (address => bool) private blackList;\n        mapping (string => bool) public approvedQuests;\n        string[] public allQuests;\n\n        event NFTAdded(address indexed added, uint indexed timeAdded);\n        event QuestApproved(string indexed questName);\n\n        constructor(address[] memory _admins) public{\n            for (uint i = 0; i<_admins.length; i++){\n                admins[_admins[i]] = true;\n            }\n        }\n\n        modifier onlyNFTContract(){\n            require(childNFTs[msg.sender], \"only child NFT contracts can call function\");\n            _;\n        }\n\n        modifier onlyAdmins(){\n            require(admins[msg.sender], \"only admin can call function\");\n            _;\n        }\n\n        function addChildNFT(address _childNFT) public isOwner{\n            require(!childNFTs[_childNFT], \"already a child NFT\");\n            childNFTs[_childNFT]= true;\n            emit NFTAdded(_childNFT, block.timestamp);\n        }\n\n        function addAddressToWhiteList(address _address) public {\n            require (!blackList[_address], \"this address has been banned!\");\n            require (!whiteList[_address], \"this address already on the white list!\");\n            whiteList[_address] = true;\n            //possibly emit event\n        }\n\n        function addAddressToBlackList(address _address) public onlyAdmins{\n            require (!blackList[_address], \"this address already banned!\");\n            blackList[_address] = true;\n            whiteList[_address] = false;\n            //possibly emit event\n        }\n\n        function addApprovedQuest(string memory _quest) public onlyAdmins{\n            require(!approvedQuests[_quest], \"quest already approved\");\n            approvedQuests[_quest] = true;\n            allQuests.push(_quest);\n            emit QuestApproved(_quest);\n        }\n        \n        \n}",
  "sourcePath": "/home/jpick713/BlockChain_Apps/nftIPFS/contracts/NFTStore.sol",
  "compiler": {
    "name": "solc",
    "version": "0.8.6+commit.11564f7e.Emscripten.clang"
  },
  "schemaVersion": "3.4.2",
  "updatedAt": "2021-08-03T09:56:39.975Z",
  "networkType": "ethereum",
  "devdoc": {
    "kind": "dev",
    "methods": {
      "changeOwner(address)": {
        "details": "Change owner",
        "params": {
          "newOwner": "address of new owner"
        }
      },
      "getOwner()": {
        "details": "Return owner address ",
        "returns": {
          "_0": "address of owner"
        }
      }
    },
    "version": 1
  },
  "userdoc": {
    "kind": "user",
    "methods": {},
    "version": 1
  }
}