{
  "contractName": "NFTStore",
  "abi": [
    {
      "inputs": [
        {
          "internalType": "address[]",
          "name": "_admins",
          "type": "address[]"
        }
      ],
      "stateMutability": "nonpayable",
      "type": "constructor"
    },
    {
      "inputs": [
        {
          "internalType": "address",
          "name": "",
          "type": "address"
        }
      ],
      "name": "admins",
      "outputs": [
        {
          "internalType": "bool",
          "name": "",
          "type": "bool"
        }
      ],
      "stateMutability": "view",
      "type": "function",
      "constant": true
    }
  ],
  "bytecode": "0x608060405234801561001057600080fd5b506040516105203803806105208339818101604052810190610032919061017c565b60005b81518110156100c2576001600080848481518110610056576100556102fb565b5b602002602001015173ffffffffffffffffffffffffffffffffffffffff1673ffffffffffffffffffffffffffffffffffffffff16815260200190815260200160002060006101000a81548160ff02191690831515021790555080806100ba90610283565b915050610035565b5050610395565b60006100dc6100d7846101ea565b6101c5565b905080838252602082019050828560208602820111156100ff576100fe61035e565b5b60005b8581101561012f57816101158882610139565b845260208401935060208301925050600181019050610102565b5050509392505050565b6000815190506101488161037e565b92915050565b600082601f83011261016357610162610359565b5b81516101738482602086016100c9565b91505092915050565b60006020828403121561019257610191610368565b5b600082015167ffffffffffffffff8111156101b0576101af610363565b5b6101bc8482850161014e565b91505092915050565b60006101cf6101e0565b90506101db8282610252565b919050565b6000604051905090565b600067ffffffffffffffff8211156102055761020461032a565b5b602082029050602081019050919050565b600061022182610228565b9050919050565b600073ffffffffffffffffffffffffffffffffffffffff82169050919050565b6000819050919050565b61025b8261036d565b810181811067ffffffffffffffff8211171561027a5761027961032a565b5b80604052505050565b600061028e82610248565b91507fffffffffffffffffffffffffffffffffffffffffffffffffffffffffffffffff8214156102c1576102c06102cc565b5b600182019050919050565b7f4e487b7100000000000000000000000000000000000000000000000000000000600052601160045260246000fd5b7f4e487b7100000000000000000000000000000000000000000000000000000000600052603260045260246000fd5b7f4e487b7100000000000000000000000000000000000000000000000000000000600052604160045260246000fd5b600080fd5b600080fd5b600080fd5b600080fd5b6000601f19601f8301169050919050565b61038781610216565b811461039257600080fd5b50565b61017c806103a46000396000f3fe608060405234801561001057600080fd5b506004361061002b5760003560e01c8063429b62e514610030575b600080fd5b61004a60048036038101906100459190610095565b610060565b60405161005791906100d1565b60405180910390f35b60006020528060005260406000206000915054906101000a900460ff1681565b60008135905061008f8161012f565b92915050565b6000602082840312156100ab576100aa61012a565b5b60006100b984828501610080565b91505092915050565b6100cb816100fe565b82525050565b60006020820190506100e660008301846100c2565b92915050565b60006100f78261010a565b9050919050565b60008115159050919050565b600073ffffffffffffffffffffffffffffffffffffffff82169050919050565b600080fd5b610138816100ec565b811461014357600080fd5b5056fea26469706673582212205d1d87e74171d10e32ac98d4ac56401d3acb1ee3df261cc19b3135f5aac23ab764736f6c63430008060033",
  "immutableReferences": {},
  "source": "pragma solidity >=0.5.0 <0.9.0;\n\n/**\n * @title NFTStore\n * @dev Store NFTs and other information for ease of access to a front-end and querying\n\n*/\n\n\n\ncontract NFTStore {\n        mapping (address => bool) public admins;\n\n\n        constructor(address[] memory _admins) public{\n            for (uint i = 0; i<_admins.length; i++){\n                admins[_admins[i]] = true;\n            }\n        }\n}",
  "sourcePath": "/home/jpick713/BlockChain_Apps/nftIPFS/contracts/NFTStore.sol",
  "compiler": {
    "name": "solc",
    "version": "0.8.6+commit.11564f7e.Emscripten.clang"
  },
  "schemaVersion": "3.4.1",
  "updatedAt": "2021-07-31T02:53:25.210Z",
  "networkType": "ethereum",
  "devdoc": {
    "details": "Store NFTs and other information for ease of access to a front-end and querying",
    "kind": "dev",
    "methods": {},
    "title": "NFTStore",
    "version": 1
  },
  "userdoc": {
    "kind": "user",
    "methods": {},
    "version": 1
  }
}