{
  "contractName": "NFTStore",
  "abi": [
    {
      "inputs": [
        {
          "internalType": "address[]",
          "name": "_admins",
          "type": "address[]"
        }
      ],
      "stateMutability": "nonpayable",
      "type": "constructor"
    },
    {
      "anonymous": false,
      "inputs": [
        {
          "indexed": true,
          "internalType": "address",
          "name": "added",
          "type": "address"
        },
        {
          "indexed": true,
          "internalType": "uint256",
          "name": "timeAdded",
          "type": "uint256"
        }
      ],
      "name": "NFTAdded",
      "type": "event"
    },
    {
      "anonymous": false,
      "inputs": [
        {
          "indexed": true,
          "internalType": "address",
          "name": "oldOwner",
          "type": "address"
        },
        {
          "indexed": true,
          "internalType": "address",
          "name": "newOwner",
          "type": "address"
        }
      ],
      "name": "OwnerSet",
      "type": "event"
    },
    {
      "anonymous": false,
      "inputs": [
        {
          "indexed": true,
          "internalType": "string",
          "name": "questName",
          "type": "string"
        }
      ],
      "name": "QuestApproved",
      "type": "event"
    },
    {
      "inputs": [
        {
          "internalType": "address",
          "name": "",
          "type": "address"
        }
      ],
      "name": "admins",
      "outputs": [
        {
          "internalType": "bool",
          "name": "",
          "type": "bool"
        }
      ],
      "stateMutability": "view",
      "type": "function",
      "constant": true
    },
    {
      "inputs": [
        {
          "internalType": "string",
          "name": "",
          "type": "string"
        }
      ],
      "name": "approvedQuests",
      "outputs": [
        {
          "internalType": "bool",
          "name": "",
          "type": "bool"
        }
      ],
      "stateMutability": "view",
      "type": "function",
      "constant": true
    },
    {
      "inputs": [
        {
          "internalType": "address",
          "name": "newOwner",
          "type": "address"
        }
      ],
      "name": "changeOwner",
      "outputs": [],
      "stateMutability": "nonpayable",
      "type": "function"
    },
    {
      "inputs": [
        {
          "internalType": "address",
          "name": "",
          "type": "address"
        }
      ],
      "name": "childNFTs",
      "outputs": [
        {
          "internalType": "bool",
          "name": "",
          "type": "bool"
        }
      ],
      "stateMutability": "view",
      "type": "function",
      "constant": true
    },
    {
      "inputs": [],
      "name": "getOwner",
      "outputs": [
        {
          "internalType": "address",
          "name": "",
          "type": "address"
        }
      ],
      "stateMutability": "view",
      "type": "function",
      "constant": true
    },
    {
      "inputs": [
        {
          "internalType": "address",
          "name": "",
          "type": "address"
        }
      ],
      "name": "whiteList",
      "outputs": [
        {
          "internalType": "bool",
          "name": "",
          "type": "bool"
        }
      ],
      "stateMutability": "view",
      "type": "function",
      "constant": true
    },
    {
      "inputs": [
        {
          "internalType": "address",
          "name": "_childNFT",
          "type": "address"
        }
      ],
      "name": "addChildNFT",
      "outputs": [],
      "stateMutability": "nonpayable",
      "type": "function"
    },
    {
      "inputs": [
        {
          "internalType": "address",
          "name": "_address",
          "type": "address"
        }
      ],
      "name": "addAddressToWhiteList",
      "outputs": [],
      "stateMutability": "nonpayable",
      "type": "function"
    },
    {
      "inputs": [
        {
          "internalType": "address",
          "name": "_address",
          "type": "address"
        }
      ],
      "name": "addAddressToBlackList",
      "outputs": [],
      "stateMutability": "nonpayable",
      "type": "function"
    },
    {
      "inputs": [
        {
          "internalType": "string",
          "name": "_quest",
          "type": "string"
        }
      ],
      "name": "addApprovedQuest",
      "outputs": [],
      "stateMutability": "nonpayable",
      "type": "function"
    }
  ],
  "bytecode": "0x60806040523480156200001157600080fd5b50604051620015a3380380620015a3833981810160405281019062000037919062000256565b336000806101000a81548173ffffffffffffffffffffffffffffffffffffffff021916908373ffffffffffffffffffffffffffffffffffffffff16021790555060008054906101000a900473ffffffffffffffffffffffffffffffffffffffff1673ffffffffffffffffffffffffffffffffffffffff16600073ffffffffffffffffffffffffffffffffffffffff167f342827c97908e5e2f71151c08502a66d44b6f758e3ac2f1de95f02eb95f0a73560405160405180910390a360005b8151811015620001895760018060008484815181106200011a5762000119620003f0565b5b602002602001015173ffffffffffffffffffffffffffffffffffffffff1673ffffffffffffffffffffffffffffffffffffffff16815260200190815260200160002060006101000a81548160ff0219169083151502179055508080620001809062000373565b915050620000f5565b50506200048d565b6000620001a8620001a284620002d0565b620002a7565b90508083825260208201905082856020860282011115620001ce57620001cd62000453565b5b60005b85811015620002025781620001e788826200020c565b845260208401935060208301925050600181019050620001d1565b5050509392505050565b6000815190506200021d8162000473565b92915050565b600082601f8301126200023b576200023a6200044e565b5b81516200024d84826020860162000191565b91505092915050565b6000602082840312156200026f576200026e6200045d565b5b600082015167ffffffffffffffff81111562000290576200028f62000458565b5b6200029e8482850162000223565b91505092915050565b6000620002b3620002c6565b9050620002c182826200033d565b919050565b6000604051905090565b600067ffffffffffffffff821115620002ee57620002ed6200041f565b5b602082029050602081019050919050565b60006200030c8262000313565b9050919050565b600073ffffffffffffffffffffffffffffffffffffffff82169050919050565b6000819050919050565b620003488262000462565b810181811067ffffffffffffffff821117156200036a57620003696200041f565b5b80604052505050565b6000620003808262000333565b91507fffffffffffffffffffffffffffffffffffffffffffffffffffffffffffffffff821415620003b657620003b5620003c1565b5b600182019050919050565b7f4e487b7100000000000000000000000000000000000000000000000000000000600052601160045260246000fd5b7f4e487b7100000000000000000000000000000000000000000000000000000000600052603260045260246000fd5b7f4e487b7100000000000000000000000000000000000000000000000000000000600052604160045260246000fd5b600080fd5b600080fd5b600080fd5b600080fd5b6000601f19601f8301169050919050565b6200047e81620002ff565b81146200048a57600080fd5b50565b611106806200049d6000396000f3fe608060405234801561001057600080fd5b506004361061009e5760003560e01c8063a6f9dae111610066578063a6f9dae11461016d578063a852a58114610189578063b5d354c4146101b9578063cc36e52e146101d5578063d86033ab146101f15761009e565b80632ebff969146100a3578063372c12b1146100d3578063429b62e514610103578063893d20e8146101335780639244f49614610151575b600080fd5b6100bd60048036038101906100b89190610b0b565b61020d565b6040516100ca9190610cf7565b60405180910390f35b6100ed60048036038101906100e89190610b0b565b61022d565b6040516100fa9190610cf7565b60405180910390f35b61011d60048036038101906101189190610b0b565b61024d565b60405161012a9190610cf7565b60405180910390f35b61013b61026d565b6040516101489190610cdc565b60405180910390f35b61016b60048036038101906101669190610b0b565b610296565b005b61018760048036038101906101829190610b0b565b61040b565b005b6101a3600480360381019061019e9190610b38565b610556565b6040516101b09190610cf7565b60405180910390f35b6101d360048036038101906101ce9190610b0b565b61058c565b005b6101ef60048036038101906101ea9190610b38565b610758565b005b61020b60048036038101906102069190610b0b565b6108cc565b005b60026020528060005260406000206000915054906101000a900460ff1681565b60036020528060005260406000206000915054906101000a900460ff1681565b60016020528060005260406000206000915054906101000a900460ff1681565b60008060009054906101000a900473ffffffffffffffffffffffffffffffffffffffff16905090565b600460008273ffffffffffffffffffffffffffffffffffffffff1673ffffffffffffffffffffffffffffffffffffffff16815260200190815260200160002060009054906101000a900460ff1615610323576040517f08c379a000000000000000000000000000000000000000000000000000000000815260040161031a90610d12565b60405180910390fd5b600360008273ffffffffffffffffffffffffffffffffffffffff1673ffffffffffffffffffffffffffffffffffffffff16815260200190815260200160002060009054906101000a900460ff16156103b0576040517f08c379a00000000000000000000000000000000000000000000000000000000081526004016103a790610db2565b60405180910390fd5b6001600360008373ffffffffffffffffffffffffffffffffffffffff1673ffffffffffffffffffffffffffffffffffffffff16815260200190815260200160002060006101000a81548160ff02191690831515021790555050565b60008054906101000a900473ffffffffffffffffffffffffffffffffffffffff1673ffffffffffffffffffffffffffffffffffffffff163373ffffffffffffffffffffffffffffffffffffffff1614610499576040517f08c379a000000000000000000000000000000000000000000000000000000000815260040161049090610d52565b60405180910390fd5b8073ffffffffffffffffffffffffffffffffffffffff1660008054906101000a900473ffffffffffffffffffffffffffffffffffffffff1673ffffffffffffffffffffffffffffffffffffffff167f342827c97908e5e2f71151c08502a66d44b6f758e3ac2f1de95f02eb95f0a73560405160405180910390a3806000806101000a81548173ffffffffffffffffffffffffffffffffffffffff021916908373ffffffffffffffffffffffffffffffffffffffff16021790555050565b6005818051602081018201805184825260208301602085012081835280955050505050506000915054906101000a900460ff1681565b600160003373ffffffffffffffffffffffffffffffffffffffff1673ffffffffffffffffffffffffffffffffffffffff16815260200190815260200160002060009054906101000a900460ff16610618576040517f08c379a000000000000000000000000000000000000000000000000000000000815260040161060f90610d92565b60405180910390fd5b600460008273ffffffffffffffffffffffffffffffffffffffff1673ffffffffffffffffffffffffffffffffffffffff16815260200190815260200160002060009054906101000a900460ff16156106a5576040517f08c379a000000000000000000000000000000000000000000000000000000000815260040161069c90610d32565b60405180910390fd5b6001600460008373ffffffffffffffffffffffffffffffffffffffff1673ffffffffffffffffffffffffffffffffffffffff16815260200190815260200160002060006101000a81548160ff0219169083151502179055506000600360008373ffffffffffffffffffffffffffffffffffffffff1673ffffffffffffffffffffffffffffffffffffffff16815260200190815260200160002060006101000a81548160ff02191690831515021790555050565b600160003373ffffffffffffffffffffffffffffffffffffffff1673ffffffffffffffffffffffffffffffffffffffff16815260200190815260200160002060009054906101000a900460ff166107e4576040517f08c379a00000000000000000000000000000000000000000000000000000000081526004016107db90610d92565b60405180910390fd5b6005816040516107f49190610cc5565b908152602001604051809103902060009054906101000a900460ff1615610850576040517f08c379a000000000000000000000000000000000000000000000000000000000815260040161084790610dd2565b60405180910390fd5b60016005826040516108629190610cc5565b908152602001604051809103902060006101000a81548160ff021916908315150217905550806040516108959190610cc5565b60405180910390207f8d6e2410408d0d15d6e2d1f4f0f396a3ea85b7dfc6f82a888689357f5d98cef060405160405180910390a250565b60008054906101000a900473ffffffffffffffffffffffffffffffffffffffff1673ffffffffffffffffffffffffffffffffffffffff163373ffffffffffffffffffffffffffffffffffffffff161461095a576040517f08c379a000000000000000000000000000000000000000000000000000000000815260040161095190610d52565b60405180910390fd5b600260008273ffffffffffffffffffffffffffffffffffffffff1673ffffffffffffffffffffffffffffffffffffffff16815260200190815260200160002060009054906101000a900460ff16156109e7576040517f08c379a00000000000000000000000000000000000000000000000000000000081526004016109de90610d72565b60405180910390fd5b6001600260008373ffffffffffffffffffffffffffffffffffffffff1673ffffffffffffffffffffffffffffffffffffffff16815260200190815260200160002060006101000a81548160ff021916908315150217905550428173ffffffffffffffffffffffffffffffffffffffff167f20f41639be800e135f5ae75d4de30b4d124695ecfa9a1dc0a6fda04d0ff9bfa760405160405180910390a350565b6000610a99610a9484610e17565b610df2565b905082815260208101848484011115610ab557610ab4610f54565b5b610ac0848285610ead565b509392505050565b600081359050610ad7816110b9565b92915050565b600082601f830112610af257610af1610f4f565b5b8135610b02848260208601610a86565b91505092915050565b600060208284031215610b2157610b20610f5e565b5b6000610b2f84828501610ac8565b91505092915050565b600060208284031215610b4e57610b4d610f5e565b5b600082013567ffffffffffffffff811115610b6c57610b6b610f59565b5b610b7884828501610add565b91505092915050565b610b8a81610e6f565b82525050565b610b9981610e81565b82525050565b6000610baa82610e48565b610bb48185610e64565b9350610bc4818560208601610ebc565b80840191505092915050565b6000610bdd601d83610e53565b9150610be882610f74565b602082019050919050565b6000610c00601c83610e53565b9150610c0b82610f9d565b602082019050919050565b6000610c23601383610e53565b9150610c2e82610fc6565b602082019050919050565b6000610c46601383610e53565b9150610c5182610fef565b602082019050919050565b6000610c69601c83610e53565b9150610c7482611018565b602082019050919050565b6000610c8c602783610e53565b9150610c9782611041565b604082019050919050565b6000610caf601683610e53565b9150610cba82611090565b602082019050919050565b6000610cd18284610b9f565b915081905092915050565b6000602082019050610cf16000830184610b81565b92915050565b6000602082019050610d0c6000830184610b90565b92915050565b60006020820190508181036000830152610d2b81610bd0565b9050919050565b60006020820190508181036000830152610d4b81610bf3565b9050919050565b60006020820190508181036000830152610d6b81610c16565b9050919050565b60006020820190508181036000830152610d8b81610c39565b9050919050565b60006020820190508181036000830152610dab81610c5c565b9050919050565b60006020820190508181036000830152610dcb81610c7f565b9050919050565b60006020820190508181036000830152610deb81610ca2565b9050919050565b6000610dfc610e0d565b9050610e088282610eef565b919050565b6000604051905090565b600067ffffffffffffffff821115610e3257610e31610f20565b5b610e3b82610f63565b9050602081019050919050565b600081519050919050565b600082825260208201905092915050565b600081905092915050565b6000610e7a82610e8d565b9050919050565b60008115159050919050565b600073ffffffffffffffffffffffffffffffffffffffff82169050919050565b82818337600083830152505050565b60005b83811015610eda578082015181840152602081019050610ebf565b83811115610ee9576000848401525b50505050565b610ef882610f63565b810181811067ffffffffffffffff82111715610f1757610f16610f20565b5b80604052505050565b7f4e487b7100000000000000000000000000000000000000000000000000000000600052604160045260246000fd5b600080fd5b600080fd5b600080fd5b600080fd5b6000601f19601f8301169050919050565b7f74686973206164647265737320686173206265656e2062616e6e656421000000600082015250565b7f74686973206164647265737320616c72656164792062616e6e65642100000000600082015250565b7f43616c6c6572206973206e6f74206f776e657200000000000000000000000000600082015250565b7f616c72656164792061206368696c64204e465400000000000000000000000000600082015250565b7f6f6e6c792061646d696e2063616e2063616c6c2066756e6374696f6e00000000600082015250565b7f74686973206164647265737320616c7265616479206f6e20746865207768697460008201527f65206c6973742100000000000000000000000000000000000000000000000000602082015250565b7f717565737420616c726561647920617070726f76656400000000000000000000600082015250565b6110c281610e6f565b81146110cd57600080fd5b5056fea2646970667358221220ebfc0076878509a15b580bc75f10f9f59fb812829c8df496bdeeba088cb1f12c64736f6c63430008060033",
  "immutableReferences": {},
  "source": "pragma solidity >=0.5.0 <0.9.0;\n\n/**\n * @title NFTStore\n * @dev Store NFTs and other information for ease of access to a front-end and querying\n\n*/\n\nimport './Ownable.sol';\n\n\ncontract NFTStore is Ownable{\n        mapping (address => bool) public admins;\n        mapping (address => bool) public childNFTs;\n        mapping (address => bool) public whiteList;\n        mapping (address => bool) private blackList;\n        mapping (string => bool) public approvedQuests;\n\n        event NFTAdded(address indexed added, uint indexed timeAdded);\n        event QuestApproved(string indexed questName);\n\n        constructor(address[] memory _admins) public{\n            for (uint i = 0; i<_admins.length; i++){\n                admins[_admins[i]] = true;\n            }\n        }\n\n        modifier onlyNFTContract(){\n            require(childNFTs[msg.sender], \"only child NFT contracts can call function\");\n            _;\n        }\n\n        modifier onlyAdmins(){\n            require(admins[msg.sender], \"only admin can call function\");\n            _;\n        }\n\n        function addChildNFT(address _childNFT) public isOwner{\n            require(!childNFTs[_childNFT], \"already a child NFT\");\n            childNFTs[_childNFT]= true;\n            emit NFTAdded(_childNFT, block.timestamp);\n        }\n\n        function addAddressToWhiteList(address _address) public {\n            require (!blackList[_address], \"this address has been banned!\");\n            require (!whiteList[_address], \"this address already on the white list!\");\n            whiteList[_address] = true;\n            //possibly emit event\n        }\n\n        function addAddressToBlackList(address _address) public onlyAdmins{\n            require (!blackList[_address], \"this address already banned!\");\n            blackList[_address] = true;\n            whiteList[_address] = false;\n            //possibly emit event\n        }\n\n        function addApprovedQuest(string memory _quest) public onlyAdmins{\n            require(!approvedQuests[_quest], \"quest already approved\");\n            approvedQuests[_quest] = true;\n            emit QuestApproved(_quest);\n        }\n        \n        \n}",
  "sourcePath": "/home/jpick713/BlockChain_Apps/nftIPFS/contracts/NFTStore.sol",
  "compiler": {
    "name": "solc",
    "version": "0.8.6+commit.11564f7e.Emscripten.clang"
  },
  "schemaVersion": "3.4.2",
  "updatedAt": "2021-08-03T02:45:24.310Z",
  "networkType": "ethereum",
  "devdoc": {
    "kind": "dev",
    "methods": {
      "changeOwner(address)": {
        "details": "Change owner",
        "params": {
          "newOwner": "address of new owner"
        }
      },
      "getOwner()": {
        "details": "Return owner address ",
        "returns": {
          "_0": "address of owner"
        }
      }
    },
    "version": 1
  },
  "userdoc": {
    "kind": "user",
    "methods": {},
    "version": 1
  }
}