{
  "contractName": "QuestCompleteNFT",
  "abi": [
    {
      "inputs": [
        {
          "internalType": "address",
          "name": "_masterStoreAddress",
          "type": "address"
        }
      ],
      "stateMutability": "nonpayable",
      "type": "constructor"
    },
    {
      "anonymous": false,
      "inputs": [
        {
          "indexed": true,
          "internalType": "address",
          "name": "owner",
          "type": "address"
        },
        {
          "indexed": true,
          "internalType": "address",
          "name": "approved",
          "type": "address"
        },
        {
          "indexed": true,
          "internalType": "uint256",
          "name": "tokenId",
          "type": "uint256"
        }
      ],
      "name": "Approval",
      "type": "event"
    },
    {
      "anonymous": false,
      "inputs": [
        {
          "indexed": true,
          "internalType": "address",
          "name": "owner",
          "type": "address"
        },
        {
          "indexed": true,
          "internalType": "address",
          "name": "operator",
          "type": "address"
        },
        {
          "indexed": false,
          "internalType": "bool",
          "name": "approved",
          "type": "bool"
        }
      ],
      "name": "ApprovalForAll",
      "type": "event"
    },
    {
      "anonymous": false,
      "inputs": [
        {
          "indexed": true,
          "internalType": "address",
          "name": "_to",
          "type": "address"
        },
        {
          "indexed": true,
          "internalType": "string",
          "name": "_tokenURI",
          "type": "string"
        }
      ],
      "name": "NFTMinted",
      "type": "event"
    },
    {
      "anonymous": false,
      "inputs": [
        {
          "indexed": true,
          "internalType": "address",
          "name": "from",
          "type": "address"
        },
        {
          "indexed": true,
          "internalType": "address",
          "name": "to",
          "type": "address"
        },
        {
          "indexed": true,
          "internalType": "uint256",
          "name": "tokenId",
          "type": "uint256"
        }
      ],
      "name": "Transfer",
      "type": "event"
    },
    {
      "inputs": [
        {
          "internalType": "string",
          "name": "",
          "type": "string"
        },
        {
          "internalType": "address",
          "name": "",
          "type": "address"
        }
      ],
      "name": "NFTExists",
      "outputs": [
        {
          "internalType": "bool",
          "name": "",
          "type": "bool"
        }
      ],
      "stateMutability": "view",
      "type": "function",
      "constant": true
    },
    {
      "inputs": [
        {
          "internalType": "address",
          "name": "",
          "type": "address"
        },
        {
          "internalType": "string",
          "name": "",
          "type": "string"
        }
      ],
      "name": "Quests",
      "outputs": [
        {
          "internalType": "address",
          "name": "receiver",
          "type": "address"
        },
        {
          "internalType": "string",
          "name": "quest",
          "type": "string"
        },
        {
          "internalType": "string",
          "name": "URI",
          "type": "string"
        },
        {
          "internalType": "uint256",
          "name": "timestamp",
          "type": "uint256"
        },
        {
          "internalType": "bool",
          "name": "exists",
          "type": "bool"
        }
      ],
      "stateMutability": "view",
      "type": "function",
      "constant": true
    },
    {
      "inputs": [
        {
          "internalType": "address",
          "name": "to",
          "type": "address"
        },
        {
          "internalType": "uint256",
          "name": "tokenId",
          "type": "uint256"
        }
      ],
      "name": "approve",
      "outputs": [],
      "stateMutability": "nonpayable",
      "type": "function"
    },
    {
      "inputs": [
        {
          "internalType": "address",
          "name": "owner",
          "type": "address"
        }
      ],
      "name": "balanceOf",
      "outputs": [
        {
          "internalType": "uint256",
          "name": "",
          "type": "uint256"
        }
      ],
      "stateMutability": "view",
      "type": "function",
      "constant": true
    },
    {
      "inputs": [
        {
          "internalType": "uint256",
          "name": "tokenId",
          "type": "uint256"
        }
      ],
      "name": "getApproved",
      "outputs": [
        {
          "internalType": "address",
          "name": "",
          "type": "address"
        }
      ],
      "stateMutability": "view",
      "type": "function",
      "constant": true
    },
    {
      "inputs": [
        {
          "internalType": "address",
          "name": "",
          "type": "address"
        },
        {
          "internalType": "string",
          "name": "",
          "type": "string"
        }
      ],
      "name": "getNFTURIsByAddress",
      "outputs": [
        {
          "internalType": "string",
          "name": "",
          "type": "string"
        }
      ],
      "stateMutability": "view",
      "type": "function",
      "constant": true
    },
    {
      "inputs": [
        {
          "internalType": "address",
          "name": "owner",
          "type": "address"
        },
        {
          "internalType": "address",
          "name": "operator",
          "type": "address"
        }
      ],
      "name": "isApprovedForAll",
      "outputs": [
        {
          "internalType": "bool",
          "name": "",
          "type": "bool"
        }
      ],
      "stateMutability": "view",
      "type": "function",
      "constant": true
    },
    {
      "inputs": [],
      "name": "masterStore",
      "outputs": [
        {
          "internalType": "contract NFTStore",
          "name": "",
          "type": "address"
        }
      ],
      "stateMutability": "view",
      "type": "function",
      "constant": true
    },
    {
      "inputs": [],
      "name": "name",
      "outputs": [
        {
          "internalType": "string",
          "name": "",
          "type": "string"
        }
      ],
      "stateMutability": "view",
      "type": "function",
      "constant": true
    },
    {
      "inputs": [
        {
          "internalType": "uint256",
          "name": "tokenId",
          "type": "uint256"
        }
      ],
      "name": "ownerOf",
      "outputs": [
        {
          "internalType": "address",
          "name": "",
          "type": "address"
        }
      ],
      "stateMutability": "view",
      "type": "function",
      "constant": true
    },
    {
      "inputs": [
        {
          "internalType": "address",
          "name": "from",
          "type": "address"
        },
        {
          "internalType": "address",
          "name": "to",
          "type": "address"
        },
        {
          "internalType": "uint256",
          "name": "tokenId",
          "type": "uint256"
        }
      ],
      "name": "safeTransferFrom",
      "outputs": [],
      "stateMutability": "nonpayable",
      "type": "function"
    },
    {
      "inputs": [
        {
          "internalType": "address",
          "name": "from",
          "type": "address"
        },
        {
          "internalType": "address",
          "name": "to",
          "type": "address"
        },
        {
          "internalType": "uint256",
          "name": "tokenId",
          "type": "uint256"
        },
        {
          "internalType": "bytes",
          "name": "_data",
          "type": "bytes"
        }
      ],
      "name": "safeTransferFrom",
      "outputs": [],
      "stateMutability": "nonpayable",
      "type": "function"
    },
    {
      "inputs": [
        {
          "internalType": "address",
          "name": "operator",
          "type": "address"
        },
        {
          "internalType": "bool",
          "name": "approved",
          "type": "bool"
        }
      ],
      "name": "setApprovalForAll",
      "outputs": [],
      "stateMutability": "nonpayable",
      "type": "function"
    },
    {
      "inputs": [
        {
          "internalType": "bytes4",
          "name": "interfaceId",
          "type": "bytes4"
        }
      ],
      "name": "supportsInterface",
      "outputs": [
        {
          "internalType": "bool",
          "name": "",
          "type": "bool"
        }
      ],
      "stateMutability": "view",
      "type": "function",
      "constant": true
    },
    {
      "inputs": [],
      "name": "symbol",
      "outputs": [
        {
          "internalType": "string",
          "name": "",
          "type": "string"
        }
      ],
      "stateMutability": "view",
      "type": "function",
      "constant": true
    },
    {
      "inputs": [
        {
          "internalType": "uint256",
          "name": "tokenId",
          "type": "uint256"
        }
      ],
      "name": "tokenURI",
      "outputs": [
        {
          "internalType": "string",
          "name": "",
          "type": "string"
        }
      ],
      "stateMutability": "view",
      "type": "function",
      "constant": true
    },
    {
      "inputs": [
        {
          "internalType": "address",
          "name": "from",
          "type": "address"
        },
        {
          "internalType": "address",
          "name": "to",
          "type": "address"
        },
        {
          "internalType": "uint256",
          "name": "tokenId",
          "type": "uint256"
        }
      ],
      "name": "transferFrom",
      "outputs": [],
      "stateMutability": "nonpayable",
      "type": "function"
    },
    {
      "inputs": [
        {
          "internalType": "address",
          "name": "_to",
          "type": "address"
        },
        {
          "internalType": "string",
          "name": "_tokenURI",
          "type": "string"
        },
        {
          "internalType": "string",
          "name": "questName",
          "type": "string"
        }
      ],
      "name": "mintToken",
      "outputs": [],
      "stateMutability": "nonpayable",
      "type": "function"
    }
  ],
  "bytecode": "0x60806040523480156200001157600080fd5b506040516200396f3803806200396f8339818101604052810190620000379190620002f6565b6040518060400160405280601781526020017f436f6d706c65746564446973636f7665727951756573740000000000000000008152506040518060400160405280600381526020017f43445100000000000000000000000000000000000000000000000000000000008152508160009080519060200190620000bb92919062000218565b508060019080519060200190620000d492919062000218565b50505080600660006101000a81548173ffffffffffffffffffffffffffffffffffffffff021916908373ffffffffffffffffffffffffffffffffffffffff1602179055506000600660009054906101000a900473ffffffffffffffffffffffffffffffffffffffff1673ffffffffffffffffffffffffffffffffffffffff1663429b62e5336040518263ffffffff1660e01b815260040162000177919062000392565b60206040518083038186803b1580156200019057600080fd5b505afa158015620001a5573d6000803e3d6000fd5b505050506040513d601f19601f82011682018060405250810190620001cb919062000328565b90508062000210576040517f08c379a00000000000000000000000000000000000000000000000000000000081526004016200020790620003af565b60405180910390fd5b5050620004e9565b828054620002269062000422565b90600052602060002090601f0160209004810192826200024a576000855562000296565b82601f106200026557805160ff191683800117855562000296565b8280016001018555821562000296579182015b828111156200029557825182559160200191906001019062000278565b5b509050620002a59190620002a9565b5090565b5b80821115620002c4576000816000905550600101620002aa565b5090565b600081519050620002d981620004b5565b92915050565b600081519050620002f081620004cf565b92915050565b6000602082840312156200030f576200030e62000487565b5b60006200031f84828501620002c8565b91505092915050565b60006020828403121562000341576200034062000487565b5b60006200035184828501620002df565b91505092915050565b6200036581620003e2565b82525050565b60006200037a601783620003d1565b915062000387826200048c565b602082019050919050565b6000602082019050620003a960008301846200035a565b92915050565b60006020820190508181036000830152620003ca816200036b565b9050919050565b600082825260208201905092915050565b6000620003ef8262000402565b9050919050565b60008115159050919050565b600073ffffffffffffffffffffffffffffffffffffffff82169050919050565b600060028204905060018216806200043b57607f821691505b6020821081141562000452576200045162000458565b5b50919050565b7f4e487b7100000000000000000000000000000000000000000000000000000000600052602260045260246000fd5b600080fd5b7f6465706c6f7965722063616e2774206d616b65204e4654000000000000000000600082015250565b620004c081620003e2565b8114620004cc57600080fd5b50565b620004da81620003f6565b8114620004e657600080fd5b50565b61347680620004f96000396000f3fe608060405234801561001057600080fd5b50600436106101165760003560e01c806370a08231116100a2578063a22cb46511610071578063a22cb46514610309578063b88d4fde14610325578063c87b56dd14610341578063e985e9c514610371578063fbcf50f3146103a157610116565b806370a08231146102575780638bfd589b1461028757806395d89b41146102bb578063a0f026e5146102d957610116565b806310243755116100e957806310243755146101b557806323b872dd146101d35780632e689c3f146101ef57806342842e0e1461020b5780636352211e1461022757610116565b806301ffc9a71461011b57806306fdde031461014b578063081812fc14610169578063095ea7b314610199575b600080fd5b6101356004803603810190610130919061236c565b6103d1565b6040516101429190612884565b60405180910390f35b6101536104b3565b60405161016091906128ba565b60405180910390f35b610183600480360381019061017e9190612422565b610545565b60405161019091906127bc565b60405180910390f35b6101b360048036038101906101ae91906122ff565b6105ca565b005b6101bd6106e2565b6040516101ca919061289f565b60405180910390f35b6101ed60048036038101906101e89190612102565b610708565b005b61020960048036038101906102049190612274565b610768565b005b61022560048036038101906102209190612102565b610c9a565b005b610241600480360381019061023c9190612422565b610cba565b60405161024e91906127bc565b60405180910390f35b610271600480360381019061026c9190612095565b610d6c565b60405161027e9190612afc565b60405180910390f35b6102a1600480360381019061029c9190612218565b610e24565b6040516102b2959493929190612823565b60405180910390f35b6102c3610fba565b6040516102d091906128ba565b60405180910390f35b6102f360048036038101906102ee91906123c6565b61104c565b6040516103009190612884565b60405180910390f35b610323600480360381019061031e91906121d8565b611091565b005b61033f600480360381019061033a9190612155565b611212565b005b61035b60048036038101906103569190612422565b611274565b60405161036891906128ba565b60405180910390f35b61038b600480360381019061038691906120c2565b61131b565b6040516103989190612884565b60405180910390f35b6103bb60048036038101906103b69190612218565b6113af565b6040516103c891906128ba565b60405180910390f35b60007f80ac58cd000000000000000000000000000000000000000000000000000000007bffffffffffffffffffffffffffffffffffffffffffffffffffffffff1916827bffffffffffffffffffffffffffffffffffffffffffffffffffffffff1916148061049c57507f5b5e139f000000000000000000000000000000000000000000000000000000007bffffffffffffffffffffffffffffffffffffffffffffffffffffffff1916827bffffffffffffffffffffffffffffffffffffffffffffffffffffffff1916145b806104ac57506104ab82611472565b5b9050919050565b6060600080546104c290612d76565b80601f01602080910402602001604051908101604052809291908181526020018280546104ee90612d76565b801561053b5780601f106105105761010080835404028352916020019161053b565b820191906000526020600020905b81548152906001019060200180831161051e57829003601f168201915b5050505050905090565b6000610550826114dc565b61058f576040517f08c379a000000000000000000000000000000000000000000000000000000000815260040161058690612a3c565b60405180910390fd5b6004600083815260200190815260200160002060009054906101000a900473ffffffffffffffffffffffffffffffffffffffff169050919050565b60006105d582610cba565b90508073ffffffffffffffffffffffffffffffffffffffff168373ffffffffffffffffffffffffffffffffffffffff161415610646576040517f08c379a000000000000000000000000000000000000000000000000000000000815260040161063d90612abc565b60405180910390fd5b8073ffffffffffffffffffffffffffffffffffffffff16610665611548565b73ffffffffffffffffffffffffffffffffffffffff16148061069457506106938161068e611548565b61131b565b5b6106d3576040517f08c379a00000000000000000000000000000000000000000000000000000000081526004016106ca906129bc565b60405180910390fd5b6106dd8383611550565b505050565b600660009054906101000a900473ffffffffffffffffffffffffffffffffffffffff1681565b610719610713611548565b82611609565b610758576040517f08c379a000000000000000000000000000000000000000000000000000000000815260040161074f90612adc565b60405180910390fd5b6107638383836116e7565b505050565b600660009054906101000a900473ffffffffffffffffffffffffffffffffffffffff1673ffffffffffffffffffffffffffffffffffffffff1663372c12b1846040518263ffffffff1660e01b81526004016107c391906127bc565b60206040518083038186803b1580156107db57600080fd5b505afa1580156107ef573d6000803e3d6000fd5b505050506040513d601f19601f82011682018060405250810190610813919061233f565b610852576040517f08c379a00000000000000000000000000000000000000000000000000000000081526004016108499061299c565b60405180910390fd5b600660009054906101000a900473ffffffffffffffffffffffffffffffffffffffff1673ffffffffffffffffffffffffffffffffffffffff1663a852a581826040518263ffffffff1660e01b81526004016108ad91906128ba565b60206040518083038186803b1580156108c557600080fd5b505afa1580156108d9573d6000803e3d6000fd5b505050506040513d601f19601f820116820180604052508101906108fd919061233f565b61093c576040517f08c379a0000000000000000000000000000000000000000000000000000000008152600401610933906128dc565b60405180910390fd5b60088160405161094c9190612781565b908152602001604051809103902060008473ffffffffffffffffffffffffffffffffffffffff1673ffffffffffffffffffffffffffffffffffffffff16815260200190815260200160002060009054906101000a900460ff16156109e5576040517f08c379a00000000000000000000000000000000000000000000000000000000081526004016109dc90612a5c565b60405180910390fd5b600760008154809291906109f890612dd9565b9190505550610a0983600754611943565b6001600882604051610a1b9190612781565b908152602001604051809103902060008573ffffffffffffffffffffffffffffffffffffffff1673ffffffffffffffffffffffffffffffffffffffff16815260200190815260200160002060006101000a81548160ff02191690831515021790555081600960008573ffffffffffffffffffffffffffffffffffffffff1673ffffffffffffffffffffffffffffffffffffffff16815260200190815260200160002082604051610acb9190612781565b90815260200160405180910390209080519060200190610aec929190611e94565b5060006040518060a001604052808573ffffffffffffffffffffffffffffffffffffffff16815260200183815260200184815260200142815260200160011515815250905080600a60008673ffffffffffffffffffffffffffffffffffffffff1673ffffffffffffffffffffffffffffffffffffffff16815260200190815260200160002083604051610b7f9190612781565b908152602001604051809103902060008201518160000160006101000a81548173ffffffffffffffffffffffffffffffffffffffff021916908373ffffffffffffffffffffffffffffffffffffffff1602179055506020820151816001019080519060200190610bf0929190611e94565b506040820151816002019080519060200190610c0d929190611e94565b506060820151816003015560808201518160040160006101000a81548160ff02191690831515021790555090505082604051610c499190612781565b60405180910390208473ffffffffffffffffffffffffffffffffffffffff167f371f376692dd846fa34380a8fd44c6a140dc5cd442cd8ae5657963685f17ebed60405160405180910390a350505050565b610cb583838360405180602001604052806000815250611212565b505050565b6000806002600084815260200190815260200160002060009054906101000a900473ffffffffffffffffffffffffffffffffffffffff169050600073ffffffffffffffffffffffffffffffffffffffff168173ffffffffffffffffffffffffffffffffffffffff161415610d63576040517f08c379a0000000000000000000000000000000000000000000000000000000008152600401610d5a906129fc565b60405180910390fd5b80915050919050565b60008073ffffffffffffffffffffffffffffffffffffffff168273ffffffffffffffffffffffffffffffffffffffff161415610ddd576040517f08c379a0000000000000000000000000000000000000000000000000000000008152600401610dd4906129dc565b60405180910390fd5b600360008373ffffffffffffffffffffffffffffffffffffffff1673ffffffffffffffffffffffffffffffffffffffff168152602001908152602001600020549050919050565b600a60205281600052604060002081805160208101820180518482526020830160208501208183528095505050505050600091509150508060000160009054906101000a900473ffffffffffffffffffffffffffffffffffffffff1690806001018054610e9090612d76565b80601f0160208091040260200160405190810160405280929190818152602001828054610ebc90612d76565b8015610f095780601f10610ede57610100808354040283529160200191610f09565b820191906000526020600020905b815481529060010190602001808311610eec57829003601f168201915b505050505090806002018054610f1e90612d76565b80601f0160208091040260200160405190810160405280929190818152602001828054610f4a90612d76565b8015610f975780601f10610f6c57610100808354040283529160200191610f97565b820191906000526020600020905b815481529060010190602001808311610f7a57829003601f168201915b5050505050908060030154908060040160009054906101000a900460ff16905085565b606060018054610fc990612d76565b80601f0160208091040260200160405190810160405280929190818152602001828054610ff590612d76565b80156110425780601f1061101757610100808354040283529160200191611042565b820191906000526020600020905b81548152906001019060200180831161102557829003601f168201915b5050505050905090565b6008828051602081018201805184825260208301602085012081835280955050505050506020528060005260406000206000915091509054906101000a900460ff1681565b611099611548565b73ffffffffffffffffffffffffffffffffffffffff168273ffffffffffffffffffffffffffffffffffffffff161415611107576040517f08c379a00000000000000000000000000000000000000000000000000000000081526004016110fe9061295c565b60405180910390fd5b8060056000611114611548565b73ffffffffffffffffffffffffffffffffffffffff1673ffffffffffffffffffffffffffffffffffffffff16815260200190815260200160002060008473ffffffffffffffffffffffffffffffffffffffff1673ffffffffffffffffffffffffffffffffffffffff16815260200190815260200160002060006101000a81548160ff0219169083151502179055508173ffffffffffffffffffffffffffffffffffffffff166111c1611548565b73ffffffffffffffffffffffffffffffffffffffff167f17307eab39ab6107e8899845ad3d59bd9653f200f220920489ca2b5937696c31836040516112069190612884565b60405180910390a35050565b61122361121d611548565b83611609565b611262576040517f08c379a000000000000000000000000000000000000000000000000000000000815260040161125990612adc565b60405180910390fd5b61126e84848484611b11565b50505050565b606061127f826114dc565b6112be576040517f08c379a00000000000000000000000000000000000000000000000000000000081526004016112b590612a9c565b60405180910390fd5b60006112c8611b6d565b905060008151116112e85760405180602001604052806000815250611313565b806112f284611b84565b604051602001611303929190612798565b6040516020818303038152906040525b915050919050565b6000600560008473ffffffffffffffffffffffffffffffffffffffff1673ffffffffffffffffffffffffffffffffffffffff16815260200190815260200160002060008373ffffffffffffffffffffffffffffffffffffffff1673ffffffffffffffffffffffffffffffffffffffff16815260200190815260200160002060009054906101000a900460ff16905092915050565b6009602052816000526040600020818051602081018201805184825260208301602085012081835280955050505050506000915091505080546113f190612d76565b80601f016020809104026020016040519081016040528092919081815260200182805461141d90612d76565b801561146a5780601f1061143f5761010080835404028352916020019161146a565b820191906000526020600020905b81548152906001019060200180831161144d57829003601f168201915b505050505081565b60007f01ffc9a7000000000000000000000000000000000000000000000000000000007bffffffffffffffffffffffffffffffffffffffffffffffffffffffff1916827bffffffffffffffffffffffffffffffffffffffffffffffffffffffff1916149050919050565b60008073ffffffffffffffffffffffffffffffffffffffff166002600084815260200190815260200160002060009054906101000a900473ffffffffffffffffffffffffffffffffffffffff1673ffffffffffffffffffffffffffffffffffffffff1614159050919050565b600033905090565b816004600083815260200190815260200160002060006101000a81548173ffffffffffffffffffffffffffffffffffffffff021916908373ffffffffffffffffffffffffffffffffffffffff160217905550808273ffffffffffffffffffffffffffffffffffffffff166115c383610cba565b73ffffffffffffffffffffffffffffffffffffffff167f8c5be1e5ebec7d5bd14f71427d1e84f3dd0314c0f7b2291e5b200ac8c7c3b92560405160405180910390a45050565b6000611614826114dc565b611653576040517f08c379a000000000000000000000000000000000000000000000000000000000815260040161164a9061297c565b60405180910390fd5b600061165e83610cba565b90508073ffffffffffffffffffffffffffffffffffffffff168473ffffffffffffffffffffffffffffffffffffffff1614806116cd57508373ffffffffffffffffffffffffffffffffffffffff166116b584610545565b73ffffffffffffffffffffffffffffffffffffffff16145b806116de57506116dd818561131b565b5b91505092915050565b8273ffffffffffffffffffffffffffffffffffffffff1661170782610cba565b73ffffffffffffffffffffffffffffffffffffffff161461175d576040517f08c379a000000000000000000000000000000000000000000000000000000000815260040161175490612a7c565b60405180910390fd5b600073ffffffffffffffffffffffffffffffffffffffff168273ffffffffffffffffffffffffffffffffffffffff1614156117cd576040517f08c379a00000000000000000000000000000000000000000000000000000000081526004016117c49061293c565b60405180910390fd5b6117d8838383611ce5565b6117e3600082611550565b6001600360008573ffffffffffffffffffffffffffffffffffffffff1673ffffffffffffffffffffffffffffffffffffffff16815260200190815260200160002060008282546118339190612c68565b925050819055506001600360008473ffffffffffffffffffffffffffffffffffffffff1673ffffffffffffffffffffffffffffffffffffffff168152602001908152602001600020600082825461188a9190612be1565b92505081905550816002600083815260200190815260200160002060006101000a81548173ffffffffffffffffffffffffffffffffffffffff021916908373ffffffffffffffffffffffffffffffffffffffff160217905550808273ffffffffffffffffffffffffffffffffffffffff168473ffffffffffffffffffffffffffffffffffffffff167fddf252ad1be2c89b69c2b068fc378daa952ba7f163c4a11628f55a4df523b3ef60405160405180910390a4505050565b600073ffffffffffffffffffffffffffffffffffffffff168273ffffffffffffffffffffffffffffffffffffffff1614156119b3576040517f08c379a00000000000000000000000000000000000000000000000000000000081526004016119aa90612a1c565b60405180910390fd5b6119bc816114dc565b156119fc576040517f08c379a00000000000000000000000000000000000000000000000000000000081526004016119f39061291c565b60405180910390fd5b611a0860008383611ce5565b6001600360008473ffffffffffffffffffffffffffffffffffffffff1673ffffffffffffffffffffffffffffffffffffffff1681526020019081526020016000206000828254611a589190612be1565b92505081905550816002600083815260200190815260200160002060006101000a81548173ffffffffffffffffffffffffffffffffffffffff021916908373ffffffffffffffffffffffffffffffffffffffff160217905550808273ffffffffffffffffffffffffffffffffffffffff16600073ffffffffffffffffffffffffffffffffffffffff167fddf252ad1be2c89b69c2b068fc378daa952ba7f163c4a11628f55a4df523b3ef60405160405180910390a45050565b611b1c8484846116e7565b611b2884848484611cea565b611b67576040517f08c379a0000000000000000000000000000000000000000000000000000000008152600401611b5e906128fc565b60405180910390fd5b50505050565b606060405180602001604052806000815250905090565b60606000821415611bcc576040518060400160405280600181526020017f30000000000000000000000000000000000000000000000000000000000000008152509050611ce0565b600082905060005b60008214611bfe578080611be790612dd9565b915050600a82611bf79190612c37565b9150611bd4565b60008167ffffffffffffffff811115611c1a57611c19612f0f565b5b6040519080825280601f01601f191660200182016040528015611c4c5781602001600182028036833780820191505090505b5090505b60008514611cd957600182611c659190612c68565b9150600a85611c749190612e22565b6030611c809190612be1565b60f81b818381518110611c9657611c95612ee0565b5b60200101907effffffffffffffffffffffffffffffffffffffffffffffffffffffffffffff1916908160001a905350600a85611cd29190612c37565b9450611c50565b8093505050505b919050565b505050565b6000611d0b8473ffffffffffffffffffffffffffffffffffffffff16611e81565b15611e74578373ffffffffffffffffffffffffffffffffffffffff1663150b7a02611d34611548565b8786866040518563ffffffff1660e01b8152600401611d5694939291906127d7565b602060405180830381600087803b158015611d7057600080fd5b505af1925050508015611da157506040513d601f19601f82011682018060405250810190611d9e9190612399565b60015b611e24573d8060008114611dd1576040519150601f19603f3d011682016040523d82523d6000602084013e611dd6565b606091505b50600081511415611e1c576040517f08c379a0000000000000000000000000000000000000000000000000000000008152600401611e13906128fc565b60405180910390fd5b805181602001fd5b63150b7a0260e01b7bffffffffffffffffffffffffffffffffffffffffffffffffffffffff1916817bffffffffffffffffffffffffffffffffffffffffffffffffffffffff191614915050611e79565b600190505b949350505050565b600080823b905060008111915050919050565b828054611ea090612d76565b90600052602060002090601f016020900481019282611ec25760008555611f09565b82601f10611edb57805160ff1916838001178555611f09565b82800160010185558215611f09579182015b82811115611f08578251825591602001919060010190611eed565b5b509050611f169190611f1a565b5090565b5b80821115611f33576000816000905550600101611f1b565b5090565b6000611f4a611f4584612b3c565b612b17565b905082815260208101848484011115611f6657611f65612f43565b5b611f71848285612d34565b509392505050565b6000611f8c611f8784612b6d565b612b17565b905082815260208101848484011115611fa857611fa7612f43565b5b611fb3848285612d34565b509392505050565b600081359050611fca816133e4565b92915050565b600081359050611fdf816133fb565b92915050565b600081519050611ff4816133fb565b92915050565b60008135905061200981613412565b92915050565b60008151905061201e81613412565b92915050565b600082601f83011261203957612038612f3e565b5b8135612049848260208601611f37565b91505092915050565b600082601f83011261206757612066612f3e565b5b8135612077848260208601611f79565b91505092915050565b60008135905061208f81613429565b92915050565b6000602082840312156120ab576120aa612f4d565b5b60006120b984828501611fbb565b91505092915050565b600080604083850312156120d9576120d8612f4d565b5b60006120e785828601611fbb565b92505060206120f885828601611fbb565b9150509250929050565b60008060006060848603121561211b5761211a612f4d565b5b600061212986828701611fbb565b935050602061213a86828701611fbb565b925050604061214b86828701612080565b9150509250925092565b6000806000806080858703121561216f5761216e612f4d565b5b600061217d87828801611fbb565b945050602061218e87828801611fbb565b935050604061219f87828801612080565b925050606085013567ffffffffffffffff8111156121c0576121bf612f48565b5b6121cc87828801612024565b91505092959194509250565b600080604083850312156121ef576121ee612f4d565b5b60006121fd85828601611fbb565b925050602061220e85828601611fd0565b9150509250929050565b6000806040838503121561222f5761222e612f4d565b5b600061223d85828601611fbb565b925050602083013567ffffffffffffffff81111561225e5761225d612f48565b5b61226a85828601612052565b9150509250929050565b60008060006060848603121561228d5761228c612f4d565b5b600061229b86828701611fbb565b935050602084013567ffffffffffffffff8111156122bc576122bb612f48565b5b6122c886828701612052565b925050604084013567ffffffffffffffff8111156122e9576122e8612f48565b5b6122f586828701612052565b9150509250925092565b6000806040838503121561231657612315612f4d565b5b600061232485828601611fbb565b925050602061233585828601612080565b9150509250929050565b60006020828403121561235557612354612f4d565b5b600061236384828501611fe5565b91505092915050565b60006020828403121561238257612381612f4d565b5b600061239084828501611ffa565b91505092915050565b6000602082840312156123af576123ae612f4d565b5b60006123bd8482850161200f565b91505092915050565b600080604083850312156123dd576123dc612f4d565b5b600083013567ffffffffffffffff8111156123fb576123fa612f48565b5b61240785828601612052565b925050602061241885828601611fbb565b9150509250929050565b60006020828403121561243857612437612f4d565b5b600061244684828501612080565b91505092915050565b61245881612c9c565b82525050565b61246781612cae565b82525050565b600061247882612b9e565b6124828185612bb4565b9350612492818560208601612d43565b61249b81612f52565b840191505092915050565b6124af81612d10565b82525050565b60006124c082612ba9565b6124ca8185612bc5565b93506124da818560208601612d43565b6124e381612f52565b840191505092915050565b60006124f982612ba9565b6125038185612bd6565b9350612513818560208601612d43565b80840191505092915050565b600061252c601783612bc5565b915061253782612f63565b602082019050919050565b600061254f603283612bc5565b915061255a82612f8c565b604082019050919050565b6000612572601c83612bc5565b915061257d82612fdb565b602082019050919050565b6000612595602483612bc5565b91506125a082613004565b604082019050919050565b60006125b8601983612bc5565b91506125c382613053565b602082019050919050565b60006125db602c83612bc5565b91506125e68261307c565b604082019050919050565b60006125fe601a83612bc5565b9150612609826130cb565b602082019050919050565b6000612621603883612bc5565b915061262c826130f4565b604082019050919050565b6000612644602a83612bc5565b915061264f82613143565b604082019050919050565b6000612667602983612bc5565b915061267282613192565b604082019050919050565b600061268a602083612bc5565b9150612695826131e1565b602082019050919050565b60006126ad602c83612bc5565b91506126b88261320a565b604082019050919050565b60006126d0602f83612bc5565b91506126db82613259565b604082019050919050565b60006126f3602983612bc5565b91506126fe826132a8565b604082019050919050565b6000612716602f83612bc5565b9150612721826132f7565b604082019050919050565b6000612739602183612bc5565b915061274482613346565b604082019050919050565b600061275c603183612bc5565b915061276782613395565b604082019050919050565b61277b81612d06565b82525050565b600061278d82846124ee565b915081905092915050565b60006127a482856124ee565b91506127b082846124ee565b91508190509392505050565b60006020820190506127d1600083018461244f565b92915050565b60006080820190506127ec600083018761244f565b6127f9602083018661244f565b6128066040830185612772565b8181036060830152612818818461246d565b905095945050505050565b600060a082019050612838600083018861244f565b818103602083015261284a81876124b5565b9050818103604083015261285e81866124b5565b905061286d6060830185612772565b61287a608083018461245e565b9695505050505050565b6000602082019050612899600083018461245e565b92915050565b60006020820190506128b460008301846124a6565b92915050565b600060208201905081810360008301526128d481846124b5565b905092915050565b600060208201905081810360008301526128f58161251f565b9050919050565b6000602082019050818103600083015261291581612542565b9050919050565b6000602082019050818103600083015261293581612565565b9050919050565b6000602082019050818103600083015261295581612588565b9050919050565b60006020820190508181036000830152612975816125ab565b9050919050565b60006020820190508181036000830152612995816125ce565b9050919050565b600060208201905081810360008301526129b5816125f1565b9050919050565b600060208201905081810360008301526129d581612614565b9050919050565b600060208201905081810360008301526129f581612637565b9050919050565b60006020820190508181036000830152612a158161265a565b9050919050565b60006020820190508181036000830152612a358161267d565b9050919050565b60006020820190508181036000830152612a55816126a0565b9050919050565b60006020820190508181036000830152612a75816126c3565b9050919050565b60006020820190508181036000830152612a95816126e6565b9050919050565b60006020820190508181036000830152612ab581612709565b9050919050565b60006020820190508181036000830152612ad58161272c565b9050919050565b60006020820190508181036000830152612af58161274f565b9050919050565b6000602082019050612b116000830184612772565b92915050565b6000612b21612b32565b9050612b2d8282612da8565b919050565b6000604051905090565b600067ffffffffffffffff821115612b5757612b56612f0f565b5b612b6082612f52565b9050602081019050919050565b600067ffffffffffffffff821115612b8857612b87612f0f565b5b612b9182612f52565b9050602081019050919050565b600081519050919050565b600081519050919050565b600082825260208201905092915050565b600082825260208201905092915050565b600081905092915050565b6000612bec82612d06565b9150612bf783612d06565b9250827fffffffffffffffffffffffffffffffffffffffffffffffffffffffffffffffff03821115612c2c57612c2b612e53565b5b828201905092915050565b6000612c4282612d06565b9150612c4d83612d06565b925082612c5d57612c5c612e82565b5b828204905092915050565b6000612c7382612d06565b9150612c7e83612d06565b925082821015612c9157612c90612e53565b5b828203905092915050565b6000612ca782612ce6565b9050919050565b60008115159050919050565b60007fffffffff0000000000000000000000000000000000000000000000000000000082169050919050565b600073ffffffffffffffffffffffffffffffffffffffff82169050919050565b6000819050919050565b6000612d1b82612d22565b9050919050565b6000612d2d82612ce6565b9050919050565b82818337600083830152505050565b60005b83811015612d61578082015181840152602081019050612d46565b83811115612d70576000848401525b50505050565b60006002820490506001821680612d8e57607f821691505b60208210811415612da257612da1612eb1565b5b50919050565b612db182612f52565b810181811067ffffffffffffffff82111715612dd057612dcf612f0f565b5b80604052505050565b6000612de482612d06565b91507fffffffffffffffffffffffffffffffffffffffffffffffffffffffffffffffff821415612e1757612e16612e53565b5b600182019050919050565b6000612e2d82612d06565b9150612e3883612d06565b925082612e4857612e47612e82565b5b828206905092915050565b7f4e487b7100000000000000000000000000000000000000000000000000000000600052601160045260246000fd5b7f4e487b7100000000000000000000000000000000000000000000000000000000600052601260045260246000fd5b7f4e487b7100000000000000000000000000000000000000000000000000000000600052602260045260246000fd5b7f4e487b7100000000000000000000000000000000000000000000000000000000600052603260045260246000fd5b7f4e487b7100000000000000000000000000000000000000000000000000000000600052604160045260246000fd5b600080fd5b600080fd5b600080fd5b600080fd5b6000601f19601f8301169050919050565b7f74686973207175657374206973206e6f742076616c6964000000000000000000600082015250565b7f4552433732313a207472616e7366657220746f206e6f6e20455243373231526560008201527f63656976657220696d706c656d656e7465720000000000000000000000000000602082015250565b7f4552433732313a20746f6b656e20616c7265616479206d696e74656400000000600082015250565b7f4552433732313a207472616e7366657220746f20746865207a65726f2061646460008201527f7265737300000000000000000000000000000000000000000000000000000000602082015250565b7f4552433732313a20617070726f766520746f2063616c6c657200000000000000600082015250565b7f4552433732313a206f70657261746f7220717565727920666f72206e6f6e657860008201527f697374656e7420746f6b656e0000000000000000000000000000000000000000602082015250565b7f61646472657373206973206e6f74207265676973746572656421000000000000600082015250565b7f4552433732313a20617070726f76652063616c6c6572206973206e6f74206f7760008201527f6e6572206e6f7220617070726f76656420666f7220616c6c0000000000000000602082015250565b7f4552433732313a2062616c616e636520717565727920666f7220746865207a6560008201527f726f206164647265737300000000000000000000000000000000000000000000602082015250565b7f4552433732313a206f776e657220717565727920666f72206e6f6e657869737460008201527f656e7420746f6b656e0000000000000000000000000000000000000000000000602082015250565b7f4552433732313a206d696e7420746f20746865207a65726f2061646472657373600082015250565b7f4552433732313a20617070726f76656420717565727920666f72206e6f6e657860008201527f697374656e7420746f6b656e0000000000000000000000000000000000000000602082015250565b7f74686973206164647265737320616c72656164792068617320616e204e46542060008201527f666f722074686973207175657374210000000000000000000000000000000000602082015250565b7f4552433732313a207472616e73666572206f6620746f6b656e2074686174206960008201527f73206e6f74206f776e0000000000000000000000000000000000000000000000602082015250565b7f4552433732314d657461646174613a2055524920717565727920666f72206e6f60008201527f6e6578697374656e7420746f6b656e0000000000000000000000000000000000602082015250565b7f4552433732313a20617070726f76616c20746f2063757272656e74206f776e6560008201527f7200000000000000000000000000000000000000000000000000000000000000602082015250565b7f4552433732313a207472616e736665722063616c6c6572206973206e6f74206f60008201527f776e6572206e6f7220617070726f766564000000000000000000000000000000602082015250565b6133ed81612c9c565b81146133f857600080fd5b50565b61340481612cae565b811461340f57600080fd5b50565b61341b81612cba565b811461342657600080fd5b50565b61343281612d06565b811461343d57600080fd5b5056fea26469706673582212205f05bc6d7138f8a4b3175146a284705cb9be9d1e095039e914ec476bf7a4ada864736f6c63430008060033",
  "immutableReferences": {},
  "source": "pragma solidity >=0.5.0 <0.9.0;\n\n/**\n * @title QuestCompleteNFT\n * @dev NFTs for completing course content on Discovery\n*/\n\nimport \"@openzeppelin/contracts/token/ERC721/ERC721.sol\";\nimport \"./NFTStore.sol\";\n\ncontract QuestCompleteNFT is ERC721{\n\n    NFTStore public masterStore;\n    uint tokenID;\n    mapping (string => mapping (address => bool)) public NFTExists; // check if NFT already minted for this quest for this address/DID\n    mapping (address => mapping (string => string)) public getNFTURIsByAddress; //allows retrieval of URIs by address and quest\n    mapping (address => mapping(string => Quest)) public Quests; //allows retrieval of Quest metadata in one struct. Can remove once NFT.storage is used\n\n    struct Quest {\n        address receiver;\n        string quest;\n        string URI;\n        uint timestamp;\n        bool exists;\n    }\n\n\n    event NFTMinted(address indexed _to, string indexed _tokenURI);\n\n    constructor(address _masterStoreAddress) ERC721(\"CompletedDiscoveryQuest\", \"CDQ\") public{\n        masterStore = NFTStore(_masterStoreAddress);\n        bool adminCheck = masterStore.admins(msg.sender);\n        require(adminCheck, \"deployer can't make NFT\");\n    }\n\n    function mintToken(address _to , string memory _tokenURI, string memory questName) public {\n        //access control logic with chainlink?\n        require(masterStore.whiteList(_to), \"address is not registered!\");\n        require(masterStore.approvedQuests(questName), \"this quest is not valid\");\n        require(!NFTExists[questName][_to], \"this address already has an NFT for this quest!\");\n        tokenID++;\n        _mint(_to, tokenID);\n        NFTExists[questName][_to] = true;\n        getNFTURIsByAddress[_to][questName] = _tokenURI;\n        Quest memory quest_to_add = Quest({\n            receiver : _to,\n            quest : questName,\n            URI : _tokenURI,\n            timestamp : block.timestamp,\n            exists : true\n        });\n        Quests[_to][questName]= quest_to_add;\n        emit NFTMinted(_to, _tokenURI);\n    }\n}",
  "sourcePath": "/home/jpick713/BlockChain_Apps/nftIPFS/contracts/QuestCompleteNFT.sol",
  "compiler": {
    "name": "solc",
    "version": "0.8.6+commit.11564f7e.Emscripten.clang"
  },
  "schemaVersion": "3.4.2",
  "updatedAt": "2021-08-05T10:24:15.005Z",
  "networkType": "ethereum",
  "devdoc": {
    "kind": "dev",
    "methods": {
      "approve(address,uint256)": {
        "details": "See {IERC721-approve}."
      },
      "balanceOf(address)": {
        "details": "See {IERC721-balanceOf}."
      },
      "getApproved(uint256)": {
        "details": "See {IERC721-getApproved}."
      },
      "isApprovedForAll(address,address)": {
        "details": "See {IERC721-isApprovedForAll}."
      },
      "name()": {
        "details": "See {IERC721Metadata-name}."
      },
      "ownerOf(uint256)": {
        "details": "See {IERC721-ownerOf}."
      },
      "safeTransferFrom(address,address,uint256)": {
        "details": "See {IERC721-safeTransferFrom}."
      },
      "safeTransferFrom(address,address,uint256,bytes)": {
        "details": "See {IERC721-safeTransferFrom}."
      },
      "setApprovalForAll(address,bool)": {
        "details": "See {IERC721-setApprovalForAll}."
      },
      "supportsInterface(bytes4)": {
        "details": "See {IERC165-supportsInterface}."
      },
      "symbol()": {
        "details": "See {IERC721Metadata-symbol}."
      },
      "tokenURI(uint256)": {
        "details": "See {IERC721Metadata-tokenURI}."
      },
      "transferFrom(address,address,uint256)": {
        "details": "See {IERC721-transferFrom}."
      }
    },
    "version": 1
  },
  "userdoc": {
    "kind": "user",
    "methods": {},
    "version": 1
  }
}