{
  "contractName": "QuestCompleteNFT",
  "abi": [
    {
      "inputs": [
        {
          "internalType": "address",
          "name": "_masterStoreAddress",
          "type": "address"
        }
      ],
      "stateMutability": "nonpayable",
      "type": "constructor"
    },
    {
      "anonymous": false,
      "inputs": [
        {
          "indexed": true,
          "internalType": "address",
          "name": "owner",
          "type": "address"
        },
        {
          "indexed": true,
          "internalType": "address",
          "name": "approved",
          "type": "address"
        },
        {
          "indexed": true,
          "internalType": "uint256",
          "name": "tokenId",
          "type": "uint256"
        }
      ],
      "name": "Approval",
      "type": "event"
    },
    {
      "anonymous": false,
      "inputs": [
        {
          "indexed": true,
          "internalType": "address",
          "name": "owner",
          "type": "address"
        },
        {
          "indexed": true,
          "internalType": "address",
          "name": "operator",
          "type": "address"
        },
        {
          "indexed": false,
          "internalType": "bool",
          "name": "approved",
          "type": "bool"
        }
      ],
      "name": "ApprovalForAll",
      "type": "event"
    },
    {
      "anonymous": false,
      "inputs": [
        {
          "indexed": true,
          "internalType": "address",
          "name": "_to",
          "type": "address"
        },
        {
          "indexed": true,
          "internalType": "string",
          "name": "_tokenURI",
          "type": "string"
        }
      ],
      "name": "NFTMinted",
      "type": "event"
    },
    {
      "anonymous": false,
      "inputs": [
        {
          "indexed": true,
          "internalType": "address",
          "name": "from",
          "type": "address"
        },
        {
          "indexed": true,
          "internalType": "address",
          "name": "to",
          "type": "address"
        },
        {
          "indexed": true,
          "internalType": "uint256",
          "name": "tokenId",
          "type": "uint256"
        }
      ],
      "name": "Transfer",
      "type": "event"
    },
    {
      "inputs": [
        {
          "internalType": "address",
          "name": "",
          "type": "address"
        },
        {
          "internalType": "string",
          "name": "",
          "type": "string"
        }
      ],
      "name": "Quests",
      "outputs": [
        {
          "internalType": "address",
          "name": "receiver",
          "type": "address"
        },
        {
          "internalType": "string",
          "name": "quest",
          "type": "string"
        },
        {
          "internalType": "string",
          "name": "URI",
          "type": "string"
        },
        {
          "internalType": "uint256",
          "name": "timestamp",
          "type": "uint256"
        },
        {
          "internalType": "bool",
          "name": "exists",
          "type": "bool"
        }
      ],
      "stateMutability": "view",
      "type": "function",
      "constant": true
    },
    {
      "inputs": [
        {
          "internalType": "address",
          "name": "to",
          "type": "address"
        },
        {
          "internalType": "uint256",
          "name": "tokenId",
          "type": "uint256"
        }
      ],
      "name": "approve",
      "outputs": [],
      "stateMutability": "nonpayable",
      "type": "function"
    },
    {
      "inputs": [
        {
          "internalType": "address",
          "name": "owner",
          "type": "address"
        }
      ],
      "name": "balanceOf",
      "outputs": [
        {
          "internalType": "uint256",
          "name": "",
          "type": "uint256"
        }
      ],
      "stateMutability": "view",
      "type": "function",
      "constant": true
    },
    {
      "inputs": [
        {
          "internalType": "uint256",
          "name": "tokenId",
          "type": "uint256"
        }
      ],
      "name": "getApproved",
      "outputs": [
        {
          "internalType": "address",
          "name": "",
          "type": "address"
        }
      ],
      "stateMutability": "view",
      "type": "function",
      "constant": true
    },
    {
      "inputs": [
        {
          "internalType": "address",
          "name": "",
          "type": "address"
        },
        {
          "internalType": "string",
          "name": "",
          "type": "string"
        }
      ],
      "name": "getNFTURIsByAddress",
      "outputs": [
        {
          "internalType": "string",
          "name": "",
          "type": "string"
        }
      ],
      "stateMutability": "view",
      "type": "function",
      "constant": true
    },
    {
      "inputs": [
        {
          "internalType": "address",
          "name": "owner",
          "type": "address"
        },
        {
          "internalType": "address",
          "name": "operator",
          "type": "address"
        }
      ],
      "name": "isApprovedForAll",
      "outputs": [
        {
          "internalType": "bool",
          "name": "",
          "type": "bool"
        }
      ],
      "stateMutability": "view",
      "type": "function",
      "constant": true
    },
    {
      "inputs": [],
      "name": "masterStore",
      "outputs": [
        {
          "internalType": "contract NFTStore",
          "name": "",
          "type": "address"
        }
      ],
      "stateMutability": "view",
      "type": "function",
      "constant": true
    },
    {
      "inputs": [],
      "name": "name",
      "outputs": [
        {
          "internalType": "string",
          "name": "",
          "type": "string"
        }
      ],
      "stateMutability": "view",
      "type": "function",
      "constant": true
    },
    {
      "inputs": [
        {
          "internalType": "uint256",
          "name": "tokenId",
          "type": "uint256"
        }
      ],
      "name": "ownerOf",
      "outputs": [
        {
          "internalType": "address",
          "name": "",
          "type": "address"
        }
      ],
      "stateMutability": "view",
      "type": "function",
      "constant": true
    },
    {
      "inputs": [
        {
          "internalType": "address",
          "name": "from",
          "type": "address"
        },
        {
          "internalType": "address",
          "name": "to",
          "type": "address"
        },
        {
          "internalType": "uint256",
          "name": "tokenId",
          "type": "uint256"
        }
      ],
      "name": "safeTransferFrom",
      "outputs": [],
      "stateMutability": "nonpayable",
      "type": "function"
    },
    {
      "inputs": [
        {
          "internalType": "address",
          "name": "from",
          "type": "address"
        },
        {
          "internalType": "address",
          "name": "to",
          "type": "address"
        },
        {
          "internalType": "uint256",
          "name": "tokenId",
          "type": "uint256"
        },
        {
          "internalType": "bytes",
          "name": "_data",
          "type": "bytes"
        }
      ],
      "name": "safeTransferFrom",
      "outputs": [],
      "stateMutability": "nonpayable",
      "type": "function"
    },
    {
      "inputs": [
        {
          "internalType": "address",
          "name": "operator",
          "type": "address"
        },
        {
          "internalType": "bool",
          "name": "approved",
          "type": "bool"
        }
      ],
      "name": "setApprovalForAll",
      "outputs": [],
      "stateMutability": "nonpayable",
      "type": "function"
    },
    {
      "inputs": [
        {
          "internalType": "bytes4",
          "name": "interfaceId",
          "type": "bytes4"
        }
      ],
      "name": "supportsInterface",
      "outputs": [
        {
          "internalType": "bool",
          "name": "",
          "type": "bool"
        }
      ],
      "stateMutability": "view",
      "type": "function",
      "constant": true
    },
    {
      "inputs": [],
      "name": "symbol",
      "outputs": [
        {
          "internalType": "string",
          "name": "",
          "type": "string"
        }
      ],
      "stateMutability": "view",
      "type": "function",
      "constant": true
    },
    {
      "inputs": [
        {
          "internalType": "uint256",
          "name": "tokenId",
          "type": "uint256"
        }
      ],
      "name": "tokenURI",
      "outputs": [
        {
          "internalType": "string",
          "name": "",
          "type": "string"
        }
      ],
      "stateMutability": "view",
      "type": "function",
      "constant": true
    },
    {
      "inputs": [
        {
          "internalType": "address",
          "name": "from",
          "type": "address"
        },
        {
          "internalType": "address",
          "name": "to",
          "type": "address"
        },
        {
          "internalType": "uint256",
          "name": "tokenId",
          "type": "uint256"
        }
      ],
      "name": "transferFrom",
      "outputs": [],
      "stateMutability": "nonpayable",
      "type": "function"
    },
    {
      "inputs": [
        {
          "internalType": "address",
          "name": "_to",
          "type": "address"
        },
        {
          "internalType": "string",
          "name": "_tokenURI",
          "type": "string"
        },
        {
          "internalType": "string",
          "name": "questName",
          "type": "string"
        }
      ],
      "name": "mintToken",
      "outputs": [],
      "stateMutability": "nonpayable",
      "type": "function"
    }
  ],
  "bytecode": "0x60806040523480156200001157600080fd5b5060405162003893380380620038938339818101604052810190620000379190620002f6565b6040518060400160405280601781526020017f436f6d706c65746564446973636f7665727951756573740000000000000000008152506040518060400160405280600381526020017f43445100000000000000000000000000000000000000000000000000000000008152508160009080519060200190620000bb92919062000218565b508060019080519060200190620000d492919062000218565b50505080600660006101000a81548173ffffffffffffffffffffffffffffffffffffffff021916908373ffffffffffffffffffffffffffffffffffffffff1602179055506000600660009054906101000a900473ffffffffffffffffffffffffffffffffffffffff1673ffffffffffffffffffffffffffffffffffffffff1663429b62e5336040518263ffffffff1660e01b815260040162000177919062000392565b60206040518083038186803b1580156200019057600080fd5b505afa158015620001a5573d6000803e3d6000fd5b505050506040513d601f19601f82011682018060405250810190620001cb919062000328565b90508062000210576040517f08c379a00000000000000000000000000000000000000000000000000000000081526004016200020790620003af565b60405180910390fd5b5050620004e9565b828054620002269062000422565b90600052602060002090601f0160209004810192826200024a576000855562000296565b82601f106200026557805160ff191683800117855562000296565b8280016001018555821562000296579182015b828111156200029557825182559160200191906001019062000278565b5b509050620002a59190620002a9565b5090565b5b80821115620002c4576000816000905550600101620002aa565b5090565b600081519050620002d981620004b5565b92915050565b600081519050620002f081620004cf565b92915050565b6000602082840312156200030f576200030e62000487565b5b60006200031f84828501620002c8565b91505092915050565b60006020828403121562000341576200034062000487565b5b60006200035184828501620002df565b91505092915050565b6200036581620003e2565b82525050565b60006200037a601783620003d1565b915062000387826200048c565b602082019050919050565b6000602082019050620003a960008301846200035a565b92915050565b60006020820190508181036000830152620003ca816200036b565b9050919050565b600082825260208201905092915050565b6000620003ef8262000402565b9050919050565b60008115159050919050565b600073ffffffffffffffffffffffffffffffffffffffff82169050919050565b600060028204905060018216806200043b57607f821691505b6020821081141562000452576200045162000458565b5b50919050565b7f4e487b7100000000000000000000000000000000000000000000000000000000600052602260045260246000fd5b600080fd5b7f6465706c6f7965722063616e2774206d616b65204e4654000000000000000000600082015250565b620004c081620003e2565b8114620004cc57600080fd5b50565b620004da81620003f6565b8114620004e657600080fd5b50565b61339a80620004f96000396000f3fe608060405234801561001057600080fd5b506004361061010b5760003560e01c80636352211e116100a2578063a22cb46511610071578063a22cb465146102ce578063b88d4fde146102ea578063c87b56dd14610306578063e985e9c514610336578063fbcf50f3146103665761010b565b80636352211e1461021c57806370a082311461024c5780638bfd589b1461027c57806395d89b41146102b05761010b565b806310243755116100de57806310243755146101aa57806323b872dd146101c85780632e689c3f146101e457806342842e0e146102005761010b565b806301ffc9a71461011057806306fdde0314610140578063081812fc1461015e578063095ea7b31461018e575b600080fd5b61012a600480360381019061012591906122ec565b610396565b60405161013791906127a8565b60405180910390f35b610148610478565b60405161015591906127de565b60405180910390f35b61017860048036038101906101739190612346565b61050a565b60405161018591906126e0565b60405180910390f35b6101a860048036038101906101a3919061227f565b61058f565b005b6101b26106a7565b6040516101bf91906127c3565b60405180910390f35b6101e260048036038101906101dd9190612082565b6106cd565b005b6101fe60048036038101906101f991906121f4565b61072d565b005b61021a60048036038101906102159190612082565b610c5f565b005b61023660048036038101906102319190612346565b610c7f565b60405161024391906126e0565b60405180910390f35b61026660048036038101906102619190612015565b610d31565b6040516102739190612a20565b60405180910390f35b61029660048036038101906102919190612198565b610de9565b6040516102a7959493929190612747565b60405180910390f35b6102b8610f7f565b6040516102c591906127de565b60405180910390f35b6102e860048036038101906102e39190612158565b611011565b005b61030460048036038101906102ff91906120d5565b611192565b005b610320600480360381019061031b9190612346565b6111f4565b60405161032d91906127de565b60405180910390f35b610350600480360381019061034b9190612042565b61129b565b60405161035d91906127a8565b60405180910390f35b610380600480360381019061037b9190612198565b61132f565b60405161038d91906127de565b60405180910390f35b60007f80ac58cd000000000000000000000000000000000000000000000000000000007bffffffffffffffffffffffffffffffffffffffffffffffffffffffff1916827bffffffffffffffffffffffffffffffffffffffffffffffffffffffff1916148061046157507f5b5e139f000000000000000000000000000000000000000000000000000000007bffffffffffffffffffffffffffffffffffffffffffffffffffffffff1916827bffffffffffffffffffffffffffffffffffffffffffffffffffffffff1916145b806104715750610470826113f2565b5b9050919050565b60606000805461048790612c9a565b80601f01602080910402602001604051908101604052809291908181526020018280546104b390612c9a565b80156105005780601f106104d557610100808354040283529160200191610500565b820191906000526020600020905b8154815290600101906020018083116104e357829003601f168201915b5050505050905090565b60006105158261145c565b610554576040517f08c379a000000000000000000000000000000000000000000000000000000000815260040161054b90612960565b60405180910390fd5b6004600083815260200190815260200160002060009054906101000a900473ffffffffffffffffffffffffffffffffffffffff169050919050565b600061059a82610c7f565b90508073ffffffffffffffffffffffffffffffffffffffff168373ffffffffffffffffffffffffffffffffffffffff16141561060b576040517f08c379a0000000000000000000000000000000000000000000000000000000008152600401610602906129e0565b60405180910390fd5b8073ffffffffffffffffffffffffffffffffffffffff1661062a6114c8565b73ffffffffffffffffffffffffffffffffffffffff1614806106595750610658816106536114c8565b61129b565b5b610698576040517f08c379a000000000000000000000000000000000000000000000000000000000815260040161068f906128e0565b60405180910390fd5b6106a283836114d0565b505050565b600660009054906101000a900473ffffffffffffffffffffffffffffffffffffffff1681565b6106de6106d86114c8565b82611589565b61071d576040517f08c379a000000000000000000000000000000000000000000000000000000000815260040161071490612a00565b60405180910390fd5b610728838383611667565b505050565b600660009054906101000a900473ffffffffffffffffffffffffffffffffffffffff1673ffffffffffffffffffffffffffffffffffffffff1663372c12b1846040518263ffffffff1660e01b815260040161078891906126e0565b60206040518083038186803b1580156107a057600080fd5b505afa1580156107b4573d6000803e3d6000fd5b505050506040513d601f19601f820116820180604052508101906107d891906122bf565b610817576040517f08c379a000000000000000000000000000000000000000000000000000000000815260040161080e906128c0565b60405180910390fd5b600660009054906101000a900473ffffffffffffffffffffffffffffffffffffffff1673ffffffffffffffffffffffffffffffffffffffff1663a852a581826040518263ffffffff1660e01b815260040161087291906127de565b60206040518083038186803b15801561088a57600080fd5b505afa15801561089e573d6000803e3d6000fd5b505050506040513d601f19601f820116820180604052508101906108c291906122bf565b610901576040517f08c379a00000000000000000000000000000000000000000000000000000000081526004016108f890612800565b60405180910390fd5b60088160405161091191906126a5565b908152602001604051809103902060008473ffffffffffffffffffffffffffffffffffffffff1673ffffffffffffffffffffffffffffffffffffffff16815260200190815260200160002060009054906101000a900460ff16156109aa576040517f08c379a00000000000000000000000000000000000000000000000000000000081526004016109a190612980565b60405180910390fd5b600760008154809291906109bd90612cfd565b91905055506109ce836007546118c3565b60016008826040516109e091906126a5565b908152602001604051809103902060008573ffffffffffffffffffffffffffffffffffffffff1673ffffffffffffffffffffffffffffffffffffffff16815260200190815260200160002060006101000a81548160ff02191690831515021790555081600960008573ffffffffffffffffffffffffffffffffffffffff1673ffffffffffffffffffffffffffffffffffffffff16815260200190815260200160002082604051610a9091906126a5565b90815260200160405180910390209080519060200190610ab1929190611e14565b5060006040518060a001604052808573ffffffffffffffffffffffffffffffffffffffff16815260200183815260200184815260200142815260200160011515815250905080600a60008673ffffffffffffffffffffffffffffffffffffffff1673ffffffffffffffffffffffffffffffffffffffff16815260200190815260200160002083604051610b4491906126a5565b908152602001604051809103902060008201518160000160006101000a81548173ffffffffffffffffffffffffffffffffffffffff021916908373ffffffffffffffffffffffffffffffffffffffff1602179055506020820151816001019080519060200190610bb5929190611e14565b506040820151816002019080519060200190610bd2929190611e14565b506060820151816003015560808201518160040160006101000a81548160ff02191690831515021790555090505082604051610c0e91906126a5565b60405180910390208473ffffffffffffffffffffffffffffffffffffffff167f371f376692dd846fa34380a8fd44c6a140dc5cd442cd8ae5657963685f17ebed60405160405180910390a350505050565b610c7a83838360405180602001604052806000815250611192565b505050565b6000806002600084815260200190815260200160002060009054906101000a900473ffffffffffffffffffffffffffffffffffffffff169050600073ffffffffffffffffffffffffffffffffffffffff168173ffffffffffffffffffffffffffffffffffffffff161415610d28576040517f08c379a0000000000000000000000000000000000000000000000000000000008152600401610d1f90612920565b60405180910390fd5b80915050919050565b60008073ffffffffffffffffffffffffffffffffffffffff168273ffffffffffffffffffffffffffffffffffffffff161415610da2576040517f08c379a0000000000000000000000000000000000000000000000000000000008152600401610d9990612900565b60405180910390fd5b600360008373ffffffffffffffffffffffffffffffffffffffff1673ffffffffffffffffffffffffffffffffffffffff168152602001908152602001600020549050919050565b600a60205281600052604060002081805160208101820180518482526020830160208501208183528095505050505050600091509150508060000160009054906101000a900473ffffffffffffffffffffffffffffffffffffffff1690806001018054610e5590612c9a565b80601f0160208091040260200160405190810160405280929190818152602001828054610e8190612c9a565b8015610ece5780601f10610ea357610100808354040283529160200191610ece565b820191906000526020600020905b815481529060010190602001808311610eb157829003601f168201915b505050505090806002018054610ee390612c9a565b80601f0160208091040260200160405190810160405280929190818152602001828054610f0f90612c9a565b8015610f5c5780601f10610f3157610100808354040283529160200191610f5c565b820191906000526020600020905b815481529060010190602001808311610f3f57829003601f168201915b5050505050908060030154908060040160009054906101000a900460ff16905085565b606060018054610f8e90612c9a565b80601f0160208091040260200160405190810160405280929190818152602001828054610fba90612c9a565b80156110075780601f10610fdc57610100808354040283529160200191611007565b820191906000526020600020905b815481529060010190602001808311610fea57829003601f168201915b5050505050905090565b6110196114c8565b73ffffffffffffffffffffffffffffffffffffffff168273ffffffffffffffffffffffffffffffffffffffff161415611087576040517f08c379a000000000000000000000000000000000000000000000000000000000815260040161107e90612880565b60405180910390fd5b80600560006110946114c8565b73ffffffffffffffffffffffffffffffffffffffff1673ffffffffffffffffffffffffffffffffffffffff16815260200190815260200160002060008473ffffffffffffffffffffffffffffffffffffffff1673ffffffffffffffffffffffffffffffffffffffff16815260200190815260200160002060006101000a81548160ff0219169083151502179055508173ffffffffffffffffffffffffffffffffffffffff166111416114c8565b73ffffffffffffffffffffffffffffffffffffffff167f17307eab39ab6107e8899845ad3d59bd9653f200f220920489ca2b5937696c318360405161118691906127a8565b60405180910390a35050565b6111a361119d6114c8565b83611589565b6111e2576040517f08c379a00000000000000000000000000000000000000000000000000000000081526004016111d990612a00565b60405180910390fd5b6111ee84848484611a91565b50505050565b60606111ff8261145c565b61123e576040517f08c379a0000000000000000000000000000000000000000000000000000000008152600401611235906129c0565b60405180910390fd5b6000611248611aed565b905060008151116112685760405180602001604052806000815250611293565b8061127284611b04565b6040516020016112839291906126bc565b6040516020818303038152906040525b915050919050565b6000600560008473ffffffffffffffffffffffffffffffffffffffff1673ffffffffffffffffffffffffffffffffffffffff16815260200190815260200160002060008373ffffffffffffffffffffffffffffffffffffffff1673ffffffffffffffffffffffffffffffffffffffff16815260200190815260200160002060009054906101000a900460ff16905092915050565b60096020528160005260406000208180516020810182018051848252602083016020850120818352809550505050505060009150915050805461137190612c9a565b80601f016020809104026020016040519081016040528092919081815260200182805461139d90612c9a565b80156113ea5780601f106113bf576101008083540402835291602001916113ea565b820191906000526020600020905b8154815290600101906020018083116113cd57829003601f168201915b505050505081565b60007f01ffc9a7000000000000000000000000000000000000000000000000000000007bffffffffffffffffffffffffffffffffffffffffffffffffffffffff1916827bffffffffffffffffffffffffffffffffffffffffffffffffffffffff1916149050919050565b60008073ffffffffffffffffffffffffffffffffffffffff166002600084815260200190815260200160002060009054906101000a900473ffffffffffffffffffffffffffffffffffffffff1673ffffffffffffffffffffffffffffffffffffffff1614159050919050565b600033905090565b816004600083815260200190815260200160002060006101000a81548173ffffffffffffffffffffffffffffffffffffffff021916908373ffffffffffffffffffffffffffffffffffffffff160217905550808273ffffffffffffffffffffffffffffffffffffffff1661154383610c7f565b73ffffffffffffffffffffffffffffffffffffffff167f8c5be1e5ebec7d5bd14f71427d1e84f3dd0314c0f7b2291e5b200ac8c7c3b92560405160405180910390a45050565b60006115948261145c565b6115d3576040517f08c379a00000000000000000000000000000000000000000000000000000000081526004016115ca906128a0565b60405180910390fd5b60006115de83610c7f565b90508073ffffffffffffffffffffffffffffffffffffffff168473ffffffffffffffffffffffffffffffffffffffff16148061164d57508373ffffffffffffffffffffffffffffffffffffffff166116358461050a565b73ffffffffffffffffffffffffffffffffffffffff16145b8061165e575061165d818561129b565b5b91505092915050565b8273ffffffffffffffffffffffffffffffffffffffff1661168782610c7f565b73ffffffffffffffffffffffffffffffffffffffff16146116dd576040517f08c379a00000000000000000000000000000000000000000000000000000000081526004016116d4906129a0565b60405180910390fd5b600073ffffffffffffffffffffffffffffffffffffffff168273ffffffffffffffffffffffffffffffffffffffff16141561174d576040517f08c379a000000000000000000000000000000000000000000000000000000000815260040161174490612860565b60405180910390fd5b611758838383611c65565b6117636000826114d0565b6001600360008573ffffffffffffffffffffffffffffffffffffffff1673ffffffffffffffffffffffffffffffffffffffff16815260200190815260200160002060008282546117b39190612b8c565b925050819055506001600360008473ffffffffffffffffffffffffffffffffffffffff1673ffffffffffffffffffffffffffffffffffffffff168152602001908152602001600020600082825461180a9190612b05565b92505081905550816002600083815260200190815260200160002060006101000a81548173ffffffffffffffffffffffffffffffffffffffff021916908373ffffffffffffffffffffffffffffffffffffffff160217905550808273ffffffffffffffffffffffffffffffffffffffff168473ffffffffffffffffffffffffffffffffffffffff167fddf252ad1be2c89b69c2b068fc378daa952ba7f163c4a11628f55a4df523b3ef60405160405180910390a4505050565b600073ffffffffffffffffffffffffffffffffffffffff168273ffffffffffffffffffffffffffffffffffffffff161415611933576040517f08c379a000000000000000000000000000000000000000000000000000000000815260040161192a90612940565b60405180910390fd5b61193c8161145c565b1561197c576040517f08c379a000000000000000000000000000000000000000000000000000000000815260040161197390612840565b60405180910390fd5b61198860008383611c65565b6001600360008473ffffffffffffffffffffffffffffffffffffffff1673ffffffffffffffffffffffffffffffffffffffff16815260200190815260200160002060008282546119d89190612b05565b92505081905550816002600083815260200190815260200160002060006101000a81548173ffffffffffffffffffffffffffffffffffffffff021916908373ffffffffffffffffffffffffffffffffffffffff160217905550808273ffffffffffffffffffffffffffffffffffffffff16600073ffffffffffffffffffffffffffffffffffffffff167fddf252ad1be2c89b69c2b068fc378daa952ba7f163c4a11628f55a4df523b3ef60405160405180910390a45050565b611a9c848484611667565b611aa884848484611c6a565b611ae7576040517f08c379a0000000000000000000000000000000000000000000000000000000008152600401611ade90612820565b60405180910390fd5b50505050565b606060405180602001604052806000815250905090565b60606000821415611b4c576040518060400160405280600181526020017f30000000000000000000000000000000000000000000000000000000000000008152509050611c60565b600082905060005b60008214611b7e578080611b6790612cfd565b915050600a82611b779190612b5b565b9150611b54565b60008167ffffffffffffffff811115611b9a57611b99612e33565b5b6040519080825280601f01601f191660200182016040528015611bcc5781602001600182028036833780820191505090505b5090505b60008514611c5957600182611be59190612b8c565b9150600a85611bf49190612d46565b6030611c009190612b05565b60f81b818381518110611c1657611c15612e04565b5b60200101907effffffffffffffffffffffffffffffffffffffffffffffffffffffffffffff1916908160001a905350600a85611c529190612b5b565b9450611bd0565b8093505050505b919050565b505050565b6000611c8b8473ffffffffffffffffffffffffffffffffffffffff16611e01565b15611df4578373ffffffffffffffffffffffffffffffffffffffff1663150b7a02611cb46114c8565b8786866040518563ffffffff1660e01b8152600401611cd694939291906126fb565b602060405180830381600087803b158015611cf057600080fd5b505af1925050508015611d2157506040513d601f19601f82011682018060405250810190611d1e9190612319565b60015b611da4573d8060008114611d51576040519150601f19603f3d011682016040523d82523d6000602084013e611d56565b606091505b50600081511415611d9c576040517f08c379a0000000000000000000000000000000000000000000000000000000008152600401611d9390612820565b60405180910390fd5b805181602001fd5b63150b7a0260e01b7bffffffffffffffffffffffffffffffffffffffffffffffffffffffff1916817bffffffffffffffffffffffffffffffffffffffffffffffffffffffff191614915050611df9565b600190505b949350505050565b600080823b905060008111915050919050565b828054611e2090612c9a565b90600052602060002090601f016020900481019282611e425760008555611e89565b82601f10611e5b57805160ff1916838001178555611e89565b82800160010185558215611e89579182015b82811115611e88578251825591602001919060010190611e6d565b5b509050611e969190611e9a565b5090565b5b80821115611eb3576000816000905550600101611e9b565b5090565b6000611eca611ec584612a60565b612a3b565b905082815260208101848484011115611ee657611ee5612e67565b5b611ef1848285612c58565b509392505050565b6000611f0c611f0784612a91565b612a3b565b905082815260208101848484011115611f2857611f27612e67565b5b611f33848285612c58565b509392505050565b600081359050611f4a81613308565b92915050565b600081359050611f5f8161331f565b92915050565b600081519050611f748161331f565b92915050565b600081359050611f8981613336565b92915050565b600081519050611f9e81613336565b92915050565b600082601f830112611fb957611fb8612e62565b5b8135611fc9848260208601611eb7565b91505092915050565b600082601f830112611fe757611fe6612e62565b5b8135611ff7848260208601611ef9565b91505092915050565b60008135905061200f8161334d565b92915050565b60006020828403121561202b5761202a612e71565b5b600061203984828501611f3b565b91505092915050565b6000806040838503121561205957612058612e71565b5b600061206785828601611f3b565b925050602061207885828601611f3b565b9150509250929050565b60008060006060848603121561209b5761209a612e71565b5b60006120a986828701611f3b565b93505060206120ba86828701611f3b565b92505060406120cb86828701612000565b9150509250925092565b600080600080608085870312156120ef576120ee612e71565b5b60006120fd87828801611f3b565b945050602061210e87828801611f3b565b935050604061211f87828801612000565b925050606085013567ffffffffffffffff8111156121405761213f612e6c565b5b61214c87828801611fa4565b91505092959194509250565b6000806040838503121561216f5761216e612e71565b5b600061217d85828601611f3b565b925050602061218e85828601611f50565b9150509250929050565b600080604083850312156121af576121ae612e71565b5b60006121bd85828601611f3b565b925050602083013567ffffffffffffffff8111156121de576121dd612e6c565b5b6121ea85828601611fd2565b9150509250929050565b60008060006060848603121561220d5761220c612e71565b5b600061221b86828701611f3b565b935050602084013567ffffffffffffffff81111561223c5761223b612e6c565b5b61224886828701611fd2565b925050604084013567ffffffffffffffff81111561226957612268612e6c565b5b61227586828701611fd2565b9150509250925092565b6000806040838503121561229657612295612e71565b5b60006122a485828601611f3b565b92505060206122b585828601612000565b9150509250929050565b6000602082840312156122d5576122d4612e71565b5b60006122e384828501611f65565b91505092915050565b60006020828403121561230257612301612e71565b5b600061231084828501611f7a565b91505092915050565b60006020828403121561232f5761232e612e71565b5b600061233d84828501611f8f565b91505092915050565b60006020828403121561235c5761235b612e71565b5b600061236a84828501612000565b91505092915050565b61237c81612bc0565b82525050565b61238b81612bd2565b82525050565b600061239c82612ac2565b6123a68185612ad8565b93506123b6818560208601612c67565b6123bf81612e76565b840191505092915050565b6123d381612c34565b82525050565b60006123e482612acd565b6123ee8185612ae9565b93506123fe818560208601612c67565b61240781612e76565b840191505092915050565b600061241d82612acd565b6124278185612afa565b9350612437818560208601612c67565b80840191505092915050565b6000612450601783612ae9565b915061245b82612e87565b602082019050919050565b6000612473603283612ae9565b915061247e82612eb0565b604082019050919050565b6000612496601c83612ae9565b91506124a182612eff565b602082019050919050565b60006124b9602483612ae9565b91506124c482612f28565b604082019050919050565b60006124dc601983612ae9565b91506124e782612f77565b602082019050919050565b60006124ff602c83612ae9565b915061250a82612fa0565b604082019050919050565b6000612522601a83612ae9565b915061252d82612fef565b602082019050919050565b6000612545603883612ae9565b915061255082613018565b604082019050919050565b6000612568602a83612ae9565b915061257382613067565b604082019050919050565b600061258b602983612ae9565b9150612596826130b6565b604082019050919050565b60006125ae602083612ae9565b91506125b982613105565b602082019050919050565b60006125d1602c83612ae9565b91506125dc8261312e565b604082019050919050565b60006125f4602f83612ae9565b91506125ff8261317d565b604082019050919050565b6000612617602983612ae9565b9150612622826131cc565b604082019050919050565b600061263a602f83612ae9565b91506126458261321b565b604082019050919050565b600061265d602183612ae9565b91506126688261326a565b604082019050919050565b6000612680603183612ae9565b915061268b826132b9565b604082019050919050565b61269f81612c2a565b82525050565b60006126b18284612412565b915081905092915050565b60006126c88285612412565b91506126d48284612412565b91508190509392505050565b60006020820190506126f56000830184612373565b92915050565b60006080820190506127106000830187612373565b61271d6020830186612373565b61272a6040830185612696565b818103606083015261273c8184612391565b905095945050505050565b600060a08201905061275c6000830188612373565b818103602083015261276e81876123d9565b9050818103604083015261278281866123d9565b90506127916060830185612696565b61279e6080830184612382565b9695505050505050565b60006020820190506127bd6000830184612382565b92915050565b60006020820190506127d860008301846123ca565b92915050565b600060208201905081810360008301526127f881846123d9565b905092915050565b6000602082019050818103600083015261281981612443565b9050919050565b6000602082019050818103600083015261283981612466565b9050919050565b6000602082019050818103600083015261285981612489565b9050919050565b60006020820190508181036000830152612879816124ac565b9050919050565b60006020820190508181036000830152612899816124cf565b9050919050565b600060208201905081810360008301526128b9816124f2565b9050919050565b600060208201905081810360008301526128d981612515565b9050919050565b600060208201905081810360008301526128f981612538565b9050919050565b600060208201905081810360008301526129198161255b565b9050919050565b600060208201905081810360008301526129398161257e565b9050919050565b60006020820190508181036000830152612959816125a1565b9050919050565b60006020820190508181036000830152612979816125c4565b9050919050565b60006020820190508181036000830152612999816125e7565b9050919050565b600060208201905081810360008301526129b98161260a565b9050919050565b600060208201905081810360008301526129d98161262d565b9050919050565b600060208201905081810360008301526129f981612650565b9050919050565b60006020820190508181036000830152612a1981612673565b9050919050565b6000602082019050612a356000830184612696565b92915050565b6000612a45612a56565b9050612a518282612ccc565b919050565b6000604051905090565b600067ffffffffffffffff821115612a7b57612a7a612e33565b5b612a8482612e76565b9050602081019050919050565b600067ffffffffffffffff821115612aac57612aab612e33565b5b612ab582612e76565b9050602081019050919050565b600081519050919050565b600081519050919050565b600082825260208201905092915050565b600082825260208201905092915050565b600081905092915050565b6000612b1082612c2a565b9150612b1b83612c2a565b9250827fffffffffffffffffffffffffffffffffffffffffffffffffffffffffffffffff03821115612b5057612b4f612d77565b5b828201905092915050565b6000612b6682612c2a565b9150612b7183612c2a565b925082612b8157612b80612da6565b5b828204905092915050565b6000612b9782612c2a565b9150612ba283612c2a565b925082821015612bb557612bb4612d77565b5b828203905092915050565b6000612bcb82612c0a565b9050919050565b60008115159050919050565b60007fffffffff0000000000000000000000000000000000000000000000000000000082169050919050565b600073ffffffffffffffffffffffffffffffffffffffff82169050919050565b6000819050919050565b6000612c3f82612c46565b9050919050565b6000612c5182612c0a565b9050919050565b82818337600083830152505050565b60005b83811015612c85578082015181840152602081019050612c6a565b83811115612c94576000848401525b50505050565b60006002820490506001821680612cb257607f821691505b60208210811415612cc657612cc5612dd5565b5b50919050565b612cd582612e76565b810181811067ffffffffffffffff82111715612cf457612cf3612e33565b5b80604052505050565b6000612d0882612c2a565b91507fffffffffffffffffffffffffffffffffffffffffffffffffffffffffffffffff821415612d3b57612d3a612d77565b5b600182019050919050565b6000612d5182612c2a565b9150612d5c83612c2a565b925082612d6c57612d6b612da6565b5b828206905092915050565b7f4e487b7100000000000000000000000000000000000000000000000000000000600052601160045260246000fd5b7f4e487b7100000000000000000000000000000000000000000000000000000000600052601260045260246000fd5b7f4e487b7100000000000000000000000000000000000000000000000000000000600052602260045260246000fd5b7f4e487b7100000000000000000000000000000000000000000000000000000000600052603260045260246000fd5b7f4e487b7100000000000000000000000000000000000000000000000000000000600052604160045260246000fd5b600080fd5b600080fd5b600080fd5b600080fd5b6000601f19601f8301169050919050565b7f74686973207175657374206973206e6f742076616c6964000000000000000000600082015250565b7f4552433732313a207472616e7366657220746f206e6f6e20455243373231526560008201527f63656976657220696d706c656d656e7465720000000000000000000000000000602082015250565b7f4552433732313a20746f6b656e20616c7265616479206d696e74656400000000600082015250565b7f4552433732313a207472616e7366657220746f20746865207a65726f2061646460008201527f7265737300000000000000000000000000000000000000000000000000000000602082015250565b7f4552433732313a20617070726f766520746f2063616c6c657200000000000000600082015250565b7f4552433732313a206f70657261746f7220717565727920666f72206e6f6e657860008201527f697374656e7420746f6b656e0000000000000000000000000000000000000000602082015250565b7f61646472657373206973206e6f74207265676973746572656421000000000000600082015250565b7f4552433732313a20617070726f76652063616c6c6572206973206e6f74206f7760008201527f6e6572206e6f7220617070726f76656420666f7220616c6c0000000000000000602082015250565b7f4552433732313a2062616c616e636520717565727920666f7220746865207a6560008201527f726f206164647265737300000000000000000000000000000000000000000000602082015250565b7f4552433732313a206f776e657220717565727920666f72206e6f6e657869737460008201527f656e7420746f6b656e0000000000000000000000000000000000000000000000602082015250565b7f4552433732313a206d696e7420746f20746865207a65726f2061646472657373600082015250565b7f4552433732313a20617070726f76656420717565727920666f72206e6f6e657860008201527f697374656e7420746f6b656e0000000000000000000000000000000000000000602082015250565b7f74686973206164647265737320616c72656164792068617320616e204e46542060008201527f666f722074686973207175657374210000000000000000000000000000000000602082015250565b7f4552433732313a207472616e73666572206f6620746f6b656e2074686174206960008201527f73206e6f74206f776e0000000000000000000000000000000000000000000000602082015250565b7f4552433732314d657461646174613a2055524920717565727920666f72206e6f60008201527f6e6578697374656e7420746f6b656e0000000000000000000000000000000000602082015250565b7f4552433732313a20617070726f76616c20746f2063757272656e74206f776e6560008201527f7200000000000000000000000000000000000000000000000000000000000000602082015250565b7f4552433732313a207472616e736665722063616c6c6572206973206e6f74206f60008201527f776e6572206e6f7220617070726f766564000000000000000000000000000000602082015250565b61331181612bc0565b811461331c57600080fd5b50565b61332881612bd2565b811461333357600080fd5b50565b61333f81612bde565b811461334a57600080fd5b50565b61335681612c2a565b811461336157600080fd5b5056fea2646970667358221220d999626fe3f45e498be2c194027bc5bb304c6d3bfe1dcf5531834e3a4084187164736f6c63430008060033",
  "immutableReferences": {},
  "source": "pragma solidity >=0.5.0 <0.9.0;\n\n/**\n * @title QuestCompleteNFT\n * @dev NFTs for completing course content on Discovery\n*/\n\nimport \"@openzeppelin/contracts/token/ERC721/ERC721.sol\";\nimport \"./NFTStore.sol\";\n\ncontract QuestCompleteNFT is ERC721{\n\n    NFTStore public masterStore;\n    uint tokenID;\n    mapping (string => mapping (address => bool)) NFTExists; // check if NFT already minted for this quest for this address/DID\n    mapping (address => mapping (string => string)) public getNFTURIsByAddress; //allows retrieval of URIs by address and quest\n    mapping (address => mapping(string => Quest)) public Quests; //allows retrieval of Quest metadata in one struct. Can remove once NFT.storage is used\n\n    struct Quest {\n        address receiver;\n        string quest;\n        string URI;\n        uint timestamp;\n        bool exists;\n    }\n\n\n    event NFTMinted(address indexed _to, string indexed _tokenURI);\n\n    constructor(address _masterStoreAddress) ERC721(\"CompletedDiscoveryQuest\", \"CDQ\") public{\n        masterStore = NFTStore(_masterStoreAddress);\n        bool adminCheck = masterStore.admins(msg.sender);\n        require(adminCheck, \"deployer can't make NFT\");\n    }\n\n    function mintToken(address _to , string memory _tokenURI, string memory questName) public {\n        //access control logic?\n        require(masterStore.whiteList(_to), \"address is not registered!\");\n        require(masterStore.approvedQuests(questName), \"this quest is not valid\");\n        require(!NFTExists[questName][_to], \"this address already has an NFT for this quest!\");\n        tokenID++;\n        _mint(_to, tokenID);\n        NFTExists[questName][_to] = true;\n        getNFTURIsByAddress[_to][questName] = _tokenURI;\n        Quest memory quest_to_add = Quest({\n            receiver : _to,\n            quest : questName,\n            URI : _tokenURI,\n            timestamp : block.timestamp,\n            exists : true\n        });\n        Quests[_to][questName]= quest_to_add;\n        emit NFTMinted(_to, _tokenURI);\n    }\n\n\n}",
  "sourcePath": "/home/jpick713/BlockChain_Apps/nftIPFS/contracts/QuestCompleteNFT.sol",
  "compiler": {
    "name": "solc",
    "version": "0.8.6+commit.11564f7e.Emscripten.clang"
  },
  "schemaVersion": "3.4.2",
  "updatedAt": "2021-08-04T02:28:49.361Z",
  "networkType": "ethereum",
  "devdoc": {
    "kind": "dev",
    "methods": {
      "approve(address,uint256)": {
        "details": "See {IERC721-approve}."
      },
      "balanceOf(address)": {
        "details": "See {IERC721-balanceOf}."
      },
      "getApproved(uint256)": {
        "details": "See {IERC721-getApproved}."
      },
      "isApprovedForAll(address,address)": {
        "details": "See {IERC721-isApprovedForAll}."
      },
      "name()": {
        "details": "See {IERC721Metadata-name}."
      },
      "ownerOf(uint256)": {
        "details": "See {IERC721-ownerOf}."
      },
      "safeTransferFrom(address,address,uint256)": {
        "details": "See {IERC721-safeTransferFrom}."
      },
      "safeTransferFrom(address,address,uint256,bytes)": {
        "details": "See {IERC721-safeTransferFrom}."
      },
      "setApprovalForAll(address,bool)": {
        "details": "See {IERC721-setApprovalForAll}."
      },
      "supportsInterface(bytes4)": {
        "details": "See {IERC165-supportsInterface}."
      },
      "symbol()": {
        "details": "See {IERC721Metadata-symbol}."
      },
      "tokenURI(uint256)": {
        "details": "See {IERC721Metadata-tokenURI}."
      },
      "transferFrom(address,address,uint256)": {
        "details": "See {IERC721-transferFrom}."
      }
    },
    "version": 1
  },
  "userdoc": {
    "kind": "user",
    "methods": {},
    "version": 1
  }
}