{
  "contractName": "QuestCompleteNFT",
  "abi": [
    {
      "inputs": [
        {
          "internalType": "address",
          "name": "_masterStoreAddress",
          "type": "address"
        }
      ],
      "stateMutability": "nonpayable",
      "type": "constructor"
    },
    {
      "anonymous": false,
      "inputs": [
        {
          "indexed": true,
          "internalType": "address",
          "name": "owner",
          "type": "address"
        },
        {
          "indexed": true,
          "internalType": "address",
          "name": "approved",
          "type": "address"
        },
        {
          "indexed": true,
          "internalType": "uint256",
          "name": "tokenId",
          "type": "uint256"
        }
      ],
      "name": "Approval",
      "type": "event"
    },
    {
      "anonymous": false,
      "inputs": [
        {
          "indexed": true,
          "internalType": "address",
          "name": "owner",
          "type": "address"
        },
        {
          "indexed": true,
          "internalType": "address",
          "name": "operator",
          "type": "address"
        },
        {
          "indexed": false,
          "internalType": "bool",
          "name": "approved",
          "type": "bool"
        }
      ],
      "name": "ApprovalForAll",
      "type": "event"
    },
    {
      "anonymous": false,
      "inputs": [
        {
          "indexed": true,
          "internalType": "address",
          "name": "_to",
          "type": "address"
        },
        {
          "indexed": true,
          "internalType": "string",
          "name": "_tokenURI",
          "type": "string"
        }
      ],
      "name": "NFTMinted",
      "type": "event"
    },
    {
      "anonymous": false,
      "inputs": [
        {
          "indexed": true,
          "internalType": "address",
          "name": "from",
          "type": "address"
        },
        {
          "indexed": true,
          "internalType": "address",
          "name": "to",
          "type": "address"
        },
        {
          "indexed": true,
          "internalType": "uint256",
          "name": "tokenId",
          "type": "uint256"
        }
      ],
      "name": "Transfer",
      "type": "event"
    },
    {
      "inputs": [
        {
          "internalType": "address",
          "name": "to",
          "type": "address"
        },
        {
          "internalType": "uint256",
          "name": "tokenId",
          "type": "uint256"
        }
      ],
      "name": "approve",
      "outputs": [],
      "stateMutability": "nonpayable",
      "type": "function"
    },
    {
      "inputs": [
        {
          "internalType": "address",
          "name": "owner",
          "type": "address"
        }
      ],
      "name": "balanceOf",
      "outputs": [
        {
          "internalType": "uint256",
          "name": "",
          "type": "uint256"
        }
      ],
      "stateMutability": "view",
      "type": "function",
      "constant": true
    },
    {
      "inputs": [
        {
          "internalType": "uint256",
          "name": "tokenId",
          "type": "uint256"
        }
      ],
      "name": "getApproved",
      "outputs": [
        {
          "internalType": "address",
          "name": "",
          "type": "address"
        }
      ],
      "stateMutability": "view",
      "type": "function",
      "constant": true
    },
    {
      "inputs": [
        {
          "internalType": "address",
          "name": "",
          "type": "address"
        },
        {
          "internalType": "string",
          "name": "",
          "type": "string"
        }
      ],
      "name": "getNFTURIsByAddress",
      "outputs": [
        {
          "internalType": "string",
          "name": "",
          "type": "string"
        }
      ],
      "stateMutability": "view",
      "type": "function",
      "constant": true
    },
    {
      "inputs": [
        {
          "internalType": "address",
          "name": "owner",
          "type": "address"
        },
        {
          "internalType": "address",
          "name": "operator",
          "type": "address"
        }
      ],
      "name": "isApprovedForAll",
      "outputs": [
        {
          "internalType": "bool",
          "name": "",
          "type": "bool"
        }
      ],
      "stateMutability": "view",
      "type": "function",
      "constant": true
    },
    {
      "inputs": [],
      "name": "masterStore",
      "outputs": [
        {
          "internalType": "contract NFTStore",
          "name": "",
          "type": "address"
        }
      ],
      "stateMutability": "view",
      "type": "function",
      "constant": true
    },
    {
      "inputs": [],
      "name": "name",
      "outputs": [
        {
          "internalType": "string",
          "name": "",
          "type": "string"
        }
      ],
      "stateMutability": "view",
      "type": "function",
      "constant": true
    },
    {
      "inputs": [
        {
          "internalType": "uint256",
          "name": "tokenId",
          "type": "uint256"
        }
      ],
      "name": "ownerOf",
      "outputs": [
        {
          "internalType": "address",
          "name": "",
          "type": "address"
        }
      ],
      "stateMutability": "view",
      "type": "function",
      "constant": true
    },
    {
      "inputs": [
        {
          "internalType": "address",
          "name": "from",
          "type": "address"
        },
        {
          "internalType": "address",
          "name": "to",
          "type": "address"
        },
        {
          "internalType": "uint256",
          "name": "tokenId",
          "type": "uint256"
        }
      ],
      "name": "safeTransferFrom",
      "outputs": [],
      "stateMutability": "nonpayable",
      "type": "function"
    },
    {
      "inputs": [
        {
          "internalType": "address",
          "name": "from",
          "type": "address"
        },
        {
          "internalType": "address",
          "name": "to",
          "type": "address"
        },
        {
          "internalType": "uint256",
          "name": "tokenId",
          "type": "uint256"
        },
        {
          "internalType": "bytes",
          "name": "_data",
          "type": "bytes"
        }
      ],
      "name": "safeTransferFrom",
      "outputs": [],
      "stateMutability": "nonpayable",
      "type": "function"
    },
    {
      "inputs": [
        {
          "internalType": "address",
          "name": "operator",
          "type": "address"
        },
        {
          "internalType": "bool",
          "name": "approved",
          "type": "bool"
        }
      ],
      "name": "setApprovalForAll",
      "outputs": [],
      "stateMutability": "nonpayable",
      "type": "function"
    },
    {
      "inputs": [
        {
          "internalType": "bytes4",
          "name": "interfaceId",
          "type": "bytes4"
        }
      ],
      "name": "supportsInterface",
      "outputs": [
        {
          "internalType": "bool",
          "name": "",
          "type": "bool"
        }
      ],
      "stateMutability": "view",
      "type": "function",
      "constant": true
    },
    {
      "inputs": [],
      "name": "symbol",
      "outputs": [
        {
          "internalType": "string",
          "name": "",
          "type": "string"
        }
      ],
      "stateMutability": "view",
      "type": "function",
      "constant": true
    },
    {
      "inputs": [
        {
          "internalType": "uint256",
          "name": "tokenId",
          "type": "uint256"
        }
      ],
      "name": "tokenURI",
      "outputs": [
        {
          "internalType": "string",
          "name": "",
          "type": "string"
        }
      ],
      "stateMutability": "view",
      "type": "function",
      "constant": true
    },
    {
      "inputs": [
        {
          "internalType": "address",
          "name": "from",
          "type": "address"
        },
        {
          "internalType": "address",
          "name": "to",
          "type": "address"
        },
        {
          "internalType": "uint256",
          "name": "tokenId",
          "type": "uint256"
        }
      ],
      "name": "transferFrom",
      "outputs": [],
      "stateMutability": "nonpayable",
      "type": "function"
    },
    {
      "inputs": [
        {
          "internalType": "address",
          "name": "_to",
          "type": "address"
        },
        {
          "internalType": "string",
          "name": "_tokenURI",
          "type": "string"
        },
        {
          "internalType": "string",
          "name": "questType",
          "type": "string"
        }
      ],
      "name": "mintToken",
      "outputs": [],
      "stateMutability": "nonpayable",
      "type": "function"
    }
  ],
  "bytecode": "0x60806040523480156200001157600080fd5b5060405162003123380380620031238339818101604052810190620000379190620002f6565b6040518060400160405280601781526020017f436f6d706c65746564446973636f7665727951756573740000000000000000008152506040518060400160405280600381526020017f43445100000000000000000000000000000000000000000000000000000000008152508160009080519060200190620000bb92919062000218565b508060019080519060200190620000d492919062000218565b50505080600660006101000a81548173ffffffffffffffffffffffffffffffffffffffff021916908373ffffffffffffffffffffffffffffffffffffffff1602179055506000600660009054906101000a900473ffffffffffffffffffffffffffffffffffffffff1673ffffffffffffffffffffffffffffffffffffffff1663429b62e5336040518263ffffffff1660e01b815260040162000177919062000392565b60206040518083038186803b1580156200019057600080fd5b505afa158015620001a5573d6000803e3d6000fd5b505050506040513d601f19601f82011682018060405250810190620001cb919062000328565b90508062000210576040517f08c379a00000000000000000000000000000000000000000000000000000000081526004016200020790620003af565b60405180910390fd5b5050620004e9565b828054620002269062000422565b90600052602060002090601f0160209004810192826200024a576000855562000296565b82601f106200026557805160ff191683800117855562000296565b8280016001018555821562000296579182015b828111156200029557825182559160200191906001019062000278565b5b509050620002a59190620002a9565b5090565b5b80821115620002c4576000816000905550600101620002aa565b5090565b600081519050620002d981620004b5565b92915050565b600081519050620002f081620004cf565b92915050565b6000602082840312156200030f576200030e62000487565b5b60006200031f84828501620002c8565b91505092915050565b60006020828403121562000341576200034062000487565b5b60006200035184828501620002df565b91505092915050565b6200036581620003e2565b82525050565b60006200037a601783620003d1565b915062000387826200048c565b602082019050919050565b6000602082019050620003a960008301846200035a565b92915050565b60006020820190508181036000830152620003ca816200036b565b9050919050565b600082825260208201905092915050565b6000620003ef8262000402565b9050919050565b60008115159050919050565b600073ffffffffffffffffffffffffffffffffffffffff82169050919050565b600060028204905060018216806200043b57607f821691505b6020821081141562000452576200045162000458565b5b50919050565b7f4e487b7100000000000000000000000000000000000000000000000000000000600052602260045260246000fd5b600080fd5b7f6465706c6f7965722063616e2774206d616b65204e4654000000000000000000600082015250565b620004c081620003e2565b8114620004cc57600080fd5b50565b620004da81620003f6565b8114620004e657600080fd5b50565b612c2a80620004f96000396000f3fe608060405234801561001057600080fd5b50600436106101005760003560e01c80636352211e11610097578063b88d4fde11610066578063b88d4fde146102ab578063c87b56dd146102c7578063e985e9c5146102f7578063fbcf50f31461032757610100565b80636352211e1461021157806370a082311461024157806395d89b4114610271578063a22cb4651461028f57610100565b806310243755116100d3578063102437551461019f57806323b872dd146101bd5780632e689c3f146101d957806342842e0e146101f557610100565b806301ffc9a71461010557806306fdde0314610135578063081812fc14610153578063095ea7b314610183575b600080fd5b61011f600480360381019061011a9190611cb5565b610357565b60405161012c91906120ca565b60405180910390f35b61013d610439565b60405161014a9190612100565b60405180910390f35b61016d60048036038101906101689190611d0f565b6104cb565b60405161017a9190612063565b60405180910390f35b61019d60048036038101906101989190611c75565b610550565b005b6101a7610668565b6040516101b491906120e5565b60405180910390f35b6101d760048036038101906101d29190611a78565b61068e565b005b6101f360048036038101906101ee9190611bea565b6106ee565b005b61020f600480360381019061020a9190611a78565b6108a3565b005b61022b60048036038101906102269190611d0f565b6108c3565b6040516102389190612063565b60405180910390f35b61025b60048036038101906102569190611a0b565b610975565b6040516102689190612302565b60405180910390f35b610279610a2d565b6040516102869190612100565b60405180910390f35b6102a960048036038101906102a49190611b4e565b610abf565b005b6102c560048036038101906102c09190611acb565b610c40565b005b6102e160048036038101906102dc9190611d0f565b610ca2565b6040516102ee9190612100565b60405180910390f35b610311600480360381019061030c9190611a38565b610d49565b60405161031e91906120ca565b60405180910390f35b610341600480360381019061033c9190611b8e565b610ddd565b60405161034e9190612100565b60405180910390f35b60007f80ac58cd000000000000000000000000000000000000000000000000000000007bffffffffffffffffffffffffffffffffffffffffffffffffffffffff1916827bffffffffffffffffffffffffffffffffffffffffffffffffffffffff1916148061042257507f5b5e139f000000000000000000000000000000000000000000000000000000007bffffffffffffffffffffffffffffffffffffffffffffffffffffffff1916827bffffffffffffffffffffffffffffffffffffffffffffffffffffffff1916145b80610432575061043182610ea0565b5b9050919050565b6060600080546104489061257c565b80601f01602080910402602001604051908101604052809291908181526020018280546104749061257c565b80156104c15780601f10610496576101008083540402835291602001916104c1565b820191906000526020600020905b8154815290600101906020018083116104a457829003601f168201915b5050505050905090565b60006104d682610f0a565b610515576040517f08c379a000000000000000000000000000000000000000000000000000000000815260040161050c90612242565b60405180910390fd5b6004600083815260200190815260200160002060009054906101000a900473ffffffffffffffffffffffffffffffffffffffff169050919050565b600061055b826108c3565b90508073ffffffffffffffffffffffffffffffffffffffff168373ffffffffffffffffffffffffffffffffffffffff1614156105cc576040517f08c379a00000000000000000000000000000000000000000000000000000000081526004016105c3906122c2565b60405180910390fd5b8073ffffffffffffffffffffffffffffffffffffffff166105eb610f76565b73ffffffffffffffffffffffffffffffffffffffff16148061061a575061061981610614610f76565b610d49565b5b610659576040517f08c379a0000000000000000000000000000000000000000000000000000000008152600401610650906121c2565b60405180910390fd5b6106638383610f7e565b505050565b600660009054906101000a900473ffffffffffffffffffffffffffffffffffffffff1681565b61069f610699610f76565b82611037565b6106de576040517f08c379a00000000000000000000000000000000000000000000000000000000081526004016106d5906122e2565b60405180910390fd5b6106e9838383611115565b505050565b6007816040516106fe9190612028565b908152602001604051809103902060008473ffffffffffffffffffffffffffffffffffffffff1673ffffffffffffffffffffffffffffffffffffffff16815260200190815260200160002060009054906101000a900460ff1615610797576040517f08c379a000000000000000000000000000000000000000000000000000000000815260040161078e90612262565b60405180910390fd5b6107d1836008836040516107ab9190612028565b9081526020016040518091039020600081546107c6906125df565b919050819055611371565b60016007826040516107e39190612028565b908152602001604051809103902060008573ffffffffffffffffffffffffffffffffffffffff1673ffffffffffffffffffffffffffffffffffffffff16815260200190815260200160002060006101000a81548160ff021916908315150217905550816040516108539190612028565b60405180910390208373ffffffffffffffffffffffffffffffffffffffff167f371f376692dd846fa34380a8fd44c6a140dc5cd442cd8ae5657963685f17ebed60405160405180910390a3505050565b6108be83838360405180602001604052806000815250610c40565b505050565b6000806002600084815260200190815260200160002060009054906101000a900473ffffffffffffffffffffffffffffffffffffffff169050600073ffffffffffffffffffffffffffffffffffffffff168173ffffffffffffffffffffffffffffffffffffffff16141561096c576040517f08c379a000000000000000000000000000000000000000000000000000000000815260040161096390612202565b60405180910390fd5b80915050919050565b60008073ffffffffffffffffffffffffffffffffffffffff168273ffffffffffffffffffffffffffffffffffffffff1614156109e6576040517f08c379a00000000000000000000000000000000000000000000000000000000081526004016109dd906121e2565b60405180910390fd5b600360008373ffffffffffffffffffffffffffffffffffffffff1673ffffffffffffffffffffffffffffffffffffffff168152602001908152602001600020549050919050565b606060018054610a3c9061257c565b80601f0160208091040260200160405190810160405280929190818152602001828054610a689061257c565b8015610ab55780601f10610a8a57610100808354040283529160200191610ab5565b820191906000526020600020905b815481529060010190602001808311610a9857829003601f168201915b5050505050905090565b610ac7610f76565b73ffffffffffffffffffffffffffffffffffffffff168273ffffffffffffffffffffffffffffffffffffffff161415610b35576040517f08c379a0000000000000000000000000000000000000000000000000000000008152600401610b2c90612182565b60405180910390fd5b8060056000610b42610f76565b73ffffffffffffffffffffffffffffffffffffffff1673ffffffffffffffffffffffffffffffffffffffff16815260200190815260200160002060008473ffffffffffffffffffffffffffffffffffffffff1673ffffffffffffffffffffffffffffffffffffffff16815260200190815260200160002060006101000a81548160ff0219169083151502179055508173ffffffffffffffffffffffffffffffffffffffff16610bef610f76565b73ffffffffffffffffffffffffffffffffffffffff167f17307eab39ab6107e8899845ad3d59bd9653f200f220920489ca2b5937696c3183604051610c3491906120ca565b60405180910390a35050565b610c51610c4b610f76565b83611037565b610c90576040517f08c379a0000000000000000000000000000000000000000000000000000000008152600401610c87906122e2565b60405180910390fd5b610c9c8484848461153f565b50505050565b6060610cad82610f0a565b610cec576040517f08c379a0000000000000000000000000000000000000000000000000000000008152600401610ce3906122a2565b60405180910390fd5b6000610cf661159b565b90506000815111610d165760405180602001604052806000815250610d41565b80610d20846115b2565b604051602001610d3192919061203f565b6040516020818303038152906040525b915050919050565b6000600560008473ffffffffffffffffffffffffffffffffffffffff1673ffffffffffffffffffffffffffffffffffffffff16815260200190815260200160002060008373ffffffffffffffffffffffffffffffffffffffff1673ffffffffffffffffffffffffffffffffffffffff16815260200190815260200160002060009054906101000a900460ff16905092915050565b600960205281600052604060002081805160208101820180518482526020830160208501208183528095505050505050600091509150508054610e1f9061257c565b80601f0160208091040260200160405190810160405280929190818152602001828054610e4b9061257c565b8015610e985780601f10610e6d57610100808354040283529160200191610e98565b820191906000526020600020905b815481529060010190602001808311610e7b57829003601f168201915b505050505081565b60007f01ffc9a7000000000000000000000000000000000000000000000000000000007bffffffffffffffffffffffffffffffffffffffffffffffffffffffff1916827bffffffffffffffffffffffffffffffffffffffffffffffffffffffff1916149050919050565b60008073ffffffffffffffffffffffffffffffffffffffff166002600084815260200190815260200160002060009054906101000a900473ffffffffffffffffffffffffffffffffffffffff1673ffffffffffffffffffffffffffffffffffffffff1614159050919050565b600033905090565b816004600083815260200190815260200160002060006101000a81548173ffffffffffffffffffffffffffffffffffffffff021916908373ffffffffffffffffffffffffffffffffffffffff160217905550808273ffffffffffffffffffffffffffffffffffffffff16610ff1836108c3565b73ffffffffffffffffffffffffffffffffffffffff167f8c5be1e5ebec7d5bd14f71427d1e84f3dd0314c0f7b2291e5b200ac8c7c3b92560405160405180910390a45050565b600061104282610f0a565b611081576040517f08c379a0000000000000000000000000000000000000000000000000000000008152600401611078906121a2565b60405180910390fd5b600061108c836108c3565b90508073ffffffffffffffffffffffffffffffffffffffff168473ffffffffffffffffffffffffffffffffffffffff1614806110fb57508373ffffffffffffffffffffffffffffffffffffffff166110e3846104cb565b73ffffffffffffffffffffffffffffffffffffffff16145b8061110c575061110b8185610d49565b5b91505092915050565b8273ffffffffffffffffffffffffffffffffffffffff16611135826108c3565b73ffffffffffffffffffffffffffffffffffffffff161461118b576040517f08c379a000000000000000000000000000000000000000000000000000000000815260040161118290612282565b60405180910390fd5b600073ffffffffffffffffffffffffffffffffffffffff168273ffffffffffffffffffffffffffffffffffffffff1614156111fb576040517f08c379a00000000000000000000000000000000000000000000000000000000081526004016111f290612162565b60405180910390fd5b611206838383611713565b611211600082610f7e565b6001600360008573ffffffffffffffffffffffffffffffffffffffff1673ffffffffffffffffffffffffffffffffffffffff1681526020019081526020016000206000828254611261919061246e565b925050819055506001600360008473ffffffffffffffffffffffffffffffffffffffff1673ffffffffffffffffffffffffffffffffffffffff16815260200190815260200160002060008282546112b891906123e7565b92505081905550816002600083815260200190815260200160002060006101000a81548173ffffffffffffffffffffffffffffffffffffffff021916908373ffffffffffffffffffffffffffffffffffffffff160217905550808273ffffffffffffffffffffffffffffffffffffffff168473ffffffffffffffffffffffffffffffffffffffff167fddf252ad1be2c89b69c2b068fc378daa952ba7f163c4a11628f55a4df523b3ef60405160405180910390a4505050565b600073ffffffffffffffffffffffffffffffffffffffff168273ffffffffffffffffffffffffffffffffffffffff1614156113e1576040517f08c379a00000000000000000000000000000000000000000000000000000000081526004016113d890612222565b60405180910390fd5b6113ea81610f0a565b1561142a576040517f08c379a000000000000000000000000000000000000000000000000000000000815260040161142190612142565b60405180910390fd5b61143660008383611713565b6001600360008473ffffffffffffffffffffffffffffffffffffffff1673ffffffffffffffffffffffffffffffffffffffff168152602001908152602001600020600082825461148691906123e7565b92505081905550816002600083815260200190815260200160002060006101000a81548173ffffffffffffffffffffffffffffffffffffffff021916908373ffffffffffffffffffffffffffffffffffffffff160217905550808273ffffffffffffffffffffffffffffffffffffffff16600073ffffffffffffffffffffffffffffffffffffffff167fddf252ad1be2c89b69c2b068fc378daa952ba7f163c4a11628f55a4df523b3ef60405160405180910390a45050565b61154a848484611115565b61155684848484611718565b611595576040517f08c379a000000000000000000000000000000000000000000000000000000000815260040161158c90612122565b60405180910390fd5b50505050565b606060405180602001604052806000815250905090565b606060008214156115fa576040518060400160405280600181526020017f3000000000000000000000000000000000000000000000000000000000000000815250905061170e565b600082905060005b6000821461162c578080611615906125df565b915050600a82611625919061243d565b9150611602565b60008167ffffffffffffffff81111561164857611647612715565b5b6040519080825280601f01601f19166020018201604052801561167a5781602001600182028036833780820191505090505b5090505b6000851461170757600182611693919061246e565b9150600a856116a29190612628565b60306116ae91906123e7565b60f81b8183815181106116c4576116c36126e6565b5b60200101907effffffffffffffffffffffffffffffffffffffffffffffffffffffffffffff1916908160001a905350600a85611700919061243d565b945061167e565b8093505050505b919050565b505050565b60006117398473ffffffffffffffffffffffffffffffffffffffff166118af565b156118a2578373ffffffffffffffffffffffffffffffffffffffff1663150b7a02611762610f76565b8786866040518563ffffffff1660e01b8152600401611784949392919061207e565b602060405180830381600087803b15801561179e57600080fd5b505af19250505080156117cf57506040513d601f19601f820116820180604052508101906117cc9190611ce2565b60015b611852573d80600081146117ff576040519150601f19603f3d011682016040523d82523d6000602084013e611804565b606091505b5060008151141561184a576040517f08c379a000000000000000000000000000000000000000000000000000000000815260040161184190612122565b60405180910390fd5b805181602001fd5b63150b7a0260e01b7bffffffffffffffffffffffffffffffffffffffffffffffffffffffff1916817bffffffffffffffffffffffffffffffffffffffffffffffffffffffff1916149150506118a7565b600190505b949350505050565b600080823b905060008111915050919050565b60006118d56118d084612342565b61231d565b9050828152602081018484840111156118f1576118f0612749565b5b6118fc84828561253a565b509392505050565b600061191761191284612373565b61231d565b90508281526020810184848401111561193357611932612749565b5b61193e84828561253a565b509392505050565b60008135905061195581612b98565b92915050565b60008135905061196a81612baf565b92915050565b60008135905061197f81612bc6565b92915050565b60008151905061199481612bc6565b92915050565b600082601f8301126119af576119ae612744565b5b81356119bf8482602086016118c2565b91505092915050565b600082601f8301126119dd576119dc612744565b5b81356119ed848260208601611904565b91505092915050565b600081359050611a0581612bdd565b92915050565b600060208284031215611a2157611a20612753565b5b6000611a2f84828501611946565b91505092915050565b60008060408385031215611a4f57611a4e612753565b5b6000611a5d85828601611946565b9250506020611a6e85828601611946565b9150509250929050565b600080600060608486031215611a9157611a90612753565b5b6000611a9f86828701611946565b9350506020611ab086828701611946565b9250506040611ac1868287016119f6565b9150509250925092565b60008060008060808587031215611ae557611ae4612753565b5b6000611af387828801611946565b9450506020611b0487828801611946565b9350506040611b15878288016119f6565b925050606085013567ffffffffffffffff811115611b3657611b3561274e565b5b611b428782880161199a565b91505092959194509250565b60008060408385031215611b6557611b64612753565b5b6000611b7385828601611946565b9250506020611b848582860161195b565b9150509250929050565b60008060408385031215611ba557611ba4612753565b5b6000611bb385828601611946565b925050602083013567ffffffffffffffff811115611bd457611bd361274e565b5b611be0858286016119c8565b9150509250929050565b600080600060608486031215611c0357611c02612753565b5b6000611c1186828701611946565b935050602084013567ffffffffffffffff811115611c3257611c3161274e565b5b611c3e868287016119c8565b925050604084013567ffffffffffffffff811115611c5f57611c5e61274e565b5b611c6b868287016119c8565b9150509250925092565b60008060408385031215611c8c57611c8b612753565b5b6000611c9a85828601611946565b9250506020611cab858286016119f6565b9150509250929050565b600060208284031215611ccb57611cca612753565b5b6000611cd984828501611970565b91505092915050565b600060208284031215611cf857611cf7612753565b5b6000611d0684828501611985565b91505092915050565b600060208284031215611d2557611d24612753565b5b6000611d33848285016119f6565b91505092915050565b611d45816124a2565b82525050565b611d54816124b4565b82525050565b6000611d65826123a4565b611d6f81856123ba565b9350611d7f818560208601612549565b611d8881612758565b840191505092915050565b611d9c81612516565b82525050565b6000611dad826123af565b611db781856123cb565b9350611dc7818560208601612549565b611dd081612758565b840191505092915050565b6000611de6826123af565b611df081856123dc565b9350611e00818560208601612549565b80840191505092915050565b6000611e196032836123cb565b9150611e2482612769565b604082019050919050565b6000611e3c601c836123cb565b9150611e47826127b8565b602082019050919050565b6000611e5f6024836123cb565b9150611e6a826127e1565b604082019050919050565b6000611e826019836123cb565b9150611e8d82612830565b602082019050919050565b6000611ea5602c836123cb565b9150611eb082612859565b604082019050919050565b6000611ec86038836123cb565b9150611ed3826128a8565b604082019050919050565b6000611eeb602a836123cb565b9150611ef6826128f7565b604082019050919050565b6000611f0e6029836123cb565b9150611f1982612946565b604082019050919050565b6000611f316020836123cb565b9150611f3c82612995565b602082019050919050565b6000611f54602c836123cb565b9150611f5f826129be565b604082019050919050565b6000611f77602f836123cb565b9150611f8282612a0d565b604082019050919050565b6000611f9a6029836123cb565b9150611fa582612a5c565b604082019050919050565b6000611fbd602f836123cb565b9150611fc882612aab565b604082019050919050565b6000611fe06021836123cb565b9150611feb82612afa565b604082019050919050565b60006120036031836123cb565b915061200e82612b49565b604082019050919050565b6120228161250c565b82525050565b60006120348284611ddb565b915081905092915050565b600061204b8285611ddb565b91506120578284611ddb565b91508190509392505050565b60006020820190506120786000830184611d3c565b92915050565b60006080820190506120936000830187611d3c565b6120a06020830186611d3c565b6120ad6040830185612019565b81810360608301526120bf8184611d5a565b905095945050505050565b60006020820190506120df6000830184611d4b565b92915050565b60006020820190506120fa6000830184611d93565b92915050565b6000602082019050818103600083015261211a8184611da2565b905092915050565b6000602082019050818103600083015261213b81611e0c565b9050919050565b6000602082019050818103600083015261215b81611e2f565b9050919050565b6000602082019050818103600083015261217b81611e52565b9050919050565b6000602082019050818103600083015261219b81611e75565b9050919050565b600060208201905081810360008301526121bb81611e98565b9050919050565b600060208201905081810360008301526121db81611ebb565b9050919050565b600060208201905081810360008301526121fb81611ede565b9050919050565b6000602082019050818103600083015261221b81611f01565b9050919050565b6000602082019050818103600083015261223b81611f24565b9050919050565b6000602082019050818103600083015261225b81611f47565b9050919050565b6000602082019050818103600083015261227b81611f6a565b9050919050565b6000602082019050818103600083015261229b81611f8d565b9050919050565b600060208201905081810360008301526122bb81611fb0565b9050919050565b600060208201905081810360008301526122db81611fd3565b9050919050565b600060208201905081810360008301526122fb81611ff6565b9050919050565b60006020820190506123176000830184612019565b92915050565b6000612327612338565b905061233382826125ae565b919050565b6000604051905090565b600067ffffffffffffffff82111561235d5761235c612715565b5b61236682612758565b9050602081019050919050565b600067ffffffffffffffff82111561238e5761238d612715565b5b61239782612758565b9050602081019050919050565b600081519050919050565b600081519050919050565b600082825260208201905092915050565b600082825260208201905092915050565b600081905092915050565b60006123f28261250c565b91506123fd8361250c565b9250827fffffffffffffffffffffffffffffffffffffffffffffffffffffffffffffffff0382111561243257612431612659565b5b828201905092915050565b60006124488261250c565b91506124538361250c565b92508261246357612462612688565b5b828204905092915050565b60006124798261250c565b91506124848361250c565b92508282101561249757612496612659565b5b828203905092915050565b60006124ad826124ec565b9050919050565b60008115159050919050565b60007fffffffff0000000000000000000000000000000000000000000000000000000082169050919050565b600073ffffffffffffffffffffffffffffffffffffffff82169050919050565b6000819050919050565b600061252182612528565b9050919050565b6000612533826124ec565b9050919050565b82818337600083830152505050565b60005b8381101561256757808201518184015260208101905061254c565b83811115612576576000848401525b50505050565b6000600282049050600182168061259457607f821691505b602082108114156125a8576125a76126b7565b5b50919050565b6125b782612758565b810181811067ffffffffffffffff821117156125d6576125d5612715565b5b80604052505050565b60006125ea8261250c565b91507fffffffffffffffffffffffffffffffffffffffffffffffffffffffffffffffff82141561261d5761261c612659565b5b600182019050919050565b60006126338261250c565b915061263e8361250c565b92508261264e5761264d612688565b5b828206905092915050565b7f4e487b7100000000000000000000000000000000000000000000000000000000600052601160045260246000fd5b7f4e487b7100000000000000000000000000000000000000000000000000000000600052601260045260246000fd5b7f4e487b7100000000000000000000000000000000000000000000000000000000600052602260045260246000fd5b7f4e487b7100000000000000000000000000000000000000000000000000000000600052603260045260246000fd5b7f4e487b7100000000000000000000000000000000000000000000000000000000600052604160045260246000fd5b600080fd5b600080fd5b600080fd5b600080fd5b6000601f19601f8301169050919050565b7f4552433732313a207472616e7366657220746f206e6f6e20455243373231526560008201527f63656976657220696d706c656d656e7465720000000000000000000000000000602082015250565b7f4552433732313a20746f6b656e20616c7265616479206d696e74656400000000600082015250565b7f4552433732313a207472616e7366657220746f20746865207a65726f2061646460008201527f7265737300000000000000000000000000000000000000000000000000000000602082015250565b7f4552433732313a20617070726f766520746f2063616c6c657200000000000000600082015250565b7f4552433732313a206f70657261746f7220717565727920666f72206e6f6e657860008201527f697374656e7420746f6b656e0000000000000000000000000000000000000000602082015250565b7f4552433732313a20617070726f76652063616c6c6572206973206e6f74206f7760008201527f6e6572206e6f7220617070726f76656420666f7220616c6c0000000000000000602082015250565b7f4552433732313a2062616c616e636520717565727920666f7220746865207a6560008201527f726f206164647265737300000000000000000000000000000000000000000000602082015250565b7f4552433732313a206f776e657220717565727920666f72206e6f6e657869737460008201527f656e7420746f6b656e0000000000000000000000000000000000000000000000602082015250565b7f4552433732313a206d696e7420746f20746865207a65726f2061646472657373600082015250565b7f4552433732313a20617070726f76656420717565727920666f72206e6f6e657860008201527f697374656e7420746f6b656e0000000000000000000000000000000000000000602082015250565b7f74686973206164647265737320616c72656164792068617320616e204e46542060008201527f666f722074686973207175657374210000000000000000000000000000000000602082015250565b7f4552433732313a207472616e73666572206f6620746f6b656e2074686174206960008201527f73206e6f74206f776e0000000000000000000000000000000000000000000000602082015250565b7f4552433732314d657461646174613a2055524920717565727920666f72206e6f60008201527f6e6578697374656e7420746f6b656e0000000000000000000000000000000000602082015250565b7f4552433732313a20617070726f76616c20746f2063757272656e74206f776e6560008201527f7200000000000000000000000000000000000000000000000000000000000000602082015250565b7f4552433732313a207472616e736665722063616c6c6572206973206e6f74206f60008201527f776e6572206e6f7220617070726f766564000000000000000000000000000000602082015250565b612ba1816124a2565b8114612bac57600080fd5b50565b612bb8816124b4565b8114612bc357600080fd5b50565b612bcf816124c0565b8114612bda57600080fd5b50565b612be68161250c565b8114612bf157600080fd5b5056fea264697066735822122010f6a082562859a526d7371619d490c29d8696ed369c66fedaf2bdcbefdac77c64736f6c63430008060033",
  "immutableReferences": {},
  "source": "pragma solidity >=0.5.0 <0.9.0;\n\n/**\n * @title QuestCompleteNFT\n * @dev NFTs for completing course content on Discovery\n*/\n\nimport \"@openzeppelin/contracts/token/ERC721/ERC721.sol\";\nimport \"./NFTStore.sol\";\n\ncontract QuestCompleteNFT is ERC721{\n\n    NFTStore public masterStore;\n    mapping (string => mapping (address => bool)) NFTExists;\n    mapping (string => uint) latestIndices;\n    mapping (address => mapping (string => string)) public getNFTURIsByAddress;\n\n\n    event NFTMinted(address indexed _to, string indexed _tokenURI);\n\n    constructor(address _masterStoreAddress) ERC721(\"CompletedDiscoveryQuest\", \"CDQ\") public{\n        masterStore = NFTStore(_masterStoreAddress);\n        bool adminCheck = masterStore.admins(msg.sender);\n        require(adminCheck, \"deployer can't make NFT\");\n    }\n\n    function mintToken(address _to , string memory _tokenURI, string memory questType) public {\n        //access control logic?\n        require(!NFTExists[questType][_to], \"this address already has an NFT for this quest!\");\n        _mint(_to, ++latestIndices[questType]);\n        NFTExists[questType][_to] = true;\n        emit NFTMinted(_to, _tokenURI);\n    }\n\n\n}",
  "sourcePath": "/home/jpick713/BlockChain_Apps/nftIPFS/contracts/QuestCompleteNFT.sol",
  "compiler": {
    "name": "solc",
    "version": "0.8.6+commit.11564f7e.Emscripten.clang"
  },
  "schemaVersion": "3.4.2",
  "updatedAt": "2021-08-02T02:30:27.465Z",
  "networkType": "ethereum",
  "devdoc": {
    "kind": "dev",
    "methods": {
      "approve(address,uint256)": {
        "details": "See {IERC721-approve}."
      },
      "balanceOf(address)": {
        "details": "See {IERC721-balanceOf}."
      },
      "getApproved(uint256)": {
        "details": "See {IERC721-getApproved}."
      },
      "isApprovedForAll(address,address)": {
        "details": "See {IERC721-isApprovedForAll}."
      },
      "name()": {
        "details": "See {IERC721Metadata-name}."
      },
      "ownerOf(uint256)": {
        "details": "See {IERC721-ownerOf}."
      },
      "safeTransferFrom(address,address,uint256)": {
        "details": "See {IERC721-safeTransferFrom}."
      },
      "safeTransferFrom(address,address,uint256,bytes)": {
        "details": "See {IERC721-safeTransferFrom}."
      },
      "setApprovalForAll(address,bool)": {
        "details": "See {IERC721-setApprovalForAll}."
      },
      "supportsInterface(bytes4)": {
        "details": "See {IERC165-supportsInterface}."
      },
      "symbol()": {
        "details": "See {IERC721Metadata-symbol}."
      },
      "tokenURI(uint256)": {
        "details": "See {IERC721Metadata-tokenURI}."
      },
      "transferFrom(address,address,uint256)": {
        "details": "See {IERC721-transferFrom}."
      }
    },
    "version": 1
  },
  "userdoc": {
    "kind": "user",
    "methods": {},
    "version": 1
  }
}