{
  "contractName": "QuestCompleteNFT",
  "abi": [
    {
      "inputs": [
        {
          "internalType": "address",
          "name": "_masterStoreAddress",
          "type": "address"
        },
        {
          "internalType": "address",
          "name": "_checkNFTAddress",
          "type": "address"
        }
      ],
      "stateMutability": "nonpayable",
      "type": "constructor"
    },
    {
      "anonymous": false,
      "inputs": [
        {
          "indexed": true,
          "internalType": "address",
          "name": "owner",
          "type": "address"
        },
        {
          "indexed": true,
          "internalType": "address",
          "name": "approved",
          "type": "address"
        },
        {
          "indexed": true,
          "internalType": "uint256",
          "name": "tokenId",
          "type": "uint256"
        }
      ],
      "name": "Approval",
      "type": "event"
    },
    {
      "anonymous": false,
      "inputs": [
        {
          "indexed": true,
          "internalType": "address",
          "name": "owner",
          "type": "address"
        },
        {
          "indexed": true,
          "internalType": "address",
          "name": "operator",
          "type": "address"
        },
        {
          "indexed": false,
          "internalType": "bool",
          "name": "approved",
          "type": "bool"
        }
      ],
      "name": "ApprovalForAll",
      "type": "event"
    },
    {
      "anonymous": false,
      "inputs": [
        {
          "indexed": true,
          "internalType": "address",
          "name": "_to",
          "type": "address"
        },
        {
          "indexed": true,
          "internalType": "string",
          "name": "_tokenURI",
          "type": "string"
        }
      ],
      "name": "NFTMinted",
      "type": "event"
    },
    {
      "anonymous": false,
      "inputs": [
        {
          "indexed": true,
          "internalType": "address",
          "name": "from",
          "type": "address"
        },
        {
          "indexed": true,
          "internalType": "address",
          "name": "to",
          "type": "address"
        },
        {
          "indexed": true,
          "internalType": "uint256",
          "name": "tokenId",
          "type": "uint256"
        }
      ],
      "name": "Transfer",
      "type": "event"
    },
    {
      "inputs": [
        {
          "internalType": "string",
          "name": "",
          "type": "string"
        },
        {
          "internalType": "address",
          "name": "",
          "type": "address"
        }
      ],
      "name": "NFTExists",
      "outputs": [
        {
          "internalType": "bool",
          "name": "",
          "type": "bool"
        }
      ],
      "stateMutability": "view",
      "type": "function",
      "constant": true
    },
    {
      "inputs": [
        {
          "internalType": "address",
          "name": "",
          "type": "address"
        },
        {
          "internalType": "string",
          "name": "",
          "type": "string"
        }
      ],
      "name": "Quests",
      "outputs": [
        {
          "internalType": "address",
          "name": "receiver",
          "type": "address"
        },
        {
          "internalType": "string",
          "name": "quest",
          "type": "string"
        },
        {
          "internalType": "string",
          "name": "URI",
          "type": "string"
        },
        {
          "internalType": "uint256",
          "name": "timestamp",
          "type": "uint256"
        },
        {
          "internalType": "bool",
          "name": "exists",
          "type": "bool"
        }
      ],
      "stateMutability": "view",
      "type": "function",
      "constant": true
    },
    {
      "inputs": [
        {
          "internalType": "address",
          "name": "to",
          "type": "address"
        },
        {
          "internalType": "uint256",
          "name": "tokenId",
          "type": "uint256"
        }
      ],
      "name": "approve",
      "outputs": [],
      "stateMutability": "nonpayable",
      "type": "function"
    },
    {
      "inputs": [
        {
          "internalType": "address",
          "name": "owner",
          "type": "address"
        }
      ],
      "name": "balanceOf",
      "outputs": [
        {
          "internalType": "uint256",
          "name": "",
          "type": "uint256"
        }
      ],
      "stateMutability": "view",
      "type": "function",
      "constant": true
    },
    {
      "inputs": [],
      "name": "checkNFT",
      "outputs": [
        {
          "internalType": "contract ChainlinkNFT",
          "name": "",
          "type": "address"
        }
      ],
      "stateMutability": "view",
      "type": "function",
      "constant": true
    },
    {
      "inputs": [
        {
          "internalType": "uint256",
          "name": "tokenId",
          "type": "uint256"
        }
      ],
      "name": "getApproved",
      "outputs": [
        {
          "internalType": "address",
          "name": "",
          "type": "address"
        }
      ],
      "stateMutability": "view",
      "type": "function",
      "constant": true
    },
    {
      "inputs": [
        {
          "internalType": "address",
          "name": "",
          "type": "address"
        },
        {
          "internalType": "string",
          "name": "",
          "type": "string"
        }
      ],
      "name": "getNFTURIsByAddress",
      "outputs": [
        {
          "internalType": "string",
          "name": "",
          "type": "string"
        }
      ],
      "stateMutability": "view",
      "type": "function",
      "constant": true
    },
    {
      "inputs": [
        {
          "internalType": "address",
          "name": "owner",
          "type": "address"
        },
        {
          "internalType": "address",
          "name": "operator",
          "type": "address"
        }
      ],
      "name": "isApprovedForAll",
      "outputs": [
        {
          "internalType": "bool",
          "name": "",
          "type": "bool"
        }
      ],
      "stateMutability": "view",
      "type": "function",
      "constant": true
    },
    {
      "inputs": [],
      "name": "masterStore",
      "outputs": [
        {
          "internalType": "contract NFTStore",
          "name": "",
          "type": "address"
        }
      ],
      "stateMutability": "view",
      "type": "function",
      "constant": true
    },
    {
      "inputs": [],
      "name": "name",
      "outputs": [
        {
          "internalType": "string",
          "name": "",
          "type": "string"
        }
      ],
      "stateMutability": "view",
      "type": "function",
      "constant": true
    },
    {
      "inputs": [
        {
          "internalType": "uint256",
          "name": "tokenId",
          "type": "uint256"
        }
      ],
      "name": "ownerOf",
      "outputs": [
        {
          "internalType": "address",
          "name": "",
          "type": "address"
        }
      ],
      "stateMutability": "view",
      "type": "function",
      "constant": true
    },
    {
      "inputs": [
        {
          "internalType": "string",
          "name": "",
          "type": "string"
        },
        {
          "internalType": "uint256",
          "name": "",
          "type": "uint256"
        }
      ],
      "name": "rarityPercentages",
      "outputs": [
        {
          "internalType": "uint256",
          "name": "",
          "type": "uint256"
        }
      ],
      "stateMutability": "view",
      "type": "function",
      "constant": true
    },
    {
      "inputs": [
        {
          "internalType": "string",
          "name": "",
          "type": "string"
        }
      ],
      "name": "rarityThreshold",
      "outputs": [
        {
          "internalType": "uint256",
          "name": "",
          "type": "uint256"
        }
      ],
      "stateMutability": "view",
      "type": "function",
      "constant": true
    },
    {
      "inputs": [
        {
          "internalType": "address",
          "name": "from",
          "type": "address"
        },
        {
          "internalType": "address",
          "name": "to",
          "type": "address"
        },
        {
          "internalType": "uint256",
          "name": "tokenId",
          "type": "uint256"
        }
      ],
      "name": "safeTransferFrom",
      "outputs": [],
      "stateMutability": "nonpayable",
      "type": "function"
    },
    {
      "inputs": [
        {
          "internalType": "address",
          "name": "from",
          "type": "address"
        },
        {
          "internalType": "address",
          "name": "to",
          "type": "address"
        },
        {
          "internalType": "uint256",
          "name": "tokenId",
          "type": "uint256"
        },
        {
          "internalType": "bytes",
          "name": "_data",
          "type": "bytes"
        }
      ],
      "name": "safeTransferFrom",
      "outputs": [],
      "stateMutability": "nonpayable",
      "type": "function"
    },
    {
      "inputs": [
        {
          "internalType": "address",
          "name": "operator",
          "type": "address"
        },
        {
          "internalType": "bool",
          "name": "approved",
          "type": "bool"
        }
      ],
      "name": "setApprovalForAll",
      "outputs": [],
      "stateMutability": "nonpayable",
      "type": "function"
    },
    {
      "inputs": [
        {
          "internalType": "bytes4",
          "name": "interfaceId",
          "type": "bytes4"
        }
      ],
      "name": "supportsInterface",
      "outputs": [
        {
          "internalType": "bool",
          "name": "",
          "type": "bool"
        }
      ],
      "stateMutability": "view",
      "type": "function",
      "constant": true
    },
    {
      "inputs": [],
      "name": "symbol",
      "outputs": [
        {
          "internalType": "string",
          "name": "",
          "type": "string"
        }
      ],
      "stateMutability": "view",
      "type": "function",
      "constant": true
    },
    {
      "inputs": [
        {
          "internalType": "uint256",
          "name": "tokenId",
          "type": "uint256"
        }
      ],
      "name": "tokenURI",
      "outputs": [
        {
          "internalType": "string",
          "name": "",
          "type": "string"
        }
      ],
      "stateMutability": "view",
      "type": "function",
      "constant": true
    },
    {
      "inputs": [
        {
          "internalType": "string",
          "name": "",
          "type": "string"
        }
      ],
      "name": "tokensMinted",
      "outputs": [
        {
          "internalType": "uint256",
          "name": "",
          "type": "uint256"
        }
      ],
      "stateMutability": "view",
      "type": "function",
      "constant": true
    },
    {
      "inputs": [
        {
          "internalType": "address",
          "name": "from",
          "type": "address"
        },
        {
          "internalType": "address",
          "name": "to",
          "type": "address"
        },
        {
          "internalType": "uint256",
          "name": "tokenId",
          "type": "uint256"
        }
      ],
      "name": "transferFrom",
      "outputs": [],
      "stateMutability": "nonpayable",
      "type": "function"
    },
    {
      "inputs": [
        {
          "internalType": "address",
          "name": "_to",
          "type": "address"
        },
        {
          "internalType": "string",
          "name": "_tokenURI",
          "type": "string"
        },
        {
          "internalType": "string",
          "name": "questName",
          "type": "string"
        },
        {
          "internalType": "string",
          "name": "_did",
          "type": "string"
        }
      ],
      "name": "mintToken",
      "outputs": [],
      "stateMutability": "nonpayable",
      "type": "function"
    },
    {
      "inputs": [
        {
          "internalType": "string",
          "name": "_quest",
          "type": "string"
        },
        {
          "internalType": "uint256",
          "name": "_threshold",
          "type": "uint256"
        }
      ],
      "name": "setRarityThreshold",
      "outputs": [],
      "stateMutability": "nonpayable",
      "type": "function"
    },
    {
      "inputs": [
        {
          "internalType": "string",
          "name": "_quest",
          "type": "string"
        },
        {
          "internalType": "uint256[2]",
          "name": "_percentages",
          "type": "uint256[2]"
        }
      ],
      "name": "setRarityPercentages",
      "outputs": [],
      "stateMutability": "nonpayable",
      "type": "function"
    }
  ],
  "bytecode": "0x60806040523480156200001157600080fd5b50604051620046ac380380620046ac833981810160405281019062000037919062000338565b6040518060400160405280601781526020017f436f6d706c65746564446973636f7665727951756573740000000000000000008152506040518060400160405280600381526020017f43445100000000000000000000000000000000000000000000000000000000008152508160009080519060200190620000bb9291906200025a565b508060019080519060200190620000d49291906200025a565b50505081600660006101000a81548173ffffffffffffffffffffffffffffffffffffffff021916908373ffffffffffffffffffffffffffffffffffffffff1602179055506000600660009054906101000a900473ffffffffffffffffffffffffffffffffffffffff1673ffffffffffffffffffffffffffffffffffffffff1663429b62e5336040518263ffffffff1660e01b8152600401620001779190620003e9565b60206040518083038186803b1580156200019057600080fd5b505afa158015620001a5573d6000803e3d6000fd5b505050506040513d601f19601f82011682018060405250810190620001cb91906200037f565b90508062000210576040517f08c379a0000000000000000000000000000000000000000000000000000000008152600401620002079062000406565b60405180910390fd5b81600760006101000a81548173ffffffffffffffffffffffffffffffffffffffff021916908373ffffffffffffffffffffffffffffffffffffffff16021790555050505062000540565b828054620002689062000479565b90600052602060002090601f0160209004810192826200028c5760008555620002d8565b82601f10620002a757805160ff1916838001178555620002d8565b82800160010185558215620002d8579182015b82811115620002d7578251825591602001919060010190620002ba565b5b509050620002e79190620002eb565b5090565b5b8082111562000306576000816000905550600101620002ec565b5090565b6000815190506200031b816200050c565b92915050565b600081519050620003328162000526565b92915050565b60008060408385031215620003525762000351620004de565b5b600062000362858286016200030a565b925050602062000375858286016200030a565b9150509250929050565b600060208284031215620003985762000397620004de565b5b6000620003a88482850162000321565b91505092915050565b620003bc8162000439565b82525050565b6000620003d160178362000428565b9150620003de82620004e3565b602082019050919050565b6000602082019050620004006000830184620003b1565b92915050565b600060208201905081810360008301526200042181620003c2565b9050919050565b600082825260208201905092915050565b6000620004468262000459565b9050919050565b60008115159050919050565b600073ffffffffffffffffffffffffffffffffffffffff82169050919050565b600060028204905060018216806200049257607f821691505b60208210811415620004a957620004a8620004af565b5b50919050565b7f4e487b7100000000000000000000000000000000000000000000000000000000600052602260045260246000fd5b600080fd5b7f6465706c6f7965722063616e2774206d616b65204e4654000000000000000000600082015250565b620005178162000439565b81146200052357600080fd5b50565b62000531816200044d565b81146200053d57600080fd5b50565b61415c80620005506000396000f3fe608060405234801561001057600080fd5b50600436106101585760003560e01c806384ce9e12116100c3578063b5a271d41161007c578063b5a271d414610401578063b88d4fde1461041d578063c87b56dd14610439578063cefeea1314610469578063e985e9c514610499578063fbcf50f3146104c957610158565b806384ce9e12146103295780638a31cdcd146103475780638bfd589b1461036357806395d89b4114610397578063a0f026e5146103b5578063a22cb465146103e557610158565b806338d1b2931161011557806338d1b2931461023157806339b28b0e1461026157806342842e0e146102915780634a93c0d6146102ad5780636352211e146102c957806370a08231146102f957610158565b806301ffc9a71461015d57806306fdde031461018d578063081812fc146101ab578063095ea7b3146101db57806310243755146101f757806323b872dd14610215575b600080fd5b61017760048036038101906101729190612ce9565b6104f9565b60405161018491906133a7565b60405180910390f35b6101956105db565b6040516101a291906133f8565b60405180910390f35b6101c560048036038101906101c09190612ea0565b61066d565b6040516101d291906132df565b60405180910390f35b6101f560048036038101906101f09190612c4f565b6106f2565b005b6101ff61080a565b60405161020c91906133dd565b60405180910390f35b61022f600480360381019061022a9190612a22565b610830565b005b61024b60048036038101906102469190612e44565b610890565b60405161025891906136d1565b60405180910390f35b61027b60048036038101906102769190612d43565b6108ce565b60405161028891906136d1565b60405180910390f35b6102ab60048036038101906102a69190612a22565b6108fc565b005b6102c760048036038101906102c29190612e44565b61091c565b005b6102e360048036038101906102de9190612ea0565b610b26565b6040516102f091906132df565b60405180910390f35b610313600480360381019061030e91906129b5565b610bd8565b60405161032091906136d1565b60405180910390f35b610331610c90565b60405161033e91906133c2565b60405180910390f35b610361600480360381019061035c9190612de8565b610cb6565b005b61037d60048036038101906103789190612b38565b610f4f565b60405161038e959493929190613346565b60405180910390f35b61039f6110e5565b6040516103ac91906133f8565b60405180910390f35b6103cf60048036038101906103ca9190612d8c565b611177565b6040516103dc91906133a7565b60405180910390f35b6103ff60048036038101906103fa9190612af8565b6111bc565b005b61041b60048036038101906104169190612b94565b61133d565b005b61043760048036038101906104329190612a75565b611a08565b005b610453600480360381019061044e9190612ea0565b611a6a565b60405161046091906133f8565b60405180910390f35b610483600480360381019061047e9190612d43565b611b11565b60405161049091906136d1565b60405180910390f35b6104b360048036038101906104ae91906129e2565b611b3f565b6040516104c091906133a7565b60405180910390f35b6104e360048036038101906104de9190612b38565b611bd3565b6040516104f091906133f8565b60405180910390f35b60007f80ac58cd000000000000000000000000000000000000000000000000000000007bffffffffffffffffffffffffffffffffffffffffffffffffffffffff1916827bffffffffffffffffffffffffffffffffffffffffffffffffffffffff191614806105c457507f5b5e139f000000000000000000000000000000000000000000000000000000007bffffffffffffffffffffffffffffffffffffffffffffffffffffffff1916827bffffffffffffffffffffffffffffffffffffffffffffffffffffffff1916145b806105d457506105d382611c96565b5b9050919050565b6060600080546105ea9061399f565b80601f01602080910402602001604051908101604052809291908181526020018280546106169061399f565b80156106635780601f1061063857610100808354040283529160200191610663565b820191906000526020600020905b81548152906001019060200180831161064657829003601f168201915b5050505050905090565b600061067882611d00565b6106b7576040517f08c379a00000000000000000000000000000000000000000000000000000000081526004016106ae906135b1565b60405180910390fd5b6004600083815260200190815260200160002060009054906101000a900473ffffffffffffffffffffffffffffffffffffffff169050919050565b60006106fd82610b26565b90508073ffffffffffffffffffffffffffffffffffffffff168373ffffffffffffffffffffffffffffffffffffffff16141561076e576040517f08c379a000000000000000000000000000000000000000000000000000000000815260040161076590613651565b60405180910390fd5b8073ffffffffffffffffffffffffffffffffffffffff1661078d611d6c565b73ffffffffffffffffffffffffffffffffffffffff1614806107bc57506107bb816107b6611d6c565b611b3f565b5b6107fb576040517f08c379a00000000000000000000000000000000000000000000000000000000081526004016107f290613531565b60405180910390fd5b6108058383611d74565b505050565b600660009054906101000a900473ffffffffffffffffffffffffffffffffffffffff1681565b61084161083b611d6c565b82611e2d565b610880576040517f08c379a000000000000000000000000000000000000000000000000000000000815260040161087790613671565b60405180910390fd5b61088b838383611f0b565b505050565b600d8280516020810182018051848252602083016020850120818352809550505050505081600281106108c257600080fd5b01600091509150505481565b600b818051602081018201805184825260208301602085012081835280955050505050506000915090505481565b61091783838360405180602001604052806000815250611a08565b505050565b600660009054906101000a900473ffffffffffffffffffffffffffffffffffffffff1673ffffffffffffffffffffffffffffffffffffffff1663429b62e5336040518263ffffffff1660e01b815260040161097791906132df565b60206040518083038186803b15801561098f57600080fd5b505afa1580156109a3573d6000803e3d6000fd5b505050506040513d601f19601f820116820180604052508101906109c79190612c8f565b610a06576040517f08c379a00000000000000000000000000000000000000000000000000000000081526004016109fd906136b1565b60405180910390fd5b81600660009054906101000a900473ffffffffffffffffffffffffffffffffffffffff1673ffffffffffffffffffffffffffffffffffffffff1663a852a581826040518263ffffffff1660e01b8152600401610a6291906133f8565b60206040518083038186803b158015610a7a57600080fd5b505afa158015610a8e573d6000803e3d6000fd5b505050506040513d601f19601f82011682018060405250810190610ab29190612c8f565b610af1576040517f08c379a0000000000000000000000000000000000000000000000000000000008152600401610ae890613611565b60405180910390fd5b60008211610afe57600080fd5b81600c84604051610b0f91906132a4565b908152602001604051809103902081905550505050565b6000806002600084815260200190815260200160002060009054906101000a900473ffffffffffffffffffffffffffffffffffffffff169050600073ffffffffffffffffffffffffffffffffffffffff168173ffffffffffffffffffffffffffffffffffffffff161415610bcf576040517f08c379a0000000000000000000000000000000000000000000000000000000008152600401610bc690613571565b60405180910390fd5b80915050919050565b60008073ffffffffffffffffffffffffffffffffffffffff168273ffffffffffffffffffffffffffffffffffffffff161415610c49576040517f08c379a0000000000000000000000000000000000000000000000000000000008152600401610c4090613551565b60405180910390fd5b600360008373ffffffffffffffffffffffffffffffffffffffff1673ffffffffffffffffffffffffffffffffffffffff168152602001908152602001600020549050919050565b600760009054906101000a900473ffffffffffffffffffffffffffffffffffffffff1681565b600660009054906101000a900473ffffffffffffffffffffffffffffffffffffffff1673ffffffffffffffffffffffffffffffffffffffff1663429b62e5336040518263ffffffff1660e01b8152600401610d1191906132df565b60206040518083038186803b158015610d2957600080fd5b505afa158015610d3d573d6000803e3d6000fd5b505050506040513d601f19601f82011682018060405250810190610d619190612c8f565b610da0576040517f08c379a0000000000000000000000000000000000000000000000000000000008152600401610d97906136b1565b60405180910390fd5b81600660009054906101000a900473ffffffffffffffffffffffffffffffffffffffff1673ffffffffffffffffffffffffffffffffffffffff1663a852a581826040518263ffffffff1660e01b8152600401610dfc91906133f8565b60206040518083038186803b158015610e1457600080fd5b505afa158015610e28573d6000803e3d6000fd5b505050506040513d601f19601f82011682018060405250810190610e4c9190612c8f565b610e8b576040517f08c379a0000000000000000000000000000000000000000000000000000000008152600401610e8290613611565b60405180910390fd5b600082600060028110610ea157610ea0613b09565b5b6020020151118015610ecb5750600082600160028110610ec457610ec3613b09565b5b6020020151115b8015610eef5750606582600060028110610ee857610ee7613b09565b5b6020020151105b8015610f135750606582600160028110610f0c57610f0b613b09565b5b6020020151105b610f1c57600080fd5b81600d84604051610f2d91906132a4565b9081526020016040518091039020906002610f499291906126b8565b50505050565b600e60205281600052604060002081805160208101820180518482526020830160208501208183528095505050505050600091509150508060000160009054906101000a900473ffffffffffffffffffffffffffffffffffffffff1690806001018054610fbb9061399f565b80601f0160208091040260200160405190810160405280929190818152602001828054610fe79061399f565b80156110345780601f1061100957610100808354040283529160200191611034565b820191906000526020600020905b81548152906001019060200180831161101757829003601f168201915b5050505050908060020180546110499061399f565b80601f01602080910402602001604051908101604052809291908181526020018280546110759061399f565b80156110c25780601f10611097576101008083540402835291602001916110c2565b820191906000526020600020905b8154815290600101906020018083116110a557829003601f168201915b5050505050908060030154908060040160009054906101000a900460ff16905085565b6060600180546110f49061399f565b80601f01602080910402602001604051908101604052809291908181526020018280546111209061399f565b801561116d5780601f106111425761010080835404028352916020019161116d565b820191906000526020600020905b81548152906001019060200180831161115057829003601f168201915b5050505050905090565b6009828051602081018201805184825260208301602085012081835280955050505050506020528060005260406000206000915091509054906101000a900460ff1681565b6111c4611d6c565b73ffffffffffffffffffffffffffffffffffffffff168273ffffffffffffffffffffffffffffffffffffffff161415611232576040517f08c379a0000000000000000000000000000000000000000000000000000000008152600401611229906134d1565b60405180910390fd5b806005600061123f611d6c565b73ffffffffffffffffffffffffffffffffffffffff1673ffffffffffffffffffffffffffffffffffffffff16815260200190815260200160002060008473ffffffffffffffffffffffffffffffffffffffff1673ffffffffffffffffffffffffffffffffffffffff16815260200190815260200160002060006101000a81548160ff0219169083151502179055508173ffffffffffffffffffffffffffffffffffffffff166112ec611d6c565b73ffffffffffffffffffffffffffffffffffffffff167f17307eab39ab6107e8899845ad3d59bd9653f200f220920489ca2b5937696c318360405161133191906133a7565b60405180910390a35050565b600660009054906101000a900473ffffffffffffffffffffffffffffffffffffffff1673ffffffffffffffffffffffffffffffffffffffff1663372c12b1856040518263ffffffff1660e01b815260040161139891906132df565b60206040518083038186803b1580156113b057600080fd5b505afa1580156113c4573d6000803e3d6000fd5b505050506040513d601f19601f820116820180604052508101906113e89190612c8f565b611427576040517f08c379a000000000000000000000000000000000000000000000000000000000815260040161141e90613511565b60405180910390fd5b600660009054906101000a900473ffffffffffffffffffffffffffffffffffffffff1673ffffffffffffffffffffffffffffffffffffffff1663a852a581836040518263ffffffff1660e01b815260040161148291906133f8565b60206040518083038186803b15801561149a57600080fd5b505afa1580156114ae573d6000803e3d6000fd5b505050506040513d601f19601f820116820180604052508101906114d29190612c8f565b611511576040517f08c379a000000000000000000000000000000000000000000000000000000000815260040161150890613451565b60405180910390fd5b60098260405161152191906132a4565b908152602001604051809103902060008573ffffffffffffffffffffffffffffffffffffffff1673ffffffffffffffffffffffffffffffffffffffff16815260200190815260200160002060009054906101000a900460ff16156115ba576040517f08c379a00000000000000000000000000000000000000000000000000000000081526004016115b1906135d1565b60405180910390fd5b600760009054906101000a900473ffffffffffffffffffffffffffffffffffffffff1673ffffffffffffffffffffffffffffffffffffffff1663414110b582846040518363ffffffff1660e01b815260040161161792919061341a565b602060405180830381600087803b15801561163157600080fd5b505af1158015611645573d6000803e3d6000fd5b505050506040513d601f19601f820116820180604052508101906116699190612cbc565b506000600760009054906101000a900473ffffffffffffffffffffffffffffffffffffffff1673ffffffffffffffffffffffffffffffffffffffff16631b8dca746040518163ffffffff1660e01b815260040160206040518083038186803b1580156116d457600080fd5b505afa1580156116e8573d6000803e3d6000fd5b505050506040513d601f19601f8201168201806040525081019061170c9190612ecd565b905060018114611751576040517f08c379a000000000000000000000000000000000000000000000000000000000815260040161174890613691565b60405180910390fd5b6008600081548092919061176490613a02565b919050555061177585600854612167565b600160098460405161178791906132a4565b908152602001604051809103902060008773ffffffffffffffffffffffffffffffffffffffff1673ffffffffffffffffffffffffffffffffffffffff16815260200190815260200160002060006101000a81548160ff02191690831515021790555083600a60008773ffffffffffffffffffffffffffffffffffffffff1673ffffffffffffffffffffffffffffffffffffffff1681526020019081526020016000208460405161183791906132a4565b908152602001604051809103902090805190602001906118589291906126f8565b5060006040518060a001604052808773ffffffffffffffffffffffffffffffffffffffff16815260200185815260200186815260200142815260200160011515815250905080600e60008873ffffffffffffffffffffffffffffffffffffffff1673ffffffffffffffffffffffffffffffffffffffff168152602001908152602001600020856040516118eb91906132a4565b908152602001604051809103902060008201518160000160006101000a81548173ffffffffffffffffffffffffffffffffffffffff021916908373ffffffffffffffffffffffffffffffffffffffff160217905550602082015181600101908051906020019061195c9291906126f8565b5060408201518160020190805190602001906119799291906126f8565b506060820151816003015560808201518160040160006101000a81548160ff021916908315150217905550905050846040516119b591906132a4565b60405180910390208673ffffffffffffffffffffffffffffffffffffffff167f371f376692dd846fa34380a8fd44c6a140dc5cd442cd8ae5657963685f17ebed60405160405180910390a3505050505050565b611a19611a13611d6c565b83611e2d565b611a58576040517f08c379a0000000000000000000000000000000000000000000000000000000008152600401611a4f90613671565b60405180910390fd5b611a6484848484612335565b50505050565b6060611a7582611d00565b611ab4576040517f08c379a0000000000000000000000000000000000000000000000000000000008152600401611aab90613631565b60405180910390fd5b6000611abe612391565b90506000815111611ade5760405180602001604052806000815250611b09565b80611ae8846123a8565b604051602001611af99291906132bb565b6040516020818303038152906040525b915050919050565b600c818051602081018201805184825260208301602085012081835280955050505050506000915090505481565b6000600560008473ffffffffffffffffffffffffffffffffffffffff1673ffffffffffffffffffffffffffffffffffffffff16815260200190815260200160002060008373ffffffffffffffffffffffffffffffffffffffff1673ffffffffffffffffffffffffffffffffffffffff16815260200190815260200160002060009054906101000a900460ff16905092915050565b600a60205281600052604060002081805160208101820180518482526020830160208501208183528095505050505050600091509150508054611c159061399f565b80601f0160208091040260200160405190810160405280929190818152602001828054611c419061399f565b8015611c8e5780601f10611c6357610100808354040283529160200191611c8e565b820191906000526020600020905b815481529060010190602001808311611c7157829003601f168201915b505050505081565b60007f01ffc9a7000000000000000000000000000000000000000000000000000000007bffffffffffffffffffffffffffffffffffffffffffffffffffffffff1916827bffffffffffffffffffffffffffffffffffffffffffffffffffffffff1916149050919050565b60008073ffffffffffffffffffffffffffffffffffffffff166002600084815260200190815260200160002060009054906101000a900473ffffffffffffffffffffffffffffffffffffffff1673ffffffffffffffffffffffffffffffffffffffff1614159050919050565b600033905090565b816004600083815260200190815260200160002060006101000a81548173ffffffffffffffffffffffffffffffffffffffff021916908373ffffffffffffffffffffffffffffffffffffffff160217905550808273ffffffffffffffffffffffffffffffffffffffff16611de783610b26565b73ffffffffffffffffffffffffffffffffffffffff167f8c5be1e5ebec7d5bd14f71427d1e84f3dd0314c0f7b2291e5b200ac8c7c3b92560405160405180910390a45050565b6000611e3882611d00565b611e77576040517f08c379a0000000000000000000000000000000000000000000000000000000008152600401611e6e906134f1565b60405180910390fd5b6000611e8283610b26565b90508073ffffffffffffffffffffffffffffffffffffffff168473ffffffffffffffffffffffffffffffffffffffff161480611ef157508373ffffffffffffffffffffffffffffffffffffffff16611ed98461066d565b73ffffffffffffffffffffffffffffffffffffffff16145b80611f025750611f018185611b3f565b5b91505092915050565b8273ffffffffffffffffffffffffffffffffffffffff16611f2b82610b26565b73ffffffffffffffffffffffffffffffffffffffff1614611f81576040517f08c379a0000000000000000000000000000000000000000000000000000000008152600401611f78906135f1565b60405180910390fd5b600073ffffffffffffffffffffffffffffffffffffffff168273ffffffffffffffffffffffffffffffffffffffff161415611ff1576040517f08c379a0000000000000000000000000000000000000000000000000000000008152600401611fe8906134b1565b60405180910390fd5b611ffc838383612509565b612007600082611d74565b6001600360008573ffffffffffffffffffffffffffffffffffffffff1673ffffffffffffffffffffffffffffffffffffffff16815260200190815260200160002060008282546120579190613863565b925050819055506001600360008473ffffffffffffffffffffffffffffffffffffffff1673ffffffffffffffffffffffffffffffffffffffff16815260200190815260200160002060008282546120ae91906137dc565b92505081905550816002600083815260200190815260200160002060006101000a81548173ffffffffffffffffffffffffffffffffffffffff021916908373ffffffffffffffffffffffffffffffffffffffff160217905550808273ffffffffffffffffffffffffffffffffffffffff168473ffffffffffffffffffffffffffffffffffffffff167fddf252ad1be2c89b69c2b068fc378daa952ba7f163c4a11628f55a4df523b3ef60405160405180910390a4505050565b600073ffffffffffffffffffffffffffffffffffffffff168273ffffffffffffffffffffffffffffffffffffffff1614156121d7576040517f08c379a00000000000000000000000000000000000000000000000000000000081526004016121ce90613591565b60405180910390fd5b6121e081611d00565b15612220576040517f08c379a000000000000000000000000000000000000000000000000000000000815260040161221790613491565b60405180910390fd5b61222c60008383612509565b6001600360008473ffffffffffffffffffffffffffffffffffffffff1673ffffffffffffffffffffffffffffffffffffffff168152602001908152602001600020600082825461227c91906137dc565b92505081905550816002600083815260200190815260200160002060006101000a81548173ffffffffffffffffffffffffffffffffffffffff021916908373ffffffffffffffffffffffffffffffffffffffff160217905550808273ffffffffffffffffffffffffffffffffffffffff16600073ffffffffffffffffffffffffffffffffffffffff167fddf252ad1be2c89b69c2b068fc378daa952ba7f163c4a11628f55a4df523b3ef60405160405180910390a45050565b612340848484611f0b565b61234c8484848461250e565b61238b576040517f08c379a000000000000000000000000000000000000000000000000000000000815260040161238290613471565b60405180910390fd5b50505050565b606060405180602001604052806000815250905090565b606060008214156123f0576040518060400160405280600181526020017f30000000000000000000000000000000000000000000000000000000000000008152509050612504565b600082905060005b6000821461242257808061240b90613a02565b915050600a8261241b9190613832565b91506123f8565b60008167ffffffffffffffff81111561243e5761243d613b38565b5b6040519080825280601f01601f1916602001820160405280156124705781602001600182028036833780820191505090505b5090505b600085146124fd576001826124899190613863565b9150600a856124989190613a4b565b60306124a491906137dc565b60f81b8183815181106124ba576124b9613b09565b5b60200101907effffffffffffffffffffffffffffffffffffffffffffffffffffffffffffff1916908160001a905350600a856124f69190613832565b9450612474565b8093505050505b919050565b505050565b600061252f8473ffffffffffffffffffffffffffffffffffffffff166126a5565b15612698578373ffffffffffffffffffffffffffffffffffffffff1663150b7a02612558611d6c565b8786866040518563ffffffff1660e01b815260040161257a94939291906132fa565b602060405180830381600087803b15801561259457600080fd5b505af19250505080156125c557506040513d601f19601f820116820180604052508101906125c29190612d16565b60015b612648573d80600081146125f5576040519150601f19603f3d011682016040523d82523d6000602084013e6125fa565b606091505b50600081511415612640576040517f08c379a000000000000000000000000000000000000000000000000000000000815260040161263790613471565b60405180910390fd5b805181602001fd5b63150b7a0260e01b7bffffffffffffffffffffffffffffffffffffffffffffffffffffffff1916817bffffffffffffffffffffffffffffffffffffffffffffffffffffffff19161491505061269d565b600190505b949350505050565b600080823b905060008111915050919050565b82600281019282156126e7579160200282015b828111156126e65782518255916020019190600101906126cb565b5b5090506126f4919061277e565b5090565b8280546127049061399f565b90600052602060002090601f016020900481019282612726576000855561276d565b82601f1061273f57805160ff191683800117855561276d565b8280016001018555821561276d579182015b8281111561276c578251825591602001919060010190612751565b5b50905061277a919061277e565b5090565b5b8082111561279757600081600090555060010161277f565b5090565b60006127ae6127a984613711565b6136ec565b905080828560208602820111156127c8576127c7613b6c565b5b60005b858110156127f857816127de888261298b565b8452602084019350602083019250506001810190506127cb565b5050509392505050565b600061281561281084613737565b6136ec565b90508281526020810184848401111561283157612830613b71565b5b61283c84828561395d565b509392505050565b600061285761285284613768565b6136ec565b90508281526020810184848401111561287357612872613b71565b5b61287e84828561395d565b509392505050565b600081359050612895816140b3565b92915050565b600082601f8301126128b0576128af613b67565b5b60026128bd84828561279b565b91505092915050565b6000813590506128d5816140ca565b92915050565b6000815190506128ea816140ca565b92915050565b6000815190506128ff816140e1565b92915050565b600081359050612914816140f8565b92915050565b600081519050612929816140f8565b92915050565b600082601f83011261294457612943613b67565b5b8135612954848260208601612802565b91505092915050565b600082601f83011261297257612971613b67565b5b8135612982848260208601612844565b91505092915050565b60008135905061299a8161410f565b92915050565b6000815190506129af8161410f565b92915050565b6000602082840312156129cb576129ca613b7b565b5b60006129d984828501612886565b91505092915050565b600080604083850312156129f9576129f8613b7b565b5b6000612a0785828601612886565b9250506020612a1885828601612886565b9150509250929050565b600080600060608486031215612a3b57612a3a613b7b565b5b6000612a4986828701612886565b9350506020612a5a86828701612886565b9250506040612a6b8682870161298b565b9150509250925092565b60008060008060808587031215612a8f57612a8e613b7b565b5b6000612a9d87828801612886565b9450506020612aae87828801612886565b9350506040612abf8782880161298b565b925050606085013567ffffffffffffffff811115612ae057612adf613b76565b5b612aec8782880161292f565b91505092959194509250565b60008060408385031215612b0f57612b0e613b7b565b5b6000612b1d85828601612886565b9250506020612b2e858286016128c6565b9150509250929050565b60008060408385031215612b4f57612b4e613b7b565b5b6000612b5d85828601612886565b925050602083013567ffffffffffffffff811115612b7e57612b7d613b76565b5b612b8a8582860161295d565b9150509250929050565b60008060008060808587031215612bae57612bad613b7b565b5b6000612bbc87828801612886565b945050602085013567ffffffffffffffff811115612bdd57612bdc613b76565b5b612be98782880161295d565b935050604085013567ffffffffffffffff811115612c0a57612c09613b76565b5b612c168782880161295d565b925050606085013567ffffffffffffffff811115612c3757612c36613b76565b5b612c438782880161295d565b91505092959194509250565b60008060408385031215612c6657612c65613b7b565b5b6000612c7485828601612886565b9250506020612c858582860161298b565b9150509250929050565b600060208284031215612ca557612ca4613b7b565b5b6000612cb3848285016128db565b91505092915050565b600060208284031215612cd257612cd1613b7b565b5b6000612ce0848285016128f0565b91505092915050565b600060208284031215612cff57612cfe613b7b565b5b6000612d0d84828501612905565b91505092915050565b600060208284031215612d2c57612d2b613b7b565b5b6000612d3a8482850161291a565b91505092915050565b600060208284031215612d5957612d58613b7b565b5b600082013567ffffffffffffffff811115612d7757612d76613b76565b5b612d838482850161295d565b91505092915050565b60008060408385031215612da357612da2613b7b565b5b600083013567ffffffffffffffff811115612dc157612dc0613b76565b5b612dcd8582860161295d565b9250506020612dde85828601612886565b9150509250929050565b60008060608385031215612dff57612dfe613b7b565b5b600083013567ffffffffffffffff811115612e1d57612e1c613b76565b5b612e298582860161295d565b9250506020612e3a8582860161289b565b9150509250929050565b60008060408385031215612e5b57612e5a613b7b565b5b600083013567ffffffffffffffff811115612e7957612e78613b76565b5b612e858582860161295d565b9250506020612e968582860161298b565b9150509250929050565b600060208284031215612eb657612eb5613b7b565b5b6000612ec48482850161298b565b91505092915050565b600060208284031215612ee357612ee2613b7b565b5b6000612ef1848285016129a0565b91505092915050565b612f0381613897565b82525050565b612f12816138a9565b82525050565b6000612f2382613799565b612f2d81856137af565b9350612f3d81856020860161396c565b612f4681613b80565b840191505092915050565b612f5a81613915565b82525050565b612f6981613939565b82525050565b6000612f7a826137a4565b612f8481856137c0565b9350612f9481856020860161396c565b612f9d81613b80565b840191505092915050565b6000612fb3826137a4565b612fbd81856137d1565b9350612fcd81856020860161396c565b80840191505092915050565b6000612fe66017836137c0565b9150612ff182613b91565b602082019050919050565b60006130096032836137c0565b915061301482613bba565b604082019050919050565b600061302c601c836137c0565b915061303782613c09565b602082019050919050565b600061304f6024836137c0565b915061305a82613c32565b604082019050919050565b60006130726019836137c0565b915061307d82613c81565b602082019050919050565b6000613095602c836137c0565b91506130a082613caa565b604082019050919050565b60006130b8601a836137c0565b91506130c382613cf9565b602082019050919050565b60006130db6038836137c0565b91506130e682613d22565b604082019050919050565b60006130fe602a836137c0565b915061310982613d71565b604082019050919050565b60006131216029836137c0565b915061312c82613dc0565b604082019050919050565b60006131446020836137c0565b915061314f82613e0f565b602082019050919050565b6000613167602c836137c0565b915061317282613e38565b604082019050919050565b600061318a602f836137c0565b915061319582613e87565b604082019050919050565b60006131ad6029836137c0565b91506131b882613ed6565b604082019050919050565b60006131d06011836137c0565b91506131db82613f25565b602082019050919050565b60006131f3602f836137c0565b91506131fe82613f4e565b604082019050919050565b60006132166021836137c0565b915061322182613f9d565b604082019050919050565b60006132396031836137c0565b915061324482613fec565b604082019050919050565b600061325c6023836137c0565b91506132678261403b565b604082019050919050565b600061327f601d836137c0565b915061328a8261408a565b602082019050919050565b61329e8161390b565b82525050565b60006132b08284612fa8565b915081905092915050565b60006132c78285612fa8565b91506132d38284612fa8565b91508190509392505050565b60006020820190506132f46000830184612efa565b92915050565b600060808201905061330f6000830187612efa565b61331c6020830186612efa565b6133296040830185613295565b818103606083015261333b8184612f18565b905095945050505050565b600060a08201905061335b6000830188612efa565b818103602083015261336d8187612f6f565b905081810360408301526133818186612f6f565b90506133906060830185613295565b61339d6080830184612f09565b9695505050505050565b60006020820190506133bc6000830184612f09565b92915050565b60006020820190506133d76000830184612f51565b92915050565b60006020820190506133f26000830184612f60565b92915050565b600060208201905081810360008301526134128184612f6f565b905092915050565b600060408201905081810360008301526134348185612f6f565b905081810360208301526134488184612f6f565b90509392505050565b6000602082019050818103600083015261346a81612fd9565b9050919050565b6000602082019050818103600083015261348a81612ffc565b9050919050565b600060208201905081810360008301526134aa8161301f565b9050919050565b600060208201905081810360008301526134ca81613042565b9050919050565b600060208201905081810360008301526134ea81613065565b9050919050565b6000602082019050818103600083015261350a81613088565b9050919050565b6000602082019050818103600083015261352a816130ab565b9050919050565b6000602082019050818103600083015261354a816130ce565b9050919050565b6000602082019050818103600083015261356a816130f1565b9050919050565b6000602082019050818103600083015261358a81613114565b9050919050565b600060208201905081810360008301526135aa81613137565b9050919050565b600060208201905081810360008301526135ca8161315a565b9050919050565b600060208201905081810360008301526135ea8161317d565b9050919050565b6000602082019050818103600083015261360a816131a0565b9050919050565b6000602082019050818103600083015261362a816131c3565b9050919050565b6000602082019050818103600083015261364a816131e6565b9050919050565b6000602082019050818103600083015261366a81613209565b9050919050565b6000602082019050818103600083015261368a8161322c565b9050919050565b600060208201905081810360008301526136aa8161324f565b9050919050565b600060208201905081810360008301526136ca81613272565b9050919050565b60006020820190506136e66000830184613295565b92915050565b60006136f6613707565b905061370282826139d1565b919050565b6000604051905090565b600067ffffffffffffffff82111561372c5761372b613b38565b5b602082029050919050565b600067ffffffffffffffff82111561375257613751613b38565b5b61375b82613b80565b9050602081019050919050565b600067ffffffffffffffff82111561378357613782613b38565b5b61378c82613b80565b9050602081019050919050565b600081519050919050565b600081519050919050565b600082825260208201905092915050565b600082825260208201905092915050565b600081905092915050565b60006137e78261390b565b91506137f28361390b565b9250827fffffffffffffffffffffffffffffffffffffffffffffffffffffffffffffffff0382111561382757613826613a7c565b5b828201905092915050565b600061383d8261390b565b91506138488361390b565b92508261385857613857613aab565b5b828204905092915050565b600061386e8261390b565b91506138798361390b565b92508282101561388c5761388b613a7c565b5b828203905092915050565b60006138a2826138eb565b9050919050565b60008115159050919050565b6000819050919050565b60007fffffffff0000000000000000000000000000000000000000000000000000000082169050919050565b600073ffffffffffffffffffffffffffffffffffffffff82169050919050565b6000819050919050565b600061392082613927565b9050919050565b6000613932826138eb565b9050919050565b60006139448261394b565b9050919050565b6000613956826138eb565b9050919050565b82818337600083830152505050565b60005b8381101561398a57808201518184015260208101905061396f565b83811115613999576000848401525b50505050565b600060028204905060018216806139b757607f821691505b602082108114156139cb576139ca613ada565b5b50919050565b6139da82613b80565b810181811067ffffffffffffffff821117156139f9576139f8613b38565b5b80604052505050565b6000613a0d8261390b565b91507fffffffffffffffffffffffffffffffffffffffffffffffffffffffffffffffff821415613a4057613a3f613a7c565b5b600182019050919050565b6000613a568261390b565b9150613a618361390b565b925082613a7157613a70613aab565b5b828206905092915050565b7f4e487b7100000000000000000000000000000000000000000000000000000000600052601160045260246000fd5b7f4e487b7100000000000000000000000000000000000000000000000000000000600052601260045260246000fd5b7f4e487b7100000000000000000000000000000000000000000000000000000000600052602260045260246000fd5b7f4e487b7100000000000000000000000000000000000000000000000000000000600052603260045260246000fd5b7f4e487b7100000000000000000000000000000000000000000000000000000000600052604160045260246000fd5b600080fd5b600080fd5b600080fd5b600080fd5b600080fd5b6000601f19601f8301169050919050565b7f74686973207175657374206973206e6f742076616c6964000000000000000000600082015250565b7f4552433732313a207472616e7366657220746f206e6f6e20455243373231526560008201527f63656976657220696d706c656d656e7465720000000000000000000000000000602082015250565b7f4552433732313a20746f6b656e20616c7265616479206d696e74656400000000600082015250565b7f4552433732313a207472616e7366657220746f20746865207a65726f2061646460008201527f7265737300000000000000000000000000000000000000000000000000000000602082015250565b7f4552433732313a20617070726f766520746f2063616c6c657200000000000000600082015250565b7f4552433732313a206f70657261746f7220717565727920666f72206e6f6e657860008201527f697374656e7420746f6b656e0000000000000000000000000000000000000000602082015250565b7f61646472657373206973206e6f74207265676973746572656421000000000000600082015250565b7f4552433732313a20617070726f76652063616c6c6572206973206e6f74206f7760008201527f6e6572206e6f7220617070726f76656420666f7220616c6c0000000000000000602082015250565b7f4552433732313a2062616c616e636520717565727920666f7220746865207a6560008201527f726f206164647265737300000000000000000000000000000000000000000000602082015250565b7f4552433732313a206f776e657220717565727920666f72206e6f6e657869737460008201527f656e7420746f6b656e0000000000000000000000000000000000000000000000602082015250565b7f4552433732313a206d696e7420746f20746865207a65726f2061646472657373600082015250565b7f4552433732313a20617070726f76656420717565727920666f72206e6f6e657860008201527f697374656e7420746f6b656e0000000000000000000000000000000000000000602082015250565b7f74686973206164647265737320616c72656164792068617320616e204e46542060008201527f666f722074686973207175657374210000000000000000000000000000000000602082015250565b7f4552433732313a207472616e73666572206f6620746f6b656e2074686174206960008201527f73206e6f74206f776e0000000000000000000000000000000000000000000000602082015250565b7f4e6f7420612076616c6964207175657374000000000000000000000000000000600082015250565b7f4552433732314d657461646174613a2055524920717565727920666f72206e6f60008201527f6e6578697374656e7420746f6b656e0000000000000000000000000000000000602082015250565b7f4552433732313a20617070726f76616c20746f2063757272656e74206f776e6560008201527f7200000000000000000000000000000000000000000000000000000000000000602082015250565b7f4552433732313a207472616e736665722063616c6c6572206973206e6f74206f60008201527f776e6572206e6f7220617070726f766564000000000000000000000000000000602082015250565b7f4e6f7420616c6c207175697a7a657320636f6d706c6574656420666f7220717560008201527f6573740000000000000000000000000000000000000000000000000000000000602082015250565b7f4d7573742062652061646d696e20666f72207468697320616374696f6e000000600082015250565b6140bc81613897565b81146140c757600080fd5b50565b6140d3816138a9565b81146140de57600080fd5b50565b6140ea816138b5565b81146140f557600080fd5b50565b614101816138bf565b811461410c57600080fd5b50565b6141188161390b565b811461412357600080fd5b5056fea2646970667358221220caa2fa40568ebc69c9d77b411a2a03a3999fabdf8396dcde5c57b67b4b33812f64736f6c63430008060033",
  "immutableReferences": {},
  "source": "pragma solidity >=0.5.0 <0.9.0;\n\n/**\n * @title QuestCompleteNFT\n * @dev NFTs for completing course content on Discovery\n*/\n\nimport \"@openzeppelin/contracts/token/ERC721/ERC721.sol\";\n//import \"@openzeppelin/contracts/token/ERC721/extensions/ERC721URIStorage.sol\";\nimport \"./NFTStore.sol\";\nimport \"./ChainlinkNFT.sol\";\n\ncontract QuestCompleteNFT is ERC721{\n\n    NFTStore public masterStore;\n    ChainlinkNFT public checkNFT;\n    uint tokenID;\n    mapping (string => mapping (address => bool)) public NFTExists; // check if NFT already minted for this quest for this address/DID\n    mapping (address => mapping (string => string)) public getNFTURIsByAddress; //allows retrieval of URIs by address and quest\n    mapping (string => uint) public tokensMinted;\n    mapping (string => uint) public rarityThreshold;\n    mapping (string => uint[2]) public rarityPercentages;\n    mapping (address => mapping(string => Quest)) public Quests; //allows retrieval of Quest metadata in one struct. Can remove once NFT.storage is used\n\n    struct Quest {\n        address receiver;\n        string quest;\n        string URI;\n        uint timestamp;\n        bool exists;\n    }\n\n\n    event NFTMinted(address indexed _to, string indexed _tokenURI);\n\n    modifier onlyAdmin(){\n        require (masterStore.admins(msg.sender), \"Must be admin for this action\");\n        _;\n    }\n\n    modifier questExist(string memory _quest){\n        require(masterStore.approvedQuests(_quest), \"Not a valid quest\");\n        _;\n    }\n\n    constructor(address _masterStoreAddress, address _checkNFTAddress) ERC721(\"CompletedDiscoveryQuest\", \"CDQ\") public{\n        masterStore = NFTStore(_masterStoreAddress);\n        bool adminCheck = masterStore.admins(msg.sender);\n        require(adminCheck, \"deployer can't make NFT\");\n        checkNFT = ChainlinkNFT(_checkNFTAddress);\n    }\n\n    function mintToken(address _to , string memory _tokenURI, string memory questName, string memory _did) public {\n        //access control logic with chainlink?\n        require(masterStore.whiteList(_to), \"address is not registered!\");\n        require(masterStore.approvedQuests(questName), \"this quest is not valid\");\n        require(!NFTExists[questName][_to], \"this address already has an NFT for this quest!\");\n        checkNFT.requestCeramicData(_did, questName);\n        uint checkInt = checkNFT.allowMint();\n        require(checkInt==1, \"Not all quizzes completed for quest\");\n        tokenID++;\n        _mint(_to, tokenID);\n        NFTExists[questName][_to] = true;\n        getNFTURIsByAddress[_to][questName] = _tokenURI;\n        Quest memory quest_to_add = Quest({\n            receiver : _to,\n            quest : questName,\n            URI : _tokenURI,\n            timestamp : block.timestamp,\n            exists : true\n        });\n        Quests[_to][questName]= quest_to_add;\n        emit NFTMinted(_to, _tokenURI);\n    }\n\n    function setRarityThreshold(string memory _quest, uint _threshold) public onlyAdmin questExist(_quest){\n        require(_threshold >0);\n        rarityThreshold[_quest] = _threshold;\n\n    }\n\n    function setRarityPercentages(string memory _quest, uint[2] memory _percentages) public onlyAdmin questExist(_quest){\n        require(_percentages[0] >0 && _percentages[1]>0 && _percentages[0] <101 && _percentages[1]<101);\n        rarityPercentages[_quest] = _percentages;\n\n    }\n}",
  "sourcePath": "/home/jpick713/BlockChain_Apps/nftIPFS/contracts/QuestCompleteNFT.sol",
  "compiler": {
    "name": "solc",
    "version": "0.8.6+commit.11564f7e.Emscripten.clang"
  },
  "schemaVersion": "3.4.2",
  "updatedAt": "2021-08-13T18:15:08.619Z",
  "networkType": "ethereum",
  "devdoc": {
    "kind": "dev",
    "methods": {
      "approve(address,uint256)": {
        "details": "See {IERC721-approve}."
      },
      "balanceOf(address)": {
        "details": "See {IERC721-balanceOf}."
      },
      "getApproved(uint256)": {
        "details": "See {IERC721-getApproved}."
      },
      "isApprovedForAll(address,address)": {
        "details": "See {IERC721-isApprovedForAll}."
      },
      "name()": {
        "details": "See {IERC721Metadata-name}."
      },
      "ownerOf(uint256)": {
        "details": "See {IERC721-ownerOf}."
      },
      "safeTransferFrom(address,address,uint256)": {
        "details": "See {IERC721-safeTransferFrom}."
      },
      "safeTransferFrom(address,address,uint256,bytes)": {
        "details": "See {IERC721-safeTransferFrom}."
      },
      "setApprovalForAll(address,bool)": {
        "details": "See {IERC721-setApprovalForAll}."
      },
      "supportsInterface(bytes4)": {
        "details": "See {IERC165-supportsInterface}."
      },
      "symbol()": {
        "details": "See {IERC721Metadata-symbol}."
      },
      "tokenURI(uint256)": {
        "details": "See {IERC721Metadata-tokenURI}."
      },
      "transferFrom(address,address,uint256)": {
        "details": "See {IERC721-transferFrom}."
      }
    },
    "version": 1
  },
  "userdoc": {
    "kind": "user",
    "methods": {},
    "version": 1
  }
}