{
  "contractName": "QuestCompleteNFT",
  "abi": [
    {
      "inputs": [
        {
          "internalType": "address",
          "name": "_masterStoreAddress",
          "type": "address"
        }
      ],
      "stateMutability": "nonpayable",
      "type": "constructor"
    },
    {
      "anonymous": false,
      "inputs": [
        {
          "indexed": true,
          "internalType": "address",
          "name": "owner",
          "type": "address"
        },
        {
          "indexed": true,
          "internalType": "address",
          "name": "approved",
          "type": "address"
        },
        {
          "indexed": true,
          "internalType": "uint256",
          "name": "tokenId",
          "type": "uint256"
        }
      ],
      "name": "Approval",
      "type": "event"
    },
    {
      "anonymous": false,
      "inputs": [
        {
          "indexed": true,
          "internalType": "address",
          "name": "owner",
          "type": "address"
        },
        {
          "indexed": true,
          "internalType": "address",
          "name": "operator",
          "type": "address"
        },
        {
          "indexed": false,
          "internalType": "bool",
          "name": "approved",
          "type": "bool"
        }
      ],
      "name": "ApprovalForAll",
      "type": "event"
    },
    {
      "anonymous": false,
      "inputs": [
        {
          "indexed": true,
          "internalType": "address",
          "name": "_to",
          "type": "address"
        },
        {
          "indexed": true,
          "internalType": "string",
          "name": "_tokenURI",
          "type": "string"
        }
      ],
      "name": "NFTMinted",
      "type": "event"
    },
    {
      "anonymous": false,
      "inputs": [
        {
          "indexed": true,
          "internalType": "address",
          "name": "from",
          "type": "address"
        },
        {
          "indexed": true,
          "internalType": "address",
          "name": "to",
          "type": "address"
        },
        {
          "indexed": true,
          "internalType": "uint256",
          "name": "tokenId",
          "type": "uint256"
        }
      ],
      "name": "Transfer",
      "type": "event"
    },
    {
      "inputs": [
        {
          "internalType": "address",
          "name": "",
          "type": "address"
        },
        {
          "internalType": "string",
          "name": "",
          "type": "string"
        }
      ],
      "name": "Quests",
      "outputs": [
        {
          "internalType": "address",
          "name": "receiver",
          "type": "address"
        },
        {
          "internalType": "string",
          "name": "quest",
          "type": "string"
        },
        {
          "internalType": "string",
          "name": "URI",
          "type": "string"
        },
        {
          "internalType": "uint256",
          "name": "timestamp",
          "type": "uint256"
        },
        {
          "internalType": "bool",
          "name": "exists",
          "type": "bool"
        }
      ],
      "stateMutability": "view",
      "type": "function",
      "constant": true
    },
    {
      "inputs": [
        {
          "internalType": "address",
          "name": "to",
          "type": "address"
        },
        {
          "internalType": "uint256",
          "name": "tokenId",
          "type": "uint256"
        }
      ],
      "name": "approve",
      "outputs": [],
      "stateMutability": "nonpayable",
      "type": "function"
    },
    {
      "inputs": [
        {
          "internalType": "address",
          "name": "owner",
          "type": "address"
        }
      ],
      "name": "balanceOf",
      "outputs": [
        {
          "internalType": "uint256",
          "name": "",
          "type": "uint256"
        }
      ],
      "stateMutability": "view",
      "type": "function",
      "constant": true
    },
    {
      "inputs": [
        {
          "internalType": "uint256",
          "name": "tokenId",
          "type": "uint256"
        }
      ],
      "name": "getApproved",
      "outputs": [
        {
          "internalType": "address",
          "name": "",
          "type": "address"
        }
      ],
      "stateMutability": "view",
      "type": "function",
      "constant": true
    },
    {
      "inputs": [
        {
          "internalType": "address",
          "name": "",
          "type": "address"
        },
        {
          "internalType": "string",
          "name": "",
          "type": "string"
        }
      ],
      "name": "getNFTURIsByAddress",
      "outputs": [
        {
          "internalType": "string",
          "name": "",
          "type": "string"
        }
      ],
      "stateMutability": "view",
      "type": "function",
      "constant": true
    },
    {
      "inputs": [
        {
          "internalType": "address",
          "name": "owner",
          "type": "address"
        },
        {
          "internalType": "address",
          "name": "operator",
          "type": "address"
        }
      ],
      "name": "isApprovedForAll",
      "outputs": [
        {
          "internalType": "bool",
          "name": "",
          "type": "bool"
        }
      ],
      "stateMutability": "view",
      "type": "function",
      "constant": true
    },
    {
      "inputs": [],
      "name": "masterStore",
      "outputs": [
        {
          "internalType": "contract NFTStore",
          "name": "",
          "type": "address"
        }
      ],
      "stateMutability": "view",
      "type": "function",
      "constant": true
    },
    {
      "inputs": [],
      "name": "name",
      "outputs": [
        {
          "internalType": "string",
          "name": "",
          "type": "string"
        }
      ],
      "stateMutability": "view",
      "type": "function",
      "constant": true
    },
    {
      "inputs": [
        {
          "internalType": "uint256",
          "name": "tokenId",
          "type": "uint256"
        }
      ],
      "name": "ownerOf",
      "outputs": [
        {
          "internalType": "address",
          "name": "",
          "type": "address"
        }
      ],
      "stateMutability": "view",
      "type": "function",
      "constant": true
    },
    {
      "inputs": [
        {
          "internalType": "address",
          "name": "from",
          "type": "address"
        },
        {
          "internalType": "address",
          "name": "to",
          "type": "address"
        },
        {
          "internalType": "uint256",
          "name": "tokenId",
          "type": "uint256"
        }
      ],
      "name": "safeTransferFrom",
      "outputs": [],
      "stateMutability": "nonpayable",
      "type": "function"
    },
    {
      "inputs": [
        {
          "internalType": "address",
          "name": "from",
          "type": "address"
        },
        {
          "internalType": "address",
          "name": "to",
          "type": "address"
        },
        {
          "internalType": "uint256",
          "name": "tokenId",
          "type": "uint256"
        },
        {
          "internalType": "bytes",
          "name": "_data",
          "type": "bytes"
        }
      ],
      "name": "safeTransferFrom",
      "outputs": [],
      "stateMutability": "nonpayable",
      "type": "function"
    },
    {
      "inputs": [
        {
          "internalType": "address",
          "name": "operator",
          "type": "address"
        },
        {
          "internalType": "bool",
          "name": "approved",
          "type": "bool"
        }
      ],
      "name": "setApprovalForAll",
      "outputs": [],
      "stateMutability": "nonpayable",
      "type": "function"
    },
    {
      "inputs": [
        {
          "internalType": "bytes4",
          "name": "interfaceId",
          "type": "bytes4"
        }
      ],
      "name": "supportsInterface",
      "outputs": [
        {
          "internalType": "bool",
          "name": "",
          "type": "bool"
        }
      ],
      "stateMutability": "view",
      "type": "function",
      "constant": true
    },
    {
      "inputs": [],
      "name": "symbol",
      "outputs": [
        {
          "internalType": "string",
          "name": "",
          "type": "string"
        }
      ],
      "stateMutability": "view",
      "type": "function",
      "constant": true
    },
    {
      "inputs": [
        {
          "internalType": "uint256",
          "name": "tokenId",
          "type": "uint256"
        }
      ],
      "name": "tokenURI",
      "outputs": [
        {
          "internalType": "string",
          "name": "",
          "type": "string"
        }
      ],
      "stateMutability": "view",
      "type": "function",
      "constant": true
    },
    {
      "inputs": [
        {
          "internalType": "address",
          "name": "from",
          "type": "address"
        },
        {
          "internalType": "address",
          "name": "to",
          "type": "address"
        },
        {
          "internalType": "uint256",
          "name": "tokenId",
          "type": "uint256"
        }
      ],
      "name": "transferFrom",
      "outputs": [],
      "stateMutability": "nonpayable",
      "type": "function"
    },
    {
      "inputs": [
        {
          "internalType": "address",
          "name": "_to",
          "type": "address"
        },
        {
          "internalType": "string",
          "name": "_tokenURI",
          "type": "string"
        },
        {
          "internalType": "string",
          "name": "questName",
          "type": "string"
        }
      ],
      "name": "mintToken",
      "outputs": [],
      "stateMutability": "nonpayable",
      "type": "function"
    }
  ],
  "bytecode": "0x60806040523480156200001157600080fd5b50604051620035a5380380620035a58339818101604052810190620000379190620002f6565b6040518060400160405280601781526020017f436f6d706c65746564446973636f7665727951756573740000000000000000008152506040518060400160405280600381526020017f43445100000000000000000000000000000000000000000000000000000000008152508160009080519060200190620000bb92919062000218565b508060019080519060200190620000d492919062000218565b50505080600660006101000a81548173ffffffffffffffffffffffffffffffffffffffff021916908373ffffffffffffffffffffffffffffffffffffffff1602179055506000600660009054906101000a900473ffffffffffffffffffffffffffffffffffffffff1673ffffffffffffffffffffffffffffffffffffffff1663429b62e5336040518263ffffffff1660e01b815260040162000177919062000392565b60206040518083038186803b1580156200019057600080fd5b505afa158015620001a5573d6000803e3d6000fd5b505050506040513d601f19601f82011682018060405250810190620001cb919062000328565b90508062000210576040517f08c379a00000000000000000000000000000000000000000000000000000000081526004016200020790620003af565b60405180910390fd5b5050620004e9565b828054620002269062000422565b90600052602060002090601f0160209004810192826200024a576000855562000296565b82601f106200026557805160ff191683800117855562000296565b8280016001018555821562000296579182015b828111156200029557825182559160200191906001019062000278565b5b509050620002a59190620002a9565b5090565b5b80821115620002c4576000816000905550600101620002aa565b5090565b600081519050620002d981620004b5565b92915050565b600081519050620002f081620004cf565b92915050565b6000602082840312156200030f576200030e62000487565b5b60006200031f84828501620002c8565b91505092915050565b60006020828403121562000341576200034062000487565b5b60006200035184828501620002df565b91505092915050565b6200036581620003e2565b82525050565b60006200037a601783620003d1565b915062000387826200048c565b602082019050919050565b6000602082019050620003a960008301846200035a565b92915050565b60006020820190508181036000830152620003ca816200036b565b9050919050565b600082825260208201905092915050565b6000620003ef8262000402565b9050919050565b60008115159050919050565b600073ffffffffffffffffffffffffffffffffffffffff82169050919050565b600060028204905060018216806200043b57607f821691505b6020821081141562000452576200045162000458565b5b50919050565b7f4e487b7100000000000000000000000000000000000000000000000000000000600052602260045260246000fd5b600080fd5b7f6465706c6f7965722063616e2774206d616b65204e4654000000000000000000600082015250565b620004c081620003e2565b8114620004cc57600080fd5b50565b620004da81620003f6565b8114620004e657600080fd5b50565b6130ac80620004f96000396000f3fe608060405234801561001057600080fd5b506004361061010b5760003560e01c80636352211e116100a2578063a22cb46511610071578063a22cb465146102ce578063b88d4fde146102ea578063c87b56dd14610306578063e985e9c514610336578063fbcf50f3146103665761010b565b80636352211e1461021c57806370a082311461024c5780638bfd589b1461027c57806395d89b41146102b05761010b565b806310243755116100de57806310243755146101aa57806323b872dd146101c85780632e689c3f146101e457806342842e0e146102005761010b565b806301ffc9a71461011057806306fdde0314610140578063081812fc1461015e578063095ea7b31461018e575b600080fd5b61012a600480360381019061012591906120d6565b610396565b604051610137919061254c565b60405180910390f35b610148610478565b6040516101559190612582565b60405180910390f35b61017860048036038101906101739190612130565b61050a565b6040516101859190612484565b60405180910390f35b6101a860048036038101906101a39190612096565b61058f565b005b6101b26106a7565b6040516101bf9190612567565b60405180910390f35b6101e260048036038101906101dd9190611e99565b6106cd565b005b6101fe60048036038101906101f9919061200b565b61072d565b005b61021a60048036038101906102159190611e99565b610a8b565b005b61023660048036038101906102319190612130565b610aab565b6040516102439190612484565b60405180910390f35b61026660048036038101906102619190611e2c565b610b5d565b6040516102739190612784565b60405180910390f35b61029660048036038101906102919190611faf565b610c15565b6040516102a79594939291906124eb565b60405180910390f35b6102b8610dab565b6040516102c59190612582565b60405180910390f35b6102e860048036038101906102e39190611f6f565b610e3d565b005b61030460048036038101906102ff9190611eec565b610fbe565b005b610320600480360381019061031b9190612130565b611020565b60405161032d9190612582565b60405180910390f35b610350600480360381019061034b9190611e59565b6110c7565b60405161035d919061254c565b60405180910390f35b610380600480360381019061037b9190611faf565b61115b565b60405161038d9190612582565b60405180910390f35b60007f80ac58cd000000000000000000000000000000000000000000000000000000007bffffffffffffffffffffffffffffffffffffffffffffffffffffffff1916827bffffffffffffffffffffffffffffffffffffffffffffffffffffffff1916148061046157507f5b5e139f000000000000000000000000000000000000000000000000000000007bffffffffffffffffffffffffffffffffffffffffffffffffffffffff1916827bffffffffffffffffffffffffffffffffffffffffffffffffffffffff1916145b8061047157506104708261121e565b5b9050919050565b606060008054610487906129fe565b80601f01602080910402602001604051908101604052809291908181526020018280546104b3906129fe565b80156105005780601f106104d557610100808354040283529160200191610500565b820191906000526020600020905b8154815290600101906020018083116104e357829003601f168201915b5050505050905090565b600061051582611288565b610554576040517f08c379a000000000000000000000000000000000000000000000000000000000815260040161054b906126c4565b60405180910390fd5b6004600083815260200190815260200160002060009054906101000a900473ffffffffffffffffffffffffffffffffffffffff169050919050565b600061059a82610aab565b90508073ffffffffffffffffffffffffffffffffffffffff168373ffffffffffffffffffffffffffffffffffffffff16141561060b576040517f08c379a000000000000000000000000000000000000000000000000000000000815260040161060290612744565b60405180910390fd5b8073ffffffffffffffffffffffffffffffffffffffff1661062a6112f4565b73ffffffffffffffffffffffffffffffffffffffff1614806106595750610658816106536112f4565b6110c7565b5b610698576040517f08c379a000000000000000000000000000000000000000000000000000000000815260040161068f90612644565b60405180910390fd5b6106a283836112fc565b505050565b600660009054906101000a900473ffffffffffffffffffffffffffffffffffffffff1681565b6106de6106d86112f4565b826113b5565b61071d576040517f08c379a000000000000000000000000000000000000000000000000000000000815260040161071490612764565b60405180910390fd5b610728838383611493565b505050565b60088160405161073d9190612449565b908152602001604051809103902060008473ffffffffffffffffffffffffffffffffffffffff1673ffffffffffffffffffffffffffffffffffffffff16815260200190815260200160002060009054906101000a900460ff16156107d6576040517f08c379a00000000000000000000000000000000000000000000000000000000081526004016107cd906126e4565b60405180910390fd5b600760008154809291906107e990612a61565b91905055506107fa836007546116ef565b600160088260405161080c9190612449565b908152602001604051809103902060008573ffffffffffffffffffffffffffffffffffffffff1673ffffffffffffffffffffffffffffffffffffffff16815260200190815260200160002060006101000a81548160ff02191690831515021790555081600960008573ffffffffffffffffffffffffffffffffffffffff1673ffffffffffffffffffffffffffffffffffffffff168152602001908152602001600020826040516108bc9190612449565b908152602001604051809103902090805190602001906108dd929190611c40565b5060006040518060a001604052808573ffffffffffffffffffffffffffffffffffffffff16815260200183815260200184815260200142815260200160011515815250905080600a60008673ffffffffffffffffffffffffffffffffffffffff1673ffffffffffffffffffffffffffffffffffffffff168152602001908152602001600020836040516109709190612449565b908152602001604051809103902060008201518160000160006101000a81548173ffffffffffffffffffffffffffffffffffffffff021916908373ffffffffffffffffffffffffffffffffffffffff16021790555060208201518160010190805190602001906109e1929190611c40565b5060408201518160020190805190602001906109fe929190611c40565b506060820151816003015560808201518160040160006101000a81548160ff02191690831515021790555090505082604051610a3a9190612449565b60405180910390208473ffffffffffffffffffffffffffffffffffffffff167f371f376692dd846fa34380a8fd44c6a140dc5cd442cd8ae5657963685f17ebed60405160405180910390a350505050565b610aa683838360405180602001604052806000815250610fbe565b505050565b6000806002600084815260200190815260200160002060009054906101000a900473ffffffffffffffffffffffffffffffffffffffff169050600073ffffffffffffffffffffffffffffffffffffffff168173ffffffffffffffffffffffffffffffffffffffff161415610b54576040517f08c379a0000000000000000000000000000000000000000000000000000000008152600401610b4b90612684565b60405180910390fd5b80915050919050565b60008073ffffffffffffffffffffffffffffffffffffffff168273ffffffffffffffffffffffffffffffffffffffff161415610bce576040517f08c379a0000000000000000000000000000000000000000000000000000000008152600401610bc590612664565b60405180910390fd5b600360008373ffffffffffffffffffffffffffffffffffffffff1673ffffffffffffffffffffffffffffffffffffffff168152602001908152602001600020549050919050565b600a60205281600052604060002081805160208101820180518482526020830160208501208183528095505050505050600091509150508060000160009054906101000a900473ffffffffffffffffffffffffffffffffffffffff1690806001018054610c81906129fe565b80601f0160208091040260200160405190810160405280929190818152602001828054610cad906129fe565b8015610cfa5780601f10610ccf57610100808354040283529160200191610cfa565b820191906000526020600020905b815481529060010190602001808311610cdd57829003601f168201915b505050505090806002018054610d0f906129fe565b80601f0160208091040260200160405190810160405280929190818152602001828054610d3b906129fe565b8015610d885780601f10610d5d57610100808354040283529160200191610d88565b820191906000526020600020905b815481529060010190602001808311610d6b57829003601f168201915b5050505050908060030154908060040160009054906101000a900460ff16905085565b606060018054610dba906129fe565b80601f0160208091040260200160405190810160405280929190818152602001828054610de6906129fe565b8015610e335780601f10610e0857610100808354040283529160200191610e33565b820191906000526020600020905b815481529060010190602001808311610e1657829003601f168201915b5050505050905090565b610e456112f4565b73ffffffffffffffffffffffffffffffffffffffff168273ffffffffffffffffffffffffffffffffffffffff161415610eb3576040517f08c379a0000000000000000000000000000000000000000000000000000000008152600401610eaa90612604565b60405180910390fd5b8060056000610ec06112f4565b73ffffffffffffffffffffffffffffffffffffffff1673ffffffffffffffffffffffffffffffffffffffff16815260200190815260200160002060008473ffffffffffffffffffffffffffffffffffffffff1673ffffffffffffffffffffffffffffffffffffffff16815260200190815260200160002060006101000a81548160ff0219169083151502179055508173ffffffffffffffffffffffffffffffffffffffff16610f6d6112f4565b73ffffffffffffffffffffffffffffffffffffffff167f17307eab39ab6107e8899845ad3d59bd9653f200f220920489ca2b5937696c3183604051610fb2919061254c565b60405180910390a35050565b610fcf610fc96112f4565b836113b5565b61100e576040517f08c379a000000000000000000000000000000000000000000000000000000000815260040161100590612764565b60405180910390fd5b61101a848484846118bd565b50505050565b606061102b82611288565b61106a576040517f08c379a000000000000000000000000000000000000000000000000000000000815260040161106190612724565b60405180910390fd5b6000611074611919565b9050600081511161109457604051806020016040528060008152506110bf565b8061109e84611930565b6040516020016110af929190612460565b6040516020818303038152906040525b915050919050565b6000600560008473ffffffffffffffffffffffffffffffffffffffff1673ffffffffffffffffffffffffffffffffffffffff16815260200190815260200160002060008373ffffffffffffffffffffffffffffffffffffffff1673ffffffffffffffffffffffffffffffffffffffff16815260200190815260200160002060009054906101000a900460ff16905092915050565b60096020528160005260406000208180516020810182018051848252602083016020850120818352809550505050505060009150915050805461119d906129fe565b80601f01602080910402602001604051908101604052809291908181526020018280546111c9906129fe565b80156112165780601f106111eb57610100808354040283529160200191611216565b820191906000526020600020905b8154815290600101906020018083116111f957829003601f168201915b505050505081565b60007f01ffc9a7000000000000000000000000000000000000000000000000000000007bffffffffffffffffffffffffffffffffffffffffffffffffffffffff1916827bffffffffffffffffffffffffffffffffffffffffffffffffffffffff1916149050919050565b60008073ffffffffffffffffffffffffffffffffffffffff166002600084815260200190815260200160002060009054906101000a900473ffffffffffffffffffffffffffffffffffffffff1673ffffffffffffffffffffffffffffffffffffffff1614159050919050565b600033905090565b816004600083815260200190815260200160002060006101000a81548173ffffffffffffffffffffffffffffffffffffffff021916908373ffffffffffffffffffffffffffffffffffffffff160217905550808273ffffffffffffffffffffffffffffffffffffffff1661136f83610aab565b73ffffffffffffffffffffffffffffffffffffffff167f8c5be1e5ebec7d5bd14f71427d1e84f3dd0314c0f7b2291e5b200ac8c7c3b92560405160405180910390a45050565b60006113c082611288565b6113ff576040517f08c379a00000000000000000000000000000000000000000000000000000000081526004016113f690612624565b60405180910390fd5b600061140a83610aab565b90508073ffffffffffffffffffffffffffffffffffffffff168473ffffffffffffffffffffffffffffffffffffffff16148061147957508373ffffffffffffffffffffffffffffffffffffffff166114618461050a565b73ffffffffffffffffffffffffffffffffffffffff16145b8061148a575061148981856110c7565b5b91505092915050565b8273ffffffffffffffffffffffffffffffffffffffff166114b382610aab565b73ffffffffffffffffffffffffffffffffffffffff1614611509576040517f08c379a000000000000000000000000000000000000000000000000000000000815260040161150090612704565b60405180910390fd5b600073ffffffffffffffffffffffffffffffffffffffff168273ffffffffffffffffffffffffffffffffffffffff161415611579576040517f08c379a0000000000000000000000000000000000000000000000000000000008152600401611570906125e4565b60405180910390fd5b611584838383611a91565b61158f6000826112fc565b6001600360008573ffffffffffffffffffffffffffffffffffffffff1673ffffffffffffffffffffffffffffffffffffffff16815260200190815260200160002060008282546115df91906128f0565b925050819055506001600360008473ffffffffffffffffffffffffffffffffffffffff1673ffffffffffffffffffffffffffffffffffffffff16815260200190815260200160002060008282546116369190612869565b92505081905550816002600083815260200190815260200160002060006101000a81548173ffffffffffffffffffffffffffffffffffffffff021916908373ffffffffffffffffffffffffffffffffffffffff160217905550808273ffffffffffffffffffffffffffffffffffffffff168473ffffffffffffffffffffffffffffffffffffffff167fddf252ad1be2c89b69c2b068fc378daa952ba7f163c4a11628f55a4df523b3ef60405160405180910390a4505050565b600073ffffffffffffffffffffffffffffffffffffffff168273ffffffffffffffffffffffffffffffffffffffff16141561175f576040517f08c379a0000000000000000000000000000000000000000000000000000000008152600401611756906126a4565b60405180910390fd5b61176881611288565b156117a8576040517f08c379a000000000000000000000000000000000000000000000000000000000815260040161179f906125c4565b60405180910390fd5b6117b460008383611a91565b6001600360008473ffffffffffffffffffffffffffffffffffffffff1673ffffffffffffffffffffffffffffffffffffffff16815260200190815260200160002060008282546118049190612869565b92505081905550816002600083815260200190815260200160002060006101000a81548173ffffffffffffffffffffffffffffffffffffffff021916908373ffffffffffffffffffffffffffffffffffffffff160217905550808273ffffffffffffffffffffffffffffffffffffffff16600073ffffffffffffffffffffffffffffffffffffffff167fddf252ad1be2c89b69c2b068fc378daa952ba7f163c4a11628f55a4df523b3ef60405160405180910390a45050565b6118c8848484611493565b6118d484848484611a96565b611913576040517f08c379a000000000000000000000000000000000000000000000000000000000815260040161190a906125a4565b60405180910390fd5b50505050565b606060405180602001604052806000815250905090565b60606000821415611978576040518060400160405280600181526020017f30000000000000000000000000000000000000000000000000000000000000008152509050611a8c565b600082905060005b600082146119aa57808061199390612a61565b915050600a826119a391906128bf565b9150611980565b60008167ffffffffffffffff8111156119c6576119c5612b97565b5b6040519080825280601f01601f1916602001820160405280156119f85781602001600182028036833780820191505090505b5090505b60008514611a8557600182611a1191906128f0565b9150600a85611a209190612aaa565b6030611a2c9190612869565b60f81b818381518110611a4257611a41612b68565b5b60200101907effffffffffffffffffffffffffffffffffffffffffffffffffffffffffffff1916908160001a905350600a85611a7e91906128bf565b94506119fc565b8093505050505b919050565b505050565b6000611ab78473ffffffffffffffffffffffffffffffffffffffff16611c2d565b15611c20578373ffffffffffffffffffffffffffffffffffffffff1663150b7a02611ae06112f4565b8786866040518563ffffffff1660e01b8152600401611b02949392919061249f565b602060405180830381600087803b158015611b1c57600080fd5b505af1925050508015611b4d57506040513d601f19601f82011682018060405250810190611b4a9190612103565b60015b611bd0573d8060008114611b7d576040519150601f19603f3d011682016040523d82523d6000602084013e611b82565b606091505b50600081511415611bc8576040517f08c379a0000000000000000000000000000000000000000000000000000000008152600401611bbf906125a4565b60405180910390fd5b805181602001fd5b63150b7a0260e01b7bffffffffffffffffffffffffffffffffffffffffffffffffffffffff1916817bffffffffffffffffffffffffffffffffffffffffffffffffffffffff191614915050611c25565b600190505b949350505050565b600080823b905060008111915050919050565b828054611c4c906129fe565b90600052602060002090601f016020900481019282611c6e5760008555611cb5565b82601f10611c8757805160ff1916838001178555611cb5565b82800160010185558215611cb5579182015b82811115611cb4578251825591602001919060010190611c99565b5b509050611cc29190611cc6565b5090565b5b80821115611cdf576000816000905550600101611cc7565b5090565b6000611cf6611cf1846127c4565b61279f565b905082815260208101848484011115611d1257611d11612bcb565b5b611d1d8482856129bc565b509392505050565b6000611d38611d33846127f5565b61279f565b905082815260208101848484011115611d5457611d53612bcb565b5b611d5f8482856129bc565b509392505050565b600081359050611d768161301a565b92915050565b600081359050611d8b81613031565b92915050565b600081359050611da081613048565b92915050565b600081519050611db581613048565b92915050565b600082601f830112611dd057611dcf612bc6565b5b8135611de0848260208601611ce3565b91505092915050565b600082601f830112611dfe57611dfd612bc6565b5b8135611e0e848260208601611d25565b91505092915050565b600081359050611e268161305f565b92915050565b600060208284031215611e4257611e41612bd5565b5b6000611e5084828501611d67565b91505092915050565b60008060408385031215611e7057611e6f612bd5565b5b6000611e7e85828601611d67565b9250506020611e8f85828601611d67565b9150509250929050565b600080600060608486031215611eb257611eb1612bd5565b5b6000611ec086828701611d67565b9350506020611ed186828701611d67565b9250506040611ee286828701611e17565b9150509250925092565b60008060008060808587031215611f0657611f05612bd5565b5b6000611f1487828801611d67565b9450506020611f2587828801611d67565b9350506040611f3687828801611e17565b925050606085013567ffffffffffffffff811115611f5757611f56612bd0565b5b611f6387828801611dbb565b91505092959194509250565b60008060408385031215611f8657611f85612bd5565b5b6000611f9485828601611d67565b9250506020611fa585828601611d7c565b9150509250929050565b60008060408385031215611fc657611fc5612bd5565b5b6000611fd485828601611d67565b925050602083013567ffffffffffffffff811115611ff557611ff4612bd0565b5b61200185828601611de9565b9150509250929050565b60008060006060848603121561202457612023612bd5565b5b600061203286828701611d67565b935050602084013567ffffffffffffffff81111561205357612052612bd0565b5b61205f86828701611de9565b925050604084013567ffffffffffffffff8111156120805761207f612bd0565b5b61208c86828701611de9565b9150509250925092565b600080604083850312156120ad576120ac612bd5565b5b60006120bb85828601611d67565b92505060206120cc85828601611e17565b9150509250929050565b6000602082840312156120ec576120eb612bd5565b5b60006120fa84828501611d91565b91505092915050565b60006020828403121561211957612118612bd5565b5b600061212784828501611da6565b91505092915050565b60006020828403121561214657612145612bd5565b5b600061215484828501611e17565b91505092915050565b61216681612924565b82525050565b61217581612936565b82525050565b600061218682612826565b612190818561283c565b93506121a08185602086016129cb565b6121a981612bda565b840191505092915050565b6121bd81612998565b82525050565b60006121ce82612831565b6121d8818561284d565b93506121e88185602086016129cb565b6121f181612bda565b840191505092915050565b600061220782612831565b612211818561285e565b93506122218185602086016129cb565b80840191505092915050565b600061223a60328361284d565b915061224582612beb565b604082019050919050565b600061225d601c8361284d565b915061226882612c3a565b602082019050919050565b600061228060248361284d565b915061228b82612c63565b604082019050919050565b60006122a360198361284d565b91506122ae82612cb2565b602082019050919050565b60006122c6602c8361284d565b91506122d182612cdb565b604082019050919050565b60006122e960388361284d565b91506122f482612d2a565b604082019050919050565b600061230c602a8361284d565b915061231782612d79565b604082019050919050565b600061232f60298361284d565b915061233a82612dc8565b604082019050919050565b600061235260208361284d565b915061235d82612e17565b602082019050919050565b6000612375602c8361284d565b915061238082612e40565b604082019050919050565b6000612398602f8361284d565b91506123a382612e8f565b604082019050919050565b60006123bb60298361284d565b91506123c682612ede565b604082019050919050565b60006123de602f8361284d565b91506123e982612f2d565b604082019050919050565b600061240160218361284d565b915061240c82612f7c565b604082019050919050565b600061242460318361284d565b915061242f82612fcb565b604082019050919050565b6124438161298e565b82525050565b600061245582846121fc565b915081905092915050565b600061246c82856121fc565b915061247882846121fc565b91508190509392505050565b6000602082019050612499600083018461215d565b92915050565b60006080820190506124b4600083018761215d565b6124c1602083018661215d565b6124ce604083018561243a565b81810360608301526124e0818461217b565b905095945050505050565b600060a082019050612500600083018861215d565b818103602083015261251281876121c3565b9050818103604083015261252681866121c3565b9050612535606083018561243a565b612542608083018461216c565b9695505050505050565b6000602082019050612561600083018461216c565b92915050565b600060208201905061257c60008301846121b4565b92915050565b6000602082019050818103600083015261259c81846121c3565b905092915050565b600060208201905081810360008301526125bd8161222d565b9050919050565b600060208201905081810360008301526125dd81612250565b9050919050565b600060208201905081810360008301526125fd81612273565b9050919050565b6000602082019050818103600083015261261d81612296565b9050919050565b6000602082019050818103600083015261263d816122b9565b9050919050565b6000602082019050818103600083015261265d816122dc565b9050919050565b6000602082019050818103600083015261267d816122ff565b9050919050565b6000602082019050818103600083015261269d81612322565b9050919050565b600060208201905081810360008301526126bd81612345565b9050919050565b600060208201905081810360008301526126dd81612368565b9050919050565b600060208201905081810360008301526126fd8161238b565b9050919050565b6000602082019050818103600083015261271d816123ae565b9050919050565b6000602082019050818103600083015261273d816123d1565b9050919050565b6000602082019050818103600083015261275d816123f4565b9050919050565b6000602082019050818103600083015261277d81612417565b9050919050565b6000602082019050612799600083018461243a565b92915050565b60006127a96127ba565b90506127b58282612a30565b919050565b6000604051905090565b600067ffffffffffffffff8211156127df576127de612b97565b5b6127e882612bda565b9050602081019050919050565b600067ffffffffffffffff8211156128105761280f612b97565b5b61281982612bda565b9050602081019050919050565b600081519050919050565b600081519050919050565b600082825260208201905092915050565b600082825260208201905092915050565b600081905092915050565b60006128748261298e565b915061287f8361298e565b9250827fffffffffffffffffffffffffffffffffffffffffffffffffffffffffffffffff038211156128b4576128b3612adb565b5b828201905092915050565b60006128ca8261298e565b91506128d58361298e565b9250826128e5576128e4612b0a565b5b828204905092915050565b60006128fb8261298e565b91506129068361298e565b92508282101561291957612918612adb565b5b828203905092915050565b600061292f8261296e565b9050919050565b60008115159050919050565b60007fffffffff0000000000000000000000000000000000000000000000000000000082169050919050565b600073ffffffffffffffffffffffffffffffffffffffff82169050919050565b6000819050919050565b60006129a3826129aa565b9050919050565b60006129b58261296e565b9050919050565b82818337600083830152505050565b60005b838110156129e95780820151818401526020810190506129ce565b838111156129f8576000848401525b50505050565b60006002820490506001821680612a1657607f821691505b60208210811415612a2a57612a29612b39565b5b50919050565b612a3982612bda565b810181811067ffffffffffffffff82111715612a5857612a57612b97565b5b80604052505050565b6000612a6c8261298e565b91507fffffffffffffffffffffffffffffffffffffffffffffffffffffffffffffffff821415612a9f57612a9e612adb565b5b600182019050919050565b6000612ab58261298e565b9150612ac08361298e565b925082612ad057612acf612b0a565b5b828206905092915050565b7f4e487b7100000000000000000000000000000000000000000000000000000000600052601160045260246000fd5b7f4e487b7100000000000000000000000000000000000000000000000000000000600052601260045260246000fd5b7f4e487b7100000000000000000000000000000000000000000000000000000000600052602260045260246000fd5b7f4e487b7100000000000000000000000000000000000000000000000000000000600052603260045260246000fd5b7f4e487b7100000000000000000000000000000000000000000000000000000000600052604160045260246000fd5b600080fd5b600080fd5b600080fd5b600080fd5b6000601f19601f8301169050919050565b7f4552433732313a207472616e7366657220746f206e6f6e20455243373231526560008201527f63656976657220696d706c656d656e7465720000000000000000000000000000602082015250565b7f4552433732313a20746f6b656e20616c7265616479206d696e74656400000000600082015250565b7f4552433732313a207472616e7366657220746f20746865207a65726f2061646460008201527f7265737300000000000000000000000000000000000000000000000000000000602082015250565b7f4552433732313a20617070726f766520746f2063616c6c657200000000000000600082015250565b7f4552433732313a206f70657261746f7220717565727920666f72206e6f6e657860008201527f697374656e7420746f6b656e0000000000000000000000000000000000000000602082015250565b7f4552433732313a20617070726f76652063616c6c6572206973206e6f74206f7760008201527f6e6572206e6f7220617070726f76656420666f7220616c6c0000000000000000602082015250565b7f4552433732313a2062616c616e636520717565727920666f7220746865207a6560008201527f726f206164647265737300000000000000000000000000000000000000000000602082015250565b7f4552433732313a206f776e657220717565727920666f72206e6f6e657869737460008201527f656e7420746f6b656e0000000000000000000000000000000000000000000000602082015250565b7f4552433732313a206d696e7420746f20746865207a65726f2061646472657373600082015250565b7f4552433732313a20617070726f76656420717565727920666f72206e6f6e657860008201527f697374656e7420746f6b656e0000000000000000000000000000000000000000602082015250565b7f74686973206164647265737320616c72656164792068617320616e204e46542060008201527f666f722074686973207175657374210000000000000000000000000000000000602082015250565b7f4552433732313a207472616e73666572206f6620746f6b656e2074686174206960008201527f73206e6f74206f776e0000000000000000000000000000000000000000000000602082015250565b7f4552433732314d657461646174613a2055524920717565727920666f72206e6f60008201527f6e6578697374656e7420746f6b656e0000000000000000000000000000000000602082015250565b7f4552433732313a20617070726f76616c20746f2063757272656e74206f776e6560008201527f7200000000000000000000000000000000000000000000000000000000000000602082015250565b7f4552433732313a207472616e736665722063616c6c6572206973206e6f74206f60008201527f776e6572206e6f7220617070726f766564000000000000000000000000000000602082015250565b61302381612924565b811461302e57600080fd5b50565b61303a81612936565b811461304557600080fd5b50565b61305181612942565b811461305c57600080fd5b50565b6130688161298e565b811461307357600080fd5b5056fea264697066735822122049a7e8dae2c617f1bb1d0a64544e025ccc1ebb5deaeb4cabd2cf730c988fb9ae64736f6c63430008060033",
  "immutableReferences": {},
  "source": "pragma solidity >=0.5.0 <0.9.0;\n\n/**\n * @title QuestCompleteNFT\n * @dev NFTs for completing course content on Discovery\n*/\n\nimport \"@openzeppelin/contracts/token/ERC721/ERC721.sol\";\nimport \"./NFTStore.sol\";\n\ncontract QuestCompleteNFT is ERC721{\n\n    NFTStore public masterStore;\n    uint tokenID;\n    mapping (string => mapping (address => bool)) NFTExists; // check if NFT already minted for this quest for this address/DID\n    mapping (address => mapping (string => string)) public getNFTURIsByAddress; //allows retrieval of URIs by address and quest\n    mapping (address => mapping(string => Quest)) public Quests; //allows retrieval of Quest metadata in one struct. Can remove once NFT.storage is used\n\n    struct Quest {\n        address receiver;\n        string quest;\n        string URI;\n        uint timestamp;\n        bool exists;\n    }\n\n\n    event NFTMinted(address indexed _to, string indexed _tokenURI);\n\n    constructor(address _masterStoreAddress) ERC721(\"CompletedDiscoveryQuest\", \"CDQ\") public{\n        masterStore = NFTStore(_masterStoreAddress);\n        bool adminCheck = masterStore.admins(msg.sender);\n        require(adminCheck, \"deployer can't make NFT\");\n    }\n\n    function mintToken(address _to , string memory _tokenURI, string memory questName) public {\n        //access control logic?\n        require(!NFTExists[questName][_to], \"this address already has an NFT for this quest!\");\n        tokenID++;\n        _mint(_to, tokenID);\n        NFTExists[questName][_to] = true;\n        getNFTURIsByAddress[_to][questName] = _tokenURI;\n        Quest memory quest_to_add = Quest({\n            receiver : _to,\n            quest : questName,\n            URI : _tokenURI,\n            timestamp : block.timestamp,\n            exists : true\n        });\n        Quests[_to][questName]= quest_to_add;\n        emit NFTMinted(_to, _tokenURI);\n    }\n\n\n}",
  "sourcePath": "/home/jpick713/BlockChain_Apps/nftIPFS/contracts/QuestCompleteNFT.sol",
  "compiler": {
    "name": "solc",
    "version": "0.8.6+commit.11564f7e.Emscripten.clang"
  },
  "schemaVersion": "3.4.2",
  "updatedAt": "2021-08-03T09:56:39.997Z",
  "networkType": "ethereum",
  "devdoc": {
    "kind": "dev",
    "methods": {
      "approve(address,uint256)": {
        "details": "See {IERC721-approve}."
      },
      "balanceOf(address)": {
        "details": "See {IERC721-balanceOf}."
      },
      "getApproved(uint256)": {
        "details": "See {IERC721-getApproved}."
      },
      "isApprovedForAll(address,address)": {
        "details": "See {IERC721-isApprovedForAll}."
      },
      "name()": {
        "details": "See {IERC721Metadata-name}."
      },
      "ownerOf(uint256)": {
        "details": "See {IERC721-ownerOf}."
      },
      "safeTransferFrom(address,address,uint256)": {
        "details": "See {IERC721-safeTransferFrom}."
      },
      "safeTransferFrom(address,address,uint256,bytes)": {
        "details": "See {IERC721-safeTransferFrom}."
      },
      "setApprovalForAll(address,bool)": {
        "details": "See {IERC721-setApprovalForAll}."
      },
      "supportsInterface(bytes4)": {
        "details": "See {IERC165-supportsInterface}."
      },
      "symbol()": {
        "details": "See {IERC721Metadata-symbol}."
      },
      "tokenURI(uint256)": {
        "details": "See {IERC721Metadata-tokenURI}."
      },
      "transferFrom(address,address,uint256)": {
        "details": "See {IERC721-transferFrom}."
      }
    },
    "version": 1
  },
  "userdoc": {
    "kind": "user",
    "methods": {},
    "version": 1
  }
}