{
  "contractName": "QuestCompleteNFT",
  "abi": [
    {
      "inputs": [
        {
          "internalType": "address",
          "name": "_masterStoreAddress",
          "type": "address"
        },
        {
          "internalType": "address",
          "name": "_checkNFTAddress",
          "type": "address"
        }
      ],
      "stateMutability": "nonpayable",
      "type": "constructor"
    },
    {
      "anonymous": false,
      "inputs": [
        {
          "indexed": true,
          "internalType": "address",
          "name": "owner",
          "type": "address"
        },
        {
          "indexed": true,
          "internalType": "address",
          "name": "approved",
          "type": "address"
        },
        {
          "indexed": true,
          "internalType": "uint256",
          "name": "tokenId",
          "type": "uint256"
        }
      ],
      "name": "Approval",
      "type": "event"
    },
    {
      "anonymous": false,
      "inputs": [
        {
          "indexed": true,
          "internalType": "address",
          "name": "owner",
          "type": "address"
        },
        {
          "indexed": true,
          "internalType": "address",
          "name": "operator",
          "type": "address"
        },
        {
          "indexed": false,
          "internalType": "bool",
          "name": "approved",
          "type": "bool"
        }
      ],
      "name": "ApprovalForAll",
      "type": "event"
    },
    {
      "anonymous": false,
      "inputs": [
        {
          "indexed": true,
          "internalType": "address",
          "name": "_to",
          "type": "address"
        },
        {
          "indexed": true,
          "internalType": "string",
          "name": "_tokenURI",
          "type": "string"
        }
      ],
      "name": "NFTMinted",
      "type": "event"
    },
    {
      "anonymous": false,
      "inputs": [
        {
          "indexed": true,
          "internalType": "address",
          "name": "from",
          "type": "address"
        },
        {
          "indexed": true,
          "internalType": "address",
          "name": "to",
          "type": "address"
        },
        {
          "indexed": true,
          "internalType": "uint256",
          "name": "tokenId",
          "type": "uint256"
        }
      ],
      "name": "Transfer",
      "type": "event"
    },
    {
      "inputs": [
        {
          "internalType": "string",
          "name": "",
          "type": "string"
        },
        {
          "internalType": "address",
          "name": "",
          "type": "address"
        }
      ],
      "name": "NFTExists",
      "outputs": [
        {
          "internalType": "bool",
          "name": "",
          "type": "bool"
        }
      ],
      "stateMutability": "view",
      "type": "function",
      "constant": true
    },
    {
      "inputs": [
        {
          "internalType": "address",
          "name": "",
          "type": "address"
        },
        {
          "internalType": "string",
          "name": "",
          "type": "string"
        }
      ],
      "name": "Quests",
      "outputs": [
        {
          "internalType": "address",
          "name": "receiver",
          "type": "address"
        },
        {
          "internalType": "string",
          "name": "quest",
          "type": "string"
        },
        {
          "internalType": "string",
          "name": "URI",
          "type": "string"
        },
        {
          "internalType": "uint256",
          "name": "timestamp",
          "type": "uint256"
        },
        {
          "internalType": "bool",
          "name": "exists",
          "type": "bool"
        }
      ],
      "stateMutability": "view",
      "type": "function",
      "constant": true
    },
    {
      "inputs": [
        {
          "internalType": "address",
          "name": "to",
          "type": "address"
        },
        {
          "internalType": "uint256",
          "name": "tokenId",
          "type": "uint256"
        }
      ],
      "name": "approve",
      "outputs": [],
      "stateMutability": "nonpayable",
      "type": "function"
    },
    {
      "inputs": [
        {
          "internalType": "address",
          "name": "owner",
          "type": "address"
        }
      ],
      "name": "balanceOf",
      "outputs": [
        {
          "internalType": "uint256",
          "name": "",
          "type": "uint256"
        }
      ],
      "stateMutability": "view",
      "type": "function",
      "constant": true
    },
    {
      "inputs": [],
      "name": "checkNFT",
      "outputs": [
        {
          "internalType": "contract ChainlinkNFT",
          "name": "",
          "type": "address"
        }
      ],
      "stateMutability": "view",
      "type": "function",
      "constant": true
    },
    {
      "inputs": [
        {
          "internalType": "uint256",
          "name": "tokenId",
          "type": "uint256"
        }
      ],
      "name": "getApproved",
      "outputs": [
        {
          "internalType": "address",
          "name": "",
          "type": "address"
        }
      ],
      "stateMutability": "view",
      "type": "function",
      "constant": true
    },
    {
      "inputs": [
        {
          "internalType": "address",
          "name": "",
          "type": "address"
        },
        {
          "internalType": "string",
          "name": "",
          "type": "string"
        }
      ],
      "name": "getNFTURIsByAddress",
      "outputs": [
        {
          "internalType": "string",
          "name": "",
          "type": "string"
        }
      ],
      "stateMutability": "view",
      "type": "function",
      "constant": true
    },
    {
      "inputs": [
        {
          "internalType": "address",
          "name": "owner",
          "type": "address"
        },
        {
          "internalType": "address",
          "name": "operator",
          "type": "address"
        }
      ],
      "name": "isApprovedForAll",
      "outputs": [
        {
          "internalType": "bool",
          "name": "",
          "type": "bool"
        }
      ],
      "stateMutability": "view",
      "type": "function",
      "constant": true
    },
    {
      "inputs": [],
      "name": "masterStore",
      "outputs": [
        {
          "internalType": "contract NFTStore",
          "name": "",
          "type": "address"
        }
      ],
      "stateMutability": "view",
      "type": "function",
      "constant": true
    },
    {
      "inputs": [],
      "name": "name",
      "outputs": [
        {
          "internalType": "string",
          "name": "",
          "type": "string"
        }
      ],
      "stateMutability": "view",
      "type": "function",
      "constant": true
    },
    {
      "inputs": [
        {
          "internalType": "uint256",
          "name": "tokenId",
          "type": "uint256"
        }
      ],
      "name": "ownerOf",
      "outputs": [
        {
          "internalType": "address",
          "name": "",
          "type": "address"
        }
      ],
      "stateMutability": "view",
      "type": "function",
      "constant": true
    },
    {
      "inputs": [
        {
          "internalType": "address",
          "name": "from",
          "type": "address"
        },
        {
          "internalType": "address",
          "name": "to",
          "type": "address"
        },
        {
          "internalType": "uint256",
          "name": "tokenId",
          "type": "uint256"
        }
      ],
      "name": "safeTransferFrom",
      "outputs": [],
      "stateMutability": "nonpayable",
      "type": "function"
    },
    {
      "inputs": [
        {
          "internalType": "address",
          "name": "from",
          "type": "address"
        },
        {
          "internalType": "address",
          "name": "to",
          "type": "address"
        },
        {
          "internalType": "uint256",
          "name": "tokenId",
          "type": "uint256"
        },
        {
          "internalType": "bytes",
          "name": "_data",
          "type": "bytes"
        }
      ],
      "name": "safeTransferFrom",
      "outputs": [],
      "stateMutability": "nonpayable",
      "type": "function"
    },
    {
      "inputs": [
        {
          "internalType": "address",
          "name": "operator",
          "type": "address"
        },
        {
          "internalType": "bool",
          "name": "approved",
          "type": "bool"
        }
      ],
      "name": "setApprovalForAll",
      "outputs": [],
      "stateMutability": "nonpayable",
      "type": "function"
    },
    {
      "inputs": [
        {
          "internalType": "bytes4",
          "name": "interfaceId",
          "type": "bytes4"
        }
      ],
      "name": "supportsInterface",
      "outputs": [
        {
          "internalType": "bool",
          "name": "",
          "type": "bool"
        }
      ],
      "stateMutability": "view",
      "type": "function",
      "constant": true
    },
    {
      "inputs": [],
      "name": "symbol",
      "outputs": [
        {
          "internalType": "string",
          "name": "",
          "type": "string"
        }
      ],
      "stateMutability": "view",
      "type": "function",
      "constant": true
    },
    {
      "inputs": [
        {
          "internalType": "uint256",
          "name": "tokenId",
          "type": "uint256"
        }
      ],
      "name": "tokenURI",
      "outputs": [
        {
          "internalType": "string",
          "name": "",
          "type": "string"
        }
      ],
      "stateMutability": "view",
      "type": "function",
      "constant": true
    },
    {
      "inputs": [
        {
          "internalType": "address",
          "name": "from",
          "type": "address"
        },
        {
          "internalType": "address",
          "name": "to",
          "type": "address"
        },
        {
          "internalType": "uint256",
          "name": "tokenId",
          "type": "uint256"
        }
      ],
      "name": "transferFrom",
      "outputs": [],
      "stateMutability": "nonpayable",
      "type": "function"
    },
    {
      "inputs": [
        {
          "internalType": "address",
          "name": "_to",
          "type": "address"
        },
        {
          "internalType": "string",
          "name": "_tokenURI",
          "type": "string"
        },
        {
          "internalType": "string",
          "name": "questName",
          "type": "string"
        },
        {
          "internalType": "string",
          "name": "_did",
          "type": "string"
        }
      ],
      "name": "mintToken",
      "outputs": [],
      "stateMutability": "nonpayable",
      "type": "function"
    }
  ],
  "bytecode": "0x60806040523480156200001157600080fd5b5060405162003d9438038062003d94833981810160405281019062000037919062000338565b6040518060400160405280601781526020017f436f6d706c65746564446973636f7665727951756573740000000000000000008152506040518060400160405280600381526020017f43445100000000000000000000000000000000000000000000000000000000008152508160009080519060200190620000bb9291906200025a565b508060019080519060200190620000d49291906200025a565b50505081600660006101000a81548173ffffffffffffffffffffffffffffffffffffffff021916908373ffffffffffffffffffffffffffffffffffffffff1602179055506000600660009054906101000a900473ffffffffffffffffffffffffffffffffffffffff1673ffffffffffffffffffffffffffffffffffffffff1663429b62e5336040518263ffffffff1660e01b8152600401620001779190620003e9565b60206040518083038186803b1580156200019057600080fd5b505afa158015620001a5573d6000803e3d6000fd5b505050506040513d601f19601f82011682018060405250810190620001cb91906200037f565b90508062000210576040517f08c379a0000000000000000000000000000000000000000000000000000000008152600401620002079062000406565b60405180910390fd5b81600760006101000a81548173ffffffffffffffffffffffffffffffffffffffff021916908373ffffffffffffffffffffffffffffffffffffffff16021790555050505062000540565b828054620002689062000479565b90600052602060002090601f0160209004810192826200028c5760008555620002d8565b82601f10620002a757805160ff1916838001178555620002d8565b82800160010185558215620002d8579182015b82811115620002d7578251825591602001919060010190620002ba565b5b509050620002e79190620002eb565b5090565b5b8082111562000306576000816000905550600101620002ec565b5090565b6000815190506200031b816200050c565b92915050565b600081519050620003328162000526565b92915050565b60008060408385031215620003525762000351620004de565b5b600062000362858286016200030a565b925050602062000375858286016200030a565b9150509250929050565b600060208284031215620003985762000397620004de565b5b6000620003a88482850162000321565b91505092915050565b620003bc8162000439565b82525050565b6000620003d160178362000428565b9150620003de82620004e3565b602082019050919050565b6000602082019050620004006000830184620003b1565b92915050565b600060208201905081810360008301526200042181620003c2565b9050919050565b600082825260208201905092915050565b6000620004468262000459565b9050919050565b60008115159050919050565b600073ffffffffffffffffffffffffffffffffffffffff82169050919050565b600060028204905060018216806200049257607f821691505b60208210811415620004a957620004a8620004af565b5b50919050565b7f4e487b7100000000000000000000000000000000000000000000000000000000600052602260045260246000fd5b600080fd5b7f6465706c6f7965722063616e2774206d616b65204e4654000000000000000000600082015250565b620005178162000439565b81146200052357600080fd5b50565b62000531816200044d565b81146200053d57600080fd5b50565b61384480620005506000396000f3fe608060405234801561001057600080fd5b50600436106101215760003560e01c806384ce9e12116100ad578063b5a271d411610071578063b5a271d414610332578063b88d4fde1461034e578063c87b56dd1461036a578063e985e9c51461039a578063fbcf50f3146103ca57610121565b806384ce9e12146102765780638bfd589b1461029457806395d89b41146102c8578063a0f026e5146102e6578063a22cb4651461031657610121565b806310243755116100f457806310243755146101c057806323b872dd146101de57806342842e0e146101fa5780636352211e1461021657806370a082311461024657610121565b806301ffc9a71461012657806306fdde0314610156578063081812fc14610174578063095ea7b3146101a4575b600080fd5b610140600480360381019061013b91906125d5565b6103fa565b60405161014d9190612b4c565b60405180910390f35b61015e6104dc565b60405161016b9190612b9d565b60405180910390f35b61018e6004803603810190610189919061268b565b61056e565b60405161019b9190612a84565b60405180910390f35b6101be60048036038101906101b9919061253b565b6105f3565b005b6101c861070b565b6040516101d59190612b82565b60405180910390f35b6101f860048036038101906101f3919061230e565b610731565b005b610214600480360381019061020f919061230e565b610791565b005b610230600480360381019061022b919061268b565b6107b1565b60405161023d9190612a84565b60405180910390f35b610260600480360381019061025b91906122a1565b610863565b60405161026d9190612e36565b60405180910390f35b61027e61091b565b60405161028b9190612b67565b60405180910390f35b6102ae60048036038101906102a99190612424565b610941565b6040516102bf959493929190612aeb565b60405180910390f35b6102d0610ad7565b6040516102dd9190612b9d565b60405180910390f35b61030060048036038101906102fb919061262f565b610b69565b60405161030d9190612b4c565b60405180910390f35b610330600480360381019061032b91906123e4565b610bae565b005b61034c60048036038101906103479190612480565b610d2f565b005b61036860048036038101906103639190612361565b6113f4565b005b610384600480360381019061037f919061268b565b611456565b6040516103919190612b9d565b60405180910390f35b6103b460048036038101906103af91906122ce565b6114fd565b6040516103c19190612b4c565b60405180910390f35b6103e460048036038101906103df9190612424565b611591565b6040516103f19190612b9d565b60405180910390f35b60007f80ac58cd000000000000000000000000000000000000000000000000000000007bffffffffffffffffffffffffffffffffffffffffffffffffffffffff1916827bffffffffffffffffffffffffffffffffffffffffffffffffffffffff191614806104c557507f5b5e139f000000000000000000000000000000000000000000000000000000007bffffffffffffffffffffffffffffffffffffffffffffffffffffffff1916827bffffffffffffffffffffffffffffffffffffffffffffffffffffffff1916145b806104d557506104d482611654565b5b9050919050565b6060600080546104eb906130de565b80601f0160208091040260200160405190810160405280929190818152602001828054610517906130de565b80156105645780601f1061053957610100808354040283529160200191610564565b820191906000526020600020905b81548152906001019060200180831161054757829003601f168201915b5050505050905090565b6000610579826116be565b6105b8576040517f08c379a00000000000000000000000000000000000000000000000000000000081526004016105af90612d56565b60405180910390fd5b6004600083815260200190815260200160002060009054906101000a900473ffffffffffffffffffffffffffffffffffffffff169050919050565b60006105fe826107b1565b90508073ffffffffffffffffffffffffffffffffffffffff168373ffffffffffffffffffffffffffffffffffffffff16141561066f576040517f08c379a000000000000000000000000000000000000000000000000000000000815260040161066690612dd6565b60405180910390fd5b8073ffffffffffffffffffffffffffffffffffffffff1661068e61172a565b73ffffffffffffffffffffffffffffffffffffffff1614806106bd57506106bc816106b761172a565b6114fd565b5b6106fc576040517f08c379a00000000000000000000000000000000000000000000000000000000081526004016106f390612cd6565b60405180910390fd5b6107068383611732565b505050565b600660009054906101000a900473ffffffffffffffffffffffffffffffffffffffff1681565b61074261073c61172a565b826117eb565b610781576040517f08c379a000000000000000000000000000000000000000000000000000000000815260040161077890612df6565b60405180910390fd5b61078c8383836118c9565b505050565b6107ac838383604051806020016040528060008152506113f4565b505050565b6000806002600084815260200190815260200160002060009054906101000a900473ffffffffffffffffffffffffffffffffffffffff169050600073ffffffffffffffffffffffffffffffffffffffff168173ffffffffffffffffffffffffffffffffffffffff16141561085a576040517f08c379a000000000000000000000000000000000000000000000000000000000815260040161085190612d16565b60405180910390fd5b80915050919050565b60008073ffffffffffffffffffffffffffffffffffffffff168273ffffffffffffffffffffffffffffffffffffffff1614156108d4576040517f08c379a00000000000000000000000000000000000000000000000000000000081526004016108cb90612cf6565b60405180910390fd5b600360008373ffffffffffffffffffffffffffffffffffffffff1673ffffffffffffffffffffffffffffffffffffffff168152602001908152602001600020549050919050565b600760009054906101000a900473ffffffffffffffffffffffffffffffffffffffff1681565b600b60205281600052604060002081805160208101820180518482526020830160208501208183528095505050505050600091509150508060000160009054906101000a900473ffffffffffffffffffffffffffffffffffffffff16908060010180546109ad906130de565b80601f01602080910402602001604051908101604052809291908181526020018280546109d9906130de565b8015610a265780601f106109fb57610100808354040283529160200191610a26565b820191906000526020600020905b815481529060010190602001808311610a0957829003601f168201915b505050505090806002018054610a3b906130de565b80601f0160208091040260200160405190810160405280929190818152602001828054610a67906130de565b8015610ab45780601f10610a8957610100808354040283529160200191610ab4565b820191906000526020600020905b815481529060010190602001808311610a9757829003601f168201915b5050505050908060030154908060040160009054906101000a900460ff16905085565b606060018054610ae6906130de565b80601f0160208091040260200160405190810160405280929190818152602001828054610b12906130de565b8015610b5f5780601f10610b3457610100808354040283529160200191610b5f565b820191906000526020600020905b815481529060010190602001808311610b4257829003601f168201915b5050505050905090565b6009828051602081018201805184825260208301602085012081835280955050505050506020528060005260406000206000915091509054906101000a900460ff1681565b610bb661172a565b73ffffffffffffffffffffffffffffffffffffffff168273ffffffffffffffffffffffffffffffffffffffff161415610c24576040517f08c379a0000000000000000000000000000000000000000000000000000000008152600401610c1b90612c76565b60405180910390fd5b8060056000610c3161172a565b73ffffffffffffffffffffffffffffffffffffffff1673ffffffffffffffffffffffffffffffffffffffff16815260200190815260200160002060008473ffffffffffffffffffffffffffffffffffffffff1673ffffffffffffffffffffffffffffffffffffffff16815260200190815260200160002060006101000a81548160ff0219169083151502179055508173ffffffffffffffffffffffffffffffffffffffff16610cde61172a565b73ffffffffffffffffffffffffffffffffffffffff167f17307eab39ab6107e8899845ad3d59bd9653f200f220920489ca2b5937696c3183604051610d239190612b4c565b60405180910390a35050565b600660009054906101000a900473ffffffffffffffffffffffffffffffffffffffff1673ffffffffffffffffffffffffffffffffffffffff1663372c12b1856040518263ffffffff1660e01b8152600401610d8a9190612a84565b60206040518083038186803b158015610da257600080fd5b505afa158015610db6573d6000803e3d6000fd5b505050506040513d601f19601f82011682018060405250810190610dda919061257b565b610e19576040517f08c379a0000000000000000000000000000000000000000000000000000000008152600401610e1090612cb6565b60405180910390fd5b600660009054906101000a900473ffffffffffffffffffffffffffffffffffffffff1673ffffffffffffffffffffffffffffffffffffffff1663a852a581836040518263ffffffff1660e01b8152600401610e749190612b9d565b60206040518083038186803b158015610e8c57600080fd5b505afa158015610ea0573d6000803e3d6000fd5b505050506040513d601f19601f82011682018060405250810190610ec4919061257b565b610f03576040517f08c379a0000000000000000000000000000000000000000000000000000000008152600401610efa90612bf6565b60405180910390fd5b600982604051610f139190612a49565b908152602001604051809103902060008573ffffffffffffffffffffffffffffffffffffffff1673ffffffffffffffffffffffffffffffffffffffff16815260200190815260200160002060009054906101000a900460ff1615610fac576040517f08c379a0000000000000000000000000000000000000000000000000000000008152600401610fa390612d76565b60405180910390fd5b600760009054906101000a900473ffffffffffffffffffffffffffffffffffffffff1673ffffffffffffffffffffffffffffffffffffffff1663414110b582846040518363ffffffff1660e01b8152600401611009929190612bbf565b602060405180830381600087803b15801561102357600080fd5b505af1158015611037573d6000803e3d6000fd5b505050506040513d601f19601f8201168201806040525081019061105b91906125a8565b506001600760009054906101000a900473ffffffffffffffffffffffffffffffffffffffff1673ffffffffffffffffffffffffffffffffffffffff16631b8dca746040518163ffffffff1660e01b815260040160206040518083038186803b1580156110c657600080fd5b505afa1580156110da573d6000803e3d6000fd5b505050506040513d601f19601f820116820180604052508101906110fe91906126b8565b1461113e576040517f08c379a000000000000000000000000000000000000000000000000000000000815260040161113590612e16565b60405180910390fd5b6008600081548092919061115190613141565b919050555061116284600854611b25565b60016009836040516111749190612a49565b908152602001604051809103902060008673ffffffffffffffffffffffffffffffffffffffff1673ffffffffffffffffffffffffffffffffffffffff16815260200190815260200160002060006101000a81548160ff02191690831515021790555082600a60008673ffffffffffffffffffffffffffffffffffffffff1673ffffffffffffffffffffffffffffffffffffffff168152602001908152602001600020836040516112249190612a49565b90815260200160405180910390209080519060200190611245929190612076565b5060006040518060a001604052808673ffffffffffffffffffffffffffffffffffffffff16815260200184815260200185815260200142815260200160011515815250905080600b60008773ffffffffffffffffffffffffffffffffffffffff1673ffffffffffffffffffffffffffffffffffffffff168152602001908152602001600020846040516112d89190612a49565b908152602001604051809103902060008201518160000160006101000a81548173ffffffffffffffffffffffffffffffffffffffff021916908373ffffffffffffffffffffffffffffffffffffffff1602179055506020820151816001019080519060200190611349929190612076565b506040820151816002019080519060200190611366929190612076565b506060820151816003015560808201518160040160006101000a81548160ff021916908315150217905550905050836040516113a29190612a49565b60405180910390208573ffffffffffffffffffffffffffffffffffffffff167f371f376692dd846fa34380a8fd44c6a140dc5cd442cd8ae5657963685f17ebed60405160405180910390a35050505050565b6114056113ff61172a565b836117eb565b611444576040517f08c379a000000000000000000000000000000000000000000000000000000000815260040161143b90612df6565b60405180910390fd5b61145084848484611cf3565b50505050565b6060611461826116be565b6114a0576040517f08c379a000000000000000000000000000000000000000000000000000000000815260040161149790612db6565b60405180910390fd5b60006114aa611d4f565b905060008151116114ca57604051806020016040528060008152506114f5565b806114d484611d66565b6040516020016114e5929190612a60565b6040516020818303038152906040525b915050919050565b6000600560008473ffffffffffffffffffffffffffffffffffffffff1673ffffffffffffffffffffffffffffffffffffffff16815260200190815260200160002060008373ffffffffffffffffffffffffffffffffffffffff1673ffffffffffffffffffffffffffffffffffffffff16815260200190815260200160002060009054906101000a900460ff16905092915050565b600a602052816000526040600020818051602081018201805184825260208301602085012081835280955050505050506000915091505080546115d3906130de565b80601f01602080910402602001604051908101604052809291908181526020018280546115ff906130de565b801561164c5780601f106116215761010080835404028352916020019161164c565b820191906000526020600020905b81548152906001019060200180831161162f57829003601f168201915b505050505081565b60007f01ffc9a7000000000000000000000000000000000000000000000000000000007bffffffffffffffffffffffffffffffffffffffffffffffffffffffff1916827bffffffffffffffffffffffffffffffffffffffffffffffffffffffff1916149050919050565b60008073ffffffffffffffffffffffffffffffffffffffff166002600084815260200190815260200160002060009054906101000a900473ffffffffffffffffffffffffffffffffffffffff1673ffffffffffffffffffffffffffffffffffffffff1614159050919050565b600033905090565b816004600083815260200190815260200160002060006101000a81548173ffffffffffffffffffffffffffffffffffffffff021916908373ffffffffffffffffffffffffffffffffffffffff160217905550808273ffffffffffffffffffffffffffffffffffffffff166117a5836107b1565b73ffffffffffffffffffffffffffffffffffffffff167f8c5be1e5ebec7d5bd14f71427d1e84f3dd0314c0f7b2291e5b200ac8c7c3b92560405160405180910390a45050565b60006117f6826116be565b611835576040517f08c379a000000000000000000000000000000000000000000000000000000000815260040161182c90612c96565b60405180910390fd5b6000611840836107b1565b90508073ffffffffffffffffffffffffffffffffffffffff168473ffffffffffffffffffffffffffffffffffffffff1614806118af57508373ffffffffffffffffffffffffffffffffffffffff166118978461056e565b73ffffffffffffffffffffffffffffffffffffffff16145b806118c057506118bf81856114fd565b5b91505092915050565b8273ffffffffffffffffffffffffffffffffffffffff166118e9826107b1565b73ffffffffffffffffffffffffffffffffffffffff161461193f576040517f08c379a000000000000000000000000000000000000000000000000000000000815260040161193690612d96565b60405180910390fd5b600073ffffffffffffffffffffffffffffffffffffffff168273ffffffffffffffffffffffffffffffffffffffff1614156119af576040517f08c379a00000000000000000000000000000000000000000000000000000000081526004016119a690612c56565b60405180910390fd5b6119ba838383611ec7565b6119c5600082611732565b6001600360008573ffffffffffffffffffffffffffffffffffffffff1673ffffffffffffffffffffffffffffffffffffffff1681526020019081526020016000206000828254611a159190612fa2565b925050819055506001600360008473ffffffffffffffffffffffffffffffffffffffff1673ffffffffffffffffffffffffffffffffffffffff1681526020019081526020016000206000828254611a6c9190612f1b565b92505081905550816002600083815260200190815260200160002060006101000a81548173ffffffffffffffffffffffffffffffffffffffff021916908373ffffffffffffffffffffffffffffffffffffffff160217905550808273ffffffffffffffffffffffffffffffffffffffff168473ffffffffffffffffffffffffffffffffffffffff167fddf252ad1be2c89b69c2b068fc378daa952ba7f163c4a11628f55a4df523b3ef60405160405180910390a4505050565b600073ffffffffffffffffffffffffffffffffffffffff168273ffffffffffffffffffffffffffffffffffffffff161415611b95576040517f08c379a0000000000000000000000000000000000000000000000000000000008152600401611b8c90612d36565b60405180910390fd5b611b9e816116be565b15611bde576040517f08c379a0000000000000000000000000000000000000000000000000000000008152600401611bd590612c36565b60405180910390fd5b611bea60008383611ec7565b6001600360008473ffffffffffffffffffffffffffffffffffffffff1673ffffffffffffffffffffffffffffffffffffffff1681526020019081526020016000206000828254611c3a9190612f1b565b92505081905550816002600083815260200190815260200160002060006101000a81548173ffffffffffffffffffffffffffffffffffffffff021916908373ffffffffffffffffffffffffffffffffffffffff160217905550808273ffffffffffffffffffffffffffffffffffffffff16600073ffffffffffffffffffffffffffffffffffffffff167fddf252ad1be2c89b69c2b068fc378daa952ba7f163c4a11628f55a4df523b3ef60405160405180910390a45050565b611cfe8484846118c9565b611d0a84848484611ecc565b611d49576040517f08c379a0000000000000000000000000000000000000000000000000000000008152600401611d4090612c16565b60405180910390fd5b50505050565b606060405180602001604052806000815250905090565b60606000821415611dae576040518060400160405280600181526020017f30000000000000000000000000000000000000000000000000000000000000008152509050611ec2565b600082905060005b60008214611de0578080611dc990613141565b915050600a82611dd99190612f71565b9150611db6565b60008167ffffffffffffffff811115611dfc57611dfb613277565b5b6040519080825280601f01601f191660200182016040528015611e2e5781602001600182028036833780820191505090505b5090505b60008514611ebb57600182611e479190612fa2565b9150600a85611e56919061318a565b6030611e629190612f1b565b60f81b818381518110611e7857611e77613248565b5b60200101907effffffffffffffffffffffffffffffffffffffffffffffffffffffffffffff1916908160001a905350600a85611eb49190612f71565b9450611e32565b8093505050505b919050565b505050565b6000611eed8473ffffffffffffffffffffffffffffffffffffffff16612063565b15612056578373ffffffffffffffffffffffffffffffffffffffff1663150b7a02611f1661172a565b8786866040518563ffffffff1660e01b8152600401611f389493929190612a9f565b602060405180830381600087803b158015611f5257600080fd5b505af1925050508015611f8357506040513d601f19601f82011682018060405250810190611f809190612602565b60015b612006573d8060008114611fb3576040519150601f19603f3d011682016040523d82523d6000602084013e611fb8565b606091505b50600081511415611ffe576040517f08c379a0000000000000000000000000000000000000000000000000000000008152600401611ff590612c16565b60405180910390fd5b805181602001fd5b63150b7a0260e01b7bffffffffffffffffffffffffffffffffffffffffffffffffffffffff1916817bffffffffffffffffffffffffffffffffffffffffffffffffffffffff19161491505061205b565b600190505b949350505050565b600080823b905060008111915050919050565b828054612082906130de565b90600052602060002090601f0160209004810192826120a457600085556120eb565b82601f106120bd57805160ff19168380011785556120eb565b828001600101855582156120eb579182015b828111156120ea5782518255916020019190600101906120cf565b5b5090506120f891906120fc565b5090565b5b808211156121155760008160009055506001016120fd565b5090565b600061212c61212784612e76565b612e51565b905082815260208101848484011115612148576121476132ab565b5b61215384828561309c565b509392505050565b600061216e61216984612ea7565b612e51565b90508281526020810184848401111561218a576121896132ab565b5b61219584828561309c565b509392505050565b6000813590506121ac8161379b565b92915050565b6000813590506121c1816137b2565b92915050565b6000815190506121d6816137b2565b92915050565b6000815190506121eb816137c9565b92915050565b600081359050612200816137e0565b92915050565b600081519050612215816137e0565b92915050565b600082601f8301126122305761222f6132a6565b5b8135612240848260208601612119565b91505092915050565b600082601f83011261225e5761225d6132a6565b5b813561226e84826020860161215b565b91505092915050565b600081359050612286816137f7565b92915050565b60008151905061229b816137f7565b92915050565b6000602082840312156122b7576122b66132b5565b5b60006122c58482850161219d565b91505092915050565b600080604083850312156122e5576122e46132b5565b5b60006122f38582860161219d565b92505060206123048582860161219d565b9150509250929050565b600080600060608486031215612327576123266132b5565b5b60006123358682870161219d565b93505060206123468682870161219d565b925050604061235786828701612277565b9150509250925092565b6000806000806080858703121561237b5761237a6132b5565b5b60006123898782880161219d565b945050602061239a8782880161219d565b93505060406123ab87828801612277565b925050606085013567ffffffffffffffff8111156123cc576123cb6132b0565b5b6123d88782880161221b565b91505092959194509250565b600080604083850312156123fb576123fa6132b5565b5b60006124098582860161219d565b925050602061241a858286016121b2565b9150509250929050565b6000806040838503121561243b5761243a6132b5565b5b60006124498582860161219d565b925050602083013567ffffffffffffffff81111561246a576124696132b0565b5b61247685828601612249565b9150509250929050565b6000806000806080858703121561249a576124996132b5565b5b60006124a88782880161219d565b945050602085013567ffffffffffffffff8111156124c9576124c86132b0565b5b6124d587828801612249565b935050604085013567ffffffffffffffff8111156124f6576124f56132b0565b5b61250287828801612249565b925050606085013567ffffffffffffffff811115612523576125226132b0565b5b61252f87828801612249565b91505092959194509250565b60008060408385031215612552576125516132b5565b5b60006125608582860161219d565b925050602061257185828601612277565b9150509250929050565b600060208284031215612591576125906132b5565b5b600061259f848285016121c7565b91505092915050565b6000602082840312156125be576125bd6132b5565b5b60006125cc848285016121dc565b91505092915050565b6000602082840312156125eb576125ea6132b5565b5b60006125f9848285016121f1565b91505092915050565b600060208284031215612618576126176132b5565b5b600061262684828501612206565b91505092915050565b60008060408385031215612646576126456132b5565b5b600083013567ffffffffffffffff811115612664576126636132b0565b5b61267085828601612249565b92505060206126818582860161219d565b9150509250929050565b6000602082840312156126a1576126a06132b5565b5b60006126af84828501612277565b91505092915050565b6000602082840312156126ce576126cd6132b5565b5b60006126dc8482850161228c565b91505092915050565b6126ee81612fd6565b82525050565b6126fd81612fe8565b82525050565b600061270e82612ed8565b6127188185612eee565b93506127288185602086016130ab565b612731816132ba565b840191505092915050565b61274581613054565b82525050565b61275481613078565b82525050565b600061276582612ee3565b61276f8185612eff565b935061277f8185602086016130ab565b612788816132ba565b840191505092915050565b600061279e82612ee3565b6127a88185612f10565b93506127b88185602086016130ab565b80840191505092915050565b60006127d1601783612eff565b91506127dc826132cb565b602082019050919050565b60006127f4603283612eff565b91506127ff826132f4565b604082019050919050565b6000612817601c83612eff565b915061282282613343565b602082019050919050565b600061283a602483612eff565b91506128458261336c565b604082019050919050565b600061285d601983612eff565b9150612868826133bb565b602082019050919050565b6000612880602c83612eff565b915061288b826133e4565b604082019050919050565b60006128a3601a83612eff565b91506128ae82613433565b602082019050919050565b60006128c6603883612eff565b91506128d18261345c565b604082019050919050565b60006128e9602a83612eff565b91506128f4826134ab565b604082019050919050565b600061290c602983612eff565b9150612917826134fa565b604082019050919050565b600061292f602083612eff565b915061293a82613549565b602082019050919050565b6000612952602c83612eff565b915061295d82613572565b604082019050919050565b6000612975602f83612eff565b9150612980826135c1565b604082019050919050565b6000612998602983612eff565b91506129a382613610565b604082019050919050565b60006129bb602f83612eff565b91506129c68261365f565b604082019050919050565b60006129de602183612eff565b91506129e9826136ae565b604082019050919050565b6000612a01603183612eff565b9150612a0c826136fd565b604082019050919050565b6000612a24602383612eff565b9150612a2f8261374c565b604082019050919050565b612a438161304a565b82525050565b6000612a558284612793565b915081905092915050565b6000612a6c8285612793565b9150612a788284612793565b91508190509392505050565b6000602082019050612a9960008301846126e5565b92915050565b6000608082019050612ab460008301876126e5565b612ac160208301866126e5565b612ace6040830185612a3a565b8181036060830152612ae08184612703565b905095945050505050565b600060a082019050612b0060008301886126e5565b8181036020830152612b12818761275a565b90508181036040830152612b26818661275a565b9050612b356060830185612a3a565b612b4260808301846126f4565b9695505050505050565b6000602082019050612b6160008301846126f4565b92915050565b6000602082019050612b7c600083018461273c565b92915050565b6000602082019050612b97600083018461274b565b92915050565b60006020820190508181036000830152612bb7818461275a565b905092915050565b60006040820190508181036000830152612bd9818561275a565b90508181036020830152612bed818461275a565b90509392505050565b60006020820190508181036000830152612c0f816127c4565b9050919050565b60006020820190508181036000830152612c2f816127e7565b9050919050565b60006020820190508181036000830152612c4f8161280a565b9050919050565b60006020820190508181036000830152612c6f8161282d565b9050919050565b60006020820190508181036000830152612c8f81612850565b9050919050565b60006020820190508181036000830152612caf81612873565b9050919050565b60006020820190508181036000830152612ccf81612896565b9050919050565b60006020820190508181036000830152612cef816128b9565b9050919050565b60006020820190508181036000830152612d0f816128dc565b9050919050565b60006020820190508181036000830152612d2f816128ff565b9050919050565b60006020820190508181036000830152612d4f81612922565b9050919050565b60006020820190508181036000830152612d6f81612945565b9050919050565b60006020820190508181036000830152612d8f81612968565b9050919050565b60006020820190508181036000830152612daf8161298b565b9050919050565b60006020820190508181036000830152612dcf816129ae565b9050919050565b60006020820190508181036000830152612def816129d1565b9050919050565b60006020820190508181036000830152612e0f816129f4565b9050919050565b60006020820190508181036000830152612e2f81612a17565b9050919050565b6000602082019050612e4b6000830184612a3a565b92915050565b6000612e5b612e6c565b9050612e678282613110565b919050565b6000604051905090565b600067ffffffffffffffff821115612e9157612e90613277565b5b612e9a826132ba565b9050602081019050919050565b600067ffffffffffffffff821115612ec257612ec1613277565b5b612ecb826132ba565b9050602081019050919050565b600081519050919050565b600081519050919050565b600082825260208201905092915050565b600082825260208201905092915050565b600081905092915050565b6000612f268261304a565b9150612f318361304a565b9250827fffffffffffffffffffffffffffffffffffffffffffffffffffffffffffffffff03821115612f6657612f656131bb565b5b828201905092915050565b6000612f7c8261304a565b9150612f878361304a565b925082612f9757612f966131ea565b5b828204905092915050565b6000612fad8261304a565b9150612fb88361304a565b925082821015612fcb57612fca6131bb565b5b828203905092915050565b6000612fe18261302a565b9050919050565b60008115159050919050565b6000819050919050565b60007fffffffff0000000000000000000000000000000000000000000000000000000082169050919050565b600073ffffffffffffffffffffffffffffffffffffffff82169050919050565b6000819050919050565b600061305f82613066565b9050919050565b60006130718261302a565b9050919050565b60006130838261308a565b9050919050565b60006130958261302a565b9050919050565b82818337600083830152505050565b60005b838110156130c95780820151818401526020810190506130ae565b838111156130d8576000848401525b50505050565b600060028204905060018216806130f657607f821691505b6020821081141561310a57613109613219565b5b50919050565b613119826132ba565b810181811067ffffffffffffffff8211171561313857613137613277565b5b80604052505050565b600061314c8261304a565b91507fffffffffffffffffffffffffffffffffffffffffffffffffffffffffffffffff82141561317f5761317e6131bb565b5b600182019050919050565b60006131958261304a565b91506131a08361304a565b9250826131b0576131af6131ea565b5b828206905092915050565b7f4e487b7100000000000000000000000000000000000000000000000000000000600052601160045260246000fd5b7f4e487b7100000000000000000000000000000000000000000000000000000000600052601260045260246000fd5b7f4e487b7100000000000000000000000000000000000000000000000000000000600052602260045260246000fd5b7f4e487b7100000000000000000000000000000000000000000000000000000000600052603260045260246000fd5b7f4e487b7100000000000000000000000000000000000000000000000000000000600052604160045260246000fd5b600080fd5b600080fd5b600080fd5b600080fd5b6000601f19601f8301169050919050565b7f74686973207175657374206973206e6f742076616c6964000000000000000000600082015250565b7f4552433732313a207472616e7366657220746f206e6f6e20455243373231526560008201527f63656976657220696d706c656d656e7465720000000000000000000000000000602082015250565b7f4552433732313a20746f6b656e20616c7265616479206d696e74656400000000600082015250565b7f4552433732313a207472616e7366657220746f20746865207a65726f2061646460008201527f7265737300000000000000000000000000000000000000000000000000000000602082015250565b7f4552433732313a20617070726f766520746f2063616c6c657200000000000000600082015250565b7f4552433732313a206f70657261746f7220717565727920666f72206e6f6e657860008201527f697374656e7420746f6b656e0000000000000000000000000000000000000000602082015250565b7f61646472657373206973206e6f74207265676973746572656421000000000000600082015250565b7f4552433732313a20617070726f76652063616c6c6572206973206e6f74206f7760008201527f6e6572206e6f7220617070726f76656420666f7220616c6c0000000000000000602082015250565b7f4552433732313a2062616c616e636520717565727920666f7220746865207a6560008201527f726f206164647265737300000000000000000000000000000000000000000000602082015250565b7f4552433732313a206f776e657220717565727920666f72206e6f6e657869737460008201527f656e7420746f6b656e0000000000000000000000000000000000000000000000602082015250565b7f4552433732313a206d696e7420746f20746865207a65726f2061646472657373600082015250565b7f4552433732313a20617070726f76656420717565727920666f72206e6f6e657860008201527f697374656e7420746f6b656e0000000000000000000000000000000000000000602082015250565b7f74686973206164647265737320616c72656164792068617320616e204e46542060008201527f666f722074686973207175657374210000000000000000000000000000000000602082015250565b7f4552433732313a207472616e73666572206f6620746f6b656e2074686174206960008201527f73206e6f74206f776e0000000000000000000000000000000000000000000000602082015250565b7f4552433732314d657461646174613a2055524920717565727920666f72206e6f60008201527f6e6578697374656e7420746f6b656e0000000000000000000000000000000000602082015250565b7f4552433732313a20617070726f76616c20746f2063757272656e74206f776e6560008201527f7200000000000000000000000000000000000000000000000000000000000000602082015250565b7f4552433732313a207472616e736665722063616c6c6572206973206e6f74206f60008201527f776e6572206e6f7220617070726f766564000000000000000000000000000000602082015250565b7f4e6f7420616c6c207175697a7a657320636f6d706c6574656420666f7220717560008201527f6573740000000000000000000000000000000000000000000000000000000000602082015250565b6137a481612fd6565b81146137af57600080fd5b50565b6137bb81612fe8565b81146137c657600080fd5b50565b6137d281612ff4565b81146137dd57600080fd5b50565b6137e981612ffe565b81146137f457600080fd5b50565b6138008161304a565b811461380b57600080fd5b5056fea26469706673582212207fdd17a124b6c1d808a54e4b7c6e6a12e418eeb32787fd859aac4b36f7769f9664736f6c63430008060033",
  "immutableReferences": {},
  "source": "pragma solidity >=0.5.0 <0.9.0;\n\n/**\n * @title QuestCompleteNFT\n * @dev NFTs for completing course content on Discovery\n*/\n\nimport \"@openzeppelin/contracts/token/ERC721/ERC721.sol\";\nimport \"./NFTStore.sol\";\nimport \"./ChainlinkNFT.sol\";\n\ncontract QuestCompleteNFT is ERC721{\n\n    NFTStore public masterStore;\n    ChainlinkNFT public checkNFT;\n    uint tokenID;\n    mapping (string => mapping (address => bool)) public NFTExists; // check if NFT already minted for this quest for this address/DID\n    mapping (address => mapping (string => string)) public getNFTURIsByAddress; //allows retrieval of URIs by address and quest\n    mapping (address => mapping(string => Quest)) public Quests; //allows retrieval of Quest metadata in one struct. Can remove once NFT.storage is used\n\n    struct Quest {\n        address receiver;\n        string quest;\n        string URI;\n        uint timestamp;\n        bool exists;\n    }\n\n\n    event NFTMinted(address indexed _to, string indexed _tokenURI);\n\n    constructor(address _masterStoreAddress, address _checkNFTAddress) ERC721(\"CompletedDiscoveryQuest\", \"CDQ\") public{\n        masterStore = NFTStore(_masterStoreAddress);\n        bool adminCheck = masterStore.admins(msg.sender);\n        require(adminCheck, \"deployer can't make NFT\");\n        checkNFT = ChainlinkNFT(_checkNFTAddress);\n    }\n\n    function mintToken(address _to , string memory _tokenURI, string memory questName, string memory _did) public {\n        //access control logic with chainlink?\n        require(masterStore.whiteList(_to), \"address is not registered!\");\n        require(masterStore.approvedQuests(questName), \"this quest is not valid\");\n        require(!NFTExists[questName][_to], \"this address already has an NFT for this quest!\");\n        checkNFT.requestCeramicData(_did, questName);\n        require(checkNFT.allowMint()==1, \"Not all quizzes completed for quest\");\n        tokenID++;\n        _mint(_to, tokenID);\n        NFTExists[questName][_to] = true;\n        getNFTURIsByAddress[_to][questName] = _tokenURI;\n        Quest memory quest_to_add = Quest({\n            receiver : _to,\n            quest : questName,\n            URI : _tokenURI,\n            timestamp : block.timestamp,\n            exists : true\n        });\n        Quests[_to][questName]= quest_to_add;\n        emit NFTMinted(_to, _tokenURI);\n    }\n}",
  "sourcePath": "/home/jpick713/BlockChain_Apps/nftIPFS/contracts/QuestCompleteNFT.sol",
  "compiler": {
    "name": "solc",
    "version": "0.8.6+commit.11564f7e.Emscripten.clang"
  },
  "schemaVersion": "3.4.2",
  "updatedAt": "2021-08-12T02:51:44.985Z",
  "networkType": "ethereum",
  "devdoc": {
    "kind": "dev",
    "methods": {
      "approve(address,uint256)": {
        "details": "See {IERC721-approve}."
      },
      "balanceOf(address)": {
        "details": "See {IERC721-balanceOf}."
      },
      "getApproved(uint256)": {
        "details": "See {IERC721-getApproved}."
      },
      "isApprovedForAll(address,address)": {
        "details": "See {IERC721-isApprovedForAll}."
      },
      "name()": {
        "details": "See {IERC721Metadata-name}."
      },
      "ownerOf(uint256)": {
        "details": "See {IERC721-ownerOf}."
      },
      "safeTransferFrom(address,address,uint256)": {
        "details": "See {IERC721-safeTransferFrom}."
      },
      "safeTransferFrom(address,address,uint256,bytes)": {
        "details": "See {IERC721-safeTransferFrom}."
      },
      "setApprovalForAll(address,bool)": {
        "details": "See {IERC721-setApprovalForAll}."
      },
      "supportsInterface(bytes4)": {
        "details": "See {IERC165-supportsInterface}."
      },
      "symbol()": {
        "details": "See {IERC721Metadata-symbol}."
      },
      "tokenURI(uint256)": {
        "details": "See {IERC721Metadata-tokenURI}."
      },
      "transferFrom(address,address,uint256)": {
        "details": "See {IERC721-transferFrom}."
      }
    },
    "version": 1
  },
  "userdoc": {
    "kind": "user",
    "methods": {},
    "version": 1
  }
}