{
  "contractName": "QuestCompleteNFT",
  "abi": [
    {
      "inputs": [
        {
          "internalType": "address payable",
          "name": "_masterStoreAddress",
          "type": "address"
        },
        {
          "internalType": "address payable",
          "name": "_checkNFTAddress",
          "type": "address"
        }
      ],
      "stateMutability": "nonpayable",
      "type": "constructor"
    },
    {
      "anonymous": false,
      "inputs": [
        {
          "indexed": true,
          "internalType": "address",
          "name": "owner",
          "type": "address"
        },
        {
          "indexed": true,
          "internalType": "address",
          "name": "approved",
          "type": "address"
        },
        {
          "indexed": true,
          "internalType": "uint256",
          "name": "tokenId",
          "type": "uint256"
        }
      ],
      "name": "Approval",
      "type": "event"
    },
    {
      "anonymous": false,
      "inputs": [
        {
          "indexed": true,
          "internalType": "address",
          "name": "owner",
          "type": "address"
        },
        {
          "indexed": true,
          "internalType": "address",
          "name": "operator",
          "type": "address"
        },
        {
          "indexed": false,
          "internalType": "bool",
          "name": "approved",
          "type": "bool"
        }
      ],
      "name": "ApprovalForAll",
      "type": "event"
    },
    {
      "anonymous": false,
      "inputs": [
        {
          "indexed": true,
          "internalType": "address",
          "name": "_to",
          "type": "address"
        },
        {
          "indexed": true,
          "internalType": "string",
          "name": "_tokenURI",
          "type": "string"
        }
      ],
      "name": "NFTMinted",
      "type": "event"
    },
    {
      "anonymous": false,
      "inputs": [
        {
          "indexed": true,
          "internalType": "address",
          "name": "to",
          "type": "address"
        },
        {
          "indexed": false,
          "internalType": "string",
          "name": "quest",
          "type": "string"
        },
        {
          "indexed": false,
          "internalType": "bytes32",
          "name": "requestID",
          "type": "bytes32"
        }
      ],
      "name": "NFTRequestMade",
      "type": "event"
    },
    {
      "anonymous": false,
      "inputs": [
        {
          "indexed": true,
          "internalType": "address",
          "name": "from",
          "type": "address"
        },
        {
          "indexed": true,
          "internalType": "address",
          "name": "to",
          "type": "address"
        },
        {
          "indexed": true,
          "internalType": "uint256",
          "name": "tokenId",
          "type": "uint256"
        }
      ],
      "name": "Transfer",
      "type": "event"
    },
    {
      "inputs": [
        {
          "internalType": "string",
          "name": "",
          "type": "string"
        },
        {
          "internalType": "address",
          "name": "",
          "type": "address"
        }
      ],
      "name": "NFTExists",
      "outputs": [
        {
          "internalType": "bool",
          "name": "",
          "type": "bool"
        }
      ],
      "stateMutability": "view",
      "type": "function",
      "constant": true
    },
    {
      "inputs": [
        {
          "internalType": "bytes32",
          "name": "",
          "type": "bytes32"
        }
      ],
      "name": "NFTRequests",
      "outputs": [
        {
          "internalType": "address",
          "name": "to",
          "type": "address"
        },
        {
          "internalType": "string",
          "name": "URI",
          "type": "string"
        },
        {
          "internalType": "string",
          "name": "quest",
          "type": "string"
        },
        {
          "internalType": "string",
          "name": "did",
          "type": "string"
        },
        {
          "internalType": "bool",
          "name": "completed",
          "type": "bool"
        },
        {
          "internalType": "bool",
          "name": "exists",
          "type": "bool"
        }
      ],
      "stateMutability": "view",
      "type": "function",
      "constant": true
    },
    {
      "inputs": [
        {
          "internalType": "address",
          "name": "",
          "type": "address"
        },
        {
          "internalType": "string",
          "name": "",
          "type": "string"
        }
      ],
      "name": "Quests",
      "outputs": [
        {
          "internalType": "address",
          "name": "receiver",
          "type": "address"
        },
        {
          "internalType": "string",
          "name": "quest",
          "type": "string"
        },
        {
          "internalType": "string",
          "name": "URI",
          "type": "string"
        },
        {
          "internalType": "uint256",
          "name": "timestamp",
          "type": "uint256"
        },
        {
          "internalType": "bool",
          "name": "exists",
          "type": "bool"
        }
      ],
      "stateMutability": "view",
      "type": "function",
      "constant": true
    },
    {
      "inputs": [
        {
          "internalType": "address",
          "name": "to",
          "type": "address"
        },
        {
          "internalType": "uint256",
          "name": "tokenId",
          "type": "uint256"
        }
      ],
      "name": "approve",
      "outputs": [],
      "stateMutability": "nonpayable",
      "type": "function"
    },
    {
      "inputs": [
        {
          "internalType": "address",
          "name": "owner",
          "type": "address"
        }
      ],
      "name": "balanceOf",
      "outputs": [
        {
          "internalType": "uint256",
          "name": "",
          "type": "uint256"
        }
      ],
      "stateMutability": "view",
      "type": "function",
      "constant": true
    },
    {
      "inputs": [],
      "name": "checkNFT",
      "outputs": [
        {
          "internalType": "contract ChainlinkNFT",
          "name": "",
          "type": "address"
        }
      ],
      "stateMutability": "view",
      "type": "function",
      "constant": true
    },
    {
      "inputs": [
        {
          "internalType": "uint256",
          "name": "tokenId",
          "type": "uint256"
        }
      ],
      "name": "getApproved",
      "outputs": [
        {
          "internalType": "address",
          "name": "",
          "type": "address"
        }
      ],
      "stateMutability": "view",
      "type": "function",
      "constant": true
    },
    {
      "inputs": [
        {
          "internalType": "address",
          "name": "",
          "type": "address"
        },
        {
          "internalType": "string",
          "name": "",
          "type": "string"
        }
      ],
      "name": "getNFTURIsByAddress",
      "outputs": [
        {
          "internalType": "string",
          "name": "",
          "type": "string"
        }
      ],
      "stateMutability": "view",
      "type": "function",
      "constant": true
    },
    {
      "inputs": [
        {
          "internalType": "address",
          "name": "owner",
          "type": "address"
        },
        {
          "internalType": "address",
          "name": "operator",
          "type": "address"
        }
      ],
      "name": "isApprovedForAll",
      "outputs": [
        {
          "internalType": "bool",
          "name": "",
          "type": "bool"
        }
      ],
      "stateMutability": "view",
      "type": "function",
      "constant": true
    },
    {
      "inputs": [],
      "name": "masterStore",
      "outputs": [
        {
          "internalType": "contract NFTStore",
          "name": "",
          "type": "address"
        }
      ],
      "stateMutability": "view",
      "type": "function",
      "constant": true
    },
    {
      "inputs": [],
      "name": "name",
      "outputs": [
        {
          "internalType": "string",
          "name": "",
          "type": "string"
        }
      ],
      "stateMutability": "view",
      "type": "function",
      "constant": true
    },
    {
      "inputs": [
        {
          "internalType": "uint256",
          "name": "tokenId",
          "type": "uint256"
        }
      ],
      "name": "ownerOf",
      "outputs": [
        {
          "internalType": "address",
          "name": "",
          "type": "address"
        }
      ],
      "stateMutability": "view",
      "type": "function",
      "constant": true
    },
    {
      "inputs": [
        {
          "internalType": "string",
          "name": "",
          "type": "string"
        },
        {
          "internalType": "uint256",
          "name": "",
          "type": "uint256"
        }
      ],
      "name": "rarityPercentages",
      "outputs": [
        {
          "internalType": "uint256",
          "name": "",
          "type": "uint256"
        }
      ],
      "stateMutability": "view",
      "type": "function",
      "constant": true
    },
    {
      "inputs": [
        {
          "internalType": "string",
          "name": "",
          "type": "string"
        }
      ],
      "name": "rarityThreshold",
      "outputs": [
        {
          "internalType": "uint256",
          "name": "",
          "type": "uint256"
        }
      ],
      "stateMutability": "view",
      "type": "function",
      "constant": true
    },
    {
      "inputs": [
        {
          "internalType": "address",
          "name": "from",
          "type": "address"
        },
        {
          "internalType": "address",
          "name": "to",
          "type": "address"
        },
        {
          "internalType": "uint256",
          "name": "tokenId",
          "type": "uint256"
        }
      ],
      "name": "safeTransferFrom",
      "outputs": [],
      "stateMutability": "nonpayable",
      "type": "function"
    },
    {
      "inputs": [
        {
          "internalType": "address",
          "name": "from",
          "type": "address"
        },
        {
          "internalType": "address",
          "name": "to",
          "type": "address"
        },
        {
          "internalType": "uint256",
          "name": "tokenId",
          "type": "uint256"
        },
        {
          "internalType": "bytes",
          "name": "_data",
          "type": "bytes"
        }
      ],
      "name": "safeTransferFrom",
      "outputs": [],
      "stateMutability": "nonpayable",
      "type": "function"
    },
    {
      "inputs": [
        {
          "internalType": "address",
          "name": "operator",
          "type": "address"
        },
        {
          "internalType": "bool",
          "name": "approved",
          "type": "bool"
        }
      ],
      "name": "setApprovalForAll",
      "outputs": [],
      "stateMutability": "nonpayable",
      "type": "function"
    },
    {
      "inputs": [
        {
          "internalType": "bytes4",
          "name": "interfaceId",
          "type": "bytes4"
        }
      ],
      "name": "supportsInterface",
      "outputs": [
        {
          "internalType": "bool",
          "name": "",
          "type": "bool"
        }
      ],
      "stateMutability": "view",
      "type": "function",
      "constant": true
    },
    {
      "inputs": [],
      "name": "symbol",
      "outputs": [
        {
          "internalType": "string",
          "name": "",
          "type": "string"
        }
      ],
      "stateMutability": "view",
      "type": "function",
      "constant": true
    },
    {
      "inputs": [
        {
          "internalType": "uint256",
          "name": "tokenId",
          "type": "uint256"
        }
      ],
      "name": "tokenURI",
      "outputs": [
        {
          "internalType": "string",
          "name": "",
          "type": "string"
        }
      ],
      "stateMutability": "view",
      "type": "function",
      "constant": true
    },
    {
      "inputs": [
        {
          "internalType": "string",
          "name": "",
          "type": "string"
        }
      ],
      "name": "tokensMinted",
      "outputs": [
        {
          "internalType": "uint256",
          "name": "",
          "type": "uint256"
        }
      ],
      "stateMutability": "view",
      "type": "function",
      "constant": true
    },
    {
      "inputs": [
        {
          "internalType": "address",
          "name": "from",
          "type": "address"
        },
        {
          "internalType": "address",
          "name": "to",
          "type": "address"
        },
        {
          "internalType": "uint256",
          "name": "tokenId",
          "type": "uint256"
        }
      ],
      "name": "transferFrom",
      "outputs": [],
      "stateMutability": "nonpayable",
      "type": "function"
    },
    {
      "stateMutability": "payable",
      "type": "receive",
      "payable": true
    },
    {
      "inputs": [
        {
          "internalType": "address",
          "name": "_to",
          "type": "address"
        },
        {
          "internalType": "string",
          "name": "_tokenURI",
          "type": "string"
        },
        {
          "internalType": "string",
          "name": "questName",
          "type": "string"
        },
        {
          "internalType": "string",
          "name": "_did",
          "type": "string"
        }
      ],
      "name": "mintToken",
      "outputs": [],
      "stateMutability": "nonpayable",
      "type": "function"
    },
    {
      "inputs": [
        {
          "internalType": "string",
          "name": "_quest",
          "type": "string"
        },
        {
          "internalType": "uint256",
          "name": "_threshold",
          "type": "uint256"
        }
      ],
      "name": "setRarityThreshold",
      "outputs": [],
      "stateMutability": "nonpayable",
      "type": "function"
    },
    {
      "inputs": [
        {
          "internalType": "string",
          "name": "_quest",
          "type": "string"
        },
        {
          "internalType": "uint256[2]",
          "name": "_percentages",
          "type": "uint256[2]"
        }
      ],
      "name": "setRarityPercentages",
      "outputs": [],
      "stateMutability": "nonpayable",
      "type": "function"
    }
  ],
  "bytecode": "0x60806040523480156200001157600080fd5b506040516200483938038062004839833981810160405281019062000037919062000379565b6040518060400160405280601781526020017f436f6d706c65746564446973636f7665727951756573740000000000000000008152506040518060400160405280600381526020017f43445100000000000000000000000000000000000000000000000000000000008152508160009080519060200190620000bb9291906200029b565b508060019080519060200190620000d49291906200029b565b50505081600660006101000a81548173ffffffffffffffffffffffffffffffffffffffff021916908373ffffffffffffffffffffffffffffffffffffffff1602179055506000600660009054906101000a900473ffffffffffffffffffffffffffffffffffffffff1673ffffffffffffffffffffffffffffffffffffffff1663429b62e5336040518263ffffffff1660e01b81526004016200017791906200042a565b60206040518083038186803b1580156200019057600080fd5b505afa158015620001a5573d6000803e3d6000fd5b505050506040513d601f19601f82011682018060405250810190620001cb9190620003c0565b90508062000210576040517f08c379a0000000000000000000000000000000000000000000000000000000008152600401620002079062000447565b60405180910390fd5b81600760006101000a81548173ffffffffffffffffffffffffffffffffffffffff021916908373ffffffffffffffffffffffffffffffffffffffff16021790555081600960006101000a81548173ffffffffffffffffffffffffffffffffffffffff021916908373ffffffffffffffffffffffffffffffffffffffff16021790555050505062000595565b828054620002a990620004ce565b90600052602060002090601f016020900481019282620002cd576000855562000319565b82601f10620002e857805160ff191683800117855562000319565b8280016001018555821562000319579182015b8281111562000318578251825591602001919060010190620002fb565b5b5090506200032891906200032c565b5090565b5b80821115620003475760008160009055506001016200032d565b5090565b6000815190506200035c8162000561565b92915050565b60008151905062000373816200057b565b92915050565b6000806040838503121562000393576200039262000533565b5b6000620003a3858286016200034b565b9250506020620003b6858286016200034b565b9150509250929050565b600060208284031215620003d957620003d862000533565b5b6000620003e98482850162000362565b91505092915050565b620003fd816200047a565b82525050565b60006200041260178362000469565b91506200041f8262000538565b602082019050919050565b6000602082019050620004416000830184620003f2565b92915050565b60006020820190508181036000830152620004628162000403565b9050919050565b600082825260208201905092915050565b60006200048782620004ae565b9050919050565b60006200049b82620004ae565b9050919050565b60008115159050919050565b600073ffffffffffffffffffffffffffffffffffffffff82169050919050565b60006002820490506001821680620004e757607f821691505b60208210811415620004fe57620004fd62000504565b5b50919050565b7f4e487b7100000000000000000000000000000000000000000000000000000000600052602260045260246000fd5b600080fd5b7f6465706c6f7965722063616e2774206d616b65204e4654000000000000000000600082015250565b6200056c816200048e565b81146200057857600080fd5b50565b6200058681620004a2565b81146200059257600080fd5b50565b61429480620005a56000396000f3fe60806040526004361061016a5760003560e01c806370a08231116100d1578063a22cb4651161008a578063c87b56dd11610064578063c87b56dd14610598578063cefeea13146105d5578063e985e9c514610612578063fbcf50f31461064f57610171565b8063a22cb4651461051d578063b5a271d414610546578063b88d4fde1461056f57610171565b806370a08231146103e357806384ce9e12146104205780638a31cdcd1461044b5780638bfd589b1461047457806395d89b41146104b5578063a0f026e5146104e057610171565b806338d1b2931161012357806338d1b2931461029857806339b28b0e146102d557806342842e0e146103125780634a93c0d61461033b5780636352211e146103645780636cecefe8146103a157610171565b806301ffc9a71461017657806306fdde03146101b3578063081812fc146101de578063095ea7b31461021b578063102437551461024457806323b872dd1461026f57610171565b3661017157005b600080fd5b34801561018257600080fd5b5061019d60048036038101906101989190612ea1565b61068c565b6040516101aa9190613585565b60405180910390f35b3480156101bf57600080fd5b506101c861076e565b6040516101d591906135d6565b60405180910390f35b3480156101ea57600080fd5b5061020560048036038101906102009190613058565b610800565b6040516102129190613447565b60405180910390f35b34801561022757600080fd5b50610242600480360381019061023d9190612e07565b610885565b005b34801561025057600080fd5b5061025961099d565b60405161026691906135bb565b60405180910390f35b34801561027b57600080fd5b5061029660048036038101906102919190612bda565b6109c3565b005b3480156102a457600080fd5b506102bf60048036038101906102ba9190612ffc565b610a23565b6040516102cc9190613858565b60405180910390f35b3480156102e157600080fd5b506102fc60048036038101906102f79190612efb565b610a61565b6040516103099190613858565b60405180910390f35b34801561031e57600080fd5b5061033960048036038101906103349190612bda565b610a8f565b005b34801561034757600080fd5b50610362600480360381019061035d9190612ffc565b610aaf565b005b34801561037057600080fd5b5061038b60048036038101906103869190613058565b610cb9565b6040516103989190613447565b60405180910390f35b3480156103ad57600080fd5b506103c860048036038101906103c39190612e74565b610d6b565b6040516103da969594939291906134ae565b60405180910390f35b3480156103ef57600080fd5b5061040a60048036038101906104059190612b6d565b610f79565b6040516104179190613858565b60405180910390f35b34801561042c57600080fd5b50610435611031565b60405161044291906135a0565b60405180910390f35b34801561045757600080fd5b50610472600480360381019061046d9190612fa0565b611057565b005b34801561048057600080fd5b5061049b60048036038101906104969190612cf0565b6112f0565b6040516104ac959493929190613524565b60405180910390f35b3480156104c157600080fd5b506104ca611486565b6040516104d791906135d6565b60405180910390f35b3480156104ec57600080fd5b5061050760048036038101906105029190612f44565b611518565b6040516105149190613585565b60405180910390f35b34801561052957600080fd5b50610544600480360381019061053f9190612cb0565b61155d565b005b34801561055257600080fd5b5061056d60048036038101906105689190612d4c565b6116de565b005b34801561057b57600080fd5b5061059660048036038101906105919190612c2d565b611bd5565b005b3480156105a457600080fd5b506105bf60048036038101906105ba9190613058565b611c37565b6040516105cc91906135d6565b60405180910390f35b3480156105e157600080fd5b506105fc60048036038101906105f79190612efb565b611cde565b6040516106099190613858565b60405180910390f35b34801561061e57600080fd5b5061063960048036038101906106349190612b9a565b611d0c565b6040516106469190613585565b60405180910390f35b34801561065b57600080fd5b5061067660048036038101906106719190612cf0565b611da0565b60405161068391906135d6565b60405180910390f35b60007f80ac58cd000000000000000000000000000000000000000000000000000000007bffffffffffffffffffffffffffffffffffffffffffffffffffffffff1916827bffffffffffffffffffffffffffffffffffffffffffffffffffffffff1916148061075757507f5b5e139f000000000000000000000000000000000000000000000000000000007bffffffffffffffffffffffffffffffffffffffffffffffffffffffff1916827bffffffffffffffffffffffffffffffffffffffffffffffffffffffff1916145b80610767575061076682611e63565b5b9050919050565b60606000805461077d90613b26565b80601f01602080910402602001604051908101604052809291908181526020018280546107a990613b26565b80156107f65780601f106107cb576101008083540402835291602001916107f6565b820191906000526020600020905b8154815290600101906020018083116107d957829003601f168201915b5050505050905090565b600061080b82611ecd565b61084a576040517f08c379a000000000000000000000000000000000000000000000000000000000815260040161084190613758565b60405180910390fd5b6004600083815260200190815260200160002060009054906101000a900473ffffffffffffffffffffffffffffffffffffffff169050919050565b600061089082610cb9565b90508073ffffffffffffffffffffffffffffffffffffffff168373ffffffffffffffffffffffffffffffffffffffff161415610901576040517f08c379a00000000000000000000000000000000000000000000000000000000081526004016108f8906137f8565b60405180910390fd5b8073ffffffffffffffffffffffffffffffffffffffff16610920611f39565b73ffffffffffffffffffffffffffffffffffffffff16148061094f575061094e81610949611f39565b611d0c565b5b61098e576040517f08c379a0000000000000000000000000000000000000000000000000000000008152600401610985906136d8565b60405180910390fd5b6109988383611f41565b505050565b600660009054906101000a900473ffffffffffffffffffffffffffffffffffffffff1681565b6109d46109ce611f39565b82611ffa565b610a13576040517f08c379a0000000000000000000000000000000000000000000000000000000008152600401610a0a90613818565b60405180910390fd5b610a1e8383836120d8565b505050565b600e828051602081018201805184825260208301602085012081835280955050505050508160028110610a5557600080fd5b01600091509150505481565b600c818051602081018201805184825260208301602085012081835280955050505050506000915090505481565b610aaa83838360405180602001604052806000815250611bd5565b505050565b600660009054906101000a900473ffffffffffffffffffffffffffffffffffffffff1673ffffffffffffffffffffffffffffffffffffffff1663429b62e5336040518263ffffffff1660e01b8152600401610b0a9190613447565b60206040518083038186803b158015610b2257600080fd5b505afa158015610b36573d6000803e3d6000fd5b505050506040513d601f19601f82011682018060405250810190610b5a9190612e47565b610b99576040517f08c379a0000000000000000000000000000000000000000000000000000000008152600401610b9090613838565b60405180910390fd5b81600660009054906101000a900473ffffffffffffffffffffffffffffffffffffffff1673ffffffffffffffffffffffffffffffffffffffff1663a852a581826040518263ffffffff1660e01b8152600401610bf591906135d6565b60206040518083038186803b158015610c0d57600080fd5b505afa158015610c21573d6000803e3d6000fd5b505050506040513d601f19601f82011682018060405250810190610c459190612e47565b610c84576040517f08c379a0000000000000000000000000000000000000000000000000000000008152600401610c7b906137b8565b60405180910390fd5b60008211610c9157600080fd5b81600d84604051610ca2919061340c565b908152602001604051809103902081905550505050565b6000806002600084815260200190815260200160002060009054906101000a900473ffffffffffffffffffffffffffffffffffffffff169050600073ffffffffffffffffffffffffffffffffffffffff168173ffffffffffffffffffffffffffffffffffffffff161415610d62576040517f08c379a0000000000000000000000000000000000000000000000000000000008152600401610d5990613718565b60405180910390fd5b80915050919050565b60106020528060005260406000206000915090508060000160009054906101000a900473ffffffffffffffffffffffffffffffffffffffff1690806001018054610db490613b26565b80601f0160208091040260200160405190810160405280929190818152602001828054610de090613b26565b8015610e2d5780601f10610e0257610100808354040283529160200191610e2d565b820191906000526020600020905b815481529060010190602001808311610e1057829003601f168201915b505050505090806002018054610e4290613b26565b80601f0160208091040260200160405190810160405280929190818152602001828054610e6e90613b26565b8015610ebb5780601f10610e9057610100808354040283529160200191610ebb565b820191906000526020600020905b815481529060010190602001808311610e9e57829003601f168201915b505050505090806003018054610ed090613b26565b80601f0160208091040260200160405190810160405280929190818152602001828054610efc90613b26565b8015610f495780601f10610f1e57610100808354040283529160200191610f49565b820191906000526020600020905b815481529060010190602001808311610f2c57829003601f168201915b5050505050908060040160009054906101000a900460ff16908060040160019054906101000a900460ff16905086565b60008073ffffffffffffffffffffffffffffffffffffffff168273ffffffffffffffffffffffffffffffffffffffff161415610fea576040517f08c379a0000000000000000000000000000000000000000000000000000000008152600401610fe1906136f8565b60405180910390fd5b600360008373ffffffffffffffffffffffffffffffffffffffff1673ffffffffffffffffffffffffffffffffffffffff168152602001908152602001600020549050919050565b600760009054906101000a900473ffffffffffffffffffffffffffffffffffffffff1681565b600660009054906101000a900473ffffffffffffffffffffffffffffffffffffffff1673ffffffffffffffffffffffffffffffffffffffff1663429b62e5336040518263ffffffff1660e01b81526004016110b29190613447565b60206040518083038186803b1580156110ca57600080fd5b505afa1580156110de573d6000803e3d6000fd5b505050506040513d601f19601f820116820180604052508101906111029190612e47565b611141576040517f08c379a000000000000000000000000000000000000000000000000000000000815260040161113890613838565b60405180910390fd5b81600660009054906101000a900473ffffffffffffffffffffffffffffffffffffffff1673ffffffffffffffffffffffffffffffffffffffff1663a852a581826040518263ffffffff1660e01b815260040161119d91906135d6565b60206040518083038186803b1580156111b557600080fd5b505afa1580156111c9573d6000803e3d6000fd5b505050506040513d601f19601f820116820180604052508101906111ed9190612e47565b61122c576040517f08c379a0000000000000000000000000000000000000000000000000000000008152600401611223906137b8565b60405180910390fd5b60008260006002811061124257611241613c90565b5b602002015111801561126c575060008260016002811061126557611264613c90565b5b6020020151115b8015611290575060658260006002811061128957611288613c90565b5b6020020151105b80156112b457506065826001600281106112ad576112ac613c90565b5b6020020151105b6112bd57600080fd5b81600e846040516112ce919061340c565b90815260200160405180910390209060026112ea929190612885565b50505050565b600f60205281600052604060002081805160208101820180518482526020830160208501208183528095505050505050600091509150508060000160009054906101000a900473ffffffffffffffffffffffffffffffffffffffff169080600101805461135c90613b26565b80601f016020809104026020016040519081016040528092919081815260200182805461138890613b26565b80156113d55780601f106113aa576101008083540402835291602001916113d5565b820191906000526020600020905b8154815290600101906020018083116113b857829003601f168201915b5050505050908060020180546113ea90613b26565b80601f016020809104026020016040519081016040528092919081815260200182805461141690613b26565b80156114635780601f1061143857610100808354040283529160200191611463565b820191906000526020600020905b81548152906001019060200180831161144657829003601f168201915b5050505050908060030154908060040160009054906101000a900460ff16905085565b60606001805461149590613b26565b80601f01602080910402602001604051908101604052809291908181526020018280546114c190613b26565b801561150e5780601f106114e35761010080835404028352916020019161150e565b820191906000526020600020905b8154815290600101906020018083116114f157829003601f168201915b5050505050905090565b600a828051602081018201805184825260208301602085012081835280955050505050506020528060005260406000206000915091509054906101000a900460ff1681565b611565611f39565b73ffffffffffffffffffffffffffffffffffffffff168273ffffffffffffffffffffffffffffffffffffffff1614156115d3576040517f08c379a00000000000000000000000000000000000000000000000000000000081526004016115ca90613678565b60405180910390fd5b80600560006115e0611f39565b73ffffffffffffffffffffffffffffffffffffffff1673ffffffffffffffffffffffffffffffffffffffff16815260200190815260200160002060008473ffffffffffffffffffffffffffffffffffffffff1673ffffffffffffffffffffffffffffffffffffffff16815260200190815260200160002060006101000a81548160ff0219169083151502179055508173ffffffffffffffffffffffffffffffffffffffff1661168d611f39565b73ffffffffffffffffffffffffffffffffffffffff167f17307eab39ab6107e8899845ad3d59bd9653f200f220920489ca2b5937696c31836040516116d29190613585565b60405180910390a35050565b600660009054906101000a900473ffffffffffffffffffffffffffffffffffffffff1673ffffffffffffffffffffffffffffffffffffffff1663372c12b1856040518263ffffffff1660e01b81526004016117399190613447565b60206040518083038186803b15801561175157600080fd5b505afa158015611765573d6000803e3d6000fd5b505050506040513d601f19601f820116820180604052508101906117899190612e47565b6117c8576040517f08c379a00000000000000000000000000000000000000000000000000000000081526004016117bf906136b8565b60405180910390fd5b600660009054906101000a900473ffffffffffffffffffffffffffffffffffffffff1673ffffffffffffffffffffffffffffffffffffffff1663a852a581836040518263ffffffff1660e01b815260040161182391906135d6565b60206040518083038186803b15801561183b57600080fd5b505afa15801561184f573d6000803e3d6000fd5b505050506040513d601f19601f820116820180604052508101906118739190612e47565b6118b2576040517f08c379a00000000000000000000000000000000000000000000000000000000081526004016118a9906135f8565b60405180910390fd5b600a826040516118c2919061340c565b908152602001604051809103902060008573ffffffffffffffffffffffffffffffffffffffff1673ffffffffffffffffffffffffffffffffffffffff16815260200190815260200160002060009054906101000a900460ff161561195b576040517f08c379a000000000000000000000000000000000000000000000000000000000815260040161195290613778565b60405180910390fd5b6008600081548092919061196e90613b89565b919050555061197f84600854612334565b6001600a83604051611991919061340c565b908152602001604051809103902060008673ffffffffffffffffffffffffffffffffffffffff1673ffffffffffffffffffffffffffffffffffffffff16815260200190815260200160002060006101000a81548160ff02191690831515021790555060006040518060a001604052808673ffffffffffffffffffffffffffffffffffffffff16815260200184815260200185815260200142815260200160011515815250905080600f60008773ffffffffffffffffffffffffffffffffffffffff1673ffffffffffffffffffffffffffffffffffffffff16815260200190815260200160002084604051611a85919061340c565b908152602001604051809103902060008201518160000160006101000a81548173ffffffffffffffffffffffffffffffffffffffff021916908373ffffffffffffffffffffffffffffffffffffffff1602179055506020820151816001019080519060200190611af69291906128c5565b506040820151816002019080519060200190611b139291906128c5565b506060820151816003015560808201518160040160006101000a81548160ff021916908315150217905550905050600c83604051611b51919061340c565b90815260200160405180910390206000815480929190611b7090613b89565b919050555083604051611b83919061340c565b60405180910390208573ffffffffffffffffffffffffffffffffffffffff167f371f376692dd846fa34380a8fd44c6a140dc5cd442cd8ae5657963685f17ebed60405160405180910390a35050505050565b611be6611be0611f39565b83611ffa565b611c25576040517f08c379a0000000000000000000000000000000000000000000000000000000008152600401611c1c90613818565b60405180910390fd5b611c3184848484612502565b50505050565b6060611c4282611ecd565b611c81576040517f08c379a0000000000000000000000000000000000000000000000000000000008152600401611c78906137d8565b60405180910390fd5b6000611c8b61255e565b90506000815111611cab5760405180602001604052806000815250611cd6565b80611cb584612575565b604051602001611cc6929190613423565b6040516020818303038152906040525b915050919050565b600d818051602081018201805184825260208301602085012081835280955050505050506000915090505481565b6000600560008473ffffffffffffffffffffffffffffffffffffffff1673ffffffffffffffffffffffffffffffffffffffff16815260200190815260200160002060008373ffffffffffffffffffffffffffffffffffffffff1673ffffffffffffffffffffffffffffffffffffffff16815260200190815260200160002060009054906101000a900460ff16905092915050565b600b60205281600052604060002081805160208101820180518482526020830160208501208183528095505050505050600091509150508054611de290613b26565b80601f0160208091040260200160405190810160405280929190818152602001828054611e0e90613b26565b8015611e5b5780601f10611e3057610100808354040283529160200191611e5b565b820191906000526020600020905b815481529060010190602001808311611e3e57829003601f168201915b505050505081565b60007f01ffc9a7000000000000000000000000000000000000000000000000000000007bffffffffffffffffffffffffffffffffffffffffffffffffffffffff1916827bffffffffffffffffffffffffffffffffffffffffffffffffffffffff1916149050919050565b60008073ffffffffffffffffffffffffffffffffffffffff166002600084815260200190815260200160002060009054906101000a900473ffffffffffffffffffffffffffffffffffffffff1673ffffffffffffffffffffffffffffffffffffffff1614159050919050565b600033905090565b816004600083815260200190815260200160002060006101000a81548173ffffffffffffffffffffffffffffffffffffffff021916908373ffffffffffffffffffffffffffffffffffffffff160217905550808273ffffffffffffffffffffffffffffffffffffffff16611fb483610cb9565b73ffffffffffffffffffffffffffffffffffffffff167f8c5be1e5ebec7d5bd14f71427d1e84f3dd0314c0f7b2291e5b200ac8c7c3b92560405160405180910390a45050565b600061200582611ecd565b612044576040517f08c379a000000000000000000000000000000000000000000000000000000000815260040161203b90613698565b60405180910390fd5b600061204f83610cb9565b90508073ffffffffffffffffffffffffffffffffffffffff168473ffffffffffffffffffffffffffffffffffffffff1614806120be57508373ffffffffffffffffffffffffffffffffffffffff166120a684610800565b73ffffffffffffffffffffffffffffffffffffffff16145b806120cf57506120ce8185611d0c565b5b91505092915050565b8273ffffffffffffffffffffffffffffffffffffffff166120f882610cb9565b73ffffffffffffffffffffffffffffffffffffffff161461214e576040517f08c379a000000000000000000000000000000000000000000000000000000000815260040161214590613798565b60405180910390fd5b600073ffffffffffffffffffffffffffffffffffffffff168273ffffffffffffffffffffffffffffffffffffffff1614156121be576040517f08c379a00000000000000000000000000000000000000000000000000000000081526004016121b590613658565b60405180910390fd5b6121c98383836126d6565b6121d4600082611f41565b6001600360008573ffffffffffffffffffffffffffffffffffffffff1673ffffffffffffffffffffffffffffffffffffffff168152602001908152602001600020600082825461222491906139ea565b925050819055506001600360008473ffffffffffffffffffffffffffffffffffffffff1673ffffffffffffffffffffffffffffffffffffffff168152602001908152602001600020600082825461227b9190613963565b92505081905550816002600083815260200190815260200160002060006101000a81548173ffffffffffffffffffffffffffffffffffffffff021916908373ffffffffffffffffffffffffffffffffffffffff160217905550808273ffffffffffffffffffffffffffffffffffffffff168473ffffffffffffffffffffffffffffffffffffffff167fddf252ad1be2c89b69c2b068fc378daa952ba7f163c4a11628f55a4df523b3ef60405160405180910390a4505050565b600073ffffffffffffffffffffffffffffffffffffffff168273ffffffffffffffffffffffffffffffffffffffff1614156123a4576040517f08c379a000000000000000000000000000000000000000000000000000000000815260040161239b90613738565b60405180910390fd5b6123ad81611ecd565b156123ed576040517f08c379a00000000000000000000000000000000000000000000000000000000081526004016123e490613638565b60405180910390fd5b6123f9600083836126d6565b6001600360008473ffffffffffffffffffffffffffffffffffffffff1673ffffffffffffffffffffffffffffffffffffffff16815260200190815260200160002060008282546124499190613963565b92505081905550816002600083815260200190815260200160002060006101000a81548173ffffffffffffffffffffffffffffffffffffffff021916908373ffffffffffffffffffffffffffffffffffffffff160217905550808273ffffffffffffffffffffffffffffffffffffffff16600073ffffffffffffffffffffffffffffffffffffffff167fddf252ad1be2c89b69c2b068fc378daa952ba7f163c4a11628f55a4df523b3ef60405160405180910390a45050565b61250d8484846120d8565b612519848484846126db565b612558576040517f08c379a000000000000000000000000000000000000000000000000000000000815260040161254f90613618565b60405180910390fd5b50505050565b606060405180602001604052806000815250905090565b606060008214156125bd576040518060400160405280600181526020017f300000000000000000000000000000000000000000000000000000000000000081525090506126d1565b600082905060005b600082146125ef5780806125d890613b89565b915050600a826125e891906139b9565b91506125c5565b60008167ffffffffffffffff81111561260b5761260a613cbf565b5b6040519080825280601f01601f19166020018201604052801561263d5781602001600182028036833780820191505090505b5090505b600085146126ca5760018261265691906139ea565b9150600a856126659190613bd2565b60306126719190613963565b60f81b81838151811061268757612686613c90565b5b60200101907effffffffffffffffffffffffffffffffffffffffffffffffffffffffffffff1916908160001a905350600a856126c391906139b9565b9450612641565b8093505050505b919050565b505050565b60006126fc8473ffffffffffffffffffffffffffffffffffffffff16612872565b15612865578373ffffffffffffffffffffffffffffffffffffffff1663150b7a02612725611f39565b8786866040518563ffffffff1660e01b81526004016127479493929190613462565b602060405180830381600087803b15801561276157600080fd5b505af192505050801561279257506040513d601f19601f8201168201806040525081019061278f9190612ece565b60015b612815573d80600081146127c2576040519150601f19603f3d011682016040523d82523d6000602084013e6127c7565b606091505b5060008151141561280d576040517f08c379a000000000000000000000000000000000000000000000000000000000815260040161280490613618565b60405180910390fd5b805181602001fd5b63150b7a0260e01b7bffffffffffffffffffffffffffffffffffffffffffffffffffffffff1916817bffffffffffffffffffffffffffffffffffffffffffffffffffffffff19161491505061286a565b600190505b949350505050565b600080823b905060008111915050919050565b82600281019282156128b4579160200282015b828111156128b3578251825591602001919060010190612898565b5b5090506128c1919061294b565b5090565b8280546128d190613b26565b90600052602060002090601f0160209004810192826128f3576000855561293a565b82601f1061290c57805160ff191683800117855561293a565b8280016001018555821561293a579182015b8281111561293957825182559160200191906001019061291e565b5b509050612947919061294b565b5090565b5b8082111561296457600081600090555060010161294c565b5090565b600061297b61297684613898565b613873565b9050808285602086028201111561299557612994613cf3565b5b60005b858110156129c557816129ab8882612b58565b845260208401935060208301925050600181019050612998565b5050509392505050565b60006129e26129dd846138be565b613873565b9050828152602081018484840111156129fe576129fd613cf8565b5b612a09848285613ae4565b509392505050565b6000612a24612a1f846138ef565b613873565b905082815260208101848484011115612a4057612a3f613cf8565b5b612a4b848285613ae4565b509392505050565b600081359050612a62816141eb565b92915050565b600082601f830112612a7d57612a7c613cee565b5b6002612a8a848285612968565b91505092915050565b600081359050612aa281614202565b92915050565b600081519050612ab781614202565b92915050565b600081359050612acc81614219565b92915050565b600081359050612ae181614230565b92915050565b600081519050612af681614230565b92915050565b600082601f830112612b1157612b10613cee565b5b8135612b218482602086016129cf565b91505092915050565b600082601f830112612b3f57612b3e613cee565b5b8135612b4f848260208601612a11565b91505092915050565b600081359050612b6781614247565b92915050565b600060208284031215612b8357612b82613d02565b5b6000612b9184828501612a53565b91505092915050565b60008060408385031215612bb157612bb0613d02565b5b6000612bbf85828601612a53565b9250506020612bd085828601612a53565b9150509250929050565b600080600060608486031215612bf357612bf2613d02565b5b6000612c0186828701612a53565b9350506020612c1286828701612a53565b9250506040612c2386828701612b58565b9150509250925092565b60008060008060808587031215612c4757612c46613d02565b5b6000612c5587828801612a53565b9450506020612c6687828801612a53565b9350506040612c7787828801612b58565b925050606085013567ffffffffffffffff811115612c9857612c97613cfd565b5b612ca487828801612afc565b91505092959194509250565b60008060408385031215612cc757612cc6613d02565b5b6000612cd585828601612a53565b9250506020612ce685828601612a93565b9150509250929050565b60008060408385031215612d0757612d06613d02565b5b6000612d1585828601612a53565b925050602083013567ffffffffffffffff811115612d3657612d35613cfd565b5b612d4285828601612b2a565b9150509250929050565b60008060008060808587031215612d6657612d65613d02565b5b6000612d7487828801612a53565b945050602085013567ffffffffffffffff811115612d9557612d94613cfd565b5b612da187828801612b2a565b935050604085013567ffffffffffffffff811115612dc257612dc1613cfd565b5b612dce87828801612b2a565b925050606085013567ffffffffffffffff811115612def57612dee613cfd565b5b612dfb87828801612b2a565b91505092959194509250565b60008060408385031215612e1e57612e1d613d02565b5b6000612e2c85828601612a53565b9250506020612e3d85828601612b58565b9150509250929050565b600060208284031215612e5d57612e5c613d02565b5b6000612e6b84828501612aa8565b91505092915050565b600060208284031215612e8a57612e89613d02565b5b6000612e9884828501612abd565b91505092915050565b600060208284031215612eb757612eb6613d02565b5b6000612ec584828501612ad2565b91505092915050565b600060208284031215612ee457612ee3613d02565b5b6000612ef284828501612ae7565b91505092915050565b600060208284031215612f1157612f10613d02565b5b600082013567ffffffffffffffff811115612f2f57612f2e613cfd565b5b612f3b84828501612b2a565b91505092915050565b60008060408385031215612f5b57612f5a613d02565b5b600083013567ffffffffffffffff811115612f7957612f78613cfd565b5b612f8585828601612b2a565b9250506020612f9685828601612a53565b9150509250929050565b60008060608385031215612fb757612fb6613d02565b5b600083013567ffffffffffffffff811115612fd557612fd4613cfd565b5b612fe185828601612b2a565b9250506020612ff285828601612a68565b9150509250929050565b6000806040838503121561301357613012613d02565b5b600083013567ffffffffffffffff81111561303157613030613cfd565b5b61303d85828601612b2a565b925050602061304e85828601612b58565b9150509250929050565b60006020828403121561306e5761306d613d02565b5b600061307c84828501612b58565b91505092915050565b61308e81613a1e565b82525050565b61309d81613a30565b82525050565b60006130ae82613920565b6130b88185613936565b93506130c8818560208601613af3565b6130d181613d07565b840191505092915050565b6130e581613a9c565b82525050565b6130f481613ac0565b82525050565b60006131058261392b565b61310f8185613947565b935061311f818560208601613af3565b61312881613d07565b840191505092915050565b600061313e8261392b565b6131488185613958565b9350613158818560208601613af3565b80840191505092915050565b6000613171601783613947565b915061317c82613d18565b602082019050919050565b6000613194603283613947565b915061319f82613d41565b604082019050919050565b60006131b7601c83613947565b91506131c282613d90565b602082019050919050565b60006131da602483613947565b91506131e582613db9565b604082019050919050565b60006131fd601983613947565b915061320882613e08565b602082019050919050565b6000613220602c83613947565b915061322b82613e31565b604082019050919050565b6000613243601a83613947565b915061324e82613e80565b602082019050919050565b6000613266603883613947565b915061327182613ea9565b604082019050919050565b6000613289602a83613947565b915061329482613ef8565b604082019050919050565b60006132ac602983613947565b91506132b782613f47565b604082019050919050565b60006132cf602083613947565b91506132da82613f96565b602082019050919050565b60006132f2602c83613947565b91506132fd82613fbf565b604082019050919050565b6000613315602f83613947565b91506133208261400e565b604082019050919050565b6000613338602983613947565b91506133438261405d565b604082019050919050565b600061335b601183613947565b9150613366826140ac565b602082019050919050565b600061337e602f83613947565b9150613389826140d5565b604082019050919050565b60006133a1602183613947565b91506133ac82614124565b604082019050919050565b60006133c4603183613947565b91506133cf82614173565b604082019050919050565b60006133e7601d83613947565b91506133f2826141c2565b602082019050919050565b61340681613a92565b82525050565b60006134188284613133565b915081905092915050565b600061342f8285613133565b915061343b8284613133565b91508190509392505050565b600060208201905061345c6000830184613085565b92915050565b60006080820190506134776000830187613085565b6134846020830186613085565b61349160408301856133fd565b81810360608301526134a381846130a3565b905095945050505050565b600060c0820190506134c36000830189613085565b81810360208301526134d581886130fa565b905081810360408301526134e981876130fa565b905081810360608301526134fd81866130fa565b905061350c6080830185613094565b61351960a0830184613094565b979650505050505050565b600060a0820190506135396000830188613085565b818103602083015261354b81876130fa565b9050818103604083015261355f81866130fa565b905061356e60608301856133fd565b61357b6080830184613094565b9695505050505050565b600060208201905061359a6000830184613094565b92915050565b60006020820190506135b560008301846130dc565b92915050565b60006020820190506135d060008301846130eb565b92915050565b600060208201905081810360008301526135f081846130fa565b905092915050565b6000602082019050818103600083015261361181613164565b9050919050565b6000602082019050818103600083015261363181613187565b9050919050565b60006020820190508181036000830152613651816131aa565b9050919050565b60006020820190508181036000830152613671816131cd565b9050919050565b60006020820190508181036000830152613691816131f0565b9050919050565b600060208201905081810360008301526136b181613213565b9050919050565b600060208201905081810360008301526136d181613236565b9050919050565b600060208201905081810360008301526136f181613259565b9050919050565b600060208201905081810360008301526137118161327c565b9050919050565b600060208201905081810360008301526137318161329f565b9050919050565b60006020820190508181036000830152613751816132c2565b9050919050565b60006020820190508181036000830152613771816132e5565b9050919050565b6000602082019050818103600083015261379181613308565b9050919050565b600060208201905081810360008301526137b18161332b565b9050919050565b600060208201905081810360008301526137d18161334e565b9050919050565b600060208201905081810360008301526137f181613371565b9050919050565b6000602082019050818103600083015261381181613394565b9050919050565b60006020820190508181036000830152613831816133b7565b9050919050565b60006020820190508181036000830152613851816133da565b9050919050565b600060208201905061386d60008301846133fd565b92915050565b600061387d61388e565b90506138898282613b58565b919050565b6000604051905090565b600067ffffffffffffffff8211156138b3576138b2613cbf565b5b602082029050919050565b600067ffffffffffffffff8211156138d9576138d8613cbf565b5b6138e282613d07565b9050602081019050919050565b600067ffffffffffffffff82111561390a57613909613cbf565b5b61391382613d07565b9050602081019050919050565b600081519050919050565b600081519050919050565b600082825260208201905092915050565b600082825260208201905092915050565b600081905092915050565b600061396e82613a92565b915061397983613a92565b9250827fffffffffffffffffffffffffffffffffffffffffffffffffffffffffffffffff038211156139ae576139ad613c03565b5b828201905092915050565b60006139c482613a92565b91506139cf83613a92565b9250826139df576139de613c32565b5b828204905092915050565b60006139f582613a92565b9150613a0083613a92565b925082821015613a1357613a12613c03565b5b828203905092915050565b6000613a2982613a72565b9050919050565b60008115159050919050565b6000819050919050565b60007fffffffff0000000000000000000000000000000000000000000000000000000082169050919050565b600073ffffffffffffffffffffffffffffffffffffffff82169050919050565b6000819050919050565b6000613aa782613aae565b9050919050565b6000613ab982613a72565b9050919050565b6000613acb82613ad2565b9050919050565b6000613add82613a72565b9050919050565b82818337600083830152505050565b60005b83811015613b11578082015181840152602081019050613af6565b83811115613b20576000848401525b50505050565b60006002820490506001821680613b3e57607f821691505b60208210811415613b5257613b51613c61565b5b50919050565b613b6182613d07565b810181811067ffffffffffffffff82111715613b8057613b7f613cbf565b5b80604052505050565b6000613b9482613a92565b91507fffffffffffffffffffffffffffffffffffffffffffffffffffffffffffffffff821415613bc757613bc6613c03565b5b600182019050919050565b6000613bdd82613a92565b9150613be883613a92565b925082613bf857613bf7613c32565b5b828206905092915050565b7f4e487b7100000000000000000000000000000000000000000000000000000000600052601160045260246000fd5b7f4e487b7100000000000000000000000000000000000000000000000000000000600052601260045260246000fd5b7f4e487b7100000000000000000000000000000000000000000000000000000000600052602260045260246000fd5b7f4e487b7100000000000000000000000000000000000000000000000000000000600052603260045260246000fd5b7f4e487b7100000000000000000000000000000000000000000000000000000000600052604160045260246000fd5b600080fd5b600080fd5b600080fd5b600080fd5b600080fd5b6000601f19601f8301169050919050565b7f74686973207175657374206973206e6f742076616c6964000000000000000000600082015250565b7f4552433732313a207472616e7366657220746f206e6f6e20455243373231526560008201527f63656976657220696d706c656d656e7465720000000000000000000000000000602082015250565b7f4552433732313a20746f6b656e20616c7265616479206d696e74656400000000600082015250565b7f4552433732313a207472616e7366657220746f20746865207a65726f2061646460008201527f7265737300000000000000000000000000000000000000000000000000000000602082015250565b7f4552433732313a20617070726f766520746f2063616c6c657200000000000000600082015250565b7f4552433732313a206f70657261746f7220717565727920666f72206e6f6e657860008201527f697374656e7420746f6b656e0000000000000000000000000000000000000000602082015250565b7f61646472657373206973206e6f74207265676973746572656421000000000000600082015250565b7f4552433732313a20617070726f76652063616c6c6572206973206e6f74206f7760008201527f6e6572206e6f7220617070726f76656420666f7220616c6c0000000000000000602082015250565b7f4552433732313a2062616c616e636520717565727920666f7220746865207a6560008201527f726f206164647265737300000000000000000000000000000000000000000000602082015250565b7f4552433732313a206f776e657220717565727920666f72206e6f6e657869737460008201527f656e7420746f6b656e0000000000000000000000000000000000000000000000602082015250565b7f4552433732313a206d696e7420746f20746865207a65726f2061646472657373600082015250565b7f4552433732313a20617070726f76656420717565727920666f72206e6f6e657860008201527f697374656e7420746f6b656e0000000000000000000000000000000000000000602082015250565b7f74686973206164647265737320616c72656164792068617320616e204e46542060008201527f666f722074686973207175657374210000000000000000000000000000000000602082015250565b7f4552433732313a207472616e73666572206f6620746f6b656e2074686174206960008201527f73206e6f74206f776e0000000000000000000000000000000000000000000000602082015250565b7f4e6f7420612076616c6964207175657374000000000000000000000000000000600082015250565b7f4552433732314d657461646174613a2055524920717565727920666f72206e6f60008201527f6e6578697374656e7420746f6b656e0000000000000000000000000000000000602082015250565b7f4552433732313a20617070726f76616c20746f2063757272656e74206f776e6560008201527f7200000000000000000000000000000000000000000000000000000000000000602082015250565b7f4552433732313a207472616e736665722063616c6c6572206973206e6f74206f60008201527f776e6572206e6f7220617070726f766564000000000000000000000000000000602082015250565b7f4d7573742062652061646d696e20666f72207468697320616374696f6e000000600082015250565b6141f481613a1e565b81146141ff57600080fd5b50565b61420b81613a30565b811461421657600080fd5b50565b61422281613a3c565b811461422d57600080fd5b50565b61423981613a46565b811461424457600080fd5b50565b61425081613a92565b811461425b57600080fd5b5056fea264697066735822122068c6cde780938574c3ab52639607be893cb374bbadec4bebd97cdb88c43b9f3864736f6c63430008060033",
  "immutableReferences": {},
  "source": "pragma solidity >=0.5.0 <0.9.0;\n\n/**\n * @title QuestCompleteNFT\n * @dev NFTs for completing course content on Discovery\n*/\n\nimport \"@openzeppelin/contracts/token/ERC721/ERC721.sol\";\n//import \"@openzeppelin/contracts/token/ERC721/extensions/ERC721URIStorage.sol\";\nimport \"./NFTStore.sol\";\nimport \"./ChainlinkNFT.sol\";\n\ncontract QuestCompleteNFT is ERC721{\n\n    NFTStore public masterStore;\n    ChainlinkNFT public checkNFT;\n    uint tokenID;\n    address private checkNFTAddress;\n    mapping (string => mapping (address => bool)) public NFTExists; // check if NFT already minted for this quest for this address/DID\n    mapping (address => mapping (string => string)) public getNFTURIsByAddress; //allows retrieval of URIs by address and quest\n    mapping (string => uint) public tokensMinted;\n    mapping (string => uint) public rarityThreshold;\n    mapping (string => uint[2]) public rarityPercentages;\n    mapping (address => mapping(string => Quest)) public Quests; //allows retrieval of Quest metadata in one struct. Can remove once NFT.storage is used\n    mapping (bytes32 => NFTData) public NFTRequests; // allows storage of parameters while awaiting Chainlink call\n\n    struct NFTData{\n        address to;\n        string URI;\n        string quest;\n        string did;\n        bool completed;\n        bool exists;\n    }\n\n    struct Quest {\n        address receiver;\n        string quest;\n        string URI;\n        uint timestamp;\n        bool exists;\n    }\n\n    event NFTRequestMade(address indexed to, string quest, bytes32 requestID);\n    event NFTMinted(address indexed _to, string indexed _tokenURI);\n\n    modifier onlyAdmin(){\n        require (masterStore.admins(msg.sender), \"Must be admin for this action\");\n        _;\n    }\n\n    modifier questExist(string memory _quest){\n        require(masterStore.approvedQuests(_quest), \"Not a valid quest\");\n        _;\n    }\n\n    constructor(address payable _masterStoreAddress, address payable _checkNFTAddress) ERC721(\"CompletedDiscoveryQuest\", \"CDQ\") public{\n        masterStore = NFTStore(_masterStoreAddress);\n        bool adminCheck = masterStore.admins(msg.sender);\n        require(adminCheck, \"deployer can't make NFT\");\n        checkNFT = ChainlinkNFT(_checkNFTAddress);\n        checkNFTAddress = _checkNFTAddress;\n    }\n\n    receive() external payable {\n\n    }\n\n    function mintToken(address _to , string memory _tokenURI, string memory questName, string memory _did) public {\n        //access control logic with chainlink?\n        require(masterStore.whiteList(_to), \"address is not registered!\");\n        require(masterStore.approvedQuests(questName), \"this quest is not valid\");\n        require(!NFTExists[questName][_to], \"this address already has an NFT for this quest!\");\n        tokenID++;\n        _mint(_to, tokenID);\n        NFTExists[questName][_to] = true;\n        Quest memory quest_to_add = Quest({\n            receiver : _to,\n            quest : questName,\n            URI : _tokenURI,\n            timestamp : block.timestamp,\n            exists : true\n        });\n        Quests[_to][questName]= quest_to_add;\n        tokensMinted[questName]++;\n        emit NFTMinted(_to, _tokenURI);\n\n        /*bytes32 _requestID = checkNFT.requestCeramicData(_did, questName);\n        NFTRequests[_requestID] = NFTData({\n                    to : _to,\n                    URI : _tokenURI,\n                    quest : questName,\n                    did : _did,\n                    completed : false,\n                    exists : true\n\n        });\n        emit NFTRequestMade(_to, questName, _requestID);\n        */\n    }\n    /*\n    function finishMintToken(bytes32 _requestID) public {\n        require(msg.sender == checkNFTAddress, \"can only be called from NFT contract\");\n        require(NFTRequests[_requestID].exists, \"invalid request ID\");\n        tokenID++;\n        NFTData memory NFTMintData = NFTRequests[_requestID];\n        _mint(NFTMintData.to, tokenID);\n        NFTExists[NFTMintData.quest][NFTMintData.to] = true;\n        getNFTURIsByAddress[NFTMintData.to][NFTMintData.quest] = NFTMintData.URI;\n        Quest memory quest_to_add = Quest({\n            receiver : NFTMintData.to,\n            quest : NFTMintData.quest,\n            URI : NFTMintData.URI,\n            timestamp : block.timestamp,\n            exists : true\n        });\n        Quests[NFTMintData.to][NFTMintData.quest]= quest_to_add;\n        NFTMintData.completed = true;\n        emit NFTMinted(NFTMintData.to, NFTMintData.URI);\n    }\n    */\n\n    function setRarityThreshold(string memory _quest, uint _threshold) public onlyAdmin questExist(_quest){\n        require(_threshold >0);\n        rarityThreshold[_quest] = _threshold;\n\n    }\n\n    function setRarityPercentages(string memory _quest, uint[2] memory _percentages) public onlyAdmin questExist(_quest){\n        require(_percentages[0] >0 && _percentages[1]>0 && _percentages[0] <101 && _percentages[1]<101);\n        rarityPercentages[_quest] = _percentages;\n\n    }\n}",
  "sourcePath": "/home/jpick713/BlockChain_Apps/nftIPFS/contracts/QuestCompleteNFT.sol",
  "compiler": {
    "name": "solc",
    "version": "0.8.6+commit.11564f7e.Emscripten.clang"
  },
  "schemaVersion": "3.4.2",
  "updatedAt": "2021-08-15T11:57:50.732Z",
  "networkType": "ethereum",
  "devdoc": {
    "kind": "dev",
    "methods": {
      "approve(address,uint256)": {
        "details": "See {IERC721-approve}."
      },
      "balanceOf(address)": {
        "details": "See {IERC721-balanceOf}."
      },
      "getApproved(uint256)": {
        "details": "See {IERC721-getApproved}."
      },
      "isApprovedForAll(address,address)": {
        "details": "See {IERC721-isApprovedForAll}."
      },
      "name()": {
        "details": "See {IERC721Metadata-name}."
      },
      "ownerOf(uint256)": {
        "details": "See {IERC721-ownerOf}."
      },
      "safeTransferFrom(address,address,uint256)": {
        "details": "See {IERC721-safeTransferFrom}."
      },
      "safeTransferFrom(address,address,uint256,bytes)": {
        "details": "See {IERC721-safeTransferFrom}."
      },
      "setApprovalForAll(address,bool)": {
        "details": "See {IERC721-setApprovalForAll}."
      },
      "supportsInterface(bytes4)": {
        "details": "See {IERC165-supportsInterface}."
      },
      "symbol()": {
        "details": "See {IERC721Metadata-symbol}."
      },
      "tokenURI(uint256)": {
        "details": "See {IERC721Metadata-tokenURI}."
      },
      "transferFrom(address,address,uint256)": {
        "details": "See {IERC721-transferFrom}."
      }
    },
    "version": 1
  },
  "userdoc": {
    "kind": "user",
    "methods": {},
    "version": 1
  }
}