{
  "contractName": "QuestCompleteNFT",
  "abi": [
    {
      "inputs": [
        {
          "internalType": "address payable",
          "name": "_masterStoreAddress",
          "type": "address"
        },
        {
          "internalType": "address payable",
          "name": "_checkNFTAddress",
          "type": "address"
        }
      ],
      "stateMutability": "nonpayable",
      "type": "constructor"
    },
    {
      "anonymous": false,
      "inputs": [
        {
          "indexed": true,
          "internalType": "address",
          "name": "owner",
          "type": "address"
        },
        {
          "indexed": true,
          "internalType": "address",
          "name": "approved",
          "type": "address"
        },
        {
          "indexed": true,
          "internalType": "uint256",
          "name": "tokenId",
          "type": "uint256"
        }
      ],
      "name": "Approval",
      "type": "event"
    },
    {
      "anonymous": false,
      "inputs": [
        {
          "indexed": true,
          "internalType": "address",
          "name": "owner",
          "type": "address"
        },
        {
          "indexed": true,
          "internalType": "address",
          "name": "operator",
          "type": "address"
        },
        {
          "indexed": false,
          "internalType": "bool",
          "name": "approved",
          "type": "bool"
        }
      ],
      "name": "ApprovalForAll",
      "type": "event"
    },
    {
      "anonymous": false,
      "inputs": [
        {
          "indexed": true,
          "internalType": "address",
          "name": "_to",
          "type": "address"
        },
        {
          "indexed": true,
          "internalType": "string",
          "name": "_tokenURI",
          "type": "string"
        }
      ],
      "name": "NFTMinted",
      "type": "event"
    },
    {
      "anonymous": false,
      "inputs": [
        {
          "indexed": true,
          "internalType": "address",
          "name": "to",
          "type": "address"
        },
        {
          "indexed": false,
          "internalType": "string",
          "name": "quest",
          "type": "string"
        },
        {
          "indexed": false,
          "internalType": "bytes32",
          "name": "requestID",
          "type": "bytes32"
        }
      ],
      "name": "NFTRequestMade",
      "type": "event"
    },
    {
      "anonymous": false,
      "inputs": [
        {
          "indexed": true,
          "internalType": "address",
          "name": "from",
          "type": "address"
        },
        {
          "indexed": true,
          "internalType": "address",
          "name": "to",
          "type": "address"
        },
        {
          "indexed": true,
          "internalType": "uint256",
          "name": "tokenId",
          "type": "uint256"
        }
      ],
      "name": "Transfer",
      "type": "event"
    },
    {
      "inputs": [
        {
          "internalType": "string",
          "name": "",
          "type": "string"
        },
        {
          "internalType": "address",
          "name": "",
          "type": "address"
        }
      ],
      "name": "NFTExists",
      "outputs": [
        {
          "internalType": "bool",
          "name": "",
          "type": "bool"
        }
      ],
      "stateMutability": "view",
      "type": "function",
      "constant": true
    },
    {
      "inputs": [
        {
          "internalType": "bytes32",
          "name": "",
          "type": "bytes32"
        }
      ],
      "name": "NFTRequests",
      "outputs": [
        {
          "internalType": "address",
          "name": "to",
          "type": "address"
        },
        {
          "internalType": "string",
          "name": "URI",
          "type": "string"
        },
        {
          "internalType": "string",
          "name": "quest",
          "type": "string"
        },
        {
          "internalType": "string",
          "name": "did",
          "type": "string"
        },
        {
          "internalType": "bool",
          "name": "completed",
          "type": "bool"
        },
        {
          "internalType": "bool",
          "name": "exists",
          "type": "bool"
        }
      ],
      "stateMutability": "view",
      "type": "function",
      "constant": true
    },
    {
      "inputs": [
        {
          "internalType": "address",
          "name": "",
          "type": "address"
        },
        {
          "internalType": "string",
          "name": "",
          "type": "string"
        }
      ],
      "name": "Quests",
      "outputs": [
        {
          "internalType": "address",
          "name": "receiver",
          "type": "address"
        },
        {
          "internalType": "string",
          "name": "quest",
          "type": "string"
        },
        {
          "internalType": "string",
          "name": "URI",
          "type": "string"
        },
        {
          "internalType": "uint256",
          "name": "timestamp",
          "type": "uint256"
        },
        {
          "internalType": "bool",
          "name": "exists",
          "type": "bool"
        }
      ],
      "stateMutability": "view",
      "type": "function",
      "constant": true
    },
    {
      "inputs": [
        {
          "internalType": "address",
          "name": "to",
          "type": "address"
        },
        {
          "internalType": "uint256",
          "name": "tokenId",
          "type": "uint256"
        }
      ],
      "name": "approve",
      "outputs": [],
      "stateMutability": "nonpayable",
      "type": "function"
    },
    {
      "inputs": [
        {
          "internalType": "address",
          "name": "owner",
          "type": "address"
        }
      ],
      "name": "balanceOf",
      "outputs": [
        {
          "internalType": "uint256",
          "name": "",
          "type": "uint256"
        }
      ],
      "stateMutability": "view",
      "type": "function",
      "constant": true
    },
    {
      "inputs": [],
      "name": "checkNFT",
      "outputs": [
        {
          "internalType": "contract ChainlinkNFT",
          "name": "",
          "type": "address"
        }
      ],
      "stateMutability": "view",
      "type": "function",
      "constant": true
    },
    {
      "inputs": [
        {
          "internalType": "uint256",
          "name": "tokenId",
          "type": "uint256"
        }
      ],
      "name": "getApproved",
      "outputs": [
        {
          "internalType": "address",
          "name": "",
          "type": "address"
        }
      ],
      "stateMutability": "view",
      "type": "function",
      "constant": true
    },
    {
      "inputs": [
        {
          "internalType": "address",
          "name": "",
          "type": "address"
        },
        {
          "internalType": "string",
          "name": "",
          "type": "string"
        }
      ],
      "name": "getNFTURIsByAddress",
      "outputs": [
        {
          "internalType": "string",
          "name": "",
          "type": "string"
        }
      ],
      "stateMutability": "view",
      "type": "function",
      "constant": true
    },
    {
      "inputs": [
        {
          "internalType": "address",
          "name": "owner",
          "type": "address"
        },
        {
          "internalType": "address",
          "name": "operator",
          "type": "address"
        }
      ],
      "name": "isApprovedForAll",
      "outputs": [
        {
          "internalType": "bool",
          "name": "",
          "type": "bool"
        }
      ],
      "stateMutability": "view",
      "type": "function",
      "constant": true
    },
    {
      "inputs": [],
      "name": "masterStore",
      "outputs": [
        {
          "internalType": "contract NFTStore",
          "name": "",
          "type": "address"
        }
      ],
      "stateMutability": "view",
      "type": "function",
      "constant": true
    },
    {
      "inputs": [],
      "name": "name",
      "outputs": [
        {
          "internalType": "string",
          "name": "",
          "type": "string"
        }
      ],
      "stateMutability": "view",
      "type": "function",
      "constant": true
    },
    {
      "inputs": [
        {
          "internalType": "uint256",
          "name": "tokenId",
          "type": "uint256"
        }
      ],
      "name": "ownerOf",
      "outputs": [
        {
          "internalType": "address",
          "name": "",
          "type": "address"
        }
      ],
      "stateMutability": "view",
      "type": "function",
      "constant": true
    },
    {
      "inputs": [
        {
          "internalType": "string",
          "name": "",
          "type": "string"
        },
        {
          "internalType": "uint256",
          "name": "",
          "type": "uint256"
        }
      ],
      "name": "rarityPercentages",
      "outputs": [
        {
          "internalType": "uint256",
          "name": "",
          "type": "uint256"
        }
      ],
      "stateMutability": "view",
      "type": "function",
      "constant": true
    },
    {
      "inputs": [
        {
          "internalType": "string",
          "name": "",
          "type": "string"
        }
      ],
      "name": "rarityThreshold",
      "outputs": [
        {
          "internalType": "uint256",
          "name": "",
          "type": "uint256"
        }
      ],
      "stateMutability": "view",
      "type": "function",
      "constant": true
    },
    {
      "inputs": [
        {
          "internalType": "address",
          "name": "from",
          "type": "address"
        },
        {
          "internalType": "address",
          "name": "to",
          "type": "address"
        },
        {
          "internalType": "uint256",
          "name": "tokenId",
          "type": "uint256"
        }
      ],
      "name": "safeTransferFrom",
      "outputs": [],
      "stateMutability": "nonpayable",
      "type": "function"
    },
    {
      "inputs": [
        {
          "internalType": "address",
          "name": "from",
          "type": "address"
        },
        {
          "internalType": "address",
          "name": "to",
          "type": "address"
        },
        {
          "internalType": "uint256",
          "name": "tokenId",
          "type": "uint256"
        },
        {
          "internalType": "bytes",
          "name": "_data",
          "type": "bytes"
        }
      ],
      "name": "safeTransferFrom",
      "outputs": [],
      "stateMutability": "nonpayable",
      "type": "function"
    },
    {
      "inputs": [
        {
          "internalType": "address",
          "name": "operator",
          "type": "address"
        },
        {
          "internalType": "bool",
          "name": "approved",
          "type": "bool"
        }
      ],
      "name": "setApprovalForAll",
      "outputs": [],
      "stateMutability": "nonpayable",
      "type": "function"
    },
    {
      "inputs": [
        {
          "internalType": "bytes4",
          "name": "interfaceId",
          "type": "bytes4"
        }
      ],
      "name": "supportsInterface",
      "outputs": [
        {
          "internalType": "bool",
          "name": "",
          "type": "bool"
        }
      ],
      "stateMutability": "view",
      "type": "function",
      "constant": true
    },
    {
      "inputs": [],
      "name": "symbol",
      "outputs": [
        {
          "internalType": "string",
          "name": "",
          "type": "string"
        }
      ],
      "stateMutability": "view",
      "type": "function",
      "constant": true
    },
    {
      "inputs": [
        {
          "internalType": "uint256",
          "name": "tokenId",
          "type": "uint256"
        }
      ],
      "name": "tokenURI",
      "outputs": [
        {
          "internalType": "string",
          "name": "",
          "type": "string"
        }
      ],
      "stateMutability": "view",
      "type": "function",
      "constant": true
    },
    {
      "inputs": [
        {
          "internalType": "string",
          "name": "",
          "type": "string"
        }
      ],
      "name": "tokensMinted",
      "outputs": [
        {
          "internalType": "uint256",
          "name": "",
          "type": "uint256"
        }
      ],
      "stateMutability": "view",
      "type": "function",
      "constant": true
    },
    {
      "inputs": [
        {
          "internalType": "address",
          "name": "from",
          "type": "address"
        },
        {
          "internalType": "address",
          "name": "to",
          "type": "address"
        },
        {
          "internalType": "uint256",
          "name": "tokenId",
          "type": "uint256"
        }
      ],
      "name": "transferFrom",
      "outputs": [],
      "stateMutability": "nonpayable",
      "type": "function"
    },
    {
      "stateMutability": "payable",
      "type": "receive",
      "payable": true
    },
    {
      "inputs": [
        {
          "internalType": "address",
          "name": "_to",
          "type": "address"
        },
        {
          "internalType": "string",
          "name": "_tokenURI",
          "type": "string"
        },
        {
          "internalType": "string",
          "name": "questName",
          "type": "string"
        },
        {
          "internalType": "string",
          "name": "_did",
          "type": "string"
        }
      ],
      "name": "mintToken",
      "outputs": [],
      "stateMutability": "nonpayable",
      "type": "function"
    },
    {
      "inputs": [
        {
          "internalType": "bytes32",
          "name": "_requestID",
          "type": "bytes32"
        }
      ],
      "name": "finishMintToken",
      "outputs": [],
      "stateMutability": "nonpayable",
      "type": "function"
    },
    {
      "inputs": [
        {
          "internalType": "string",
          "name": "_quest",
          "type": "string"
        },
        {
          "internalType": "uint256",
          "name": "_threshold",
          "type": "uint256"
        }
      ],
      "name": "setRarityThreshold",
      "outputs": [],
      "stateMutability": "nonpayable",
      "type": "function"
    },
    {
      "inputs": [
        {
          "internalType": "string",
          "name": "_quest",
          "type": "string"
        },
        {
          "internalType": "uint256[2]",
          "name": "_percentages",
          "type": "uint256[2]"
        }
      ],
      "name": "setRarityPercentages",
      "outputs": [],
      "stateMutability": "nonpayable",
      "type": "function"
    }
  ],
  "bytecode": "0x60806040523480156200001157600080fd5b506040516200505038038062005050833981810160405281019062000037919062000379565b6040518060400160405280601781526020017f436f6d706c65746564446973636f7665727951756573740000000000000000008152506040518060400160405280600381526020017f43445100000000000000000000000000000000000000000000000000000000008152508160009080519060200190620000bb9291906200029b565b508060019080519060200190620000d49291906200029b565b50505081600660006101000a81548173ffffffffffffffffffffffffffffffffffffffff021916908373ffffffffffffffffffffffffffffffffffffffff1602179055506000600660009054906101000a900473ffffffffffffffffffffffffffffffffffffffff1673ffffffffffffffffffffffffffffffffffffffff1663429b62e5336040518263ffffffff1660e01b81526004016200017791906200042a565b60206040518083038186803b1580156200019057600080fd5b505afa158015620001a5573d6000803e3d6000fd5b505050506040513d601f19601f82011682018060405250810190620001cb9190620003c0565b90508062000210576040517f08c379a0000000000000000000000000000000000000000000000000000000008152600401620002079062000447565b60405180910390fd5b81600760006101000a81548173ffffffffffffffffffffffffffffffffffffffff021916908373ffffffffffffffffffffffffffffffffffffffff16021790555081600960006101000a81548173ffffffffffffffffffffffffffffffffffffffff021916908373ffffffffffffffffffffffffffffffffffffffff16021790555050505062000595565b828054620002a990620004ce565b90600052602060002090601f016020900481019282620002cd576000855562000319565b82601f10620002e857805160ff191683800117855562000319565b8280016001018555821562000319579182015b8281111562000318578251825591602001919060010190620002fb565b5b5090506200032891906200032c565b5090565b5b80821115620003475760008160009055506001016200032d565b5090565b6000815190506200035c8162000561565b92915050565b60008151905062000373816200057b565b92915050565b6000806040838503121562000393576200039262000533565b5b6000620003a3858286016200034b565b9250506020620003b6858286016200034b565b9150509250929050565b600060208284031215620003d957620003d862000533565b5b6000620003e98482850162000362565b91505092915050565b620003fd816200047a565b82525050565b60006200041260178362000469565b91506200041f8262000538565b602082019050919050565b6000602082019050620004416000830184620003f2565b92915050565b60006020820190508181036000830152620004628162000403565b9050919050565b600082825260208201905092915050565b60006200048782620004ae565b9050919050565b60006200049b82620004ae565b9050919050565b60008115159050919050565b600073ffffffffffffffffffffffffffffffffffffffff82169050919050565b60006002820490506001821680620004e757607f821691505b60208210811415620004fe57620004fd62000504565b5b50919050565b7f4e487b7100000000000000000000000000000000000000000000000000000000600052602260045260246000fd5b600080fd5b7f6465706c6f7965722063616e2774206d616b65204e4654000000000000000000600082015250565b6200056c816200048e565b81146200057857600080fd5b50565b6200058681620004a2565b81146200059257600080fd5b50565b614aab80620005a56000396000f3fe6080604052600436106101855760003560e01c806370a08231116100d1578063a22cb4651161008a578063c87b56dd11610064578063c87b56dd146105dc578063cefeea1314610619578063e985e9c514610656578063fbcf50f3146106935761018c565b8063a22cb46514610561578063b5a271d41461058a578063b88d4fde146105b35761018c565b806370a082311461042757806384ce9e12146104645780638a31cdcd1461048f5780638bfd589b146104b857806395d89b41146104f9578063a0f026e5146105245761018c565b806338d1b2931161013e578063431898201161011857806343189820146103565780634a93c0d61461037f5780636352211e146103a85780636cecefe8146103e55761018c565b806338d1b293146102b357806339b28b0e146102f057806342842e0e1461032d5761018c565b806301ffc9a71461019157806306fdde03146101ce578063081812fc146101f9578063095ea7b314610236578063102437551461025f57806323b872dd1461028a5761018c565b3661018c57005b600080fd5b34801561019d57600080fd5b506101b860048036038101906101b39190613544565b6106d0565b6040516101c59190613c7d565b60405180910390f35b3480156101da57600080fd5b506101e36107b2565b6040516101f09190613cce565b60405180910390f35b34801561020557600080fd5b50610220600480360381019061021b91906136fb565b610844565b60405161022d9190613b3f565b60405180910390f35b34801561024257600080fd5b5061025d6004803603810190610258919061347d565b6108c9565b005b34801561026b57600080fd5b506102746109e1565b6040516102819190613cb3565b60405180910390f35b34801561029657600080fd5b506102b160048036038101906102ac9190613250565b610a07565b005b3480156102bf57600080fd5b506102da60048036038101906102d5919061369f565b610a67565b6040516102e79190613ff7565b60405180910390f35b3480156102fc57600080fd5b506103176004803603810190610312919061359e565b610aa5565b6040516103249190613ff7565b60405180910390f35b34801561033957600080fd5b50610354600480360381019061034f9190613250565b610ad3565b005b34801561036257600080fd5b5061037d600480360381019061037891906134ea565b610af3565b005b34801561038b57600080fd5b506103a660048036038101906103a1919061369f565b611143565b005b3480156103b457600080fd5b506103cf60048036038101906103ca91906136fb565b61134d565b6040516103dc9190613b3f565b60405180910390f35b3480156103f157600080fd5b5061040c600480360381019061040791906134ea565b6113ff565b60405161041e96959493929190613ba6565b60405180910390f35b34801561043357600080fd5b5061044e600480360381019061044991906131e3565b61160d565b60405161045b9190613ff7565b60405180910390f35b34801561047057600080fd5b506104796116c5565b6040516104869190613c98565b60405180910390f35b34801561049b57600080fd5b506104b660048036038101906104b19190613643565b6116eb565b005b3480156104c457600080fd5b506104df60048036038101906104da9190613366565b611984565b6040516104f0959493929190613c1c565b60405180910390f35b34801561050557600080fd5b5061050e611b1a565b60405161051b9190613cce565b60405180910390f35b34801561053057600080fd5b5061054b600480360381019061054691906135e7565b611bac565b6040516105589190613c7d565b60405180910390f35b34801561056d57600080fd5b5061058860048036038101906105839190613326565b611bf1565b005b34801561059657600080fd5b506105b160048036038101906105ac91906133c2565b611d72565b005b3480156105bf57600080fd5b506105da60048036038101906105d591906132a3565b612236565b005b3480156105e857600080fd5b5061060360048036038101906105fe91906136fb565b612298565b6040516106109190613cce565b60405180910390f35b34801561062557600080fd5b50610640600480360381019061063b919061359e565b61233f565b60405161064d9190613ff7565b60405180910390f35b34801561066257600080fd5b5061067d60048036038101906106789190613210565b61236d565b60405161068a9190613c7d565b60405180910390f35b34801561069f57600080fd5b506106ba60048036038101906106b59190613366565b612401565b6040516106c79190613cce565b60405180910390f35b60007f80ac58cd000000000000000000000000000000000000000000000000000000007bffffffffffffffffffffffffffffffffffffffffffffffffffffffff1916827bffffffffffffffffffffffffffffffffffffffffffffffffffffffff1916148061079b57507f5b5e139f000000000000000000000000000000000000000000000000000000007bffffffffffffffffffffffffffffffffffffffffffffffffffffffff1916827bffffffffffffffffffffffffffffffffffffffffffffffffffffffff1916145b806107ab57506107aa826124c4565b5b9050919050565b6060600080546107c1906142c5565b80601f01602080910402602001604051908101604052809291908181526020018280546107ed906142c5565b801561083a5780601f1061080f5761010080835404028352916020019161083a565b820191906000526020600020905b81548152906001019060200180831161081d57829003601f168201915b5050505050905090565b600061084f8261252e565b61088e576040517f08c379a000000000000000000000000000000000000000000000000000000000815260040161088590613eb7565b60405180910390fd5b6004600083815260200190815260200160002060009054906101000a900473ffffffffffffffffffffffffffffffffffffffff169050919050565b60006108d48261134d565b90508073ffffffffffffffffffffffffffffffffffffffff168373ffffffffffffffffffffffffffffffffffffffff161415610945576040517f08c379a000000000000000000000000000000000000000000000000000000000815260040161093c90613f77565b60405180910390fd5b8073ffffffffffffffffffffffffffffffffffffffff1661096461259a565b73ffffffffffffffffffffffffffffffffffffffff16148061099357506109928161098d61259a565b61236d565b5b6109d2576040517f08c379a00000000000000000000000000000000000000000000000000000000081526004016109c990613e37565b60405180910390fd5b6109dc83836125a2565b505050565b600660009054906101000a900473ffffffffffffffffffffffffffffffffffffffff1681565b610a18610a1261259a565b8261265b565b610a57576040517f08c379a0000000000000000000000000000000000000000000000000000000008152600401610a4e90613f97565b60405180910390fd5b610a62838383612739565b505050565b600e828051602081018201805184825260208301602085012081835280955050505050508160028110610a9957600080fd5b01600091509150505481565b600c818051602081018201805184825260208301602085012081835280955050505050506000915090505481565b610aee83838360405180602001604052806000815250612236565b505050565b600960009054906101000a900473ffffffffffffffffffffffffffffffffffffffff1673ffffffffffffffffffffffffffffffffffffffff163373ffffffffffffffffffffffffffffffffffffffff1614610b83576040517f08c379a0000000000000000000000000000000000000000000000000000000008152600401610b7a90613f57565b60405180910390fd5b6010600082815260200190815260200160002060040160019054906101000a900460ff16610be6576040517f08c379a0000000000000000000000000000000000000000000000000000000008152600401610bdd90613fd7565b60405180910390fd5b60086000815480929190610bf990614328565b91905055506000601060008381526020019081526020016000206040518060c00160405290816000820160009054906101000a900473ffffffffffffffffffffffffffffffffffffffff1673ffffffffffffffffffffffffffffffffffffffff1673ffffffffffffffffffffffffffffffffffffffff168152602001600182018054610c84906142c5565b80601f0160208091040260200160405190810160405280929190818152602001828054610cb0906142c5565b8015610cfd5780601f10610cd257610100808354040283529160200191610cfd565b820191906000526020600020905b815481529060010190602001808311610ce057829003601f168201915b50505050508152602001600282018054610d16906142c5565b80601f0160208091040260200160405190810160405280929190818152602001828054610d42906142c5565b8015610d8f5780601f10610d6457610100808354040283529160200191610d8f565b820191906000526020600020905b815481529060010190602001808311610d7257829003601f168201915b50505050508152602001600382018054610da8906142c5565b80601f0160208091040260200160405190810160405280929190818152602001828054610dd4906142c5565b8015610e215780601f10610df657610100808354040283529160200191610e21565b820191906000526020600020905b815481529060010190602001808311610e0457829003601f168201915b505050505081526020016004820160009054906101000a900460ff161515151581526020016004820160019054906101000a900460ff1615151515815250509050610e728160000151600854612995565b6001600a8260400151604051610e889190613b04565b90815260200160405180910390206000836000015173ffffffffffffffffffffffffffffffffffffffff1673ffffffffffffffffffffffffffffffffffffffff16815260200190815260200160002060006101000a81548160ff0219169083151502179055508060200151600b6000836000015173ffffffffffffffffffffffffffffffffffffffff1673ffffffffffffffffffffffffffffffffffffffff1681526020019081526020016000208260400151604051610f489190613b04565b90815260200160405180910390209080519060200190610f69929190612ee6565b5060006040518060a00160405280836000015173ffffffffffffffffffffffffffffffffffffffff168152602001836040015181526020018360200151815260200142815260200160011515815250905080600f6000846000015173ffffffffffffffffffffffffffffffffffffffff1673ffffffffffffffffffffffffffffffffffffffff16815260200190815260200160002083604001516040516110109190613b04565b908152602001604051809103902060008201518160000160006101000a81548173ffffffffffffffffffffffffffffffffffffffff021916908373ffffffffffffffffffffffffffffffffffffffff1602179055506020820151816001019080519060200190611081929190612ee6565b50604082015181600201908051906020019061109e929190612ee6565b506060820151816003015560808201518160040160006101000a81548160ff021916908315150217905550905050600182608001901515908115158152505081602001516040516110ef9190613b04565b6040518091039020826000015173ffffffffffffffffffffffffffffffffffffffff167f371f376692dd846fa34380a8fd44c6a140dc5cd442cd8ae5657963685f17ebed60405160405180910390a3505050565b600660009054906101000a900473ffffffffffffffffffffffffffffffffffffffff1673ffffffffffffffffffffffffffffffffffffffff1663429b62e5336040518263ffffffff1660e01b815260040161119e9190613b3f565b60206040518083038186803b1580156111b657600080fd5b505afa1580156111ca573d6000803e3d6000fd5b505050506040513d601f19601f820116820180604052508101906111ee91906134bd565b61122d576040517f08c379a000000000000000000000000000000000000000000000000000000000815260040161122490613fb7565b60405180910390fd5b81600660009054906101000a900473ffffffffffffffffffffffffffffffffffffffff1673ffffffffffffffffffffffffffffffffffffffff1663a852a581826040518263ffffffff1660e01b81526004016112899190613cce565b60206040518083038186803b1580156112a157600080fd5b505afa1580156112b5573d6000803e3d6000fd5b505050506040513d601f19601f820116820180604052508101906112d991906134bd565b611318576040517f08c379a000000000000000000000000000000000000000000000000000000000815260040161130f90613f17565b60405180910390fd5b6000821161132557600080fd5b81600d846040516113369190613b04565b908152602001604051809103902081905550505050565b6000806002600084815260200190815260200160002060009054906101000a900473ffffffffffffffffffffffffffffffffffffffff169050600073ffffffffffffffffffffffffffffffffffffffff168173ffffffffffffffffffffffffffffffffffffffff1614156113f6576040517f08c379a00000000000000000000000000000000000000000000000000000000081526004016113ed90613e77565b60405180910390fd5b80915050919050565b60106020528060005260406000206000915090508060000160009054906101000a900473ffffffffffffffffffffffffffffffffffffffff1690806001018054611448906142c5565b80601f0160208091040260200160405190810160405280929190818152602001828054611474906142c5565b80156114c15780601f10611496576101008083540402835291602001916114c1565b820191906000526020600020905b8154815290600101906020018083116114a457829003601f168201915b5050505050908060020180546114d6906142c5565b80601f0160208091040260200160405190810160405280929190818152602001828054611502906142c5565b801561154f5780601f106115245761010080835404028352916020019161154f565b820191906000526020600020905b81548152906001019060200180831161153257829003601f168201915b505050505090806003018054611564906142c5565b80601f0160208091040260200160405190810160405280929190818152602001828054611590906142c5565b80156115dd5780601f106115b2576101008083540402835291602001916115dd565b820191906000526020600020905b8154815290600101906020018083116115c057829003601f168201915b5050505050908060040160009054906101000a900460ff16908060040160019054906101000a900460ff16905086565b60008073ffffffffffffffffffffffffffffffffffffffff168273ffffffffffffffffffffffffffffffffffffffff16141561167e576040517f08c379a000000000000000000000000000000000000000000000000000000000815260040161167590613e57565b60405180910390fd5b600360008373ffffffffffffffffffffffffffffffffffffffff1673ffffffffffffffffffffffffffffffffffffffff168152602001908152602001600020549050919050565b600760009054906101000a900473ffffffffffffffffffffffffffffffffffffffff1681565b600660009054906101000a900473ffffffffffffffffffffffffffffffffffffffff1673ffffffffffffffffffffffffffffffffffffffff1663429b62e5336040518263ffffffff1660e01b81526004016117469190613b3f565b60206040518083038186803b15801561175e57600080fd5b505afa158015611772573d6000803e3d6000fd5b505050506040513d601f19601f8201168201806040525081019061179691906134bd565b6117d5576040517f08c379a00000000000000000000000000000000000000000000000000000000081526004016117cc90613fb7565b60405180910390fd5b81600660009054906101000a900473ffffffffffffffffffffffffffffffffffffffff1673ffffffffffffffffffffffffffffffffffffffff1663a852a581826040518263ffffffff1660e01b81526004016118319190613cce565b60206040518083038186803b15801561184957600080fd5b505afa15801561185d573d6000803e3d6000fd5b505050506040513d601f19601f8201168201806040525081019061188191906134bd565b6118c0576040517f08c379a00000000000000000000000000000000000000000000000000000000081526004016118b790613f17565b60405180910390fd5b6000826000600281106118d6576118d561442f565b5b602002015111801561190057506000826001600281106118f9576118f861442f565b5b6020020151115b8015611924575060658260006002811061191d5761191c61442f565b5b6020020151105b801561194857506065826001600281106119415761194061442f565b5b6020020151105b61195157600080fd5b81600e846040516119629190613b04565b908152602001604051809103902090600261197e929190612f6c565b50505050565b600f60205281600052604060002081805160208101820180518482526020830160208501208183528095505050505050600091509150508060000160009054906101000a900473ffffffffffffffffffffffffffffffffffffffff16908060010180546119f0906142c5565b80601f0160208091040260200160405190810160405280929190818152602001828054611a1c906142c5565b8015611a695780601f10611a3e57610100808354040283529160200191611a69565b820191906000526020600020905b815481529060010190602001808311611a4c57829003601f168201915b505050505090806002018054611a7e906142c5565b80601f0160208091040260200160405190810160405280929190818152602001828054611aaa906142c5565b8015611af75780601f10611acc57610100808354040283529160200191611af7565b820191906000526020600020905b815481529060010190602001808311611ada57829003601f168201915b5050505050908060030154908060040160009054906101000a900460ff16905085565b606060018054611b29906142c5565b80601f0160208091040260200160405190810160405280929190818152602001828054611b55906142c5565b8015611ba25780601f10611b7757610100808354040283529160200191611ba2565b820191906000526020600020905b815481529060010190602001808311611b8557829003601f168201915b5050505050905090565b600a828051602081018201805184825260208301602085012081835280955050505050506020528060005260406000206000915091509054906101000a900460ff1681565b611bf961259a565b73ffffffffffffffffffffffffffffffffffffffff168273ffffffffffffffffffffffffffffffffffffffff161415611c67576040517f08c379a0000000000000000000000000000000000000000000000000000000008152600401611c5e90613dd7565b60405180910390fd5b8060056000611c7461259a565b73ffffffffffffffffffffffffffffffffffffffff1673ffffffffffffffffffffffffffffffffffffffff16815260200190815260200160002060008473ffffffffffffffffffffffffffffffffffffffff1673ffffffffffffffffffffffffffffffffffffffff16815260200190815260200160002060006101000a81548160ff0219169083151502179055508173ffffffffffffffffffffffffffffffffffffffff16611d2161259a565b73ffffffffffffffffffffffffffffffffffffffff167f17307eab39ab6107e8899845ad3d59bd9653f200f220920489ca2b5937696c3183604051611d669190613c7d565b60405180910390a35050565b600660009054906101000a900473ffffffffffffffffffffffffffffffffffffffff1673ffffffffffffffffffffffffffffffffffffffff1663372c12b1856040518263ffffffff1660e01b8152600401611dcd9190613b3f565b60206040518083038186803b158015611de557600080fd5b505afa158015611df9573d6000803e3d6000fd5b505050506040513d601f19601f82011682018060405250810190611e1d91906134bd565b611e5c576040517f08c379a0000000000000000000000000000000000000000000000000000000008152600401611e5390613e17565b60405180910390fd5b600660009054906101000a900473ffffffffffffffffffffffffffffffffffffffff1673ffffffffffffffffffffffffffffffffffffffff1663a852a581836040518263ffffffff1660e01b8152600401611eb79190613cce565b60206040518083038186803b158015611ecf57600080fd5b505afa158015611ee3573d6000803e3d6000fd5b505050506040513d601f19601f82011682018060405250810190611f0791906134bd565b611f46576040517f08c379a0000000000000000000000000000000000000000000000000000000008152600401611f3d90613d57565b60405180910390fd5b600a82604051611f569190613b04565b908152602001604051809103902060008573ffffffffffffffffffffffffffffffffffffffff1673ffffffffffffffffffffffffffffffffffffffff16815260200190815260200160002060009054906101000a900460ff1615611fef576040517f08c379a0000000000000000000000000000000000000000000000000000000008152600401611fe690613ed7565b60405180910390fd5b6000600760009054906101000a900473ffffffffffffffffffffffffffffffffffffffff1673ffffffffffffffffffffffffffffffffffffffff1663414110b583856040518363ffffffff1660e01b815260040161204e929190613d20565b602060405180830381600087803b15801561206857600080fd5b505af115801561207c573d6000803e3d6000fd5b505050506040513d601f19601f820116820180604052508101906120a09190613517565b90506040518060c001604052808673ffffffffffffffffffffffffffffffffffffffff168152602001858152602001848152602001838152602001600015158152602001600115158152506010600083815260200190815260200160002060008201518160000160006101000a81548173ffffffffffffffffffffffffffffffffffffffff021916908373ffffffffffffffffffffffffffffffffffffffff1602179055506020820151816001019080519060200190612161929190612ee6565b50604082015181600201908051906020019061217e929190612ee6565b50606082015181600301908051906020019061219b929190612ee6565b5060808201518160040160006101000a81548160ff02191690831515021790555060a08201518160040160016101000a81548160ff0219169083151502179055509050508473ffffffffffffffffffffffffffffffffffffffff167f5910ec49ffa84fc10b381290a16016078d481bceab7fc51d122ffee19995ba2f8483604051612227929190613cf0565b60405180910390a25050505050565b61224761224161259a565b8361265b565b612286576040517f08c379a000000000000000000000000000000000000000000000000000000000815260040161227d90613f97565b60405180910390fd5b61229284848484612b63565b50505050565b60606122a38261252e565b6122e2576040517f08c379a00000000000000000000000000000000000000000000000000000000081526004016122d990613f37565b60405180910390fd5b60006122ec612bbf565b9050600081511161230c5760405180602001604052806000815250612337565b8061231684612bd6565b604051602001612327929190613b1b565b6040516020818303038152906040525b915050919050565b600d818051602081018201805184825260208301602085012081835280955050505050506000915090505481565b6000600560008473ffffffffffffffffffffffffffffffffffffffff1673ffffffffffffffffffffffffffffffffffffffff16815260200190815260200160002060008373ffffffffffffffffffffffffffffffffffffffff1673ffffffffffffffffffffffffffffffffffffffff16815260200190815260200160002060009054906101000a900460ff16905092915050565b600b60205281600052604060002081805160208101820180518482526020830160208501208183528095505050505050600091509150508054612443906142c5565b80601f016020809104026020016040519081016040528092919081815260200182805461246f906142c5565b80156124bc5780601f10612491576101008083540402835291602001916124bc565b820191906000526020600020905b81548152906001019060200180831161249f57829003601f168201915b505050505081565b60007f01ffc9a7000000000000000000000000000000000000000000000000000000007bffffffffffffffffffffffffffffffffffffffffffffffffffffffff1916827bffffffffffffffffffffffffffffffffffffffffffffffffffffffff1916149050919050565b60008073ffffffffffffffffffffffffffffffffffffffff166002600084815260200190815260200160002060009054906101000a900473ffffffffffffffffffffffffffffffffffffffff1673ffffffffffffffffffffffffffffffffffffffff1614159050919050565b600033905090565b816004600083815260200190815260200160002060006101000a81548173ffffffffffffffffffffffffffffffffffffffff021916908373ffffffffffffffffffffffffffffffffffffffff160217905550808273ffffffffffffffffffffffffffffffffffffffff166126158361134d565b73ffffffffffffffffffffffffffffffffffffffff167f8c5be1e5ebec7d5bd14f71427d1e84f3dd0314c0f7b2291e5b200ac8c7c3b92560405160405180910390a45050565b60006126668261252e565b6126a5576040517f08c379a000000000000000000000000000000000000000000000000000000000815260040161269c90613df7565b60405180910390fd5b60006126b08361134d565b90508073ffffffffffffffffffffffffffffffffffffffff168473ffffffffffffffffffffffffffffffffffffffff16148061271f57508373ffffffffffffffffffffffffffffffffffffffff1661270784610844565b73ffffffffffffffffffffffffffffffffffffffff16145b80612730575061272f818561236d565b5b91505092915050565b8273ffffffffffffffffffffffffffffffffffffffff166127598261134d565b73ffffffffffffffffffffffffffffffffffffffff16146127af576040517f08c379a00000000000000000000000000000000000000000000000000000000081526004016127a690613ef7565b60405180910390fd5b600073ffffffffffffffffffffffffffffffffffffffff168273ffffffffffffffffffffffffffffffffffffffff16141561281f576040517f08c379a000000000000000000000000000000000000000000000000000000000815260040161281690613db7565b60405180910390fd5b61282a838383612d37565b6128356000826125a2565b6001600360008573ffffffffffffffffffffffffffffffffffffffff1673ffffffffffffffffffffffffffffffffffffffff16815260200190815260200160002060008282546128859190614189565b925050819055506001600360008473ffffffffffffffffffffffffffffffffffffffff1673ffffffffffffffffffffffffffffffffffffffff16815260200190815260200160002060008282546128dc9190614102565b92505081905550816002600083815260200190815260200160002060006101000a81548173ffffffffffffffffffffffffffffffffffffffff021916908373ffffffffffffffffffffffffffffffffffffffff160217905550808273ffffffffffffffffffffffffffffffffffffffff168473ffffffffffffffffffffffffffffffffffffffff167fddf252ad1be2c89b69c2b068fc378daa952ba7f163c4a11628f55a4df523b3ef60405160405180910390a4505050565b600073ffffffffffffffffffffffffffffffffffffffff168273ffffffffffffffffffffffffffffffffffffffff161415612a05576040517f08c379a00000000000000000000000000000000000000000000000000000000081526004016129fc90613e97565b60405180910390fd5b612a0e8161252e565b15612a4e576040517f08c379a0000000000000000000000000000000000000000000000000000000008152600401612a4590613d97565b60405180910390fd5b612a5a60008383612d37565b6001600360008473ffffffffffffffffffffffffffffffffffffffff1673ffffffffffffffffffffffffffffffffffffffff1681526020019081526020016000206000828254612aaa9190614102565b92505081905550816002600083815260200190815260200160002060006101000a81548173ffffffffffffffffffffffffffffffffffffffff021916908373ffffffffffffffffffffffffffffffffffffffff160217905550808273ffffffffffffffffffffffffffffffffffffffff16600073ffffffffffffffffffffffffffffffffffffffff167fddf252ad1be2c89b69c2b068fc378daa952ba7f163c4a11628f55a4df523b3ef60405160405180910390a45050565b612b6e848484612739565b612b7a84848484612d3c565b612bb9576040517f08c379a0000000000000000000000000000000000000000000000000000000008152600401612bb090613d77565b60405180910390fd5b50505050565b606060405180602001604052806000815250905090565b60606000821415612c1e576040518060400160405280600181526020017f30000000000000000000000000000000000000000000000000000000000000008152509050612d32565b600082905060005b60008214612c50578080612c3990614328565b915050600a82612c499190614158565b9150612c26565b60008167ffffffffffffffff811115612c6c57612c6b61445e565b5b6040519080825280601f01601f191660200182016040528015612c9e5781602001600182028036833780820191505090505b5090505b60008514612d2b57600182612cb79190614189565b9150600a85612cc69190614371565b6030612cd29190614102565b60f81b818381518110612ce857612ce761442f565b5b60200101907effffffffffffffffffffffffffffffffffffffffffffffffffffffffffffff1916908160001a905350600a85612d249190614158565b9450612ca2565b8093505050505b919050565b505050565b6000612d5d8473ffffffffffffffffffffffffffffffffffffffff16612ed3565b15612ec6578373ffffffffffffffffffffffffffffffffffffffff1663150b7a02612d8661259a565b8786866040518563ffffffff1660e01b8152600401612da89493929190613b5a565b602060405180830381600087803b158015612dc257600080fd5b505af1925050508015612df357506040513d601f19601f82011682018060405250810190612df09190613571565b60015b612e76573d8060008114612e23576040519150601f19603f3d011682016040523d82523d6000602084013e612e28565b606091505b50600081511415612e6e576040517f08c379a0000000000000000000000000000000000000000000000000000000008152600401612e6590613d77565b60405180910390fd5b805181602001fd5b63150b7a0260e01b7bffffffffffffffffffffffffffffffffffffffffffffffffffffffff1916817bffffffffffffffffffffffffffffffffffffffffffffffffffffffff191614915050612ecb565b600190505b949350505050565b600080823b905060008111915050919050565b828054612ef2906142c5565b90600052602060002090601f016020900481019282612f145760008555612f5b565b82601f10612f2d57805160ff1916838001178555612f5b565b82800160010185558215612f5b579182015b82811115612f5a578251825591602001919060010190612f3f565b5b509050612f689190612fac565b5090565b8260028101928215612f9b579160200282015b82811115612f9a578251825591602001919060010190612f7f565b5b509050612fa89190612fac565b5090565b5b80821115612fc5576000816000905550600101612fad565b5090565b6000612fdc612fd784614037565b614012565b90508082856020860282011115612ff657612ff5614492565b5b60005b85811015613026578161300c88826131ce565b845260208401935060208301925050600181019050612ff9565b5050509392505050565b600061304361303e8461405d565b614012565b90508281526020810184848401111561305f5761305e614497565b5b61306a848285614283565b509392505050565b60006130856130808461408e565b614012565b9050828152602081018484840111156130a1576130a0614497565b5b6130ac848285614283565b509392505050565b6000813590506130c381614a02565b92915050565b600082601f8301126130de576130dd61448d565b5b60026130eb848285612fc9565b91505092915050565b60008135905061310381614a19565b92915050565b60008151905061311881614a19565b92915050565b60008135905061312d81614a30565b92915050565b60008151905061314281614a30565b92915050565b60008135905061315781614a47565b92915050565b60008151905061316c81614a47565b92915050565b600082601f8301126131875761318661448d565b5b8135613197848260208601613030565b91505092915050565b600082601f8301126131b5576131b461448d565b5b81356131c5848260208601613072565b91505092915050565b6000813590506131dd81614a5e565b92915050565b6000602082840312156131f9576131f86144a1565b5b6000613207848285016130b4565b91505092915050565b60008060408385031215613227576132266144a1565b5b6000613235858286016130b4565b9250506020613246858286016130b4565b9150509250929050565b600080600060608486031215613269576132686144a1565b5b6000613277868287016130b4565b9350506020613288868287016130b4565b9250506040613299868287016131ce565b9150509250925092565b600080600080608085870312156132bd576132bc6144a1565b5b60006132cb878288016130b4565b94505060206132dc878288016130b4565b93505060406132ed878288016131ce565b925050606085013567ffffffffffffffff81111561330e5761330d61449c565b5b61331a87828801613172565b91505092959194509250565b6000806040838503121561333d5761333c6144a1565b5b600061334b858286016130b4565b925050602061335c858286016130f4565b9150509250929050565b6000806040838503121561337d5761337c6144a1565b5b600061338b858286016130b4565b925050602083013567ffffffffffffffff8111156133ac576133ab61449c565b5b6133b8858286016131a0565b9150509250929050565b600080600080608085870312156133dc576133db6144a1565b5b60006133ea878288016130b4565b945050602085013567ffffffffffffffff81111561340b5761340a61449c565b5b613417878288016131a0565b935050604085013567ffffffffffffffff8111156134385761343761449c565b5b613444878288016131a0565b925050606085013567ffffffffffffffff8111156134655761346461449c565b5b613471878288016131a0565b91505092959194509250565b60008060408385031215613494576134936144a1565b5b60006134a2858286016130b4565b92505060206134b3858286016131ce565b9150509250929050565b6000602082840312156134d3576134d26144a1565b5b60006134e184828501613109565b91505092915050565b600060208284031215613500576134ff6144a1565b5b600061350e8482850161311e565b91505092915050565b60006020828403121561352d5761352c6144a1565b5b600061353b84828501613133565b91505092915050565b60006020828403121561355a576135596144a1565b5b600061356884828501613148565b91505092915050565b600060208284031215613587576135866144a1565b5b60006135958482850161315d565b91505092915050565b6000602082840312156135b4576135b36144a1565b5b600082013567ffffffffffffffff8111156135d2576135d161449c565b5b6135de848285016131a0565b91505092915050565b600080604083850312156135fe576135fd6144a1565b5b600083013567ffffffffffffffff81111561361c5761361b61449c565b5b613628858286016131a0565b9250506020613639858286016130b4565b9150509250929050565b6000806060838503121561365a576136596144a1565b5b600083013567ffffffffffffffff8111156136785761367761449c565b5b613684858286016131a0565b9250506020613695858286016130c9565b9150509250929050565b600080604083850312156136b6576136b56144a1565b5b600083013567ffffffffffffffff8111156136d4576136d361449c565b5b6136e0858286016131a0565b92505060206136f1858286016131ce565b9150509250929050565b600060208284031215613711576137106144a1565b5b600061371f848285016131ce565b91505092915050565b613731816141bd565b82525050565b613740816141cf565b82525050565b61374f816141db565b82525050565b6000613760826140bf565b61376a81856140d5565b935061377a818560208601614292565b613783816144a6565b840191505092915050565b6137978161423b565b82525050565b6137a68161425f565b82525050565b60006137b7826140ca565b6137c181856140e6565b93506137d1818560208601614292565b6137da816144a6565b840191505092915050565b60006137f0826140ca565b6137fa81856140f7565b935061380a818560208601614292565b80840191505092915050565b60006138236017836140e6565b915061382e826144b7565b602082019050919050565b60006138466032836140e6565b9150613851826144e0565b604082019050919050565b6000613869601c836140e6565b91506138748261452f565b602082019050919050565b600061388c6024836140e6565b915061389782614558565b604082019050919050565b60006138af6019836140e6565b91506138ba826145a7565b602082019050919050565b60006138d2602c836140e6565b91506138dd826145d0565b604082019050919050565b60006138f5601a836140e6565b91506139008261461f565b602082019050919050565b60006139186038836140e6565b915061392382614648565b604082019050919050565b600061393b602a836140e6565b915061394682614697565b604082019050919050565b600061395e6029836140e6565b9150613969826146e6565b604082019050919050565b60006139816020836140e6565b915061398c82614735565b602082019050919050565b60006139a4602c836140e6565b91506139af8261475e565b604082019050919050565b60006139c7602f836140e6565b91506139d2826147ad565b604082019050919050565b60006139ea6029836140e6565b91506139f5826147fc565b604082019050919050565b6000613a0d6011836140e6565b9150613a188261484b565b602082019050919050565b6000613a30602f836140e6565b9150613a3b82614874565b604082019050919050565b6000613a536024836140e6565b9150613a5e826148c3565b604082019050919050565b6000613a766021836140e6565b9150613a8182614912565b604082019050919050565b6000613a996031836140e6565b9150613aa482614961565b604082019050919050565b6000613abc601d836140e6565b9150613ac7826149b0565b602082019050919050565b6000613adf6012836140e6565b9150613aea826149d9565b602082019050919050565b613afe81614231565b82525050565b6000613b1082846137e5565b915081905092915050565b6000613b2782856137e5565b9150613b3382846137e5565b91508190509392505050565b6000602082019050613b546000830184613728565b92915050565b6000608082019050613b6f6000830187613728565b613b7c6020830186613728565b613b896040830185613af5565b8181036060830152613b9b8184613755565b905095945050505050565b600060c082019050613bbb6000830189613728565b8181036020830152613bcd81886137ac565b90508181036040830152613be181876137ac565b90508181036060830152613bf581866137ac565b9050613c046080830185613737565b613c1160a0830184613737565b979650505050505050565b600060a082019050613c316000830188613728565b8181036020830152613c4381876137ac565b90508181036040830152613c5781866137ac565b9050613c666060830185613af5565b613c736080830184613737565b9695505050505050565b6000602082019050613c926000830184613737565b92915050565b6000602082019050613cad600083018461378e565b92915050565b6000602082019050613cc8600083018461379d565b92915050565b60006020820190508181036000830152613ce881846137ac565b905092915050565b60006040820190508181036000830152613d0a81856137ac565b9050613d196020830184613746565b9392505050565b60006040820190508181036000830152613d3a81856137ac565b90508181036020830152613d4e81846137ac565b90509392505050565b60006020820190508181036000830152613d7081613816565b9050919050565b60006020820190508181036000830152613d9081613839565b9050919050565b60006020820190508181036000830152613db08161385c565b9050919050565b60006020820190508181036000830152613dd08161387f565b9050919050565b60006020820190508181036000830152613df0816138a2565b9050919050565b60006020820190508181036000830152613e10816138c5565b9050919050565b60006020820190508181036000830152613e30816138e8565b9050919050565b60006020820190508181036000830152613e508161390b565b9050919050565b60006020820190508181036000830152613e708161392e565b9050919050565b60006020820190508181036000830152613e9081613951565b9050919050565b60006020820190508181036000830152613eb081613974565b9050919050565b60006020820190508181036000830152613ed081613997565b9050919050565b60006020820190508181036000830152613ef0816139ba565b9050919050565b60006020820190508181036000830152613f10816139dd565b9050919050565b60006020820190508181036000830152613f3081613a00565b9050919050565b60006020820190508181036000830152613f5081613a23565b9050919050565b60006020820190508181036000830152613f7081613a46565b9050919050565b60006020820190508181036000830152613f9081613a69565b9050919050565b60006020820190508181036000830152613fb081613a8c565b9050919050565b60006020820190508181036000830152613fd081613aaf565b9050919050565b60006020820190508181036000830152613ff081613ad2565b9050919050565b600060208201905061400c6000830184613af5565b92915050565b600061401c61402d565b905061402882826142f7565b919050565b6000604051905090565b600067ffffffffffffffff8211156140525761405161445e565b5b602082029050919050565b600067ffffffffffffffff8211156140785761407761445e565b5b614081826144a6565b9050602081019050919050565b600067ffffffffffffffff8211156140a9576140a861445e565b5b6140b2826144a6565b9050602081019050919050565b600081519050919050565b600081519050919050565b600082825260208201905092915050565b600082825260208201905092915050565b600081905092915050565b600061410d82614231565b915061411883614231565b9250827fffffffffffffffffffffffffffffffffffffffffffffffffffffffffffffffff0382111561414d5761414c6143a2565b5b828201905092915050565b600061416382614231565b915061416e83614231565b92508261417e5761417d6143d1565b5b828204905092915050565b600061419482614231565b915061419f83614231565b9250828210156141b2576141b16143a2565b5b828203905092915050565b60006141c882614211565b9050919050565b60008115159050919050565b6000819050919050565b60007fffffffff0000000000000000000000000000000000000000000000000000000082169050919050565b600073ffffffffffffffffffffffffffffffffffffffff82169050919050565b6000819050919050565b60006142468261424d565b9050919050565b600061425882614211565b9050919050565b600061426a82614271565b9050919050565b600061427c82614211565b9050919050565b82818337600083830152505050565b60005b838110156142b0578082015181840152602081019050614295565b838111156142bf576000848401525b50505050565b600060028204905060018216806142dd57607f821691505b602082108114156142f1576142f0614400565b5b50919050565b614300826144a6565b810181811067ffffffffffffffff8211171561431f5761431e61445e565b5b80604052505050565b600061433382614231565b91507fffffffffffffffffffffffffffffffffffffffffffffffffffffffffffffffff821415614366576143656143a2565b5b600182019050919050565b600061437c82614231565b915061438783614231565b925082614397576143966143d1565b5b828206905092915050565b7f4e487b7100000000000000000000000000000000000000000000000000000000600052601160045260246000fd5b7f4e487b7100000000000000000000000000000000000000000000000000000000600052601260045260246000fd5b7f4e487b7100000000000000000000000000000000000000000000000000000000600052602260045260246000fd5b7f4e487b7100000000000000000000000000000000000000000000000000000000600052603260045260246000fd5b7f4e487b7100000000000000000000000000000000000000000000000000000000600052604160045260246000fd5b600080fd5b600080fd5b600080fd5b600080fd5b600080fd5b6000601f19601f8301169050919050565b7f74686973207175657374206973206e6f742076616c6964000000000000000000600082015250565b7f4552433732313a207472616e7366657220746f206e6f6e20455243373231526560008201527f63656976657220696d706c656d656e7465720000000000000000000000000000602082015250565b7f4552433732313a20746f6b656e20616c7265616479206d696e74656400000000600082015250565b7f4552433732313a207472616e7366657220746f20746865207a65726f2061646460008201527f7265737300000000000000000000000000000000000000000000000000000000602082015250565b7f4552433732313a20617070726f766520746f2063616c6c657200000000000000600082015250565b7f4552433732313a206f70657261746f7220717565727920666f72206e6f6e657860008201527f697374656e7420746f6b656e0000000000000000000000000000000000000000602082015250565b7f61646472657373206973206e6f74207265676973746572656421000000000000600082015250565b7f4552433732313a20617070726f76652063616c6c6572206973206e6f74206f7760008201527f6e6572206e6f7220617070726f76656420666f7220616c6c0000000000000000602082015250565b7f4552433732313a2062616c616e636520717565727920666f7220746865207a6560008201527f726f206164647265737300000000000000000000000000000000000000000000602082015250565b7f4552433732313a206f776e657220717565727920666f72206e6f6e657869737460008201527f656e7420746f6b656e0000000000000000000000000000000000000000000000602082015250565b7f4552433732313a206d696e7420746f20746865207a65726f2061646472657373600082015250565b7f4552433732313a20617070726f76656420717565727920666f72206e6f6e657860008201527f697374656e7420746f6b656e0000000000000000000000000000000000000000602082015250565b7f74686973206164647265737320616c72656164792068617320616e204e46542060008201527f666f722074686973207175657374210000000000000000000000000000000000602082015250565b7f4552433732313a207472616e73666572206f6620746f6b656e2074686174206960008201527f73206e6f74206f776e0000000000000000000000000000000000000000000000602082015250565b7f4e6f7420612076616c6964207175657374000000000000000000000000000000600082015250565b7f4552433732314d657461646174613a2055524920717565727920666f72206e6f60008201527f6e6578697374656e7420746f6b656e0000000000000000000000000000000000602082015250565b7f63616e206f6e6c792062652063616c6c65642066726f6d204e465420636f6e7460008201527f7261637400000000000000000000000000000000000000000000000000000000602082015250565b7f4552433732313a20617070726f76616c20746f2063757272656e74206f776e6560008201527f7200000000000000000000000000000000000000000000000000000000000000602082015250565b7f4552433732313a207472616e736665722063616c6c6572206973206e6f74206f60008201527f776e6572206e6f7220617070726f766564000000000000000000000000000000602082015250565b7f4d7573742062652061646d696e20666f72207468697320616374696f6e000000600082015250565b7f696e76616c696420726571756573742049440000000000000000000000000000600082015250565b614a0b816141bd565b8114614a1657600080fd5b50565b614a22816141cf565b8114614a2d57600080fd5b50565b614a39816141db565b8114614a4457600080fd5b50565b614a50816141e5565b8114614a5b57600080fd5b50565b614a6781614231565b8114614a7257600080fd5b5056fea2646970667358221220958bfe5079ad71f4470c2e2c0e64b2987ede73da4b121f83361cb7b8f0dcdb6364736f6c63430008060033",
  "immutableReferences": {},
  "source": "pragma solidity >=0.5.0 <0.9.0;\n\n/**\n * @title QuestCompleteNFT\n * @dev NFTs for completing course content on Discovery\n*/\n\nimport \"@openzeppelin/contracts/token/ERC721/ERC721.sol\";\n//import \"@openzeppelin/contracts/token/ERC721/extensions/ERC721URIStorage.sol\";\nimport \"./NFTStore.sol\";\nimport \"./ChainlinkNFT.sol\";\n\ncontract QuestCompleteNFT is ERC721{\n\n    NFTStore public masterStore;\n    ChainlinkNFT public checkNFT;\n    uint tokenID;\n    address private checkNFTAddress;\n    mapping (string => mapping (address => bool)) public NFTExists; // check if NFT already minted for this quest for this address/DID\n    mapping (address => mapping (string => string)) public getNFTURIsByAddress; //allows retrieval of URIs by address and quest\n    mapping (string => uint) public tokensMinted;\n    mapping (string => uint) public rarityThreshold;\n    mapping (string => uint[2]) public rarityPercentages;\n    mapping (address => mapping(string => Quest)) public Quests; //allows retrieval of Quest metadata in one struct. Can remove once NFT.storage is used\n    mapping (bytes32 => NFTData) public NFTRequests; // allows storage of parameters while awaiting Chainlink call\n\n    struct NFTData{\n        address to;\n        string URI;\n        string quest;\n        string did;\n        bool completed;\n        bool exists;\n    }\n\n    struct Quest {\n        address receiver;\n        string quest;\n        string URI;\n        uint timestamp;\n        bool exists;\n    }\n\n    event NFTRequestMade(address indexed to, string quest, bytes32 requestID);\n    event NFTMinted(address indexed _to, string indexed _tokenURI);\n\n    modifier onlyAdmin(){\n        require (masterStore.admins(msg.sender), \"Must be admin for this action\");\n        _;\n    }\n\n    modifier questExist(string memory _quest){\n        require(masterStore.approvedQuests(_quest), \"Not a valid quest\");\n        _;\n    }\n\n    constructor(address payable _masterStoreAddress, address payable _checkNFTAddress) ERC721(\"CompletedDiscoveryQuest\", \"CDQ\") public{\n        masterStore = NFTStore(_masterStoreAddress);\n        bool adminCheck = masterStore.admins(msg.sender);\n        require(adminCheck, \"deployer can't make NFT\");\n        checkNFT = ChainlinkNFT(_checkNFTAddress);\n        checkNFTAddress = _checkNFTAddress;\n    }\n\n    receive() external payable {\n\n    }\n\n    function mintToken(address _to , string memory _tokenURI, string memory questName, string memory _did) public {\n        //access control logic with chainlink?\n        require(masterStore.whiteList(_to), \"address is not registered!\");\n        require(masterStore.approvedQuests(questName), \"this quest is not valid\");\n        require(!NFTExists[questName][_to], \"this address already has an NFT for this quest!\");\n        bytes32 _requestID = checkNFT.requestCeramicData(_did, questName);\n        NFTRequests[_requestID] = NFTData({\n                    to : _to,\n                    URI : _tokenURI,\n                    quest : questName,\n                    did : _did,\n                    completed : false,\n                    exists : true\n\n        });\n        emit NFTRequestMade(_to, questName, _requestID);\n        \n    }\n\n    function finishMintToken(bytes32 _requestID) public {\n        require(msg.sender == checkNFTAddress, \"can only be called from NFT contract\");\n        require(NFTRequests[_requestID].exists, \"invalid request ID\");\n        tokenID++;\n        NFTData memory NFTMintData = NFTRequests[_requestID];\n        _mint(NFTMintData.to, tokenID);\n        NFTExists[NFTMintData.quest][NFTMintData.to] = true;\n        getNFTURIsByAddress[NFTMintData.to][NFTMintData.quest] = NFTMintData.URI;\n        Quest memory quest_to_add = Quest({\n            receiver : NFTMintData.to,\n            quest : NFTMintData.quest,\n            URI : NFTMintData.URI,\n            timestamp : block.timestamp,\n            exists : true\n        });\n        Quests[NFTMintData.to][NFTMintData.quest]= quest_to_add;\n        NFTMintData.completed = true;\n        emit NFTMinted(NFTMintData.to, NFTMintData.URI);\n    }\n\n    function setRarityThreshold(string memory _quest, uint _threshold) public onlyAdmin questExist(_quest){\n        require(_threshold >0);\n        rarityThreshold[_quest] = _threshold;\n\n    }\n\n    function setRarityPercentages(string memory _quest, uint[2] memory _percentages) public onlyAdmin questExist(_quest){\n        require(_percentages[0] >0 && _percentages[1]>0 && _percentages[0] <101 && _percentages[1]<101);\n        rarityPercentages[_quest] = _percentages;\n\n    }\n}",
  "sourcePath": "/home/jpick713/BlockChain_Apps/nftIPFS/contracts/QuestCompleteNFT.sol",
  "compiler": {
    "name": "solc",
    "version": "0.8.6+commit.11564f7e.Emscripten.clang"
  },
  "schemaVersion": "3.4.2",
  "updatedAt": "2021-08-14T18:57:51.310Z",
  "networkType": "ethereum",
  "devdoc": {
    "kind": "dev",
    "methods": {
      "approve(address,uint256)": {
        "details": "See {IERC721-approve}."
      },
      "balanceOf(address)": {
        "details": "See {IERC721-balanceOf}."
      },
      "getApproved(uint256)": {
        "details": "See {IERC721-getApproved}."
      },
      "isApprovedForAll(address,address)": {
        "details": "See {IERC721-isApprovedForAll}."
      },
      "name()": {
        "details": "See {IERC721Metadata-name}."
      },
      "ownerOf(uint256)": {
        "details": "See {IERC721-ownerOf}."
      },
      "safeTransferFrom(address,address,uint256)": {
        "details": "See {IERC721-safeTransferFrom}."
      },
      "safeTransferFrom(address,address,uint256,bytes)": {
        "details": "See {IERC721-safeTransferFrom}."
      },
      "setApprovalForAll(address,bool)": {
        "details": "See {IERC721-setApprovalForAll}."
      },
      "supportsInterface(bytes4)": {
        "details": "See {IERC165-supportsInterface}."
      },
      "symbol()": {
        "details": "See {IERC721Metadata-symbol}."
      },
      "tokenURI(uint256)": {
        "details": "See {IERC721Metadata-tokenURI}."
      },
      "transferFrom(address,address,uint256)": {
        "details": "See {IERC721-transferFrom}."
      }
    },
    "version": 1
  },
  "userdoc": {
    "kind": "user",
    "methods": {},
    "version": 1
  }
}